{"abi":[{"type":"constructor","inputs":[],"stateMutability":"nonpayable"},{"type":"function","name":"admin","inputs":[],"outputs":[{"name":"","type":"address","internalType":"address"}],"stateMutability":"view"},{"type":"function","name":"childTopics","inputs":[{"name":"","type":"uint32","internalType":"uint32"},{"name":"","type":"uint256","internalType":"uint256"}],"outputs":[{"name":"","type":"uint32","internalType":"uint32"}],"stateMutability":"view"},{"type":"function","name":"createTopic","inputs":[{"name":"name","type":"string","internalType":"string"},{"name":"parentId","type":"uint32","internalType":"uint32"}],"outputs":[{"name":"","type":"uint32","internalType":"uint32"}],"stateMutability":"nonpayable"},{"type":"function","name":"getChildTopics","inputs":[{"name":"parentId","type":"uint32","internalType":"uint32"}],"outputs":[{"name":"","type":"uint32[]","internalType":"uint32[]"}],"stateMutability":"view"},{"type":"function","name":"getRootTopics","inputs":[],"outputs":[{"name":"","type":"uint32[]","internalType":"uint32[]"}],"stateMutability":"view"},{"type":"function","name":"getTopic","inputs":[{"name":"topicId","type":"uint32","internalType":"uint32"}],"outputs":[{"name":"","type":"tuple","internalType":"struct TopicRegistry.Topic","components":[{"name":"id","type":"uint32","internalType":"uint32"},{"name":"name","type":"string","internalType":"string"},{"name":"parentId","type":"uint32","internalType":"uint32"},{"name":"isActive","type":"bool","internalType":"bool"},{"name":"createdAt","type":"uint64","internalType":"uint64"}]}],"stateMutability":"view"},{"type":"function","name":"getTopicIdByName","inputs":[{"name":"name","type":"string","internalType":"string"}],"outputs":[{"name":"","type":"uint32","internalType":"uint32"}],"stateMutability":"view"},{"type":"function","name":"isDescendant","inputs":[{"name":"childId","type":"uint32","internalType":"uint32"},{"name":"ancestorId","type":"uint32","internalType":"uint32"}],"outputs":[{"name":"","type":"bool","internalType":"bool"}],"stateMutability":"view"},{"type":"function","name":"setTopicActive","inputs":[{"name":"topicId","type":"uint32","internalType":"uint32"},{"name":"isActive","type":"bool","internalType":"bool"}],"outputs":[],"stateMutability":"nonpayable"},{"type":"function","name":"topicCount","inputs":[],"outputs":[{"name":"","type":"uint32","internalType":"uint32"}],"stateMutability":"view"},{"type":"function","name":"topicNameToId","inputs":[{"name":"","type":"string","internalType":"string"}],"outputs":[{"name":"","type":"uint32","internalType":"uint32"}],"stateMutability":"view"},{"type":"function","name":"topics","inputs":[{"name":"","type":"uint32","internalType":"uint32"}],"outputs":[{"name":"id","type":"uint32","internalType":"uint32"},{"name":"name","type":"string","internalType":"string"},{"name":"parentId","type":"uint32","internalType":"uint32"},{"name":"isActive","type":"bool","internalType":"bool"},{"name":"createdAt","type":"uint64","internalType":"uint64"}],"stateMutability":"view"},{"type":"function","name":"transferAdmin","inputs":[{"name":"newAdmin","type":"address","internalType":"address"}],"outputs":[],"stateMutability":"nonpayable"},{"type":"event","name":"AdminTransferred","inputs":[{"name":"previousAdmin","type":"address","indexed":true,"internalType":"address"},{"name":"newAdmin","type":"address","indexed":true,"internalType":"address"}],"anonymous":false},{"type":"event","name":"TopicCreated","inputs":[{"name":"topicId","type":"uint32","indexed":true,"internalType":"uint32"},{"name":"name","type":"string","indexed":false,"internalType":"string"},{"name":"parentId","type":"uint32","indexed":true,"internalType":"uint32"}],"anonymous":false},{"type":"event","name":"TopicUpdated","inputs":[{"name":"topicId","type":"uint32","indexed":true,"internalType":"uint32"},{"name":"name","type":"string","indexed":false,"internalType":"string"},{"name":"isActive","type":"bool","indexed":false,"internalType":"bool"}],"anonymous":false},{"type":"error","name":"InvalidParentTopic","inputs":[]},{"type":"error","name":"TopicAlreadyExists","inputs":[]},{"type":"error","name":"TopicNameEmpty","inputs":[]},{"type":"error","name":"TopicNotFound","inputs":[]},{"type":"error","name":"Unauthorized","inputs":[]}],"bytecode":{"object":"0x608060405234801561000f575f80fd5b50600380546001600160c01b031916336401000000000263ffffffff19161790556111a28061003d5f395ff3fe608060405234801561000f575f80fd5b50600436106100cb575f3560e01c8063a5e3a37f11610088578063f851a44011610063578063f851a440146101d8578063f94f9b8c1461020a578063fa7bc31e1461021d578063fcc1899f1461023d575f80fd5b8063a5e3a37f14610192578063e4e133f0146101b5578063f315f553146101c8575f80fd5b8063327e7faa146100cf5780635b5a130a146100ed578063634f196c14610111578063722e8f401461013957806375829def1461016a57806395e08da31461017f575b5f80fd5b6100d7610250565b6040516100e49190610b5a565b60405180910390f35b6101006100fb366004610bbb565b6102f7565b6040516100e4959493929190610c17565b61012461011f366004610ca1565b6103cd565b60405163ffffffff90911681526020016100e4565b610124610147366004610d05565b805160208183018101805160028252928201919093012091525463ffffffff1681565b61017d610178366004610db0565b6106ed565b005b61012461018d366004610dd6565b61077c565b6101a56101a0366004610e15565b6107ae565b60405190151581526020016100e4565b6100d76101c3366004610bbb565b610849565b6003546101249063ffffffff1681565b6003546101f290600160201b90046001600160a01b031681565b6040516001600160a01b0390911681526020016100e4565b610124610218366004610e46565b6108da565b61023061022b366004610bbb565b61091e565b6040516100e49190610e6e565b61017d61024b366004610ed3565b610a80565b5f8052600160209081527fa6eef7e35abe7026729641147f7915573c7e97b47efa546f5f6e3230263bcb4980546040805182850281018501909152818152606093909291908301828280156102ed57602002820191905f5260205f20905f905b82829054906101000a900463ffffffff1663ffffffff16815260200190600401906020826003010492830192600103820291508084116102b05790505b5050505050905090565b5f602081905290815260409020805460018201805463ffffffff909216929161031f90610f0c565b80601f016020809104026020016040519081016040528092919081815260200182805461034b90610f0c565b80156103965780601f1061036d57610100808354040283529160200191610396565b820191905f5260205f20905b81548152906001019060200180831161037957829003601f168201915b5050506002909301549192505063ffffffff81169060ff600160201b8204169067ffffffffffffffff650100000000009091041685565b6003545f90600160201b90046001600160a01b03163314610400576040516282b42960e81b815260040160405180910390fd5b5f8390036104215760405163228f1b7160e11b815260040160405180910390fd5b60028484604051610433929190610f44565b9081526040519081900360200190205463ffffffff1615610467576040516394b0e08160e01b815260040160405180910390fd5b63ffffffff82161580159061049b575063ffffffff82165f90815260208190526040902060020154600160201b900460ff16155b156104b95760405163b389d35560e01b815260040160405180910390fd5b6003805463ffffffff16905f6104ce83610f67565b91906101000a81548163ffffffff021916908363ffffffff160217905550505f60035f9054906101000a900463ffffffff1690506040518060a001604052808263ffffffff16815260200186868080601f0160208091040260200160405190810160405280939291908181526020018383808284375f92018290525093855250505063ffffffff868116602080850191909152600160408086018290524267ffffffffffffffff166060909601959095528683168452838252939092208451815463ffffffff191692169190911781559083015190918201906105b19082610fd5565b5060408281015160029283018054606086015160809096015167ffffffffffffffff1665010000000000026cffffffffffffffff000000000019961515600160201b0264ffffffffff1990921663ffffffff9094169390931717949094161790925590518291906106259088908890610f44565b908152604051908190036020019020805463ffffffff92831663ffffffff1990911617905583161561069c5763ffffffff8084165f90815260016020818152604083208054928301815583529091206008820401805484841660046007909416939093026101000a92830292909302199092161790555b8263ffffffff168163ffffffff167fd42a180e3b80cf10c92c53da4676494a1346f0bec46440e1fde9973988e2c0a487876040516106db929190611095565b60405180910390a390505b9392505050565b600354600160201b90046001600160a01b0316331461071e576040516282b42960e81b815260040160405180910390fd5b600380546001600160a01b03838116600160201b818102640100000000600160c01b031985161790945560405193909204169182907ff8ccb027dfcd135e000e9d45e6cc2d662578a8825d4c45b5e32e0adf67e79ec6905f90a35050565b5f6002838360405161078f929190610f44565b9081526040519081900360200190205463ffffffff1690505b92915050565b5f63ffffffff831615806107c6575063ffffffff8216155b156107d257505f6107a8565b8260645f5b63ffffffff8316158015906107eb57508181105b1561083e578463ffffffff168363ffffffff160361080f57600193505050506107a8565b63ffffffff9283165f908152602081905260409020600201549092169180610836816110c3565b9150506107d7565b505f95945050505050565b63ffffffff81165f908152600160209081526040918290208054835181840281018401909452808452606093928301828280156108ce57602002820191905f5260205f20905f905b82829054906101000a900463ffffffff1663ffffffff16815260200190600401906020826003010492830192600103820291508084116108915790505b50505050509050919050565b6001602052815f5260405f2081815481106108f3575f80fd5b905f5260205f209060089182820401919006600402915091509054906101000a900463ffffffff1681565b6040805160a0810182525f808252606060208301819052928201819052918101829052608081019190915263ffffffff8083165f908152602081905260408120549091169003610981576040516304a29d5560e01b815260040160405180910390fd5b63ffffffff8083165f9081526020818152604091829020825160a0810190935280549093168252600183018054929392918401916109be90610f0c565b80601f01602080910402602001604051908101604052809291908181526020018280546109ea90610f0c565b8015610a355780601f10610a0c57610100808354040283529160200191610a35565b820191905f5260205f20905b815481529060010190602001808311610a1857829003601f168201915b50505091835250506002919091015463ffffffff81166020830152600160201b810460ff161515604083015265010000000000900467ffffffffffffffff1660609091015292915050565b600354600160201b90046001600160a01b03163314610ab1576040516282b42960e81b815260040160405180910390fd5b63ffffffff8083165f908152602081905260408120549091169003610ae9576040516304a29d5560e01b815260040160405180910390fd5b63ffffffff82165f818152602081905260409081902060028101805464ff000000001916600160201b8615150217905590517f7bb4c2a952d47662f26bb4c0666c24e24c6f334f65130e9a0d88e8356a80018e91610b4e9160019091019085906110db565b60405180910390a25050565b602080825282518282018190525f9190848201906040850190845b81811015610b9757835163ffffffff1683529284019291840191600101610b75565b50909695505050505050565b803563ffffffff81168114610bb6575f80fd5b919050565b5f60208284031215610bcb575f80fd5b6106e682610ba3565b5f81518084525f5b81811015610bf857602081850181015186830182015201610bdc565b505f602082860101526020601f19601f83011685010191505092915050565b5f63ffffffff808816835260a06020840152610c3660a0840188610bd4565b9516604083015250911515606083015267ffffffffffffffff1660809091015292915050565b5f8083601f840112610c6c575f80fd5b50813567ffffffffffffffff811115610c83575f80fd5b602083019150836020828501011115610c9a575f80fd5b9250929050565b5f805f60408486031215610cb3575f80fd5b833567ffffffffffffffff811115610cc9575f80fd5b610cd586828701610c5c565b9094509250610ce8905060208501610ba3565b90509250925092565b634e487b7160e01b5f52604160045260245ffd5b5f60208284031215610d15575f80fd5b813567ffffffffffffffff80821115610d2c575f80fd5b818401915084601f830112610d3f575f80fd5b813581811115610d5157610d51610cf1565b604051601f8201601f19908116603f01168101908382118183101715610d7957610d79610cf1565b81604052828152876020848701011115610d91575f80fd5b826020860160208301375f928101602001929092525095945050505050565b5f60208284031215610dc0575f80fd5b81356001600160a01b03811681146106e6575f80fd5b5f8060208385031215610de7575f80fd5b823567ffffffffffffffff811115610dfd575f80fd5b610e0985828601610c5c565b90969095509350505050565b5f8060408385031215610e26575f80fd5b610e2f83610ba3565b9150610e3d60208401610ba3565b90509250929050565b5f8060408385031215610e57575f80fd5b610e6083610ba3565b946020939093013593505050565b602081525f63ffffffff808451166020840152602084015160a06040850152610e9a60c0850182610bd4565b905081604086015116606085015260608501511515608085015267ffffffffffffffff60808601511660a0850152809250505092915050565b5f8060408385031215610ee4575f80fd5b610eed83610ba3565b915060208301358015158114610f01575f80fd5b809150509250929050565b600181811c90821680610f2057607f821691505b602082108103610f3e57634e487b7160e01b5f52602260045260245ffd5b50919050565b818382375f9101908152919050565b634e487b7160e01b5f52601160045260245ffd5b5f63ffffffff808316818103610f7f57610f7f610f53565b6001019392505050565b601f821115610fd057805f5260205f20601f840160051c81016020851015610fae5750805b601f840160051c820191505b81811015610fcd575f8155600101610fba565b50505b505050565b815167ffffffffffffffff811115610fef57610fef610cf1565b61100381610ffd8454610f0c565b84610f89565b602080601f831160018114611036575f841561101f5750858301515b5f19600386901b1c1916600185901b17855561108d565b5f85815260208120601f198616915b8281101561106457888601518255948401946001909101908401611045565b508582101561108157878501515f19600388901b60f8161c191681555b505060018460011b0185555b505050505050565b60208152816020820152818360408301375f818301604090810191909152601f909201601f19160101919050565b5f600182016110d4576110d4610f53565b5060010190565b604081525f8084546110ec81610f0c565b806040860152606060018084165f811461110d576001811461112957611158565b60ff1985166060890152606084151560051b8901019550611158565b895f526020805f205f5b8681101561114e5781548b8201870152908401908201611133565b8a01606001975050505b5050505084151560208501525090506106e656fea2646970667358221220fce8492bde905e7314b5e0401c186e953065a52df019513e369964991609723264736f6c63430008180033","linkReferences":{}},"methodIdentifiers":{"admin()":"f851a440","childTopics(uint32,uint256)":"f94f9b8c","createTopic(string,uint32)":"634f196c","getChildTopics(uint32)":"e4e133f0","getRootTopics()":"327e7faa","getTopic(uint32)":"fa7bc31e","getTopicIdByName(string)":"95e08da3","isDescendant(uint32,uint32)":"a5e3a37f","setTopicActive(uint32,bool)":"fcc1899f","topicCount()":"f315f553","topicNameToId(string)":"722e8f40","topics(uint32)":"5b5a130a","transferAdmin(address)":"75829def"},"id":22}