{"abi":[{"type":"constructor","inputs":[{"name":"_topicRegistry","type":"address","internalType":"address"},{"name":"_userContract","type":"address","internalType":"address"}],"stateMutability":"nonpayable"},{"type":"function","name":"attemptChallenge","inputs":[{"name":"challengeId","type":"uint64","internalType":"uint64"},{"name":"answerHash","type":"bytes32","internalType":"bytes32"}],"outputs":[],"stateMutability":"nonpayable"},{"type":"function","name":"challengeCount","inputs":[],"outputs":[{"name":"","type":"uint64","internalType":"uint64"}],"stateMutability":"view"},{"type":"function","name":"challenges","inputs":[{"name":"","type":"uint64","internalType":"uint64"}],"outputs":[{"name":"id","type":"uint64","internalType":"uint64"},{"name":"creator","type":"address","internalType":"address"},{"name":"topicId","type":"uint32","internalType":"uint32"},{"name":"difficulty","type":"uint8","internalType":"enum Challenge.DifficultyLevel"},{"name":"status","type":"uint8","internalType":"enum Challenge.ChallengeStatus"},{"name":"questionHash","type":"bytes32","internalType":"bytes32"},{"name":"correctAnswerHash","type":"bytes32","internalType":"bytes32"},{"name":"createdAt","type":"uint64","internalType":"uint64"},{"name":"totalAttempts","type":"uint32","internalType":"uint32"},{"name":"correctAttempts","type":"uint32","internalType":"uint32"}],"stateMutability":"view"},{"type":"function","name":"createChallenge","inputs":[{"name":"topicId","type":"uint32","internalType":"uint32"},{"name":"difficulty","type":"uint8","internalType":"enum Challenge.DifficultyLevel"},{"name":"questionHash","type":"bytes32","internalType":"bytes32"},{"name":"correctAnswerHash","type":"bytes32","internalType":"bytes32"}],"outputs":[{"name":"","type":"uint64","internalType":"uint64"}],"stateMutability":"nonpayable"},{"type":"function","name":"getChallenge","inputs":[{"name":"challengeId","type":"uint64","internalType":"uint64"}],"outputs":[{"name":"","type":"tuple","internalType":"struct Challenge.ChallengeData","components":[{"name":"id","type":"uint64","internalType":"uint64"},{"name":"creator","type":"address","internalType":"address"},{"name":"topicId","type":"uint32","internalType":"uint32"},{"name":"difficulty","type":"uint8","internalType":"enum Challenge.DifficultyLevel"},{"name":"status","type":"uint8","internalType":"enum Challenge.ChallengeStatus"},{"name":"questionHash","type":"bytes32","internalType":"bytes32"},{"name":"correctAnswerHash","type":"bytes32","internalType":"bytes32"},{"name":"createdAt","type":"uint64","internalType":"uint64"},{"name":"totalAttempts","type":"uint32","internalType":"uint32"},{"name":"correctAttempts","type":"uint32","internalType":"uint32"}]}],"stateMutability":"view"},{"type":"function","name":"getDifficultyMultiplier","inputs":[{"name":"difficulty","type":"uint8","internalType":"enum Challenge.DifficultyLevel"}],"outputs":[{"name":"","type":"uint16","internalType":"uint16"}],"stateMutability":"pure"},{"type":"function","name":"getTopicChallenges","inputs":[{"name":"topicId","type":"uint32","internalType":"uint32"}],"outputs":[{"name":"","type":"uint64[]","internalType":"uint64[]"}],"stateMutability":"view"},{"type":"function","name":"getUserAttempt","inputs":[{"name":"user","type":"address","internalType":"address"},{"name":"challengeId","type":"uint64","internalType":"uint64"}],"outputs":[{"name":"","type":"tuple","internalType":"struct Challenge.ChallengeAttempt","components":[{"name":"user","type":"address","internalType":"address"},{"name":"challengeId","type":"uint64","internalType":"uint64"},{"name":"answerHash","type":"bytes32","internalType":"bytes32"},{"name":"isCorrect","type":"bool","internalType":"bool"},{"name":"attemptedAt","type":"uint64","internalType":"uint64"}]}],"stateMutability":"view"},{"type":"function","name":"getUserChallengeHistory","inputs":[{"name":"user","type":"address","internalType":"address"}],"outputs":[{"name":"","type":"uint64[]","internalType":"uint64[]"}],"stateMutability":"view"},{"type":"function","name":"hasAttempted","inputs":[{"name":"user","type":"address","internalType":"address"},{"name":"challengeId","type":"uint64","internalType":"uint64"}],"outputs":[{"name":"","type":"bool","internalType":"bool"}],"stateMutability":"view"},{"type":"function","name":"reputationEngine","inputs":[],"outputs":[{"name":"","type":"address","internalType":"address"}],"stateMutability":"view"},{"type":"function","name":"setReputationEngine","inputs":[{"name":"_reputationEngine","type":"address","internalType":"address"}],"outputs":[],"stateMutability":"nonpayable"},{"type":"function","name":"topicChallenges","inputs":[{"name":"","type":"uint32","internalType":"uint32"},{"name":"","type":"uint256","internalType":"uint256"}],"outputs":[{"name":"","type":"uint64","internalType":"uint64"}],"stateMutability":"view"},{"type":"function","name":"topicRegistry","inputs":[],"outputs":[{"name":"","type":"address","internalType":"contract TopicRegistry"}],"stateMutability":"view"},{"type":"function","name":"updateChallengeStatus","inputs":[{"name":"challengeId","type":"uint64","internalType":"uint64"},{"name":"newStatus","type":"uint8","internalType":"enum Challenge.ChallengeStatus"}],"outputs":[],"stateMutability":"nonpayable"},{"type":"function","name":"userAttempts","inputs":[{"name":"","type":"address","internalType":"address"},{"name":"","type":"uint64","internalType":"uint64"}],"outputs":[{"name":"user","type":"address","internalType":"address"},{"name":"challengeId","type":"uint64","internalType":"uint64"},{"name":"answerHash","type":"bytes32","internalType":"bytes32"},{"name":"isCorrect","type":"bool","internalType":"bool"},{"name":"attemptedAt","type":"uint64","internalType":"uint64"}],"stateMutability":"view"},{"type":"function","name":"userChallengeHistory","inputs":[{"name":"","type":"address","internalType":"address"},{"name":"","type":"uint256","internalType":"uint256"}],"outputs":[{"name":"","type":"uint64","internalType":"uint64"}],"stateMutability":"view"},{"type":"function","name":"userContract","inputs":[],"outputs":[{"name":"","type":"address","internalType":"contract User"}],"stateMutability":"view"},{"type":"event","name":"ChallengeAttempted","inputs":[{"name":"challengeId","type":"uint64","indexed":true,"internalType":"uint64"},{"name":"user","type":"address","indexed":true,"internalType":"address"},{"name":"isCorrect","type":"bool","indexed":false,"internalType":"bool"},{"name":"timestamp","type":"uint64","indexed":false,"internalType":"uint64"}],"anonymous":false},{"type":"event","name":"ChallengeCreated","inputs":[{"name":"challengeId","type":"uint64","indexed":true,"internalType":"uint64"},{"name":"creator","type":"address","indexed":true,"internalType":"address"},{"name":"topicId","type":"uint32","indexed":true,"internalType":"uint32"},{"name":"difficulty","type":"uint8","indexed":false,"internalType":"enum Challenge.DifficultyLevel"}],"anonymous":false},{"type":"event","name":"ChallengeStatusUpdated","inputs":[{"name":"challengeId","type":"uint64","indexed":true,"internalType":"uint64"},{"name":"newStatus","type":"uint8","indexed":false,"internalType":"enum Challenge.ChallengeStatus"}],"anonymous":false},{"type":"error","name":"AlreadyAttempted","inputs":[]},{"type":"error","name":"ChallengeNotActive","inputs":[]},{"type":"error","name":"ChallengeNotFound","inputs":[]},{"type":"error","name":"EmptyHash","inputs":[]},{"type":"error","name":"InvalidTopic","inputs":[]},{"type":"error","name":"Unauthorized","inputs":[]},{"type":"error","name":"UserNotRegistered","inputs":[]}],"bytecode":{"object":"0x60c060405234801562000010575f80fd5b50604051620018d5380380620018d5833981016040819052620000339162000077565b6001600160a01b039182166080521660a052600480546001600160401b0319169055620000ad565b80516001600160a01b038116811462000072575f80fd5b919050565b5f806040838503121562000089575f80fd5b62000094836200005b565b9150620000a4602084016200005b565b90509250929050565b60805160a0516117ea620000eb5f395f818161018a0152818161059f0152610e5c01525f81816101c9015281816108df0152610db001526117ea5ff3fe608060405234801561000f575f80fd5b5060043610610111575f3560e01c80639d7db5be1161009e578063afac25d81161006e578063afac25d81461031e578063c3f677ef14610424578063c7ab20391461043e578063ca19f5e1146104d8578063de756d11146104eb575f80fd5b80639d7db5be1461023c578063a106e5d91461025c578063a2460e0c1461026f578063a2f057251461030b575f80fd5b80635000596b116100e45780635000596b146101855780635055735b146101c457806356a17639146101eb5780636bb5090c146102165780638ae4dd4014610229575f80fd5b806325ea903c146101155780632b242d911461012a57806332402d101461015257806337455cd614610165575b5f80fd5b6101286101233660046111f9565b610511565b005b61013d610138366004611237565b610846565b60405190151581526020015b60405180910390f35b61012861016036600461126e565b610885565b6101786101733660046112ae565b6109fe565b60405161014991906112d0565b6101ac7f000000000000000000000000000000000000000000000000000000000000000081565b6040516001600160a01b039091168152602001610149565b6101ac7f000000000000000000000000000000000000000000000000000000000000000081565b6101fe6101f936600461131c565b610a95565b6040516001600160401b039091168152602001610149565b610128610224366004611338565b610adc565b610178610237366004611338565b610b3d565b61024f61024a366004611353565b610bae565b60405161014991906113a6565b6101fe61026a366004611469565b610d50565b6102cf61027d366004611237565b600160208181525f938452604080852090915291835291208054918101546002909101546001600160a01b038316926001600160401b03600160a01b9091048116929160ff8116916101009091041685565b604080516001600160a01b0390961686526001600160401b0394851660208701528501929092521515606084015216608082015260a001610149565b6004546101fe906001600160401b031681565b6103cd61032c366004611237565b6040805160a0810182525f80825260208201819052918101829052606081018290526080810191909152506001600160a01b039182165f9081526001602081815260408084206001600160401b039586168552825292839020835160a08101855281549687168152600160a01b90960485169186019190915290810154918401919091526002015460ff811615156060840152610100900416608082015290565b604051610149919081516001600160a01b031681526020808301516001600160401b039081169183019190915260408084015190830152606080840151151590830152608092830151169181019190915260a00190565b6004546101ac90600160401b90046001600160a01b031681565b6104c261044c366004611353565b5f60208190529081526040902080546001820154600283015460038401546004909401546001600160401b0380851695600160401b8087046001600160a01b031696600160e01b900463ffffffff9081169660ff80821697610100909204169590948116928104821691600160601b909104168a565b6040516101499a99989796959493929190611485565b6101fe6104e6366004611517565b610d69565b6104fe6104f9366004611558565b611177565b60405161ffff9091168152602001610149565b6001600160401b038083165f9081526020819052604081208054909216900361054d57604051632b8829ff60e21b815260040160405180910390fd5b5f6001820154610100900460ff16600281111561056c5761056c61136e565b1461058a5760405163beb11d3b60e01b815260040160405180910390fd5b60405163c3c5a54760e01b81523360048201527f00000000000000000000000000000000000000000000000000000000000000006001600160a01b03169063c3c5a54790602401602060405180830381865afa1580156105ec573d5f803e3d5ffd5b505050506040513d601f19601f820116820180604052508101906106109190611580565b61062d57604051632163950f60e01b815260040160405180910390fd5b335f9081526001602090815260408083206001600160401b03808816855292529091206002015461010090041615610678576040516343cc695960e01b815260040160405180910390fd5b6003818101546040805160a081018252338082526001600160401b0388811660208085018281528587018b8152978b1460608701818152428616608089019081525f88815260018087528b822088835287528b82209a518b5496516001600160a01b039091166001600160e01b031990971696909617600160a01b968a1696909602959095178a559a5189850155905160029889018054925168ffffffffffffffffff1990931691151568ffffffffffffffff0019169190911761010092881683021790559589529582529587208054968701815587529095206004808604909101805495909716600890810290930a9182021990941694029390931790935583018054600160401b900463ffffffff1691610793836115ad565b91906101000a81548163ffffffff021916908363ffffffff1602179055505080156107f757600482018054600160601b900463ffffffff1690600c6107d7836115ad565b91906101000a81548163ffffffff021916908363ffffffff160217905550505b6040805182151581526001600160401b0342811660208301523392908716917eddbb3b60e8754b8b6436372d3d1f9cc12c40806ca50de92897aba0d51fa9bc910160405180910390a350505050565b6001600160a01b0382165f9081526001602090815260408083206001600160401b03808616855292529091206002015461010090041615155b92915050565b6001600160401b038083165f908152602081905260408120805490921690036108c157604051632b8829ff60e21b815260040160405180910390fd5b8054600160401b90046001600160a01b0316331480159061097357507f00000000000000000000000000000000000000000000000000000000000000006001600160a01b031663f851a4406040518163ffffffff1660e01b8152600401602060405180830381865afa158015610939573d5f803e3d5ffd5b505050506040513d601f19601f8201168201806040525081019061095d91906115cf565b6001600160a01b0316336001600160a01b031614155b15610990576040516282b42960e81b815260040160405180910390fd5b60018101805483919061ff0019166101008360028111156109b3576109b361136e565b0217905550826001600160401b03167ff25fbdb99b596a3261b9e894491a3f5fd8c770dd834bcb98bbff31a329f12340836040516109f191906115ea565b60405180910390a2505050565b63ffffffff81165f90815260036020908152604091829020805483518184028101840190945280845260609392830182828015610a8957602002820191905f5260205f20905f905b82829054906101000a90046001600160401b03166001600160401b031681526020019060080190602082600701049283019260010382029150808411610a465790505b50505050509050919050565b6003602052815f5260405f208181548110610aae575f80fd5b905f5260205f209060049182820401919006600802915091509054906101000a90046001600160401b031681565b600454600160401b90046001600160a01b031615610b0c576040516282b42960e81b815260040160405180910390fd5b600480546001600160a01b03909216600160401b0268010000000000000000600160e01b0319909216919091179055565b6001600160a01b0381165f90815260026020908152604091829020805483518184028101840190945280845260609392830182828015610a89575f91825260209182902080546001600160401b03168452908202830192909160089101808411610a46575094979650505050505050565b610c0160408051610140810182525f8082526020820181905291810182905290606082019081526020015f81525f6020820181905260408201819052606082018190526080820181905260a09091015290565b6001600160401b038083165f908152602081905260408120549091169003610c3c57604051632b8829ff60e21b815260040160405180910390fd5b6001600160401b038281165f908152602081815260409182902082516101408101845281549485168152600160401b85046001600160a01b031692810192909252600160e01b90930463ffffffff16918101919091526001820154909190606083019060ff166003811115610cb357610cb361136e565b6003811115610cc457610cc461136e565b81526020016001820160019054906101000a900460ff166002811115610cec57610cec61136e565b6002811115610cfd57610cfd61136e565b815260028201546020820152600382015460408201526004909101546001600160401b038116606083015263ffffffff600160401b820481166080840152600160601b9091041660a09091015292915050565b6002602052815f5260405f208181548110610aae575f80fd5b5f821580610d75575081155b15610d9357604051631c37cddf60e21b815260040160405180910390fd5b604051637d3de18f60e11b815263ffffffff861660048201525f907f00000000000000000000000000000000000000000000000000000000000000006001600160a01b03169063fa7bc31e906024015f60405180830381865afa158015610dfc573d5f803e3d5ffd5b505050506040513d5f823e601f3d908101601f19168201604052610e23919081019061167a565b90508060600151610e47576040516369585f9960e01b815260040160405180910390fd5b60405163c3c5a54760e01b81523360048201527f00000000000000000000000000000000000000000000000000000000000000006001600160a01b03169063c3c5a54790602401602060405180830381865afa158015610ea9573d5f803e3d5ffd5b505050506040513d601f19601f82011682018060405250810190610ecd9190611580565b610eea57604051632163950f60e01b815260040160405180910390fd5b600480546001600160401b0316905f610f028361178b565b91906101000a8154816001600160401b0302191690836001600160401b03160217905550505f60045f9054906101000a90046001600160401b03169050604051806101400160405280826001600160401b03168152602001336001600160a01b031681526020018863ffffffff168152602001876003811115610f8757610f8761136e565b81526020015f8152602080820188905260408083018890526001600160401b034281166060808601919091525f6080860181905260a090950185905286821685528484529382902085518154948701519387015163ffffffff16600160e01b026001600160e01b036001600160a01b03909516600160401b026001600160e01b0319909616919093161793909317919091161781559082015160018083018054909160ff19909116908360038111156110425761104261136e565b0217905550608082015160018201805461ff00191661010083600281111561106c5761106c61136e565b021790555060a0820151600282015560c082015160038083019190915560e083015160049283018054610100808701516101209097015163ffffffff908116600160601b0263ffffffff60601b19988216600160401b026bffffffffffffffffffffffff199094166001600160401b0396871617939093179790971691909117909155938b165f8181526020848152604080832080546001810182559084529190922095810490950180548885169690951660080290960a85810293021990931691909117909355513391907f23ffd9e0ced98ec29731aef0d368e2182f19fef099db181ccf973f7af9b7fb9390611165908b906117a6565b60405180910390a49695505050505050565b5f8082600381111561118b5761118b61136e565b036111985750600a919050565b60018260038111156111ac576111ac61136e565b036111b95750600f919050565b60028260038111156111cd576111cd61136e565b036111da57506019919050565b506028919050565b6001600160401b03811681146111f6575f80fd5b50565b5f806040838503121561120a575f80fd5b8235611215816111e2565b946020939093013593505050565b6001600160a01b03811681146111f6575f80fd5b5f8060408385031215611248575f80fd5b823561125381611223565b91506020830135611263816111e2565b809150509250929050565b5f806040838503121561127f575f80fd5b823561128a816111e2565b9150602083013560038110611263575f80fd5b63ffffffff811681146111f6575f80fd5b5f602082840312156112be575f80fd5b81356112c98161129d565b9392505050565b602080825282518282018190525f9190848201906040850190845b818110156113105783516001600160401b0316835292840192918401916001016112eb565b50909695505050505050565b5f806040838503121561132d575f80fd5b82356112158161129d565b5f60208284031215611348575f80fd5b81356112c981611223565b5f60208284031215611363575f80fd5b81356112c9816111e2565b634e487b7160e01b5f52602160045260245ffd5b600481106113925761139261136e565b9052565b600381106113925761139261136e565b81516001600160401b03168152610140810160208301516113d260208401826001600160a01b03169052565b5060408301516113ea604084018263ffffffff169052565b5060608301516113fd6060840182611382565b5060808301516114106080840182611396565b5060a083015160a083015260c083015160c083015260e083015161143f60e08401826001600160401b03169052565b506101008381015163ffffffff908116918401919091526101209384015116929091019190915290565b5f806040838503121561147a575f80fd5b823561121581611223565b6001600160401b038b811682526001600160a01b038b16602083015263ffffffff8a81166040840152610140830191906114c2606085018c611382565b6114cf608085018b611396565b60a084019890985260c08301969096529390941660e08501529084166101008401529092166101209091015295945050505050565b803560048110611512575f80fd5b919050565b5f805f806080858703121561152a575f80fd5b84356115358161129d565b935061154360208601611504565b93969395505050506040820135916060013590565b5f60208284031215611568575f80fd5b6112c982611504565b80518015158114611512575f80fd5b5f60208284031215611590575f80fd5b6112c982611571565b634e487b7160e01b5f52601160045260245ffd5b5f63ffffffff8083168181036115c5576115c5611599565b6001019392505050565b5f602082840312156115df575f80fd5b81516112c981611223565b6020810161087f8284611396565b634e487b7160e01b5f52604160045260245ffd5b60405160a081016001600160401b038111828210171561162e5761162e6115f8565b60405290565b604051601f8201601f191681016001600160401b038111828210171561165c5761165c6115f8565b604052919050565b80516115128161129d565b8051611512816111e2565b5f602080838503121561168b575f80fd5b82516001600160401b03808211156116a1575f80fd5b9084019060a082870312156116b4575f80fd5b6116bc61160c565b82516116c78161129d565b815282840151828111156116d9575f80fd5b8301601f810188136116e9575f80fd5b8051838111156116fb576116fb6115f8565b61170d601f8201601f19168701611634565b93508084528886828401011115611722575f80fd5b5f5b8181101561173f578281018701518582018801528601611724565b505f8682860101525050818482015261175a60408401611664565b604082015261176b60608401611571565b606082015261177c6080840161166f565b60808201529695505050505050565b5f6001600160401b038083168181036115c5576115c5611599565b6020810161087f828461138256fea2646970667358221220a232e78b18488ab89a0ac7d308fdaf8fc3b2e9816b8d065255c5677b15ff79c664736f6c63430008180033","linkReferences":{}},"methodIdentifiers":{"attemptChallenge(uint64,bytes32)":"25ea903c","challengeCount()":"a2f05725","challenges(uint64)":"c7ab2039","createChallenge(uint32,uint8,bytes32,bytes32)":"ca19f5e1","getChallenge(uint64)":"9d7db5be","getDifficultyMultiplier(uint8)":"de756d11","getTopicChallenges(uint32)":"37455cd6","getUserAttempt(address,uint64)":"afac25d8","getUserChallengeHistory(address)":"8ae4dd40","hasAttempted(address,uint64)":"2b242d91","reputationEngine()":"c3f677ef","setReputationEngine(address)":"6bb5090c","topicChallenges(uint32,uint256)":"56a17639","topicRegistry()":"5055735b","updateChallengeStatus(uint64,uint8)":"32402d10","userAttempts(address,uint64)":"a2460e0c","userChallengeHistory(address,uint256)":"a106e5d9","userContract()":"5000596b"},"id":19}