{"abi":[{"type":"constructor","inputs":[],"stateMutability":"nonpayable"},{"type":"function","name":"UPGRADE_INTERFACE_VERSION","inputs":[],"outputs":[{"name":"","type":"string","internalType":"string"}],"stateMutability":"view"},{"type":"function","name":"attemptChallenge","inputs":[{"name":"challengeId","type":"uint64","internalType":"uint64"},{"name":"answerHash","type":"bytes32","internalType":"bytes32"}],"outputs":[],"stateMutability":"nonpayable"},{"type":"function","name":"challengeCount","inputs":[],"outputs":[{"name":"","type":"uint64","internalType":"uint64"}],"stateMutability":"view"},{"type":"function","name":"challenges","inputs":[{"name":"","type":"uint64","internalType":"uint64"}],"outputs":[{"name":"id","type":"uint64","internalType":"uint64"},{"name":"creator","type":"address","internalType":"address"},{"name":"topicId","type":"uint32","internalType":"uint32"},{"name":"difficulty","type":"uint8","internalType":"enum Challenge.DifficultyLevel"},{"name":"status","type":"uint8","internalType":"enum Challenge.ChallengeStatus"},{"name":"questionHash","type":"bytes32","internalType":"bytes32"},{"name":"correctAnswerHash","type":"bytes32","internalType":"bytes32"},{"name":"createdAt","type":"uint64","internalType":"uint64"},{"name":"totalAttempts","type":"uint32","internalType":"uint32"},{"name":"correctAttempts","type":"uint32","internalType":"uint32"}],"stateMutability":"view"},{"type":"function","name":"createChallenge","inputs":[{"name":"topicId","type":"uint32","internalType":"uint32"},{"name":"difficulty","type":"uint8","internalType":"enum Challenge.DifficultyLevel"},{"name":"questionHash","type":"bytes32","internalType":"bytes32"},{"name":"correctAnswerHash","type":"bytes32","internalType":"bytes32"}],"outputs":[{"name":"","type":"uint64","internalType":"uint64"}],"stateMutability":"nonpayable"},{"type":"function","name":"getChallenge","inputs":[{"name":"challengeId","type":"uint64","internalType":"uint64"}],"outputs":[{"name":"","type":"tuple","internalType":"struct Challenge.ChallengeData","components":[{"name":"id","type":"uint64","internalType":"uint64"},{"name":"creator","type":"address","internalType":"address"},{"name":"topicId","type":"uint32","internalType":"uint32"},{"name":"difficulty","type":"uint8","internalType":"enum Challenge.DifficultyLevel"},{"name":"status","type":"uint8","internalType":"enum Challenge.ChallengeStatus"},{"name":"questionHash","type":"bytes32","internalType":"bytes32"},{"name":"correctAnswerHash","type":"bytes32","internalType":"bytes32"},{"name":"createdAt","type":"uint64","internalType":"uint64"},{"name":"totalAttempts","type":"uint32","internalType":"uint32"},{"name":"correctAttempts","type":"uint32","internalType":"uint32"}]}],"stateMutability":"view"},{"type":"function","name":"getDifficultyMultiplier","inputs":[{"name":"difficulty","type":"uint8","internalType":"enum Challenge.DifficultyLevel"}],"outputs":[{"name":"","type":"uint16","internalType":"uint16"}],"stateMutability":"pure"},{"type":"function","name":"getTopicChallenges","inputs":[{"name":"topicId","type":"uint32","internalType":"uint32"}],"outputs":[{"name":"","type":"uint64[]","internalType":"uint64[]"}],"stateMutability":"view"},{"type":"function","name":"getUserAttempt","inputs":[{"name":"user","type":"address","internalType":"address"},{"name":"challengeId","type":"uint64","internalType":"uint64"}],"outputs":[{"name":"","type":"tuple","internalType":"struct Challenge.ChallengeAttempt","components":[{"name":"user","type":"address","internalType":"address"},{"name":"challengeId","type":"uint64","internalType":"uint64"},{"name":"answerHash","type":"bytes32","internalType":"bytes32"},{"name":"isCorrect","type":"bool","internalType":"bool"},{"name":"attemptedAt","type":"uint64","internalType":"uint64"}]}],"stateMutability":"view"},{"type":"function","name":"getUserChallengeHistory","inputs":[{"name":"user","type":"address","internalType":"address"}],"outputs":[{"name":"","type":"uint64[]","internalType":"uint64[]"}],"stateMutability":"view"},{"type":"function","name":"hasAttempted","inputs":[{"name":"user","type":"address","internalType":"address"},{"name":"challengeId","type":"uint64","internalType":"uint64"}],"outputs":[{"name":"","type":"bool","internalType":"bool"}],"stateMutability":"view"},{"type":"function","name":"initialize","inputs":[{"name":"initialOwner","type":"address","internalType":"address"},{"name":"_topicRegistry","type":"address","internalType":"address"},{"name":"_userContract","type":"address","internalType":"address"}],"outputs":[],"stateMutability":"nonpayable"},{"type":"function","name":"owner","inputs":[],"outputs":[{"name":"","type":"address","internalType":"address"}],"stateMutability":"view"},{"type":"function","name":"proxiableUUID","inputs":[],"outputs":[{"name":"","type":"bytes32","internalType":"bytes32"}],"stateMutability":"view"},{"type":"function","name":"renounceOwnership","inputs":[],"outputs":[],"stateMutability":"nonpayable"},{"type":"function","name":"reputationEngine","inputs":[],"outputs":[{"name":"","type":"address","internalType":"address"}],"stateMutability":"view"},{"type":"function","name":"setReputationEngine","inputs":[{"name":"_reputationEngine","type":"address","internalType":"address"}],"outputs":[],"stateMutability":"nonpayable"},{"type":"function","name":"topicChallenges","inputs":[{"name":"","type":"uint32","internalType":"uint32"},{"name":"","type":"uint256","internalType":"uint256"}],"outputs":[{"name":"","type":"uint64","internalType":"uint64"}],"stateMutability":"view"},{"type":"function","name":"topicRegistry","inputs":[],"outputs":[{"name":"","type":"address","internalType":"contract TopicRegistry"}],"stateMutability":"view"},{"type":"function","name":"transferOwnership","inputs":[{"name":"newOwner","type":"address","internalType":"address"}],"outputs":[],"stateMutability":"nonpayable"},{"type":"function","name":"updateChallengeStatus","inputs":[{"name":"challengeId","type":"uint64","internalType":"uint64"},{"name":"newStatus","type":"uint8","internalType":"enum Challenge.ChallengeStatus"}],"outputs":[],"stateMutability":"nonpayable"},{"type":"function","name":"upgradeToAndCall","inputs":[{"name":"newImplementation","type":"address","internalType":"address"},{"name":"data","type":"bytes","internalType":"bytes"}],"outputs":[],"stateMutability":"payable"},{"type":"function","name":"userAttempts","inputs":[{"name":"","type":"address","internalType":"address"},{"name":"","type":"uint64","internalType":"uint64"}],"outputs":[{"name":"user","type":"address","internalType":"address"},{"name":"challengeId","type":"uint64","internalType":"uint64"},{"name":"answerHash","type":"bytes32","internalType":"bytes32"},{"name":"isCorrect","type":"bool","internalType":"bool"},{"name":"attemptedAt","type":"uint64","internalType":"uint64"}],"stateMutability":"view"},{"type":"function","name":"userChallengeHistory","inputs":[{"name":"","type":"address","internalType":"address"},{"name":"","type":"uint256","internalType":"uint256"}],"outputs":[{"name":"","type":"uint64","internalType":"uint64"}],"stateMutability":"view"},{"type":"function","name":"userContract","inputs":[],"outputs":[{"name":"","type":"address","internalType":"contract User"}],"stateMutability":"view"},{"type":"event","name":"ChallengeAttempted","inputs":[{"name":"challengeId","type":"uint64","indexed":true,"internalType":"uint64"},{"name":"user","type":"address","indexed":true,"internalType":"address"},{"name":"isCorrect","type":"bool","indexed":false,"internalType":"bool"},{"name":"timestamp","type":"uint64","indexed":false,"internalType":"uint64"}],"anonymous":false},{"type":"event","name":"ChallengeCreated","inputs":[{"name":"challengeId","type":"uint64","indexed":true,"internalType":"uint64"},{"name":"creator","type":"address","indexed":true,"internalType":"address"},{"name":"topicId","type":"uint32","indexed":true,"internalType":"uint32"},{"name":"difficulty","type":"uint8","indexed":false,"internalType":"enum Challenge.DifficultyLevel"}],"anonymous":false},{"type":"event","name":"ChallengeStatusUpdated","inputs":[{"name":"challengeId","type":"uint64","indexed":true,"internalType":"uint64"},{"name":"newStatus","type":"uint8","indexed":false,"internalType":"enum Challenge.ChallengeStatus"}],"anonymous":false},{"type":"event","name":"Initialized","inputs":[{"name":"version","type":"uint64","indexed":false,"internalType":"uint64"}],"anonymous":false},{"type":"event","name":"OwnershipTransferred","inputs":[{"name":"previousOwner","type":"address","indexed":true,"internalType":"address"},{"name":"newOwner","type":"address","indexed":true,"internalType":"address"}],"anonymous":false},{"type":"event","name":"Upgraded","inputs":[{"name":"implementation","type":"address","indexed":true,"internalType":"address"}],"anonymous":false},{"type":"error","name":"AddressEmptyCode","inputs":[{"name":"target","type":"address","internalType":"address"}]},{"type":"error","name":"AlreadyAttempted","inputs":[]},{"type":"error","name":"ChallengeNotActive","inputs":[]},{"type":"error","name":"ChallengeNotFound","inputs":[]},{"type":"error","name":"ERC1967InvalidImplementation","inputs":[{"name":"implementation","type":"address","internalType":"address"}]},{"type":"error","name":"ERC1967NonPayable","inputs":[]},{"type":"error","name":"EmptyHash","inputs":[]},{"type":"error","name":"FailedCall","inputs":[]},{"type":"error","name":"InvalidInitialization","inputs":[]},{"type":"error","name":"InvalidTopic","inputs":[]},{"type":"error","name":"NotInitializing","inputs":[]},{"type":"error","name":"OwnableInvalidOwner","inputs":[{"name":"owner","type":"address","internalType":"address"}]},{"type":"error","name":"OwnableUnauthorizedAccount","inputs":[{"name":"account","type":"address","internalType":"address"}]},{"type":"error","name":"UUPSUnauthorizedCallContext","inputs":[]},{"type":"error","name":"UUPSUnsupportedProxiableUUID","inputs":[{"name":"slot","type":"bytes32","internalType":"bytes32"}]},{"type":"error","name":"Unauthorized","inputs":[]},{"type":"error","name":"UserNotRegistered","inputs":[]}],"bytecode":{"object":"0x60a080604052346100cc57306080527ff0c57e16840df040f15088dc2f81fe391c3923bec73e23a9662efc9c229c6a009081549060ff8260401c166100bd57506001600160401b036002600160401b031982821601610078575b604051611be190816100d18239608051818181610fa001526110d90152f35b6001600160401b031990911681179091556040519081527fc7f505b2f371ae2175ee4913f4499e1f2633a7b5936321eed1cdaeb6115181d290602090a15f8080610059565b63f92ee8a960e01b8152600490fd5b5f80fdfe6080806040526004361015610012575f80fd5b5f905f3560e01c90816325ea903c146114bc575080632b242d911461145f57806332402d101461134057806337455cd6146112795780634f1ef2861461105e5780635000596b146110355780635055735b1461100a57806352d1902d14610f8d57806356a1763914610f305780636bb5090c14610ecf578063715018a614610e665780638ae4dd4014610d335780638da5cb5b14610cfe5780639d7db5be14610b0c578063a106e5d914610aac578063a2460e0c14610a24578063a2f05725146109fd578063ad3cb1cc1461097a578063afac25d814610898578063c0c53b8b14610705578063c3f677ef146106dc578063c7ab20391461061b578063ca19f5e114610196578063de756d11146101605763f2fde38b14610131575f80fd5b3461015d57602036600319011261015d5761015a61014d6117de565b610155611a81565b611a10565b80f35b80fd5b503461015d57602036600319011261015d5760043590600482101561015d57602061018a836119dc565b61ffff60405191168152f35b503461015d57608036600319011261015d576101b06117f4565b906004602435101561015d57604435158015610611575b6105ff5760045490604051637d3de18f60e11b815263ffffffff84166004820152818160248160018060a01b038760401c165afa80156104e4578290610501575b606091500151156104ef5760055460405163c3c5a54760e01b815233600482015290602090829060249082906001600160a01b03165afa9081156104e45782916104a6575b5015610494576001600160401b0382166001600160401b0381146104805760016001600160401b0391011690816001600160401b03198416176004556040519361029685611866565b8282851617855233602086015263ffffffff811660408601526102be602435606087016119bf565b81608086015260443560a086015260643560c08601526001600160401b03421660e086015281610100860152816101208601528282851617825281602052604082206001600160401b03865116600160401b600160e01b03602088015160401b169063ffffffff60e01b604089015160e01b1691171781556060860151600481101561046c5760ff801960018401541691161760018201556080860151600381101561046c579563ffffffff61012060048461038260209b600161040298016119a0565b60a0850151600282015560c0850151600382015501926001600160401b0360e0820151166001600160401b03198554161784556103e18361010083015116859063ffffffff60401b82549160401b169063ffffffff60401b1916179055565b0151825463ffffffff60601b1916911660601b63ffffffff60601b16179055565b63ffffffff811682526003855261042083838616176040842061193b565b63ffffffff60405191610435836024356118f3565b169033907f23ffd9e0ced98ec29731aef0d368e2182f19fef099db181ccf973f7af9b7fb9387868689161792a46040519216178152f35b634e487b7160e01b84526021600452602484fd5b634e487b7160e01b82526011600452602482fd5b604051632163950f60e01b8152600490fd5b90506020813d6020116104dc575b816104c160209383611882565b810103126104d8576104d29061192e565b5f61024d565b5080fd5b3d91506104b4565b6040513d84823e3d90fd5b6040516369585f9960e01b8152600490fd5b503d8083833e6105118183611882565b81019060209182828203126105fb5781516001600160401b03928382116105f757019060a0828203126105f3576040519361054b8561184b565b610554836119cb565b8552808301518481116105ef57830182601f820112156105ef5780519061057a826118a3565b936105886040519586611882565b8285528383830101116105eb5782916105aa918386956080989701910161190d565b8501526105b9604082016119cb565b60408501526105ca6060820161192e565b6060850152015190811681036105e7576080820152606090610208565b8280fd5b8780fd5b8680fd5b8480fd5b8580fd5b8380fd5b604051631c37cddf60e21b8152600490fd5b50606435156101c7565b503461015d57602036600319011261015d576101409060406001600160401b0391826106456117b2565b16815280602052209081549160018101549160028201549160046003820154910154926106b363ffffffff9560405197858116895260018060a01b038160401c1660208a015260e01c60408901526106a36060890160ff83166118f3565b60ff608089019160081c16611900565b60a086015260c0850152811660e0840152818160401c1661010084015260601c16610120820152f35b503461015d578060031936011261015d576006546040516001600160a01b039091168152602090f35b503461015d57606036600319011261015d5761071f6117de565b602435906001600160a01b03808316830361089457604435908116809103610894577ff0c57e16840df040f15088dc2f81fe391c3923bec73e23a9662efc9c229c6a0092835460ff8160401c1615936001600160401b0382168015908161088c575b6001149081610882575b159081610879575b506108675767ffffffffffffffff19821660011786556107c49185610848575b506107bc611ab9565b610155611ab9565b60048054600580546001600160a01b0319169094179093556001600160e01b031990921660409190911b68010000000000000000600160e01b031617905561080a575080f35b68ff00000000000000001981541690557fc7f505b2f371ae2175ee4913f4499e1f2633a7b5936321eed1cdaeb6115181d2602060405160018152a180f35b68ffffffffffffffffff1916680100000000000000011786555f6107b3565b60405163f92ee8a960e01b8152600490fd5b9050155f610793565b303b15915061078b565b869150610781565b5f80fd5b503461015d57604036600319011261015d5760a0906108b56117de565b9060406108c06117c8565b9180608083516108cf8161184b565b82815282602082015282858201528260608201520152600180861b0380941681526001602052206001600160401b038092165f5260205260405f20916040516109178161184b565b835491821693848252836020830193871c16835283600260018301549260408501938452015493816080606086019560ff881615158752019560081c16855260405196875251166020860152516040850152511515606084015251166080820152f35b503461015d578060031936011261015d57604051604081018181106001600160401b038211176109e9576109db9160409182526005815260208101640352e302e360dc1b81528251938492602084525180928160208601528585019061190d565b601f01601f19168101030190f35b634e487b7160e01b5f52604160045260245ffd5b503461015d578060031936011261015d5760206001600160401b0360045416604051908152f35b503461015d57604036600319011261015d5760a090610a416117de565b906040610a4c6117c8565b91600180861b0380941681526001602052206001600160401b038092165f5260205260405f208054908260026001830154920154926040519581168652861c166020850152604084015260ff81161515606084015260081c166080820152f35b503461015d57604036600319011261015d57610ac66117de565b6001600160a01b031681526002602052604081208054602435929083101561015d5760206001600160401b03610afc85856118be565b9190546040519260031b1c168152f35b503461015d57602036600319011261015d576001600160401b03610b2e6117b2565b82610120604051610b3e81611866565b8281528260208201528260408201528260608201528260808201528260a08201528260c08201528260e08201528261010082015201521690818152806020526001600160401b0360408220541615610cec5760409181528060205220604051610ba681611866565b81546001600160401b038116825260018060a01b038160401c16602083015260e01c604082015260ff6001830154610be3828216606085016119bf565b60081c16916003831015610cd857600463ffffffff91610140946080850152600281015460a0850152600381015460c085015201546001600160401b03811660e0840152818160401c1661010084015260601c1661012082015263ffffffff610120604051926001600160401b03815116845260018060a01b036020820151166020850152826040820151166040850152610c86606082015160608601906118f3565b610c9860808201516080860190611900565b60a081015160a085015260c081015160c08501526001600160401b0360e08201511660e08501528261010082015116610100850152015116610120820152f35b634e487b7160e01b5f52602160045260245ffd5b604051632b8829ff60e21b8152600490fd5b503461015d578060031936011261015d575f80516020611b8c833981519152546040516001600160a01b039091168152602090f35b503461015d576020908160031936011261015d576001600160a01b03610d576117de565b1681526002825260408120604051918284835491828152019282528482205b816003840110610e2657928492610dc49692610db895549184828210610e0d575b828210610df1575b828210610dd5575b5010610dc8575b5090500382611882565b60405191829182611807565b0390f35b60c01c815201805f610dae565b600191946001600160401b038560801c16815201930184610da7565b600191946001600160401b038560401c16815201930184610d9f565b600191946001600160401b038516815201930184610d97565b9260016004918554906001600160401b03918281168252828160401c168a83015260809281841c16604083015260c01c6060820152019401920191610d76565b503461015d578060031936011261015d57610e7f611a81565b5f80516020611b8c83398151915280546001600160a01b031981169091555f906001600160a01b03167f8be0079c531659141344cd1fd0a4f28419497f9722a3daafe3b4186f6b6457e08280a380f35b503461015d57602036600319011261015d57610ee96117de565b610ef1611a81565b600654906001600160a01b0390818316610f1f5716906bffffffffffffffffffffffff60a01b161760065580f35b6040516282b42960e81b8152600490fd5b503461015d57604036600319011261015d57610f4a6117f4565b63ffffffff1681526003602052604081208054602435929083101561015d5760206001600160401b03610f7d85856118be565b90549060031b1c16604051908152f35b503461015d578060031936011261015d577f00000000000000000000000000000000000000000000000000000000000000006001600160a01b03163003610ff85760206040517f360894a13ba1a3210667c828492db98dca3e2076cc3735a920a3ca505d382bbc8152f35b60405163703e46dd60e11b8152600490fd5b503461015d578060031936011261015d576004546040805191901c6001600160a01b03168152602090f35b503461015d578060031936011261015d576005546040516001600160a01b039091168152602090f35b50604036600319011261015d576110736117de565b6024918235916001600160401b0383116104d857366023840112156104d8578260040135906110a1826118a3565b916110af6040519384611882565b808352602094368783830101116105f3578185928888930183870137840101526001600160a01b037f0000000000000000000000000000000000000000000000000000000000000000811630811490811561124b575b50610ff857611112611a81565b6040516352d1902d60e01b8152908216948082600481895afa918291869361121b575b505061115357604051634c9c8ce360e01b8152600481018690528690fd5b909192947f360894a13ba1a3210667c828492db98dca3e2076cc3735a920a3ca505d382bbc918281036112065750823b156111f0575080546001600160a01b03191684179055604051927fbc7cd75a20ee27fd9adebab32041f755214dbc6bffa90cc0225b39da2e5c2d3b8580a28151156111d6576111d29250611afa565b5080f35b5050346111e1575080f35b63b398979f60e01b8152600490fd5b604051634c9c8ce360e01b815260048101869052fd5b60405190632a87526960e21b82526004820152fd5b9080929350813d8311611244575b6112338183611882565b810103126105f35751905f80611135565b503d611229565b9050817f360894a13ba1a3210667c828492db98dca3e2076cc3735a920a3ca505d382bbc541614155f611105565b503461015d576020908160031936011261015d5763ffffffff61129a6117f4565b168152600380835260408220906040518093858454928381520193815285812090925b82818501106112fb5750928492610dc49692610db895549184828210610e0d57828210610df157828210610dd5575010610dc8575090500382611882565b9290936004600184928754906001600160401b03918281168252828160401c168c83015260809281841c16604083015260c01c606082015201960192019390506112bd565b503461015d57604036600319011261015d5761135a6117b2565b6024359060038210156105e7576001600160401b03809116918284526020908482526040852092835490811615610cec5760018060a01b03809160401c1633141590816113e6575b50610f1f576113d58160017ff25fbdb99b596a3261b9e894491a3f5fd8c770dd834bcb98bbff31a329f1234095016119a0565b6113e26040518092611900565ba280f35b905060048382825460401c1660405192838092638da5cb5b60e01b82525afa90811561145457879161141e575b50163314155f6113a2565b90508381813d831161144d575b6114358183611882565b810103126105ef575181811681036105ef575f611413565b503d61142b565b6040513d89823e3d90fd5b503461015d57604036600319011261015d57602090604061147e6117de565b916114876117c8565b9260018060a01b0316815260018452206001600160401b038092165f528252600260405f20015460081c161515604051908152f35b905034610894576040366003190112610894576114d76117b2565b906024356001600160401b0380841692835f526020915f835260405f209181835416156117a3575060ff600183015460081c166003811015610cd8576117915760055460405163c3c5a54760e01b81523360048201526001600160a01b039185908290602490829086165afa908115611706575f9161175c575b501561049457335f526001845260405f20865f52845281600260405f20015460081c1661174a576116346003840154861497834216966040516115938161184b565b3381526002888201918b83526040810193845260608101938d855260808201938c8552335f5260018c528d60405f20905f528c528860405f209351168354916001600160401b0360a01b905160a01b169163ffffffff60e01b161717825551600182015501915115159060ff68ffffffffffffffff008454925160081b1692169068ffffffffffffffffff191617179055335f526002865260405f2061193b565b6004830163ffffffff908861167661165184845460401c16611977565b83546bffffffff0000000000000000191660409190911b63ffffffff60401b16178355565b611711575b505060065416915460e01c823b15610894575f92604484926040519586938492633842af2d60e01b845233600485015260248401525af18015611706576116f0575b50506040519384528301527eddbb3b60e8754b8b6436372d3d1f9cc12c40806ca50de92897aba0d51fa9bc60403393a380f35b9080929650116109e9576040525f935f806116bd565b6040513d5f823e3d90fd5b61172361174392825460601c16611977565b815463ffffffff60601b191660609190911b63ffffffff60601b16179055565b5f8061167b565b6040516343cc695960e01b8152600490fd5b90508481813d831161178a575b6117738183611882565b81010312610894576117849061192e565b5f611551565b503d611769565b60405163beb11d3b60e01b8152600490fd5b632b8829ff60e21b8152600490fd5b600435906001600160401b038216820361089457565b602435906001600160401b038216820361089457565b600435906001600160a01b038216820361089457565b6004359063ffffffff8216820361089457565b60209060206040818301928281528551809452019301915f5b82811061182e575050505090565b83516001600160401b031685529381019392810192600101611820565b60a081019081106001600160401b038211176109e957604052565b61014081019081106001600160401b038211176109e957604052565b90601f801991011681019081106001600160401b038211176109e957604052565b6001600160401b0381116109e957601f01601f191660200190565b91909180548310156118df575f52601860205f208360021c019260031b1690565b634e487b7160e01b5f52603260045260245ffd5b906004821015610cd85752565b906003821015610cd85752565b5f5b83811061191e5750505f910152565b818101518382015260200161190f565b5190811515820361089457565b8054600160401b8110156109e957611958916001820181556118be565b6001600160401b039291928084549260031b9316831b921b1916179055565b63ffffffff80911690811461198c5760010190565b634e487b7160e01b5f52601160045260245ffd5b906003811015610cd85761ff0082549160081b169061ff001916179055565b6004821015610cd85752565b519063ffffffff8216820361089457565b6004811015610cd8578015611a0a5760018114611a04576002146119ff57602890565b601990565b50600f90565b50600a90565b6001600160a01b03908116908115611a69575f80516020611b8c83398151915280546001600160a01b031981168417909155167f8be0079c531659141344cd1fd0a4f28419497f9722a3daafe3b4186f6b6457e05f80a3565b604051631e4fbdf760e01b81525f6004820152602490fd5b5f80516020611b8c833981519152546001600160a01b03163303611aa157565b60405163118cdaa760e01b8152336004820152602490fd5b60ff7ff0c57e16840df040f15088dc2f81fe391c3923bec73e23a9662efc9c229c6a005460401c1615611ae857565b604051631afcd79f60e31b8152600490fd5b905f8091602081519101845af48080611b78575b15611b2e5750506040513d81523d5f602083013e60203d82010160405290565b15611b5557604051639996b31560e01b81526001600160a01b039091166004820152602490fd5b3d15611b66576040513d5f823e3d90fd5b60405163d6bda27560e01b8152600490fd5b503d151580611b0e5750813b1515611b0e56fe9016d09d72d40fdae2fd8ceac6b6234c7706214fd39c1cd1e609a0528c199300a2646970667358221220072327a160084c2d89a8e182af51ebabb6d1e1a3beba363bb8dc1ba5f086db0d64736f6c63430008180033","linkReferences":{}},"methodIdentifiers":{"UPGRADE_INTERFACE_VERSION()":"ad3cb1cc","attemptChallenge(uint64,bytes32)":"25ea903c","challengeCount()":"a2f05725","challenges(uint64)":"c7ab2039","createChallenge(uint32,uint8,bytes32,bytes32)":"ca19f5e1","getChallenge(uint64)":"9d7db5be","getDifficultyMultiplier(uint8)":"de756d11","getTopicChallenges(uint32)":"37455cd6","getUserAttempt(address,uint64)":"afac25d8","getUserChallengeHistory(address)":"8ae4dd40","hasAttempted(address,uint64)":"2b242d91","initialize(address,address,address)":"c0c53b8b","owner()":"8da5cb5b","proxiableUUID()":"52d1902d","renounceOwnership()":"715018a6","reputationEngine()":"c3f677ef","setReputationEngine(address)":"6bb5090c","topicChallenges(uint32,uint256)":"56a17639","topicRegistry()":"5055735b","transferOwnership(address)":"f2fde38b","updateChallengeStatus(uint64,uint8)":"32402d10","upgradeToAndCall(address,bytes)":"4f1ef286","userAttempts(address,uint64)":"a2460e0c","userChallengeHistory(address,uint256)":"a106e5d9","userContract()":"5000596b"},"id":33}