{"abi":[{"type":"constructor","inputs":[],"stateMutability":"nonpayable"},{"type":"function","name":"UPGRADE_INTERFACE_VERSION","inputs":[],"outputs":[{"name":"","type":"string","internalType":"string"}],"stateMutability":"view"},{"type":"function","name":"attemptChallenge","inputs":[{"name":"challengeId","type":"uint64","internalType":"uint64"},{"name":"answerHash","type":"bytes32","internalType":"bytes32"}],"outputs":[],"stateMutability":"nonpayable"},{"type":"function","name":"challengeCount","inputs":[],"outputs":[{"name":"","type":"uint64","internalType":"uint64"}],"stateMutability":"view"},{"type":"function","name":"challenges","inputs":[{"name":"","type":"uint64","internalType":"uint64"}],"outputs":[{"name":"id","type":"uint64","internalType":"uint64"},{"name":"creator","type":"address","internalType":"address"},{"name":"topicId","type":"uint32","internalType":"uint32"},{"name":"difficulty","type":"uint8","internalType":"enum Challenge.DifficultyLevel"},{"name":"status","type":"uint8","internalType":"enum Challenge.ChallengeStatus"},{"name":"questionHash","type":"bytes32","internalType":"bytes32"},{"name":"correctAnswerHash","type":"bytes32","internalType":"bytes32"},{"name":"createdAt","type":"uint64","internalType":"uint64"},{"name":"totalAttempts","type":"uint32","internalType":"uint32"},{"name":"correctAttempts","type":"uint32","internalType":"uint32"}],"stateMutability":"view"},{"type":"function","name":"createChallenge","inputs":[{"name":"topicId","type":"uint32","internalType":"uint32"},{"name":"difficulty","type":"uint8","internalType":"enum Challenge.DifficultyLevel"},{"name":"questionHash","type":"bytes32","internalType":"bytes32"},{"name":"correctAnswerHash","type":"bytes32","internalType":"bytes32"}],"outputs":[{"name":"","type":"uint64","internalType":"uint64"}],"stateMutability":"nonpayable"},{"type":"function","name":"getChallenge","inputs":[{"name":"challengeId","type":"uint64","internalType":"uint64"}],"outputs":[{"name":"","type":"tuple","internalType":"struct Challenge.ChallengeData","components":[{"name":"id","type":"uint64","internalType":"uint64"},{"name":"creator","type":"address","internalType":"address"},{"name":"topicId","type":"uint32","internalType":"uint32"},{"name":"difficulty","type":"uint8","internalType":"enum Challenge.DifficultyLevel"},{"name":"status","type":"uint8","internalType":"enum Challenge.ChallengeStatus"},{"name":"questionHash","type":"bytes32","internalType":"bytes32"},{"name":"correctAnswerHash","type":"bytes32","internalType":"bytes32"},{"name":"createdAt","type":"uint64","internalType":"uint64"},{"name":"totalAttempts","type":"uint32","internalType":"uint32"},{"name":"correctAttempts","type":"uint32","internalType":"uint32"}]}],"stateMutability":"view"},{"type":"function","name":"getDifficultyMultiplier","inputs":[{"name":"difficulty","type":"uint8","internalType":"enum Challenge.DifficultyLevel"}],"outputs":[{"name":"","type":"uint16","internalType":"uint16"}],"stateMutability":"pure"},{"type":"function","name":"getTopicChallenges","inputs":[{"name":"topicId","type":"uint32","internalType":"uint32"}],"outputs":[{"name":"","type":"uint64[]","internalType":"uint64[]"}],"stateMutability":"view"},{"type":"function","name":"getUserAttempt","inputs":[{"name":"user","type":"address","internalType":"address"},{"name":"challengeId","type":"uint64","internalType":"uint64"}],"outputs":[{"name":"","type":"tuple","internalType":"struct Challenge.ChallengeAttempt","components":[{"name":"user","type":"address","internalType":"address"},{"name":"challengeId","type":"uint64","internalType":"uint64"},{"name":"answerHash","type":"bytes32","internalType":"bytes32"},{"name":"isCorrect","type":"bool","internalType":"bool"},{"name":"attemptedAt","type":"uint64","internalType":"uint64"}]}],"stateMutability":"view"},{"type":"function","name":"getUserChallengeHistory","inputs":[{"name":"user","type":"address","internalType":"address"}],"outputs":[{"name":"","type":"uint64[]","internalType":"uint64[]"}],"stateMutability":"view"},{"type":"function","name":"hasAttempted","inputs":[{"name":"user","type":"address","internalType":"address"},{"name":"challengeId","type":"uint64","internalType":"uint64"}],"outputs":[{"name":"","type":"bool","internalType":"bool"}],"stateMutability":"view"},{"type":"function","name":"initialize","inputs":[{"name":"initialOwner","type":"address","internalType":"address"},{"name":"_topicRegistry","type":"address","internalType":"address"},{"name":"_userContract","type":"address","internalType":"address"}],"outputs":[],"stateMutability":"nonpayable"},{"type":"function","name":"owner","inputs":[],"outputs":[{"name":"","type":"address","internalType":"address"}],"stateMutability":"view"},{"type":"function","name":"proxiableUUID","inputs":[],"outputs":[{"name":"","type":"bytes32","internalType":"bytes32"}],"stateMutability":"view"},{"type":"function","name":"renounceOwnership","inputs":[],"outputs":[],"stateMutability":"nonpayable"},{"type":"function","name":"reputationEngine","inputs":[],"outputs":[{"name":"","type":"address","internalType":"address"}],"stateMutability":"view"},{"type":"function","name":"setReputationEngine","inputs":[{"name":"_reputationEngine","type":"address","internalType":"address"}],"outputs":[],"stateMutability":"nonpayable"},{"type":"function","name":"topicChallenges","inputs":[{"name":"","type":"uint32","internalType":"uint32"},{"name":"","type":"uint256","internalType":"uint256"}],"outputs":[{"name":"","type":"uint64","internalType":"uint64"}],"stateMutability":"view"},{"type":"function","name":"topicRegistry","inputs":[],"outputs":[{"name":"","type":"address","internalType":"contract TopicRegistry"}],"stateMutability":"view"},{"type":"function","name":"transferOwnership","inputs":[{"name":"newOwner","type":"address","internalType":"address"}],"outputs":[],"stateMutability":"nonpayable"},{"type":"function","name":"updateChallengeStatus","inputs":[{"name":"challengeId","type":"uint64","internalType":"uint64"},{"name":"newStatus","type":"uint8","internalType":"enum Challenge.ChallengeStatus"}],"outputs":[],"stateMutability":"nonpayable"},{"type":"function","name":"upgradeToAndCall","inputs":[{"name":"newImplementation","type":"address","internalType":"address"},{"name":"data","type":"bytes","internalType":"bytes"}],"outputs":[],"stateMutability":"payable"},{"type":"function","name":"userAttempts","inputs":[{"name":"","type":"address","internalType":"address"},{"name":"","type":"uint64","internalType":"uint64"}],"outputs":[{"name":"user","type":"address","internalType":"address"},{"name":"challengeId","type":"uint64","internalType":"uint64"},{"name":"answerHash","type":"bytes32","internalType":"bytes32"},{"name":"isCorrect","type":"bool","internalType":"bool"},{"name":"attemptedAt","type":"uint64","internalType":"uint64"}],"stateMutability":"view"},{"type":"function","name":"userChallengeHistory","inputs":[{"name":"","type":"address","internalType":"address"},{"name":"","type":"uint256","internalType":"uint256"}],"outputs":[{"name":"","type":"uint64","internalType":"uint64"}],"stateMutability":"view"},{"type":"function","name":"userContract","inputs":[],"outputs":[{"name":"","type":"address","internalType":"contract User"}],"stateMutability":"view"},{"type":"event","name":"ChallengeAttempted","inputs":[{"name":"challengeId","type":"uint64","indexed":true,"internalType":"uint64"},{"name":"user","type":"address","indexed":true,"internalType":"address"},{"name":"isCorrect","type":"bool","indexed":false,"internalType":"bool"},{"name":"timestamp","type":"uint64","indexed":false,"internalType":"uint64"}],"anonymous":false},{"type":"event","name":"ChallengeCreated","inputs":[{"name":"challengeId","type":"uint64","indexed":true,"internalType":"uint64"},{"name":"creator","type":"address","indexed":true,"internalType":"address"},{"name":"topicId","type":"uint32","indexed":true,"internalType":"uint32"},{"name":"difficulty","type":"uint8","indexed":false,"internalType":"enum Challenge.DifficultyLevel"}],"anonymous":false},{"type":"event","name":"ChallengeStatusUpdated","inputs":[{"name":"challengeId","type":"uint64","indexed":true,"internalType":"uint64"},{"name":"newStatus","type":"uint8","indexed":false,"internalType":"enum Challenge.ChallengeStatus"}],"anonymous":false},{"type":"event","name":"Initialized","inputs":[{"name":"version","type":"uint64","indexed":false,"internalType":"uint64"}],"anonymous":false},{"type":"event","name":"OwnershipTransferred","inputs":[{"name":"previousOwner","type":"address","indexed":true,"internalType":"address"},{"name":"newOwner","type":"address","indexed":true,"internalType":"address"}],"anonymous":false},{"type":"event","name":"Upgraded","inputs":[{"name":"implementation","type":"address","indexed":true,"internalType":"address"}],"anonymous":false},{"type":"error","name":"AddressEmptyCode","inputs":[{"name":"target","type":"address","internalType":"address"}]},{"type":"error","name":"AlreadyAttempted","inputs":[]},{"type":"error","name":"ChallengeNotActive","inputs":[]},{"type":"error","name":"ChallengeNotFound","inputs":[]},{"type":"error","name":"ERC1967InvalidImplementation","inputs":[{"name":"implementation","type":"address","internalType":"address"}]},{"type":"error","name":"ERC1967NonPayable","inputs":[]},{"type":"error","name":"EmptyHash","inputs":[]},{"type":"error","name":"FailedCall","inputs":[]},{"type":"error","name":"InvalidInitialization","inputs":[]},{"type":"error","name":"InvalidTopic","inputs":[]},{"type":"error","name":"NotInitializing","inputs":[]},{"type":"error","name":"OwnableInvalidOwner","inputs":[{"name":"owner","type":"address","internalType":"address"}]},{"type":"error","name":"OwnableUnauthorizedAccount","inputs":[{"name":"account","type":"address","internalType":"address"}]},{"type":"error","name":"UUPSUnauthorizedCallContext","inputs":[]},{"type":"error","name":"UUPSUnsupportedProxiableUUID","inputs":[{"name":"slot","type":"bytes32","internalType":"bytes32"}]},{"type":"error","name":"Unauthorized","inputs":[]},{"type":"error","name":"UserNotRegistered","inputs":[]}],"bytecode":{"object":"0x60a080604052346100cc57306080527ff0c57e16840df040f15088dc2f81fe391c3923bec73e23a9662efc9c229c6a009081549060ff8260401c166100bd57506001600160401b036002600160401b031982821601610078575b604051611af590816100d18239608051818181610f4c01526110820152f35b6001600160401b031990911681179091556040519081527fc7f505b2f371ae2175ee4913f4499e1f2633a7b5936321eed1cdaeb6115181d290602090a15f8080610059565b63f92ee8a960e01b8152600490fd5b5f80fdfe6080806040526004361015610012575f80fd5b5f3560e01c90816325ea903c1461144a575080632b242d91146113ef57806332402d10146112dd57806337455cd6146112195780634f1ef286146110085780635000596b14610fe05780635055735b14610fb657806352d1902d14610f3a57806356a1763914610ede5780636bb5090c14610e84578063715018a614610e1d5780638ae4dd4014610ce95780638da5cb5b14610cb55780639d7db5be14610ad9578063a106e5d914610a79578063a2460e0c146109f4578063a2f05725146109ce578063ad3cb1cc1461094c578063afac25d81461086b578063c0c53b8b146106e0578063c3f677ef146106b8578063c7ab2039146105f9578063ca19f5e114610192578063de756d111461015e5763f2fde38b1461012f575f80fd5b3461015a57602036600319011261015a5761015861014b611706565b610153611995565b611924565b005b5f80fd5b3461015a57602036600319011261015a57600435600481101561015a576101866020916118f0565b61ffff60405191168152f35b3461015a57608036600319011261015a576101ab61171c565b602435600481101561015a576044359160643591831580156105f1575b6105df576004549260018060a01b0363ffffffff60405194637d3de18f60e11b865216938460048201525f81602481858a60401c165afa80156104e1575f906104fe575b606091500151156104ec576020602491600554166040519283809263c3c5a54760e01b82523360048301525afa9081156104e1575f916104a7575b5015610495576001600160401b038416936001600160401b0385146104815767ffffffffffffffff1916600185016001600160401b0316176004556040519461028f8661178e565b6001600160401b03600186011686523360208701528360408701526102b783606088016118d3565b5f608087015260a086015260c08501526001600160401b03421660e08501525f6101008501525f6101208501526001600160401b0360018401165f525f60205260405f206001600160401b03855116600160401b600160e01b03602087015160401b169063ffffffff60e01b604088015160e01b16911717815560018101946060810151600481101561046d5760ff80198854169116178655608081015191600383101561046d57610120600463ffffffff926103796103f99660209b6118b4565b60a0850151600282015560c0850151600382015501926001600160401b0360e0820151166001600160401b03198554161784556103d88361010083015116859063ffffffff60401b82549160401b169063ffffffff60401b1916179055565b0151825463ffffffff60601b1916911660601b63ffffffff60601b16179055565b815f52600384526104196001600160401b03600185011660405f20611863565b610426604051809261181b565b33907f23ffd9e0ced98ec29731aef0d368e2182f19fef099db181ccf973f7af9b7fb93856001600160401b03600187011692a46001600160401b0360016040519201168152f35b634e487b7160e01b5f52602160045260245ffd5b634e487b7160e01b5f52601160045260245ffd5b604051632163950f60e01b8152600490fd5b90506020813d6020116104d9575b816104c2602093836117aa565b8101031261015a576104d390611856565b86610247565b3d91506104b5565b6040513d5f823e3d90fd5b6040516369585f9960e01b8152600490fd5b503d805f833e61050e81836117aa565b81016020808383031261015a5782516001600160401b039384821161015a570160a08184031261015a576040519261054584611773565b61054e826118df565b84528282015185811161015a5782019281601f8501121561015a57835193610575856117cb565b9261058360405194856117aa565b85845282868301011161015a576080946105a291838086019101611835565b8401526105b1604082016118df565b60408401526105c260608201611856565b60608401520151918216820361015a57606091608082015261020c565b604051631c37cddf60e21b8152600490fd5b5082156101c8565b3461015a57602036600319011261015a576101406001600160401b038061061e6116da565b165f525f60205260405f2090815491600181015491600282015491600460038201549101549261068f63ffffffff9560405197858116895260018060a01b038160401c1660208a015260e01c604089015261067f6060890160ff831661181b565b60ff608089019160081c16611828565b60a086015260c0850152811660e0840152818160401c1661010084015260601c16610120820152f35b3461015a575f36600319011261015a576006546040516001600160a01b039091168152602090f35b3461015a57606036600319011261015a576106f9611706565b602435906001600160a01b03808316830361015a5760443590811680910361015a577ff0c57e16840df040f15088dc2f81fe391c3923bec73e23a9662efc9c229c6a0092835460ff8160401c1615936001600160401b03821680159081610863575b6001149081610859575b159081610850575b5061083e5767ffffffffffffffff198216600117865561079e918561081f575b506107966119cd565b6101536119cd565b60048054600580546001600160a01b0319169094179093556001600160e01b031990921660409190911b68010000000000000000600160e01b03161790556107e257005b68ff00000000000000001981541690557fc7f505b2f371ae2175ee4913f4499e1f2633a7b5936321eed1cdaeb6115181d2602060405160018152a1005b68ffffffffffffffffff1916680100000000000000011786558661078d565b60405163f92ee8a960e01b8152600490fd5b9050158761076d565b303b159150610765565b86915061075b565b3461015a57604036600319011261015a5760a0610886611706565b61088e6116f0565b5f608060405161089d81611773565b8281528260208201528260408201528260608201520152600180841b038092165f52600160205260405f206001600160401b038092165f5260205260405f20916040516108e981611773565b835491821693848252836020830193871c16835283600260018301549260408501938452015493816080606086019560ff881615158752019560081c16855260405196875251166020860152516040850152511515606084015251166080820152f35b3461015a575f36600319011261015a57604051604081018181106001600160401b038211176109ba576109ac9160409182526005815260208101640352e302e360dc1b815282519384926020845251809281602086015285850190611835565b601f01601f19168101030190f35b634e487b7160e01b5f52604160045260245ffd5b3461015a575f36600319011261015a5760206001600160401b0360045416604051908152f35b3461015a57604036600319011261015a5760a0610a0f611706565b610a176116f0565b600180841b038092165f52600160205260405f206001600160401b038092165f5260205260405f208054908260026001830154920154926040519581168652861c166020850152604084015260ff81161515606084015260081c166080820152f35b3461015a57604036600319011261015a57610a92611706565b6001600160a01b03165f90815260026020526040902080546024359081101561015a57610ac96001600160401b03916020936117e6565b9190546040519260031b1c168152f35b3461015a57602036600319011261015a576001600160401b03610afa6116da565b5f610120604051610b0a8161178e565b8281528260208201528260408201528260608201528260808201528260a08201528260c08201528260e082015282610100820152015216805f525f6020526001600160401b0360405f20541615610ca3575f525f60205260405f20604051610b718161178e565b81546001600160401b038116825260018060a01b038160401c16602083015260e01c604082015260ff6001830154610bae828216606085016118d3565b60081c1691600383101561046d57600463ffffffff91610140946080850152600281015460a0850152600381015460c085015201546001600160401b03811660e0840152818160401c1661010084015260601c1661012082015263ffffffff610120604051926001600160401b03815116845260018060a01b036020820151166020850152826040820151166040850152610c516060820151606086019061181b565b610c6360808201516080860190611828565b60a081015160a085015260c081015160c08501526001600160401b0360e08201511660e08501528261010082015116610100850152015116610120820152f35b604051632b8829ff60e21b8152600490fd5b3461015a575f36600319011261015a575f80516020611aa0833981519152546040516001600160a01b039091168152602090f35b3461015a5760208060031936011261015a576001600160a01b03610d0b611706565b165f526002815260405f2060405190818382549182815201915f52835f20905f915b816003840110610ddd57928492610d7b9692610d6f95549184828210610dc4575b828210610da8575b828210610d8c575b5010610d7f575b50905003826117aa565b6040519182918261172f565b0390f35b60c01c8152018086610d65565b600191946001600160401b038560801c16815201930184610d5e565b600191946001600160401b038560401c16815201930184610d56565b600191946001600160401b038516815201930184610d4e565b9260016004918554906001600160401b03918281168252828160401c168a83015260809281841c16604083015260c01c6060820152019401920191610d2d565b3461015a575f36600319011261015a57610e35611995565b5f80516020611aa083398151915280546001600160a01b031981169091555f906001600160a01b03167f8be0079c531659141344cd1fd0a4f28419497f9722a3daafe3b4186f6b6457e08280a3005b3461015a57602036600319011261015a57610e9d611706565b610ea5611995565b600654906001600160a01b0390818316610ecd576001600160a01b0319909216911617600655005b6040516282b42960e81b8152600490fd5b3461015a57604036600319011261015a57610ef761171c565b63ffffffff60243591165f52600360205260405f2090815481101561015a57610f2a6001600160401b03916020936117e6565b90549060031b1c16604051908152f35b3461015a575f36600319011261015a577f00000000000000000000000000000000000000000000000000000000000000006001600160a01b03163003610fa45760206040517f360894a13ba1a3210667c828492db98dca3e2076cc3735a920a3ca505d382bbc8152f35b60405163703e46dd60e11b8152600490fd5b3461015a575f36600319011261015a576004546040805191901c6001600160a01b03168152602090f35b3461015a575f36600319011261015a576005546040516001600160a01b039091168152602090f35b604036600319011261015a5761101c611706565b6024908135906001600160401b03821161015a573660238301121561015a5781600401359061104a826117cb565b9161105860405193846117aa565b8083526020933686838301011161015a57815f928787930183870137840101526001600160a01b037f000000000000000000000000000000000000000000000000000000000000000081163081149081156111eb575b50610fa4576110bb611995565b6040516352d1902d60e01b8152908216938082600481885afa9182915f936111bb575b50506110fc5750505060405190634c9c8ce360e01b82526004820152fd5b847f360894a13ba1a3210667c828492db98dca3e2076cc3735a920a3ca505d382bbc918281036111a65750823b15611190575080546001600160a01b03191684179055604051927fbc7cd75a20ee27fd9adebab32041f755214dbc6bffa90cc0225b39da2e5c2d3b5f80a2815115611178576101589250611a0e565b50503461118157005b63b398979f60e01b8152600490fd5b604051634c9c8ce360e01b815260048101869052fd5b60405190632a87526960e21b82526004820152fd5b9080929350813d83116111e4575b6111d381836117aa565b8101031261015a57519086806110de565b503d6111c9565b9050817f360894a13ba1a3210667c828492db98dca3e2076cc3735a920a3ca505d382bbc54161415866110ae565b3461015a5760208060031936011261015a5763ffffffff61123861171c565b165f52600380825260405f2060405191828483549182815201925f52845f205f925b82818501106112985750928492610d7b9692610d6f95549184828210610dc457828210610da857828210610d8c575010610d7f5750905003826117aa565b9290936004600184928754906001600160401b03918281168252828160401c168c83015260809281841c16604083015260c01c6060820152019601920193905061125a565b3461015a57604036600319011261015a576112f66116da565b60243590600382101561015a576001600160401b0380911691825f526020905f825260405f2092835490811615610ca35760018060a01b03809160401c163314159081611381575b50610ecd576113718160017ff25fbdb99b596a3261b9e894491a3f5fd8c770dd834bcb98bbff31a329f1234095016118b4565b61137e6040518092611828565ba2005b905060048382825460401c1660405192838092638da5cb5b60e01b82525afa9081156104e1575f916113b9575b50163314158561133e565b90508381813d83116113e8575b6113d081836117aa565b8101031261015a5751818116810361015a57866113ae565b503d6113c6565b3461015a57604036600319011261015a57602061140a611706565b6114126116f0565b9060018060a01b03165f526001825260405f206001600160401b038092165f528252600260405f20015460081c161515604051908152f35b3461015a57604036600319011261015a576114636116da565b6024356001600160401b039283831692835f526020915f835260405f209086825416156116cb575060ff600182015460081c16600381101561046d576116b95760055460405163c3c5a54760e01b81523360048201526001600160a01b0395918590829060249082908a165afa9081156104e1575f91611684575b501561049557335f526001845260405f20865f52845286600260405f20015460081c16611672576004926115c3916003840154811498421696600260405161152581611773565b338152888101938b85526040820190815260608201948d865260808301948c8652335f5260018c528d60405f20905f528c5260405f209351168354916001600160401b0360a01b905160a01b169163ffffffff60e01b161717825551600182015501915115159060ff68ffffffffffffffff008454925160081b1692169068ffffffffffffffffff191617179055335f526002855260405f20611863565b0163ffffffff90856116026115dd84845460401c1661189f565b83546bffffffff0000000000000000191660409190911b63ffffffff60401b16178355565b611639575b50506040519384528301527eddbb3b60e8754b8b6436372d3d1f9cc12c40806ca50de92897aba0d51fa9bc60403393a3005b61164b61166b92825460601c1661189f565b815463ffffffff60601b191660609190911b63ffffffff60601b16179055565b8480611607565b6040516343cc695960e01b8152600490fd5b90508481813d83116116b2575b61169b81836117aa565b8101031261015a576116ac90611856565b886114de565b503d611691565b60405163beb11d3b60e01b8152600490fd5b632b8829ff60e21b8152600490fd5b600435906001600160401b038216820361015a57565b602435906001600160401b038216820361015a57565b600435906001600160a01b038216820361015a57565b6004359063ffffffff8216820361015a57565b60209060206040818301928281528551809452019301915f5b828110611756575050505090565b83516001600160401b031685529381019392810192600101611748565b60a081019081106001600160401b038211176109ba57604052565b61014081019081106001600160401b038211176109ba57604052565b90601f801991011681019081106001600160401b038211176109ba57604052565b6001600160401b0381116109ba57601f01601f191660200190565b9190918054831015611807575f52601860205f208360021c019260031b1690565b634e487b7160e01b5f52603260045260245ffd5b90600482101561046d5752565b90600382101561046d5752565b5f5b8381106118465750505f910152565b8181015183820152602001611837565b5190811515820361015a57565b8054600160401b8110156109ba57611880916001820181556117e6565b6001600160401b039291928084549260031b9316831b921b1916179055565b63ffffffff8091169081146104815760010190565b90600381101561046d5761ff0082549160081b169061ff001916179055565b600482101561046d5752565b519063ffffffff8216820361015a57565b600481101561046d57801561191e57600181146119185760021461191357602890565b601990565b50600f90565b50600a90565b6001600160a01b0390811690811561197d575f80516020611aa083398151915280546001600160a01b031981168417909155167f8be0079c531659141344cd1fd0a4f28419497f9722a3daafe3b4186f6b6457e05f80a3565b604051631e4fbdf760e01b81525f6004820152602490fd5b5f80516020611aa0833981519152546001600160a01b031633036119b557565b60405163118cdaa760e01b8152336004820152602490fd5b60ff7ff0c57e16840df040f15088dc2f81fe391c3923bec73e23a9662efc9c229c6a005460401c16156119fc57565b604051631afcd79f60e31b8152600490fd5b905f8091602081519101845af48080611a8c575b15611a425750506040513d81523d5f602083013e60203d82010160405290565b15611a6957604051639996b31560e01b81526001600160a01b039091166004820152602490fd5b3d15611a7a576040513d5f823e3d90fd5b60405163d6bda27560e01b8152600490fd5b503d151580611a225750813b1515611a2256fe9016d09d72d40fdae2fd8ceac6b6234c7706214fd39c1cd1e609a0528c199300a264697066735822122068625a1ae84f2d38d90cc0c66ac6083aaa4ef665d9b448d633e4db1c2cd82bf964736f6c63430008180033","linkReferences":{}},"methodIdentifiers":{"UPGRADE_INTERFACE_VERSION()":"ad3cb1cc","attemptChallenge(uint64,bytes32)":"25ea903c","challengeCount()":"a2f05725","challenges(uint64)":"c7ab2039","createChallenge(uint32,uint8,bytes32,bytes32)":"ca19f5e1","getChallenge(uint64)":"9d7db5be","getDifficultyMultiplier(uint8)":"de756d11","getTopicChallenges(uint32)":"37455cd6","getUserAttempt(address,uint64)":"afac25d8","getUserChallengeHistory(address)":"8ae4dd40","hasAttempted(address,uint64)":"2b242d91","initialize(address,address,address)":"c0c53b8b","owner()":"8da5cb5b","proxiableUUID()":"52d1902d","renounceOwnership()":"715018a6","reputationEngine()":"c3f677ef","setReputationEngine(address)":"6bb5090c","topicChallenges(uint32,uint256)":"56a17639","topicRegistry()":"5055735b","transferOwnership(address)":"f2fde38b","updateChallengeStatus(uint64,uint8)":"32402d10","upgradeToAndCall(address,bytes)":"4f1ef286","userAttempts(address,uint64)":"a2460e0c","userChallengeHistory(address,uint256)":"a106e5d9","userContract()":"5000596b"},"id":44}