{"abi":[{"type":"constructor","inputs":[],"stateMutability":"nonpayable"},{"type":"function","name":"MAX_RATING","inputs":[],"outputs":[{"name":"","type":"uint16","internalType":"uint16"}],"stateMutability":"view"},{"type":"function","name":"MIN_RATING","inputs":[],"outputs":[{"name":"","type":"uint16","internalType":"uint16"}],"stateMutability":"view"},{"type":"function","name":"RATING_COOLDOWN_PERIOD","inputs":[],"outputs":[{"name":"","type":"uint64","internalType":"uint64"}],"stateMutability":"view"},{"type":"function","name":"UPGRADE_INTERFACE_VERSION","inputs":[],"outputs":[{"name":"","type":"string","internalType":"string"}],"stateMutability":"view"},{"type":"function","name":"adminRateUser","inputs":[{"name":"rater","type":"address","internalType":"address"},{"name":"ratee","type":"address","internalType":"address"},{"name":"topicId","type":"uint32","internalType":"uint32"},{"name":"score","type":"uint16","internalType":"uint16"}],"outputs":[],"stateMutability":"nonpayable"},{"type":"function","name":"getAverageScore","inputs":[{"name":"user","type":"address","internalType":"address"},{"name":"topicId","type":"uint32","internalType":"uint32"}],"outputs":[{"name":"","type":"uint16","internalType":"uint16"}],"stateMutability":"view"},{"type":"function","name":"getRating","inputs":[{"name":"ratee","type":"address","internalType":"address"},{"name":"topicId","type":"uint32","internalType":"uint32"},{"name":"rater","type":"address","internalType":"address"}],"outputs":[{"name":"","type":"tuple","internalType":"struct PeerRating.Rating","components":[{"name":"rater","type":"address","internalType":"address"},{"name":"ratee","type":"address","internalType":"address"},{"name":"topicId","type":"uint32","internalType":"uint32"},{"name":"score","type":"uint16","internalType":"uint16"},{"name":"timestamp","type":"uint64","internalType":"uint64"},{"name":"exists","type":"bool","internalType":"bool"}]}],"stateMutability":"view"},{"type":"function","name":"getRatingAtTime","inputs":[{"name":"ratee","type":"address","internalType":"address"},{"name":"topicId","type":"uint32","internalType":"uint32"},{"name":"rater","type":"address","internalType":"address"},{"name":"scoreTime","type":"uint64","internalType":"uint64"}],"outputs":[{"name":"","type":"tuple","internalType":"struct PeerRating.Rating","components":[{"name":"rater","type":"address","internalType":"address"},{"name":"ratee","type":"address","internalType":"address"},{"name":"topicId","type":"uint32","internalType":"uint32"},{"name":"score","type":"uint16","internalType":"uint16"},{"name":"timestamp","type":"uint64","internalType":"uint64"},{"name":"exists","type":"bool","internalType":"bool"}]}],"stateMutability":"view"},{"type":"function","name":"getRatingAtTimestamp","inputs":[{"name":"ratee","type":"address","internalType":"address"},{"name":"topicId","type":"uint32","internalType":"uint32"},{"name":"rater","type":"address","internalType":"address"},{"name":"timestamp","type":"uint64","internalType":"uint64"}],"outputs":[{"name":"","type":"tuple","internalType":"struct PeerRating.Rating","components":[{"name":"rater","type":"address","internalType":"address"},{"name":"ratee","type":"address","internalType":"address"},{"name":"topicId","type":"uint32","internalType":"uint32"},{"name":"score","type":"uint16","internalType":"uint16"},{"name":"timestamp","type":"uint64","internalType":"uint64"},{"name":"exists","type":"bool","internalType":"bool"}]}],"stateMutability":"view"},{"type":"function","name":"getRatingCount","inputs":[{"name":"user","type":"address","internalType":"address"},{"name":"topicId","type":"uint32","internalType":"uint32"}],"outputs":[{"name":"","type":"uint32","internalType":"uint32"}],"stateMutability":"view"},{"type":"function","name":"getRatingTimestamps","inputs":[{"name":"ratee","type":"address","internalType":"address"},{"name":"topicId","type":"uint32","internalType":"uint32"},{"name":"rater","type":"address","internalType":"address"}],"outputs":[{"name":"","type":"uint64[]","internalType":"uint64[]"}],"stateMutability":"view"},{"type":"function","name":"getRatingsByUser","inputs":[{"name":"user","type":"address","internalType":"address"}],"outputs":[{"name":"","type":"tuple[]","internalType":"struct PeerRating.Rating[]","components":[{"name":"rater","type":"address","internalType":"address"},{"name":"ratee","type":"address","internalType":"address"},{"name":"topicId","type":"uint32","internalType":"uint32"},{"name":"score","type":"uint16","internalType":"uint16"},{"name":"timestamp","type":"uint64","internalType":"uint64"},{"name":"exists","type":"bool","internalType":"bool"}]}],"stateMutability":"view"},{"type":"function","name":"getTopicRaters","inputs":[{"name":"user","type":"address","internalType":"address"},{"name":"topicId","type":"uint32","internalType":"uint32"}],"outputs":[{"name":"","type":"address[]","internalType":"address[]"}],"stateMutability":"view"},{"type":"function","name":"getUserRatedTopics","inputs":[{"name":"user","type":"address","internalType":"address"}],"outputs":[{"name":"","type":"uint32[]","internalType":"uint32[]"}],"stateMutability":"view"},{"type":"function","name":"getUserTopicRating","inputs":[{"name":"user","type":"address","internalType":"address"},{"name":"topicId","type":"uint32","internalType":"uint32"}],"outputs":[{"name":"","type":"tuple","internalType":"struct PeerRating.UserTopicRatings","components":[{"name":"averageScore","type":"uint16","internalType":"uint16"},{"name":"totalRatings","type":"uint32","internalType":"uint32"},{"name":"lastRatingTime","type":"uint64","internalType":"uint64"}]}],"stateMutability":"view"},{"type":"function","name":"getUserTopicRatingAtTime","inputs":[{"name":"user","type":"address","internalType":"address"},{"name":"topicId","type":"uint32","internalType":"uint32"},{"name":"scoreTime","type":"uint64","internalType":"uint64"}],"outputs":[{"name":"","type":"tuple","internalType":"struct PeerRating.UserTopicRatings","components":[{"name":"averageScore","type":"uint16","internalType":"uint16"},{"name":"totalRatings","type":"uint32","internalType":"uint32"},{"name":"lastRatingTime","type":"uint64","internalType":"uint64"}]}],"stateMutability":"view"},{"type":"function","name":"initialize","inputs":[{"name":"initialOwner","type":"address","internalType":"address"},{"name":"_topicRegistry","type":"address","internalType":"address"},{"name":"_userContract","type":"address","internalType":"address"}],"outputs":[],"stateMutability":"nonpayable"},{"type":"function","name":"owner","inputs":[],"outputs":[{"name":"","type":"address","internalType":"address"}],"stateMutability":"view"},{"type":"function","name":"proxiableUUID","inputs":[],"outputs":[{"name":"","type":"bytes32","internalType":"bytes32"}],"stateMutability":"view"},{"type":"function","name":"rateUser","inputs":[{"name":"ratee","type":"address","internalType":"address"},{"name":"topicId","type":"uint32","internalType":"uint32"},{"name":"score","type":"uint16","internalType":"uint16"}],"outputs":[],"stateMutability":"nonpayable"},{"type":"function","name":"ratingExists","inputs":[{"name":"ratee","type":"address","internalType":"address"},{"name":"topicId","type":"uint32","internalType":"uint32"},{"name":"rater","type":"address","internalType":"address"}],"outputs":[{"name":"","type":"bool","internalType":"bool"}],"stateMutability":"view"},{"type":"function","name":"ratingExistsAtTimestamp","inputs":[{"name":"ratee","type":"address","internalType":"address"},{"name":"topicId","type":"uint32","internalType":"uint32"},{"name":"rater","type":"address","internalType":"address"},{"name":"timestamp","type":"uint64","internalType":"uint64"}],"outputs":[{"name":"","type":"bool","internalType":"bool"}],"stateMutability":"view"},{"type":"function","name":"ratingTimestamps","inputs":[{"name":"","type":"address","internalType":"address"},{"name":"","type":"uint32","internalType":"uint32"},{"name":"","type":"address","internalType":"address"},{"name":"","type":"uint256","internalType":"uint256"}],"outputs":[{"name":"","type":"uint64","internalType":"uint64"}],"stateMutability":"view"},{"type":"function","name":"ratings","inputs":[{"name":"","type":"address","internalType":"address"},{"name":"","type":"uint32","internalType":"uint32"},{"name":"","type":"address","internalType":"address"},{"name":"","type":"uint64","internalType":"uint64"}],"outputs":[{"name":"rater","type":"address","internalType":"address"},{"name":"ratee","type":"address","internalType":"address"},{"name":"topicId","type":"uint32","internalType":"uint32"},{"name":"score","type":"uint16","internalType":"uint16"},{"name":"timestamp","type":"uint64","internalType":"uint64"},{"name":"exists","type":"bool","internalType":"bool"}],"stateMutability":"view"},{"type":"function","name":"ratingsMadeByUser","inputs":[{"name":"","type":"address","internalType":"address"},{"name":"","type":"uint256","internalType":"uint256"}],"outputs":[{"name":"rater","type":"address","internalType":"address"},{"name":"ratee","type":"address","internalType":"address"},{"name":"topicId","type":"uint32","internalType":"uint32"},{"name":"score","type":"uint16","internalType":"uint16"},{"name":"timestamp","type":"uint64","internalType":"uint64"},{"name":"exists","type":"bool","internalType":"bool"}],"stateMutability":"view"},{"type":"function","name":"renounceOwnership","inputs":[],"outputs":[],"stateMutability":"nonpayable"},{"type":"function","name":"reputationEngine","inputs":[],"outputs":[{"name":"","type":"address","internalType":"address"}],"stateMutability":"view"},{"type":"function","name":"setReputationEngine","inputs":[{"name":"_reputationEngine","type":"address","internalType":"address"}],"outputs":[],"stateMutability":"nonpayable"},{"type":"function","name":"topicRaters","inputs":[{"name":"","type":"address","internalType":"address"},{"name":"","type":"uint32","internalType":"uint32"},{"name":"","type":"uint256","internalType":"uint256"}],"outputs":[{"name":"","type":"address","internalType":"address"}],"stateMutability":"view"},{"type":"function","name":"topicRegistry","inputs":[],"outputs":[{"name":"","type":"address","internalType":"contract TopicRegistry"}],"stateMutability":"view"},{"type":"function","name":"transferOwnership","inputs":[{"name":"newOwner","type":"address","internalType":"address"}],"outputs":[],"stateMutability":"nonpayable"},{"type":"function","name":"upgradeToAndCall","inputs":[{"name":"newImplementation","type":"address","internalType":"address"},{"name":"data","type":"bytes","internalType":"bytes"}],"outputs":[],"stateMutability":"payable"},{"type":"function","name":"userContract","inputs":[],"outputs":[{"name":"","type":"address","internalType":"contract User"}],"stateMutability":"view"},{"type":"function","name":"userRatedTopics","inputs":[{"name":"","type":"address","internalType":"address"},{"name":"","type":"uint256","internalType":"uint256"}],"outputs":[{"name":"","type":"uint32","internalType":"uint32"}],"stateMutability":"view"},{"type":"function","name":"userTopicRatings","inputs":[{"name":"","type":"address","internalType":"address"},{"name":"","type":"uint32","internalType":"uint32"}],"outputs":[{"name":"averageScore","type":"uint16","internalType":"uint16"},{"name":"totalRatings","type":"uint32","internalType":"uint32"},{"name":"lastRatingTime","type":"uint64","internalType":"uint64"}],"stateMutability":"view"},{"type":"event","name":"AggregateRatingUpdated","inputs":[{"name":"user","type":"address","indexed":true,"internalType":"address"},{"name":"topicId","type":"uint32","indexed":true,"internalType":"uint32"},{"name":"newAverageScore","type":"uint16","indexed":false,"internalType":"uint16"},{"name":"totalRatings","type":"uint32","indexed":false,"internalType":"uint32"}],"anonymous":false},{"type":"event","name":"Initialized","inputs":[{"name":"version","type":"uint64","indexed":false,"internalType":"uint64"}],"anonymous":false},{"type":"event","name":"OwnershipTransferred","inputs":[{"name":"previousOwner","type":"address","indexed":true,"internalType":"address"},{"name":"newOwner","type":"address","indexed":true,"internalType":"address"}],"anonymous":false},{"type":"event","name":"RatingSubmitted","inputs":[{"name":"rater","type":"address","indexed":true,"internalType":"address"},{"name":"ratee","type":"address","indexed":true,"internalType":"address"},{"name":"topicId","type":"uint32","indexed":true,"internalType":"uint32"},{"name":"score","type":"uint16","indexed":false,"internalType":"uint16"},{"name":"timestamp","type":"uint64","indexed":false,"internalType":"uint64"}],"anonymous":false},{"type":"event","name":"RatingUpdated","inputs":[{"name":"rater","type":"address","indexed":true,"internalType":"address"},{"name":"ratee","type":"address","indexed":true,"internalType":"address"},{"name":"topicId","type":"uint32","indexed":true,"internalType":"uint32"},{"name":"oldScore","type":"uint16","indexed":false,"internalType":"uint16"},{"name":"newScore","type":"uint16","indexed":false,"internalType":"uint16"},{"name":"timestamp","type":"uint64","indexed":false,"internalType":"uint64"}],"anonymous":false},{"type":"event","name":"Upgraded","inputs":[{"name":"implementation","type":"address","indexed":true,"internalType":"address"}],"anonymous":false},{"type":"error","name":"AddressEmptyCode","inputs":[{"name":"target","type":"address","internalType":"address"}]},{"type":"error","name":"ERC1967InvalidImplementation","inputs":[{"name":"implementation","type":"address","internalType":"address"}]},{"type":"error","name":"ERC1967NonPayable","inputs":[]},{"type":"error","name":"FailedCall","inputs":[]},{"type":"error","name":"InvalidInitialization","inputs":[]},{"type":"error","name":"InvalidRatingValue","inputs":[]},{"type":"error","name":"InvalidTopicId","inputs":[]},{"type":"error","name":"NotInitializing","inputs":[]},{"type":"error","name":"OwnableInvalidOwner","inputs":[{"name":"owner","type":"address","internalType":"address"}]},{"type":"error","name":"OwnableUnauthorizedAccount","inputs":[{"name":"account","type":"address","internalType":"address"}]},{"type":"error","name":"RatedTooRecently","inputs":[{"name":"","type":"address","internalType":"address"},{"name":"","type":"address","internalType":"address"},{"name":"","type":"uint32","internalType":"uint32"},{"name":"","type":"uint64","internalType":"uint64"}]},{"type":"error","name":"RatingNotFound","inputs":[]},{"type":"error","name":"SelfRatingNotAllowed","inputs":[]},{"type":"error","name":"UUPSUnauthorizedCallContext","inputs":[]},{"type":"error","name":"UUPSUnsupportedProxiableUUID","inputs":[{"name":"slot","type":"bytes32","internalType":"bytes32"}]},{"type":"error","name":"Unauthorized","inputs":[]},{"type":"error","name":"UserNotRegistered","inputs":[]}],"bytecode":{"object":"0x60a08060405234620000d157306080527ff0c57e16840df040f15088dc2f81fe391c3923bec73e23a9662efc9c229c6a009081549060ff8260401c16620000c257506001600160401b036002600160401b0319828216016200007c575b6040516134f49081620000d68239608051818181611714015261184b0152f35b6001600160401b031990911681179091556040519081527fc7f505b2f371ae2175ee4913f4499e1f2633a7b5936321eed1cdaeb6115181d290602090a15f80806200005c565b63f92ee8a960e01b8152600490fd5b5f80fdfe6080806040526004361015610012575f80fd5b5f9060e05f3560e01c91826303f8db84146121c45750816305dace7d146121045781631dce94cc1461209a57816324e348e01461202757816329fc7aff14611f345781632d6c3d1214611d185750806330e0cd8514611cc357806336a9c6a714611c5c5780633f9c1cc914611ab25780634d8a6826146119eb5780634f1ef286146117d05780635000596b146117a75780635055735b1461177e57806352d1902d146117015780636bb5090c146116a057806370a6e4b2146114e4578063715018a61461147b57806372a803cf1461144b5780638da5cb5b1461141657806394e113ea146113f957806395ba6d80146113aa578063a3bdbaa41461132b578063a6a9cfca146112be578063ad3cb1cc1461123b578063b51b367a146111ac578063b74173b714611139578063bb0e4ea21461111d578063c0c53b8b14610fb3578063c3f677ef14610f8a578063c66a9e3414610f35578063cc09d96a14610f17578063cc8df8f3146102c4578063da9fbe3e1461022e578063db425557146101d15763f2fde38b146101a2575f80fd5b346101ce5760203660031901126101ce576101cb6101be612d2f565b6101c661314c565b6130ca565b80f35b80fd5b50346101ce5760403660031901126101ce576101eb612d2f565b6001600160a01b03168152600460205260408120805460243592908310156101ce57602063ffffffff61021e8585612f9d565b9190546040519260031b1c168152f35b50346101ce5760406102c061024236612d84565b9490919560018060a01b038094168152806020522063ffffffff8096165f526020528160405f2091165f5260205260405f206001600160401b038094165f5260205260405f20908082541694600260018401549301549260405196879660ff8660401c1695169361ffff8360c01c16938360a01c1692169087612f3d565b0390f35b50346101ce5760803660031901126101ce576102de612d2f565b906102e7612d5b565b9163ffffffff6044351660443503610f135761ffff6064351660643503610f135761031061314c565b60075460405163c3c5a54760e01b81526001600160a01b03838116600483015290911690602081602481855afa908115610cd8578491610ed9575b5015610c435760405163c3c5a54760e01b81526001600160a01b0385166004820152602081602481855afa908115610cd8578491610e9f575b5015610c435760405163c3c5a54760e01b81526001600160a01b0383166004820152602081602481855afa908115610cd8578491610e65575b5015610c435760405163c3c5a54760e01b81526001600160a01b0385166004820152602081602481855afa908115610cd8578491610e2b575b5015610c43576001600160a01b0382811690851614610e19576103e861ffff6064351611610e0757600654604051637d3de18f60e11b815260443563ffffffff166004820152908490829060249082906001600160a01b03165afa8015610cd8578490610cf4575b60609150015115610ce35760405163c3c5a54760e01b81526001600160a01b0383166004820152602081602481855afa908115610cd8578491610c9e575b5015610c435760405163c3c5a54760e01b81526001600160a01b038516600482015290602090829060249082905afa908115610c93578391610c55575b5015610c43576001600160a01b0383811680845260016020818152604080872060443563ffffffff81165f818152928552838320978916808452978552838320878b528a8652848b209184529085528383208884528552838320426001600160401b0316845290945291902080546001600160a01b031916909517855591840180546001600160c01b03191690931760a09290921b63ffffffff60a01b16919091178255916002916105a190805461ffff60c01b191660643560c01b61ffff60c01b16179055565b01805468ffffffffffffffffff1916426001600160401b031617600160401b1790556001600160a01b0382168352600560205260408084209051906105e582612e49565b6001600160a01b0384811683528616602083015260443563ffffffff16604083015260643561ffff166060830152426001600160401b03166080830152600160a0830152805490600160401b821015610c07579061064891600182018155612f24565b610c2f57815181546001600160a01b0319166001600160a01b03918216178255602083015160018301805460408601516001600160c01b0319909116929093169190911760a092831b63ffffffff60a01b1617815561070593926002916106cb905b6060860151815461ffff60c01b191660c09190911b61ffff60c01b16179055565b608084015191018054929093015168ffffffffffffffffff199092166001600160401b03919091161790151560401b60ff60401b16179055565b8054600160401b811015610c1b578060016107239201835582612ece565b81549060031b906001600160401b03804216831b921b1916179055600181541480610b21575b6008546001600160a01b0316803b15610b1d57604051633842af2d60e01b81526001600160a01b03871660048201526044803563ffffffff166024830152909186918391829084905af18015610b1257908591610afa575b505015610a0657506040805160643561ffff168152426001600160401b0316602082015260443563ffffffff16926001600160a01b03868116939116917f3e358f5e9ccee95421ebc3fd26c6a7a82498f61ad5f9b2a0b61278fdee2bf59d9190a45b60018060a01b038216815260036020526040812063ffffffff604435165f5260205260405f20916040518084602082965493848152019085526020852092855b8181106109e457505061085892500384612e92565b8182908392845b86518110156108e257610889426001600160a01b0361087e848b61307d565b511660443585613184565b60a081015161089c575b5060010161085f565b939260806108c46108be6001600160401b039361ffff60608a01511690613091565b9561309e565b950151166001600160401b0386168111156108935794506001610893565b509394508180156109d6576108ff61ffff9163ffffffff936130ac565b16915b169061ffff6040519161091483612e77565b169283825260208201908382526001600160401b03604084019116815260018060a01b038616875260026020526040872063ffffffff604435165f5260205261ffff60405f209351166dffffffffffffffff00000000000065ffffffff00008554945160101b16925160301b16926001600160701b031916171717905560405191825260208201527f3a9cf2f120fb526b148a312034c60158d93c1f8544af59b232c38721acb96c7e604063ffffffff604435169360018060a01b031692a380f35b505063ffffffff8491610902565b84546001600160a01b0316835260019485019488945060209093019201610843565b805480600119810111610ae6576001600160401b0391610a2a916001190190612ece565b90549060031b1c1660018060a01b0384168352826020526040832063ffffffff604435165f5260205260405f2060018060a01b0383165f5260205260405f20905f5260205261ffff600160405f20015460c01c169060405191825261ffff6064351660208301526001600160401b034216604083015263ffffffff60443516917fb71ebe14aaf089219e4eb16ec1aca47f09219701edfb7d1ce4c4e5fee2e796e3606060018060a01b0387169360018060a01b031692a4610803565b634e487b7160e01b84526011600452602484fd5b610b0390612e64565b610b0e57835f6107a1565b8380fd5b6040513d87823e3d90fd5b8480fd5b60018060a01b038516845260036020526040842063ffffffff604435165f5260205260405f20805490600160401b821015610c075790610b6691600182018155612f88565b81546001600160a01b0360039290921b82811b1990911686831690911b179091558516845260026020908152604080862060443563ffffffff9081165f90815291909352205460101c16610749576001600160a01b0385168452600460205260408420805490600160401b821015610c075790610be891600182018155612f9d565b81549060031b9063ffffffff8060443516831b921b1916179055610749565b634e487b7160e01b86526041600452602486fd5b634e487b7160e01b84526041600452602484fd5b634e487b7160e01b85526004859052602485fd5b604051632163950f60e01b8152600490fd5b90506020813d602011610c8b575b81610c7060209383612e92565b81010312610c8757610c8190612fbe565b5f6104d9565b8280fd5b3d9150610c63565b6040513d85823e3d90fd5b90506020813d602011610cd0575b81610cb960209383612e92565b81010312610b0e57610cca90612fbe565b5f61049c565b3d9150610cac565b6040513d86823e3d90fd5b6040516227fb4f60ea1b8152600490fd5b503d908185823e610d058282612e92565b6020818381010312610b1d578051906001600160401b038211610e035760a08282018483010312610e035760405192610d3d84612e2e565b610d4883830161313b565b8452602083830101516001600160401b038111610dff5783830101818301601f82011215610dff57805190610d7c82612eb3565b92610d8a6040519485612e92565b828452840160208383010111610dfb578291610db0916020806080989796019101612f03565b6020850152610dc360408383010161313b565b6040850152610dd6606083830101612fbe565b60608501520101516001600160401b0381168103610b1d57608082015260609061045e565b8880fd5b8780fd5b8580fd5b60405163a9cadffd60e01b8152600490fd5b60405163cb02f59960e01b8152600490fd5b90506020813d602011610e5d575b81610e4660209383612e92565b81010312610b0e57610e5790612fbe565b5f6103f6565b3d9150610e39565b90506020813d602011610e97575b81610e8060209383612e92565b81010312610b0e57610e9190612fbe565b5f6103bd565b3d9150610e73565b90506020813d602011610ed1575b81610eba60209383612e92565b81010312610b0e57610ecb90612fbe565b5f610384565b3d9150610ead565b90506020813d602011610f0b575b81610ef460209383612e92565b81010312610b0e57610f0590612fbe565b5f61034b565b3d9150610ee7565b5f80fd5b50346101ce57806003193601126101ce57602060405162eff1008152f35b50346101ce5760403660031901126101ce5763ffffffff6040610f56612d2f565b92610f5f612d71565b9360018060a01b0316815260026020522091165f52602052602061ffff60405f205416604051908152f35b50346101ce57806003193601126101ce576008546040516001600160a01b039091168152602090f35b50346101ce5760603660031901126101ce57610fcd612d2f565b610fd5612d5b565b90610fde612d45565b917ff0c57e16840df040f15088dc2f81fe391c3923bec73e23a9662efc9c229c6a0092835460ff8160401c1615936001600160401b03821680159081611115575b600114908161110b575b159081611102575b506110f05767ffffffffffffffff198216600117865561106291856110d1575b5061105a6133cc565b6101c66133cc565b60018060a01b0390816bffffffffffffffffffffffff60a01b931683600654161760065516906007541617600755611098575080f35b60ff60401b1981541690557fc7f505b2f371ae2175ee4913f4499e1f2633a7b5936321eed1cdaeb6115181d2602060405160018152a180f35b68ffffffffffffffffff1916680100000000000000011786555f611051565b60405163f92ee8a960e01b8152600490fd5b9050155f611031565b303b159150611029565b86915061101f565b50346101ce57806003193601126101ce57602090604051908152f35b50346101ce5760603660031901126101ce57611153612d2f565b61115b612d71565b916044359260018060a01b038093168252600360205263ffffffff6040832091165f5260205260405f209081548410156101ce575060209261119c91612f88565b90549060031b1c16604051908152f35b50346101ce5760403660031901126101ce576111c6612d2f565b6001600160a01b03908116825260056020526040822080546024359190821015610b0e57906111f491612f24565b506102c08282541660026001840154930154906040519485946001600160401b0360ff8560401c1694169261ffff8260c01c169263ffffffff8360a01c1692169087612f3d565b50346101ce57806003193601126101ce57604051604081018181106001600160401b038211176112aa5761129c9160409182526005815260208101640352e302e360dc1b815282519384926020845251809281602086015285850190612f03565b601f01601f19168101030190f35b634e487b7160e01b5f52604160045260245ffd5b50346101ce5763ffffffff9060406112d536612d84565b95919293909460018060a01b038095168152806020522091165f5260205260405f2091165f526020526001600160401b0360405f2091165f52602052602060ff600260405f20015460401c166040519015158152f35b50346101ce5760803660031901126101ce57611345612d2f565b9061134e612d71565b91611357612d45565b906064359360018060a01b038092168452600160205263ffffffff6040852091165f5260205260405f2091165f5260205260405f209081548310156101ce5760206001600160401b0361021e8585612ece565b50346101ce5760603660031901126101ce5760c06113ea6113c9612d2f565b6113d1612d71565b6113d9612d45565b906113e2612fe9565b504292613184565b6113f76040518092612dd9565bf35b50346101ce57806003193601126101ce5760206040516103e88152f35b50346101ce57806003193601126101ce575f8051602061349f833981519152546040516001600160a01b039091168152602090f35b50346101ce5760c06113ea6001600160401b0361146736612d84565b61147394919394612fe9565b501692613184565b50346101ce57806003193601126101ce5761149461314c565b5f8051602061349f83398151915280546001600160a01b031981169091555f906001600160a01b03167f8be0079c531659141344cd1fd0a4f28419497f9722a3daafe3b4186f6b6457e08280a380f35b50346101ce5760608060031936011261169c576114ff612d2f565b90611508612d71565b90604435916001600160401b0391828416809403610f1357611528612fcb565b5060018060a01b03808616875260209460038652604088209663ffffffff978886165f52875260405f209460405180878a8299549384815201908d528a8d20928d5b8c8282106116845750505061158192500387612e92565b89938a968b998c5b82518110156115fc576115aa87856115a1848761307d565b51168789613184565b8b60a08201516115bf575b5050600101611589565b909a986115df6115d960809261ffff8f8f01511690613091565b9a61309e565b9b0151168b8d1681116115f3575b8b6115b5565b9b5060016115ed565b50888a8c8f938f848c6102c0978215155f1461167b575061ffff91611620916130ac565b16945b61ffff6040519661163388612e77565b16865216908401521660408201526040519182918291909160406001600160401b0381606084019561ffff815116855263ffffffff6020820151166020860152015116910152565b91505094611623565b85548a1684526001958601958c95509301920161156a565b5080fd5b50346101ce5760203660031901126101ce576116ba612d2f565b6116c261314c565b600854906001600160a01b03908183166116f05716906bffffffffffffffffffffffff60a01b161760085580f35b6040516282b42960e81b8152600490fd5b50346101ce57806003193601126101ce577f00000000000000000000000000000000000000000000000000000000000000006001600160a01b0316300361176c5760206040517f360894a13ba1a3210667c828492db98dca3e2076cc3735a920a3ca505d382bbc8152f35b60405163703e46dd60e11b8152600490fd5b50346101ce57806003193601126101ce576006546040516001600160a01b039091168152602090f35b50346101ce57806003193601126101ce576007546040516001600160a01b039091168152602090f35b5060403660031901126101ce576117e5612d2f565b6024918235916001600160401b03831161169c573660238401121561169c5782600401359061181382612eb3565b916118216040519384612e92565b80835260209436878383010111610b1d578185928888930183870137840101526001600160a01b037f000000000000000000000000000000000000000000000000000000000000000081163081149081156119bd575b5061176c5761188461314c565b6040516352d1902d60e01b8152908216948082600481895afa918291869361198d575b50506118c557604051634c9c8ce360e01b8152600481018690528690fd5b909192947f360894a13ba1a3210667c828492db98dca3e2076cc3735a920a3ca505d382bbc918281036119785750823b15611962575080546001600160a01b03191684179055604051927fbc7cd75a20ee27fd9adebab32041f755214dbc6bffa90cc0225b39da2e5c2d3b8580a281511561194857611944925061340d565b5080f35b505034611953575080f35b63b398979f60e01b8152600490fd5b604051634c9c8ce360e01b815260048101869052fd5b60405190632a87526960e21b82526004820152fd5b9080929350813d83116119b6575b6119a58183612e92565b81010312610b1d5751905f806118a7565b503d61199b565b9050817f360894a13ba1a3210667c828492db98dca3e2076cc3735a920a3ca505d382bbc541614155f611877565b50346101ce5760403660031901126101ce57611a05612d2f565b90611a0e612d71565b9060018060a01b0380931681526020916003835263ffffffff6040832091165f52825260405f2090604051808484549182815201908194845285842090845b818110611a9c5750505081611a63910382612e92565b6040519380850191818652518092526040850193925b828110611a865785850386f35b8351871685529381019392810192600101611a79565b8254891684529287019260019283019201611a4d565b50346101ce5760609060606003193601126101ce57611acf612d2f565b91611ad8612d71565b611ae0612d45565b60018060a01b03809516845260019460209286845263ffffffff6040872091165f52835260405f2091165f5281528060405f20926040519081938491818754948581520190819789528289209489915b8b826003850110611c14575050611b769554918b85838310611bfb575b838310611bdf575b838310611bc3575b505010611bb5575b509050969496959392950382612e92565b6040519380850191818652518092526040850195925b828110611b995785870386f35b83516001600160401b0316875295810195928101928401611b8c565b60c01c81520183905f611b65565b9091946001600160401b038560801c1681520193018b85611b5d565b9091946001600160401b038560401c1681520193018b85611b55565b9091946001600160401b03851681520193018b85611b4d565b9194509450600491928654906001600160401b03918281168252828160401c168a83015260809281841c16604083015260c01c87820152019501910185928794959295611b30565b50346101ce5760603660031901126101ce57611c76612d2f565b611c7e612d71565b63ffffffff6040611c8d612d45565b9460018060a01b03809516815260016020522091165f5260205260405f2091165f52602052602060405f20541515604051908152f35b50346101ce5760403660031901126101ce576020906040611ce2612d2f565b91611ceb612d71565b9260018060a01b03168152600284522063ffffffff8092165f52825260405f205460101c16604051908152f35b90503461169c5760209081600319360112610c8757906001600160a01b03611d3e612d2f565b168352600481528060408420926040519081938491818754948581520190819789528289209489915b816007840110611ec45750611dc795549184828210611eae575b828210611e96575b828210611e7d575b828210611e64575b828210611e4b575b828210611e32575b828210611e19575b5010611e0b575b50905095929493950385612e92565b60405193838594850191818652518092526040850193925b828110611dee57505050500390f35b835163ffffffff1685528695509381019392810192600101611ddf565b60e01c81520183905f611db8565b6001919463ffffffff8560c01c16815201930184611db1565b6001919463ffffffff8560a01c16815201930184611da9565b6001919463ffffffff8560801c16815201930184611da1565b6001919463ffffffff8560601c16815201930184611d99565b6001919463ffffffff8560401c16815201930184611d91565b6001919463ffffffff85831c16815201930184611d89565b6001919463ffffffff8516815201930184611d81565b94509250906001610100600892875463ffffffff808216835280828c1c168b840152808260401c16604084015260608183821c169084015260808183821c169084015260a08183821c169084015260c09082821c1690830152871c87820152019501910185928794959295611d67565b82346101ce57602090816003193601126101ce576001600160a01b03611f58612d2f565b1681526005825260408120918254906001600160401b0382116120135791929060405190611f8b848260051b0183612e92565b8082528382018093865284862086915b838310611fec57505050506040519280840191818552518092526040840192945b828110611fc95784840385f35b9091928260c082611fdd6001948a51612dd9565b01960191019492919094611fbc565b600387600192612000859b9a98999b613019565b8152019201920191909694939596611f9b565b634e487b7160e01b83526041600452602483fd5b82346101ce5760403660031901126101ce576060906040612046612d2f565b9161204f612d71565b9260018060a01b0316815260026020522063ffffffff8092165f526020526001600160401b0360405f20546040519261ffff821684528160101c16602084015260301c166040820152f35b82346101ce5763ffffffff9060406120b136612d84565b9591929390946120bf612fe9565b5060018060a01b038095168152806020522091165f5260205260405f2091165f526020526001600160401b0360405f2091165f5260205260c06113ea60405f20613019565b82346101ce5760403660031901126101ce576102c0906040612124612d2f565b9161212d612d71565b92612136612fcb565b5060018060a01b0316815260026020522063ffffffff8092165f526020526001600160401b0360405f20916040519261216e84612e77565b549061ffff821684528160101c16602084015260301c1660408201526040519182918291909160406001600160401b0381606084019561ffff815116855263ffffffff6020820151166020860152015116910152565b8334610f13576060366003190112610f13576121de612d2f565b916121e7612d71565b9061ffff6044351660443503610f135760075463c3c5a54760e01b82523360048301526001600160a01b031690602081602481855afa90811561294c575f91612cf5575b5015610c435760405163c3c5a54760e01b81526001600160a01b0385166004820152602081602481855afa90811561294c575f91612cbb575b5015610c435760405163c3c5a54760e01b8152336004820152602081602481855afa90811561294c575f91612c81575b5015610c435760405163c3c5a54760e01b81526001600160a01b0385166004820152602081602481855afa90811561294c575f91612c47575b5015610c4357336001600160a01b03851614610e19576103e861ffff6044351611610e0757600654604051637d3de18f60e11b815263ffffffff84166004820152905f90829060249082906001600160a01b03165afa801561294c575f90612b61575b60609150015115610ce35760018060a01b0384165f52600160205260405f2063ffffffff83165f5260205260405f20335f5260205260405f2080549081612abb575b505060405163c3c5a54760e01b8152336004820152602081602481855afa90811561294c575f91612a81575b5015610c435760405163c3c5a54760e01b81526001600160a01b038516600482015290602090829060249082905afa90811561294c575f91612a47575b5015610c43576001600160a01b0383165f81815260016020818152604080842063ffffffff87168086529083528185203380875290845282862087875286855283872092875291845282862081875284528286206001600160401b0342168752909352932080546001600160a01b0319169091178155908101805461ffff60c01b60443560c01b166001600160d01b031990911690941763ffffffff60a01b60a087901b16179390931790925590600201600160401b6001600160401b03421668ffffffffffffffffff1983541617179055335f52600560205260405f20604051906124c682612e49565b3382526001600160a01b038616602083015263ffffffff8416604083015260443561ffff166060830152426001600160401b03166080830152600160a08301528054600160401b8110156112aa5761252391600182018155612f24565b919091612a3457805182546001600160a01b0319166001600160a01b03918216178355602082015160018401805460408501516001600160c01b0319909116929093169190911760a092831b63ffffffff60a01b1617815561258b936002916106cb906106aa565b8054600160401b8110156112aa578060016125a99201835582612ece565b81549060031b906001600160401b03804216831b921b1916179055600181541480612957575b6008546001600160a01b0316803b15610f1357604051633842af2d60e01b81526001600160a01b038716600482015263ffffffff85166024820152905f908290604490829084905af1801561294c57612939575b501561286d57506040805160443561ffff168152426001600160401b0316602082015263ffffffff8316916001600160a01b0386169133917f3e358f5e9ccee95421ebc3fd26c6a7a82498f61ad5f9b2a0b61278fdee2bf59d91a45b60018060a01b038316825260036020526040822063ffffffff82165f5260205260405f20926040518085602082975493848152019086526020862092865b81811061284b5750506126d292500385612e92565b8283918493855b875181101561275a57612701426001600160a01b036126f8848c61307d565b51168486613184565b60a0810151612714575b506001016126d9565b9493608061273c6127366001600160401b039361ffff60608b01511690613091565b9661309e565b960151166001600160401b03871681111561270b579550600161270b565b5063ffffffff9060409295947f3a9cf2f120fb526b148a312034c60158d93c1f8544af59b232c38721acb96c7e94818015155f14612841576127a061ffff9186936130ac565b16915b169061ffff8551916127b483612e77565b169687825260208201908382526001600160401b038784019116815260018060a01b038a168b526002602052868b208686165f5260205261ffff875f209351166dffffffffffffffff00000000000065ffffffff00008554945160101b16925160301b16926001600160701b031916171717905583519586526020860152169360018060a01b031692a380f35b50508288916127a3565b84546001600160a01b03168352600194850194899450602090930192016126bd565b805480600119810111610ae6576001600160401b0391612891916001190190612ece565b90549060031b1c1660018060a01b0384168352826020526040832063ffffffff83165f5260205260405f20335f5260205260405f20905f5260205261ffff600160405f20015460c01c1660405190815261ffff6044351660208201526001600160401b034216604082015263ffffffff82169060018060a01b038516907fb71ebe14aaf089219e4eb16ec1aca47f09219701edfb7d1ce4c4e5fee2e796e360603392a461267f565b612944919450612e64565b5f9285612623565b6040513d5f823e3d90fd5b60018060a01b0385165f52600360205260405f2063ffffffff84165f5260205260405f208054600160401b8110156112aa5761299891600182018155612f88565b81549060031b9033821b9160018060a01b03901b191617905560018060a01b0385165f52600260205260405f2063ffffffff84165f5260205263ffffffff60405f205460101c166125cf576001600160a01b0385165f9081526004602052604090208054600160401b8110156112aa57612a1791600182018155612f9d565b81549060031b9063ffffffff808716831b921b19161790556125cf565b634e487b7160e01b5f525f60045260245ffd5b90506020813d602011612a79575b81612a6260209383612e92565b81010312610f1357612a7390612fbe565b846123db565b3d9150612a55565b90506020813d602011612ab3575b81612a9c60209383612e92565b81010312610f1357612aad90612fbe565b8561239e565b3d9150612a8f565b5f198201918211612b4d576001600160401b0391612ad891612ece565b90549060031b1c1662eff10081016001600160401b038111612b4d576001600160401b03166001600160401b03421610612b125780612372565b60405163f07a4f3160e01b81523360048201526001600160a01b038616602482015263ffffffff841660448201526064810191909152608490fd5b634e487b7160e01b5f52601160045260245ffd5b503d805f833e612b718183612e92565b8101602082820312610f135781516001600160401b0392838211610f1357019060a082820312610f135760405191612ba883612e2e565b612bb18161313b565b83526020810151848111610f135781019180601f84011215610f1357825192612bd984612eb3565b91612be76040519384612e92565b84835260208583010111610f1357608093612c089160208085019101612f03565b6020840152612c196040820161313b565b6040840152612c2a60608201612fbe565b606084015201519182168203610f13576060916080820152612330565b90506020813d602011612c79575b81612c6260209383612e92565b81010312610f1357612c7390612fbe565b856122cd565b3d9150612c55565b90506020813d602011612cb3575b81612c9c60209383612e92565b81010312610f1357612cad90612fbe565b85612294565b3d9150612c8f565b90506020813d602011612ced575b81612cd660209383612e92565b81010312610f1357612ce790612fbe565b85612264565b3d9150612cc9565b90506020813d602011612d27575b81612d1060209383612e92565b81010312610f1357612d2190612fbe565b8561222b565b3d9150612d03565b600435906001600160a01b0382168203610f1357565b604435906001600160a01b0382168203610f1357565b602435906001600160a01b0382168203610f1357565b6024359063ffffffff82168203610f1357565b6080906003190112610f13576001600160a01b036004358181168103610f13579160243563ffffffff81168103610f1357916044359081168103610f1357906064356001600160401b0381168103610f135790565b60a08091600180831b03808251168552602082015116602085015263ffffffff604082015116604085015261ffff60608201511660608501526001600160401b03608082015116608085015201511515910152565b60a081019081106001600160401b038211176112aa57604052565b60c081019081106001600160401b038211176112aa57604052565b6001600160401b0381116112aa57604052565b606081019081106001600160401b038211176112aa57604052565b90601f801991011681019081106001600160401b038211176112aa57604052565b6001600160401b0381116112aa57601f01601f191660200190565b9190918054831015612eef575f52601860205f208360021c019260031b1690565b634e487b7160e01b5f52603260045260245ffd5b5f5b838110612f145750505f910152565b8181015183820152602001612f05565b8054821015612eef575f52600360205f20910201905f90565b6001600160a01b0391821681529116602082015263ffffffff91909116604082015261ffff90911660608201526001600160401b03909116608082015290151560a082015260c00190565b8054821015612eef575f5260205f2001905f90565b9190918054831015612eef575f52601c60205f208360031c019260021b1690565b51908115158203610f1357565b60405190612fd882612e77565b5f6040838281528260208201520152565b60405190612ff682612e49565b5f60a0838281528260208201528260408201528260608201528260808201520152565b9060405161302681612e49565b60a060ff6002839561ffff600180861b038083541687526001830154908116602088015263ffffffff81871c16604088015260c01c16606086015201546001600160401b038116608085015260401c161515910152565b8051821015612eef5760209160051b010190565b91908201809211612b4d57565b5f198114612b4d5760010190565b81156130b6570490565b634e487b7160e01b5f52601260045260245ffd5b6001600160a01b03908116908115613123575f8051602061349f83398151915280546001600160a01b031981168417909155167f8be0079c531659141344cd1fd0a4f28419497f9722a3daafe3b4186f6b6457e05f80a3565b604051631e4fbdf760e01b81525f6004820152602490fd5b519063ffffffff82168203610f1357565b5f8051602061349f833981519152546001600160a01b0316330361316c57565b60405163118cdaa760e01b8152336004820152602490fd5b91929061318f612fe9565b5060018060a01b0380931693845f526001916020838194825260409663ffffffff885f20941693845f528352875f20941693845f528252865f20875190819381818693549485815201905f528a825f20945f5b87826003830110613385578561321f98549484841061336c575b848410613351575b50838310613335575b505010613327575b5090500383612e92565b815115613311575f95869283835b6132a0575b505050501561326e5761326b955f525f8352845f20905f528252835f20905f5281526001600160401b03835f2092165f52525f20613019565b90565b5050925050805f8092519361328285612e49565b8185528401528201525f60608201525f60808201525f60a082015290565b815181101561330c576001600160401b0383816132bd848661307d565b51161115806132f5575b6132d5575b5083018361322d565b9094508198506132e78585949361307d565b5116979193909190846132cc565b5080613301838561307d565b5116818b16106132c7565b613232565b50505050925050805f8092519361328285612e49565b60c01c81520187905f613215565b9091946001600160401b038560801c168152019301878561320d565b85901c6001600160401b03168652909401930187858f613204565b6001600160401b038616875295810195928201926131fc565b92919550935060049286546001600160401b039283821683528d8483831c169084015260809382851c169083015260c01c60608201520194019101928a86938a93956131e2565b60ff7ff0c57e16840df040f15088dc2f81fe391c3923bec73e23a9662efc9c229c6a005460401c16156133fb57565b604051631afcd79f60e31b8152600490fd5b905f8091602081519101845af4808061348b575b156134415750506040513d81523d5f602083013e60203d82010160405290565b1561346857604051639996b31560e01b81526001600160a01b039091166004820152602490fd5b3d15613479576040513d5f823e3d90fd5b60405163d6bda27560e01b8152600490fd5b503d1515806134215750813b151561342156fe9016d09d72d40fdae2fd8ceac6b6234c7706214fd39c1cd1e609a0528c199300a2646970667358221220c0cd9803d46199dccc73a4957d1c64e7b69750bb427f847ee0c97ae6544946c764736f6c63430008180033","linkReferences":{}},"methodIdentifiers":{"MAX_RATING()":"94e113ea","MIN_RATING()":"bb0e4ea2","RATING_COOLDOWN_PERIOD()":"cc09d96a","UPGRADE_INTERFACE_VERSION()":"ad3cb1cc","adminRateUser(address,address,uint32,uint16)":"cc8df8f3","getAverageScore(address,uint32)":"c66a9e34","getRating(address,uint32,address)":"95ba6d80","getRatingAtTime(address,uint32,address,uint64)":"72a803cf","getRatingAtTimestamp(address,uint32,address,uint64)":"1dce94cc","getRatingCount(address,uint32)":"30e0cd85","getRatingTimestamps(address,uint32,address)":"3f9c1cc9","getRatingsByUser(address)":"29fc7aff","getTopicRaters(address,uint32)":"4d8a6826","getUserRatedTopics(address)":"2d6c3d12","getUserTopicRating(address,uint32)":"05dace7d","getUserTopicRatingAtTime(address,uint32,uint64)":"70a6e4b2","initialize(address,address,address)":"c0c53b8b","owner()":"8da5cb5b","proxiableUUID()":"52d1902d","rateUser(address,uint32,uint16)":"03f8db84","ratingExists(address,uint32,address)":"36a9c6a7","ratingExistsAtTimestamp(address,uint32,address,uint64)":"a6a9cfca","ratingTimestamps(address,uint32,address,uint256)":"a3bdbaa4","ratings(address,uint32,address,uint64)":"da9fbe3e","ratingsMadeByUser(address,uint256)":"b51b367a","renounceOwnership()":"715018a6","reputationEngine()":"c3f677ef","setReputationEngine(address)":"6bb5090c","topicRaters(address,uint32,uint256)":"b74173b7","topicRegistry()":"5055735b","transferOwnership(address)":"f2fde38b","upgradeToAndCall(address,bytes)":"4f1ef286","userContract()":"5000596b","userRatedTopics(address,uint256)":"db425557","userTopicRatings(address,uint32)":"24e348e0"},"id":34}