{"abi":[{"type":"constructor","inputs":[],"stateMutability":"nonpayable"},{"type":"function","name":"MAX_RATING","inputs":[],"outputs":[{"name":"","type":"uint16","internalType":"uint16"}],"stateMutability":"view"},{"type":"function","name":"MIN_RATING","inputs":[],"outputs":[{"name":"","type":"uint16","internalType":"uint16"}],"stateMutability":"view"},{"type":"function","name":"RATING_COOLDOWN_PERIOD","inputs":[],"outputs":[{"name":"","type":"uint64","internalType":"uint64"}],"stateMutability":"view"},{"type":"function","name":"UPGRADE_INTERFACE_VERSION","inputs":[],"outputs":[{"name":"","type":"string","internalType":"string"}],"stateMutability":"view"},{"type":"function","name":"adminRateUser","inputs":[{"name":"rater","type":"address","internalType":"address"},{"name":"ratee","type":"address","internalType":"address"},{"name":"topicId","type":"uint32","internalType":"uint32"},{"name":"score","type":"uint16","internalType":"uint16"}],"outputs":[],"stateMutability":"nonpayable"},{"type":"function","name":"getAverageScore","inputs":[{"name":"user","type":"address","internalType":"address"},{"name":"topicId","type":"uint32","internalType":"uint32"}],"outputs":[{"name":"","type":"uint16","internalType":"uint16"}],"stateMutability":"view"},{"type":"function","name":"getRating","inputs":[{"name":"ratee","type":"address","internalType":"address"},{"name":"topicId","type":"uint32","internalType":"uint32"},{"name":"rater","type":"address","internalType":"address"}],"outputs":[{"name":"","type":"tuple","internalType":"struct PeerRating.Rating","components":[{"name":"rater","type":"address","internalType":"address"},{"name":"ratee","type":"address","internalType":"address"},{"name":"topicId","type":"uint32","internalType":"uint32"},{"name":"score","type":"uint16","internalType":"uint16"},{"name":"timestamp","type":"uint64","internalType":"uint64"},{"name":"exists","type":"bool","internalType":"bool"}]}],"stateMutability":"view"},{"type":"function","name":"getRatingAtTime","inputs":[{"name":"ratee","type":"address","internalType":"address"},{"name":"topicId","type":"uint32","internalType":"uint32"},{"name":"rater","type":"address","internalType":"address"},{"name":"scoreTime","type":"uint64","internalType":"uint64"}],"outputs":[{"name":"","type":"tuple","internalType":"struct PeerRating.Rating","components":[{"name":"rater","type":"address","internalType":"address"},{"name":"ratee","type":"address","internalType":"address"},{"name":"topicId","type":"uint32","internalType":"uint32"},{"name":"score","type":"uint16","internalType":"uint16"},{"name":"timestamp","type":"uint64","internalType":"uint64"},{"name":"exists","type":"bool","internalType":"bool"}]}],"stateMutability":"view"},{"type":"function","name":"getRatingAtTimestamp","inputs":[{"name":"ratee","type":"address","internalType":"address"},{"name":"topicId","type":"uint32","internalType":"uint32"},{"name":"rater","type":"address","internalType":"address"},{"name":"timestamp","type":"uint64","internalType":"uint64"}],"outputs":[{"name":"","type":"tuple","internalType":"struct PeerRating.Rating","components":[{"name":"rater","type":"address","internalType":"address"},{"name":"ratee","type":"address","internalType":"address"},{"name":"topicId","type":"uint32","internalType":"uint32"},{"name":"score","type":"uint16","internalType":"uint16"},{"name":"timestamp","type":"uint64","internalType":"uint64"},{"name":"exists","type":"bool","internalType":"bool"}]}],"stateMutability":"view"},{"type":"function","name":"getRatingCount","inputs":[{"name":"user","type":"address","internalType":"address"},{"name":"topicId","type":"uint32","internalType":"uint32"}],"outputs":[{"name":"","type":"uint32","internalType":"uint32"}],"stateMutability":"view"},{"type":"function","name":"getRatingTimestamps","inputs":[{"name":"ratee","type":"address","internalType":"address"},{"name":"topicId","type":"uint32","internalType":"uint32"},{"name":"rater","type":"address","internalType":"address"}],"outputs":[{"name":"","type":"uint64[]","internalType":"uint64[]"}],"stateMutability":"view"},{"type":"function","name":"getRatingsByUser","inputs":[{"name":"user","type":"address","internalType":"address"}],"outputs":[{"name":"","type":"tuple[]","internalType":"struct PeerRating.Rating[]","components":[{"name":"rater","type":"address","internalType":"address"},{"name":"ratee","type":"address","internalType":"address"},{"name":"topicId","type":"uint32","internalType":"uint32"},{"name":"score","type":"uint16","internalType":"uint16"},{"name":"timestamp","type":"uint64","internalType":"uint64"},{"name":"exists","type":"bool","internalType":"bool"}]}],"stateMutability":"view"},{"type":"function","name":"getTeamUserTopicRatingAtTime","inputs":[{"name":"teamId","type":"uint64","internalType":"uint64"},{"name":"user","type":"address","internalType":"address"},{"name":"topicId","type":"uint32","internalType":"uint32"},{"name":"scoreTime","type":"uint64","internalType":"uint64"}],"outputs":[{"name":"","type":"tuple","internalType":"struct PeerRating.UserTopicRatings","components":[{"name":"averageScore","type":"uint16","internalType":"uint16"},{"name":"totalRatings","type":"uint32","internalType":"uint32"},{"name":"lastRatingTime","type":"uint64","internalType":"uint64"}]}],"stateMutability":"pure"},{"type":"function","name":"getTopicRaters","inputs":[{"name":"user","type":"address","internalType":"address"},{"name":"topicId","type":"uint32","internalType":"uint32"}],"outputs":[{"name":"","type":"address[]","internalType":"address[]"}],"stateMutability":"view"},{"type":"function","name":"getUserRatedTopics","inputs":[{"name":"user","type":"address","internalType":"address"}],"outputs":[{"name":"","type":"uint32[]","internalType":"uint32[]"}],"stateMutability":"view"},{"type":"function","name":"getUserTopicRating","inputs":[{"name":"user","type":"address","internalType":"address"},{"name":"topicId","type":"uint32","internalType":"uint32"}],"outputs":[{"name":"","type":"tuple","internalType":"struct PeerRating.UserTopicRatings","components":[{"name":"averageScore","type":"uint16","internalType":"uint16"},{"name":"totalRatings","type":"uint32","internalType":"uint32"},{"name":"lastRatingTime","type":"uint64","internalType":"uint64"}]}],"stateMutability":"view"},{"type":"function","name":"getUserTopicRatingAtTime","inputs":[{"name":"user","type":"address","internalType":"address"},{"name":"topicId","type":"uint32","internalType":"uint32"},{"name":"scoreTime","type":"uint64","internalType":"uint64"}],"outputs":[{"name":"","type":"tuple","internalType":"struct PeerRating.UserTopicRatings","components":[{"name":"averageScore","type":"uint16","internalType":"uint16"},{"name":"totalRatings","type":"uint32","internalType":"uint32"},{"name":"lastRatingTime","type":"uint64","internalType":"uint64"}]}],"stateMutability":"view"},{"type":"function","name":"initialize","inputs":[{"name":"initialOwner","type":"address","internalType":"address"},{"name":"_topicRegistry","type":"address","internalType":"address"},{"name":"_userContract","type":"address","internalType":"address"}],"outputs":[],"stateMutability":"nonpayable"},{"type":"function","name":"owner","inputs":[],"outputs":[{"name":"","type":"address","internalType":"address"}],"stateMutability":"view"},{"type":"function","name":"proxiableUUID","inputs":[],"outputs":[{"name":"","type":"bytes32","internalType":"bytes32"}],"stateMutability":"view"},{"type":"function","name":"rateUser","inputs":[{"name":"ratee","type":"address","internalType":"address"},{"name":"topicId","type":"uint32","internalType":"uint32"},{"name":"score","type":"uint16","internalType":"uint16"}],"outputs":[],"stateMutability":"nonpayable"},{"type":"function","name":"ratingExists","inputs":[{"name":"ratee","type":"address","internalType":"address"},{"name":"topicId","type":"uint32","internalType":"uint32"},{"name":"rater","type":"address","internalType":"address"}],"outputs":[{"name":"","type":"bool","internalType":"bool"}],"stateMutability":"view"},{"type":"function","name":"ratingExistsAtTimestamp","inputs":[{"name":"ratee","type":"address","internalType":"address"},{"name":"topicId","type":"uint32","internalType":"uint32"},{"name":"rater","type":"address","internalType":"address"},{"name":"timestamp","type":"uint64","internalType":"uint64"}],"outputs":[{"name":"","type":"bool","internalType":"bool"}],"stateMutability":"view"},{"type":"function","name":"ratingTimestamps","inputs":[{"name":"","type":"address","internalType":"address"},{"name":"","type":"uint32","internalType":"uint32"},{"name":"","type":"address","internalType":"address"},{"name":"","type":"uint256","internalType":"uint256"}],"outputs":[{"name":"","type":"uint64","internalType":"uint64"}],"stateMutability":"view"},{"type":"function","name":"ratings","inputs":[{"name":"","type":"address","internalType":"address"},{"name":"","type":"uint32","internalType":"uint32"},{"name":"","type":"address","internalType":"address"},{"name":"","type":"uint64","internalType":"uint64"}],"outputs":[{"name":"rater","type":"address","internalType":"address"},{"name":"ratee","type":"address","internalType":"address"},{"name":"topicId","type":"uint32","internalType":"uint32"},{"name":"score","type":"uint16","internalType":"uint16"},{"name":"timestamp","type":"uint64","internalType":"uint64"},{"name":"exists","type":"bool","internalType":"bool"}],"stateMutability":"view"},{"type":"function","name":"ratingsMadeByUser","inputs":[{"name":"","type":"address","internalType":"address"},{"name":"","type":"uint256","internalType":"uint256"}],"outputs":[{"name":"rater","type":"address","internalType":"address"},{"name":"ratee","type":"address","internalType":"address"},{"name":"topicId","type":"uint32","internalType":"uint32"},{"name":"score","type":"uint16","internalType":"uint16"},{"name":"timestamp","type":"uint64","internalType":"uint64"},{"name":"exists","type":"bool","internalType":"bool"}],"stateMutability":"view"},{"type":"function","name":"renounceOwnership","inputs":[],"outputs":[],"stateMutability":"nonpayable"},{"type":"function","name":"reputationEngine","inputs":[],"outputs":[{"name":"","type":"address","internalType":"address"}],"stateMutability":"view"},{"type":"function","name":"setReputationEngine","inputs":[{"name":"_reputationEngine","type":"address","internalType":"address"}],"outputs":[],"stateMutability":"nonpayable"},{"type":"function","name":"topicRaters","inputs":[{"name":"","type":"address","internalType":"address"},{"name":"","type":"uint32","internalType":"uint32"},{"name":"","type":"uint256","internalType":"uint256"}],"outputs":[{"name":"","type":"address","internalType":"address"}],"stateMutability":"view"},{"type":"function","name":"topicRegistry","inputs":[],"outputs":[{"name":"","type":"address","internalType":"contract TopicRegistry"}],"stateMutability":"view"},{"type":"function","name":"transferOwnership","inputs":[{"name":"newOwner","type":"address","internalType":"address"}],"outputs":[],"stateMutability":"nonpayable"},{"type":"function","name":"upgradeToAndCall","inputs":[{"name":"newImplementation","type":"address","internalType":"address"},{"name":"data","type":"bytes","internalType":"bytes"}],"outputs":[],"stateMutability":"payable"},{"type":"function","name":"userContract","inputs":[],"outputs":[{"name":"","type":"address","internalType":"contract User"}],"stateMutability":"view"},{"type":"function","name":"userRatedTopics","inputs":[{"name":"","type":"address","internalType":"address"},{"name":"","type":"uint256","internalType":"uint256"}],"outputs":[{"name":"","type":"uint32","internalType":"uint32"}],"stateMutability":"view"},{"type":"function","name":"userTopicRatings","inputs":[{"name":"","type":"address","internalType":"address"},{"name":"","type":"uint32","internalType":"uint32"}],"outputs":[{"name":"averageScore","type":"uint16","internalType":"uint16"},{"name":"totalRatings","type":"uint32","internalType":"uint32"},{"name":"lastRatingTime","type":"uint64","internalType":"uint64"}],"stateMutability":"view"},{"type":"event","name":"AggregateRatingUpdated","inputs":[{"name":"user","type":"address","indexed":true,"internalType":"address"},{"name":"topicId","type":"uint32","indexed":true,"internalType":"uint32"},{"name":"newAverageScore","type":"uint16","indexed":false,"internalType":"uint16"},{"name":"totalRatings","type":"uint32","indexed":false,"internalType":"uint32"}],"anonymous":false},{"type":"event","name":"Initialized","inputs":[{"name":"version","type":"uint64","indexed":false,"internalType":"uint64"}],"anonymous":false},{"type":"event","name":"OwnershipTransferred","inputs":[{"name":"previousOwner","type":"address","indexed":true,"internalType":"address"},{"name":"newOwner","type":"address","indexed":true,"internalType":"address"}],"anonymous":false},{"type":"event","name":"RatingSubmitted","inputs":[{"name":"rater","type":"address","indexed":true,"internalType":"address"},{"name":"ratee","type":"address","indexed":true,"internalType":"address"},{"name":"topicId","type":"uint32","indexed":true,"internalType":"uint32"},{"name":"score","type":"uint16","indexed":false,"internalType":"uint16"},{"name":"timestamp","type":"uint64","indexed":false,"internalType":"uint64"}],"anonymous":false},{"type":"event","name":"RatingUpdated","inputs":[{"name":"rater","type":"address","indexed":true,"internalType":"address"},{"name":"ratee","type":"address","indexed":true,"internalType":"address"},{"name":"topicId","type":"uint32","indexed":true,"internalType":"uint32"},{"name":"oldScore","type":"uint16","indexed":false,"internalType":"uint16"},{"name":"newScore","type":"uint16","indexed":false,"internalType":"uint16"},{"name":"timestamp","type":"uint64","indexed":false,"internalType":"uint64"}],"anonymous":false},{"type":"event","name":"Upgraded","inputs":[{"name":"implementation","type":"address","indexed":true,"internalType":"address"}],"anonymous":false},{"type":"error","name":"AddressEmptyCode","inputs":[{"name":"target","type":"address","internalType":"address"}]},{"type":"error","name":"ERC1967InvalidImplementation","inputs":[{"name":"implementation","type":"address","internalType":"address"}]},{"type":"error","name":"ERC1967NonPayable","inputs":[]},{"type":"error","name":"FailedCall","inputs":[]},{"type":"error","name":"InvalidInitialization","inputs":[]},{"type":"error","name":"InvalidRatingValue","inputs":[]},{"type":"error","name":"InvalidTopicId","inputs":[]},{"type":"error","name":"NotInitializing","inputs":[]},{"type":"error","name":"OwnableInvalidOwner","inputs":[{"name":"owner","type":"address","internalType":"address"}]},{"type":"error","name":"OwnableUnauthorizedAccount","inputs":[{"name":"account","type":"address","internalType":"address"}]},{"type":"error","name":"RatedTooRecently","inputs":[{"name":"","type":"address","internalType":"address"},{"name":"","type":"address","internalType":"address"},{"name":"","type":"uint32","internalType":"uint32"},{"name":"","type":"uint64","internalType":"uint64"}]},{"type":"error","name":"RatingNotFound","inputs":[]},{"type":"error","name":"SelfRatingNotAllowed","inputs":[]},{"type":"error","name":"UUPSUnauthorizedCallContext","inputs":[]},{"type":"error","name":"UUPSUnsupportedProxiableUUID","inputs":[{"name":"slot","type":"bytes32","internalType":"bytes32"}]},{"type":"error","name":"Unauthorized","inputs":[]},{"type":"error","name":"UserNotRegistered","inputs":[]}],"bytecode":{"object":"0x60a08060405234620000d157306080527ff0c57e16840df040f15088dc2f81fe391c3923bec73e23a9662efc9c229c6a009081549060ff8260401c16620000c257506001600160401b036002600160401b0319828216016200007c575b6040516134399081620000d6823960805181818161172901526118600152f35b6001600160401b031990911681179091556040519081527fc7f505b2f371ae2175ee4913f4499e1f2633a7b5936321eed1cdaeb6115181d290602090a15f80806200005c565b63f92ee8a960e01b8152600490fd5b5f80fdfe6080806040526004361015610012575f80fd5b5f9060e05f3560e01c91826303f8db84146121af5750816305dace7d1461211d5781631dce94cc146120b357816324e348e01461204057816329fc7aff14611f4d5781632d6c3d1214611d2d5750806330e0cd8514611cd857806336a9c6a714611c715780633f9c1cc914611ac75780634d8a682614611a005780634f1ef286146117e55780635000596b146117bc5780635055735b1461179357806352d1902d146117165780636bb5090c146116b557806370a6e4b214611527578063715018a6146114be57806372a803cf1461148e5780638da5cb5b1461145957806394e113ea1461143c57806395ba6d80146113ed578063a3bdbaa41461136e578063a6a9cfca14611301578063ad3cb1cc1461127e578063b51b367a146111ef578063b74173b71461117c578063bb0e4ea214611160578063c0c53b8b14610ff6578063c3f677ef14610fcd578063c66a9e3414610f78578063cc09d96a14610f5a578063cc8df8f314610349578063da9fbe3e146102b7578063db4255571461025a578063f2773926146101dc5763f2fde38b146101ad575f80fd5b346101d95760203660031901126101d9576101d66101c9612c2e565b6101d1613091565b61300f565b80f35b80fd5b50346101d95760803660031901126101d9576001600160401b036004358181160361025657610209612c5a565b50610212612c83565b5060643590811603610256576102529061022a612f10565b506040519061023882612dbc565b808252806020830152604082015260405191829182612c96565b0390f35b5f80fd5b50346101d95760403660031901126101d957610274612c2e565b6001600160a01b03168152600460205260408120805460243592908310156101d957602063ffffffff6102a78585612ee2565b9190546040519260031b1c168152f35b50346101d95760406102526102cb36612cc9565b9490919560018060a01b038094168152806020522063ffffffff8096165f526020528160405f2091165f5260205260405f206001600160401b038094165f5260205260405f20908082541694600260018401549301549260405196879660ff8660401c1695169361ffff8360c01c16938360a01c1692169087612e82565b50346101d95760803660031901126101d957610363612c2e565b9061036c612c5a565b91610375612c83565b9061ffff60643516606435036102565761038d613091565b60075460405163c3c5a54760e01b81526001600160a01b03838116600483015290911690602081602481855afa908115610d1f578591610f20575b5015610c8a5760405163c3c5a54760e01b81526001600160a01b0386166004820152602081602481855afa908115610d1f578591610ee6575b5015610c8a5760405163c3c5a54760e01b81526001600160a01b0383166004820152602081602481855afa908115610d1f578591610eac575b5015610c8a5760405163c3c5a54760e01b81526001600160a01b0386166004820152602081602481855afa908115610d1f578591610e72575b5015610c8a576001600160a01b0382811690861614610e60576103e861ffff6064351611610e4e57600654604051637d3de18f60e11b815263ffffffff85166004820152908590829060249082906001600160a01b03165afa8015610d1f578590610d3b575b60609150015115610d2a5760405163c3c5a54760e01b81526001600160a01b0383166004820152602081602481855afa908115610d1f578591610ce5575b5015610c8a5760405163c3c5a54760e01b81526001600160a01b038616600482015290602090829060249082905afa908115610cda578491610c9c575b5015610c8a576001600160a01b0384811680855260016020818152604080882063ffffffff88165f818152918452828220968816808352968452828220868b528a8552838b2091835290845282822087835284528282206001600160401b03421683529093522080546001600160a01b0319169094178455908301805461ffff60c01b60643560c01b166001600160d01b031990911690931763ffffffff60a01b60a088901b16179290921790915590600201805468ffffffffffffffffff1916426001600160401b031617600160401b1790556001600160a01b03821684526005602052604080852090519061064a82612d8e565b6001600160a01b0384811683528716602083015263ffffffff8516604083015260643561ffff166060830152426001600160401b03166080830152600160a0830152805490600160401b821015610c4e57906106ab91600182018155612e69565b610c7657815181546001600160a01b0319166001600160a01b03918216178255602083015160018301805460408601516001600160c01b0319909116929093169190911760a092831b63ffffffff60a01b16178155610768939260029161072e905b6060860151815461ffff60c01b191660c09190911b61ffff60c01b16179055565b608084015191018054929093015168ffffffffffffffffff199092166001600160401b03919091161790151560401b60ff60401b16179055565b8054600160401b811015610c62578060016107869201835582612e13565b81549060031b906001600160401b03804216831b921b1916179055600181541480610b6f575b6008546001600160a01b0316803b15610b6b57604051633842af2d60e01b81526001600160a01b038816600482015263ffffffff861660248201529086908290604490829084905af18015610b6057908691610b48575b505015610a5857506040805160643561ffff168152426001600160401b0316602082015263ffffffff8416926001600160a01b03878116939116917f3e358f5e9ccee95421ebc3fd26c6a7a82498f61ad5f9b2a0b61278fdee2bf59d9190a45b60018060a01b038316825260036020526040822063ffffffff82165f5260205260405f20926040518085602082975493848152019086526020862092865b818110610a365750506108b692500385612dd7565b8283918493855b875181101561093e576108e5426001600160a01b036108dc848c612fc2565b511684866130c9565b60a08101516108f8575b506001016108bd565b9493608061092061091a6001600160401b039361ffff60608b01511690612fd6565b96612fe3565b960151166001600160401b0387168111156108ef57955060016108ef565b5063ffffffff9060409295947f3a9cf2f120fb526b148a312034c60158d93c1f8544af59b232c38721acb96c7e94818015155f14610a2c5761098461ffff918693612ff1565b16915b169061ffff85519161099883612dbc565b169687825260208201908382526001600160401b038784019116815260018060a01b038a168b526002602052868b208686165f5260205261ffff875f209351166dffffffffffffffff00000000000065ffffffff00008554945160101b16925160301b16926dffffffffffffffffffffffffffff1916171717905583519586526020860152169360018060a01b031692a380f35b5050828891610987565b84546001600160a01b03168352600194850194899450602090930192016108a1565b805480600119810111610b34576001600160401b0391610a7c916001190190612e13565b90549060031b1c1660018060a01b0385168452836020526040842063ffffffff84165f5260205260405f2060018060a01b0383165f5260205260405f20905f5260205261ffff600160405f20015460c01c169060405191825261ffff6064351660208301526001600160401b034216604083015263ffffffff8316917fb71ebe14aaf089219e4eb16ec1aca47f09219701edfb7d1ce4c4e5fee2e796e3606060018060a01b0388169360018060a01b031692a4610863565b634e487b7160e01b85526011600452602485fd5b610b5190612da9565b610b5c57845f610803565b8480fd5b6040513d88823e3d90fd5b8580fd5b60018060a01b038616855260036020526040852063ffffffff85165f5260205260405f20805490600160401b821015610c4e5790610bb291600182018155612ecd565b81546001600160a01b0360039290921b82811b1990911686831690911b179091558616855260026020908152604080872063ffffffff8781165f90815291909352205460101c166107ac576001600160a01b0386168552600460205260408520805490600160401b821015610c4e5790610c3191600182018155612ee2565b81549060031b9063ffffffff808816831b921b19161790556107ac565b634e487b7160e01b87526041600452602487fd5b634e487b7160e01b85526041600452602485fd5b634e487b7160e01b86526004869052602486fd5b604051632163950f60e01b8152600490fd5b90506020813d602011610cd2575b81610cb760209383612dd7565b81010312610cce57610cc890612f03565b5f610554565b8380fd5b3d9150610caa565b6040513d86823e3d90fd5b90506020813d602011610d17575b81610d0060209383612dd7565b81010312610b5c57610d1190612f03565b5f610517565b3d9150610cf3565b6040513d87823e3d90fd5b6040516227fb4f60ea1b8152600490fd5b503d908186823e610d4c8282612dd7565b6020818381010312610b6b578051906001600160401b038211610e4a5760a08282018483010312610e4a5760405192610d8484612d73565b610d8f838301613080565b8452602083830101516001600160401b038111610e465783830101818301601f82011215610e4657805190610dc382612df8565b92610dd16040519485612dd7565b828452840160208383010111610e42578291610df7916020806080989796019101612e48565b6020850152610e0a604083830101613080565b6040850152610e1d606083830101612f03565b60608501520101516001600160401b0381168103610b6b5760808201526060906104d9565b8980fd5b8880fd5b8680fd5b60405163a9cadffd60e01b8152600490fd5b60405163cb02f59960e01b8152600490fd5b90506020813d602011610ea4575b81610e8d60209383612dd7565b81010312610b5c57610e9e90612f03565b5f610473565b3d9150610e80565b90506020813d602011610ede575b81610ec760209383612dd7565b81010312610b5c57610ed890612f03565b5f61043a565b3d9150610eba565b90506020813d602011610f18575b81610f0160209383612dd7565b81010312610b5c57610f1290612f03565b5f610401565b3d9150610ef4565b90506020813d602011610f52575b81610f3b60209383612dd7565b81010312610b5c57610f4c90612f03565b5f6103c8565b3d9150610f2e565b50346101d957806003193601126101d957602060405162eff1008152f35b50346101d95760403660031901126101d95763ffffffff6040610f99612c2e565b92610fa2612c70565b9360018060a01b0316815260026020522091165f52602052602061ffff60405f205416604051908152f35b50346101d957806003193601126101d9576008546040516001600160a01b039091168152602090f35b50346101d95760603660031901126101d957611010612c2e565b611018612c5a565b90611021612c44565b917ff0c57e16840df040f15088dc2f81fe391c3923bec73e23a9662efc9c229c6a0092835460ff8160401c1615936001600160401b03821680159081611158575b600114908161114e575b159081611145575b506111335767ffffffffffffffff19821660011786556110a59185611114575b5061109d613311565b6101d1613311565b60018060a01b0390816bffffffffffffffffffffffff60a01b9316836006541617600655169060075416176007556110db575080f35b60ff60401b1981541690557fc7f505b2f371ae2175ee4913f4499e1f2633a7b5936321eed1cdaeb6115181d2602060405160018152a180f35b68ffffffffffffffffff1916680100000000000000011786555f611094565b60405163f92ee8a960e01b8152600490fd5b9050155f611074565b303b15915061106c565b869150611062565b50346101d957806003193601126101d957602090604051908152f35b50346101d95760603660031901126101d957611196612c2e565b61119e612c70565b916044359260018060a01b038093168252600360205263ffffffff6040832091165f5260205260405f209081548410156101d957506020926111df91612ecd565b90549060031b1c16604051908152f35b50346101d95760403660031901126101d957611209612c2e565b6001600160a01b03908116825260056020526040822080546024359190821015610cce579061123791612e69565b506102528282541660026001840154930154906040519485946001600160401b0360ff8560401c1694169261ffff8260c01c169263ffffffff8360a01c1692169087612e82565b50346101d957806003193601126101d957604051604081018181106001600160401b038211176112ed576112df9160409182526005815260208101640352e302e360dc1b815282519384926020845251809281602086015285850190612e48565b601f01601f19168101030190f35b634e487b7160e01b5f52604160045260245ffd5b50346101d95763ffffffff90604061131836612cc9565b95919293909460018060a01b038095168152806020522091165f5260205260405f2091165f526020526001600160401b0360405f2091165f52602052602060ff600260405f20015460401c166040519015158152f35b50346101d95760803660031901126101d957611388612c2e565b90611391612c70565b9161139a612c44565b906064359360018060a01b038092168452600160205263ffffffff6040852091165f5260205260405f2091165f5260205260405f209081548310156101d95760206001600160401b036102a78585612e13565b50346101d95760603660031901126101d95760c061142d61140c612c2e565b611414612c70565b61141c612c44565b90611425612f2e565b5042926130c9565b61143a6040518092612d1e565bf35b50346101d957806003193601126101d95760206040516103e88152f35b50346101d957806003193601126101d9575f805160206133e4833981519152546040516001600160a01b039091168152602090f35b50346101d95760c061142d6001600160401b036114aa36612cc9565b6114b694919394612f2e565b5016926130c9565b50346101d957806003193601126101d9576114d7613091565b5f805160206133e483398151915280546001600160a01b031981169091555f906001600160a01b03167f8be0079c531659141344cd1fd0a4f28419497f9722a3daafe3b4186f6b6457e08280a380f35b50346101d9576060806003193601126116b157611542612c2e565b9061154b612c70565b90604435916001600160401b03918284168094036102565761156b612f10565b5060018060a01b03808616875260209460038652604088209663ffffffff978886165f52875260405f209460405180878a8299549384815201908d528a8d20928d5b8c828210611699575050506115c492500387612dd7565b89938a968b998c5b825181101561163f576115ed87856115e48487612fc2565b511687896130c9565b8b60a0820151611602575b50506001016115cc565b909a9861162261161c60809261ffff8f8f01511690612fd6565b9a612fe3565b9b0151168b8d168111611636575b8b6115f8565b9b506001611630565b50888a8c8f938f848c610252978215155f14611690575061ffff9161166391612ff1565b16945b61ffff6040519661167688612dbc565b168652169084015216604082015260405191829182612c96565b91505094611666565b85548a1684526001958601958c9550930192016115ad565b5080fd5b50346101d95760203660031901126101d9576116cf612c2e565b6116d7613091565b600854906001600160a01b03908183166117055716906bffffffffffffffffffffffff60a01b161760085580f35b6040516282b42960e81b8152600490fd5b50346101d957806003193601126101d9577f00000000000000000000000000000000000000000000000000000000000000006001600160a01b031630036117815760206040517f360894a13ba1a3210667c828492db98dca3e2076cc3735a920a3ca505d382bbc8152f35b60405163703e46dd60e11b8152600490fd5b50346101d957806003193601126101d9576006546040516001600160a01b039091168152602090f35b50346101d957806003193601126101d9576007546040516001600160a01b039091168152602090f35b5060403660031901126101d9576117fa612c2e565b6024918235916001600160401b0383116116b157366023840112156116b15782600401359061182882612df8565b916118366040519384612dd7565b80835260209436878383010111610b5c578185928888930183870137840101526001600160a01b037f000000000000000000000000000000000000000000000000000000000000000081163081149081156119d2575b5061178157611899613091565b6040516352d1902d60e01b8152908216948082600481895afa91829186936119a2575b50506118da57604051634c9c8ce360e01b8152600481018690528690fd5b909192947f360894a13ba1a3210667c828492db98dca3e2076cc3735a920a3ca505d382bbc9182810361198d5750823b15611977575080546001600160a01b03191684179055604051927fbc7cd75a20ee27fd9adebab32041f755214dbc6bffa90cc0225b39da2e5c2d3b8580a281511561195d576119599250613352565b5080f35b505034611968575080f35b63b398979f60e01b8152600490fd5b604051634c9c8ce360e01b815260048101869052fd5b60405190632a87526960e21b82526004820152fd5b9080929350813d83116119cb575b6119ba8183612dd7565b81010312610b5c5751905f806118bc565b503d6119b0565b9050817f360894a13ba1a3210667c828492db98dca3e2076cc3735a920a3ca505d382bbc541614155f61188c565b50346101d95760403660031901126101d957611a1a612c2e565b90611a23612c70565b9060018060a01b0380931681526020916003835263ffffffff6040832091165f52825260405f2090604051808484549182815201908194845285842090845b818110611ab15750505081611a78910382612dd7565b6040519380850191818652518092526040850193925b828110611a9b5785850386f35b8351871685529381019392810192600101611a8e565b8254891684529287019260019283019201611a62565b50346101d95760609060606003193601126101d957611ae4612c2e565b91611aed612c70565b611af5612c44565b60018060a01b03809516845260019460209286845263ffffffff6040872091165f52835260405f2091165f5281528060405f20926040519081938491818754948581520190819789528289209489915b8b826003850110611c29575050611b8b9554918b85838310611c10575b838310611bf4575b838310611bd8575b505010611bca575b509050969496959392950382612dd7565b6040519380850191818652518092526040850195925b828110611bae5785870386f35b83516001600160401b0316875295810195928101928401611ba1565b60c01c81520183905f611b7a565b9091946001600160401b038560801c1681520193018b85611b72565b9091946001600160401b038560401c1681520193018b85611b6a565b9091946001600160401b03851681520193018b85611b62565b9194509450600491928654906001600160401b03918281168252828160401c168a83015260809281841c16604083015260c01c87820152019501910185928794959295611b45565b50346101d95760603660031901126101d957611c8b612c2e565b611c93612c70565b63ffffffff6040611ca2612c44565b9460018060a01b03809516815260016020522091165f5260205260405f2091165f52602052602060405f20541515604051908152f35b50346101d95760403660031901126101d9576020906040611cf7612c2e565b91611d00612c70565b9260018060a01b03168152600284522063ffffffff8092165f52825260405f205460101c16604051908152f35b9050346116b15760209081600319360112611f4957906001600160a01b03611d53612c2e565b168352600481528060408420926040519081938491818754948581520190819789528289209489915b816007840110611ed95750611ddc95549184828210611ec3575b828210611eab575b828210611e92575b828210611e79575b828210611e60575b828210611e47575b828210611e2e575b5010611e20575b50905095929493950385612dd7565b60405193838594850191818652518092526040850193925b828110611e0357505050500390f35b835163ffffffff1685528695509381019392810192600101611df4565b60e01c81520183905f611dcd565b6001919463ffffffff8560c01c16815201930184611dc6565b6001919463ffffffff8560a01c16815201930184611dbe565b6001919463ffffffff8560801c16815201930184611db6565b6001919463ffffffff8560601c16815201930184611dae565b6001919463ffffffff8560401c16815201930184611da6565b6001919463ffffffff85831c16815201930184611d9e565b6001919463ffffffff8516815201930184611d96565b94509250906001610100600892875463ffffffff808216835280828c1c168b840152808260401c16604084015260608183821c169084015260808183821c169084015260a08183821c169084015260c09082821c1690830152871c87820152019501910185928794959295611d7c565b8280fd5b82346101d957602090816003193601126101d9576001600160a01b03611f71612c2e565b1681526005825260408120918254906001600160401b03821161202c5791929060405190611fa4848260051b0183612dd7565b8082528382018093865284862086915b83831061200557505050506040519280840191818552518092526040840192945b828110611fe25784840385f35b9091928260c082611ff66001948a51612d1e565b01960191019492919094611fd5565b600387600192612019859b9a98999b612f5e565b8152019201920191909694939596611fb4565b634e487b7160e01b83526041600452602483fd5b82346101d95760403660031901126101d957606090604061205f612c2e565b91612068612c70565b9260018060a01b0316815260026020522063ffffffff8092165f526020526001600160401b0360405f20546040519261ffff821684528160101c16602084015260301c166040820152f35b82346101d95763ffffffff9060406120ca36612cc9565b9591929390946120d8612f2e565b5060018060a01b038095168152806020522091165f5260205260405f2091165f526020526001600160401b0360405f2091165f5260205260c061142d60405f20612f5e565b82346101d95760403660031901126101d95761025290604061213d612c2e565b91612146612c70565b9261214f612f10565b5060018060a01b0316815260026020522063ffffffff8092165f526020526001600160401b0360405f20916040519261218784612dbc565b549061ffff821684528160101c16602084015260301c16604082015260405191829182612c96565b8334610256576060366003190112610256576121c9612c2e565b916121d2612c70565b9061ffff60443516604435036102565760075463c3c5a54760e01b82523360048301526001600160a01b031690602081602481855afa90811561284b575f91612bf4575b5015610c8a5760405163c3c5a54760e01b81526001600160a01b0385166004820152602081602481855afa90811561284b575f91612bba575b5015610c8a5760405163c3c5a54760e01b8152336004820152602081602481855afa90811561284b575f91612b80575b5015610c8a5760405163c3c5a54760e01b81526001600160a01b0385166004820152602081602481855afa90811561284b575f91612b46575b5015610c8a57336001600160a01b03851614610e60576103e861ffff6044351611610e4e57600654604051637d3de18f60e11b815263ffffffff84166004820152905f90829060249082906001600160a01b03165afa801561284b575f90612a60575b60609150015115610d2a5760018060a01b0384165f52600160205260405f2063ffffffff83165f5260205260405f20335f5260205260405f20805490816129ba575b505060405163c3c5a54760e01b8152336004820152602081602481855afa90811561284b575f91612980575b5015610c8a5760405163c3c5a54760e01b81526001600160a01b038516600482015290602090829060249082905afa90811561284b575f91612946575b5015610c8a576001600160a01b0383165f81815260016020818152604080842063ffffffff87168086529083528185203380875290845282862087875286855283872092875291845282862081875284528286206001600160401b0342168752909352932080546001600160a01b0319169091178155908101805461ffff60c01b60443560c01b166001600160d01b031990911690941763ffffffff60a01b60a087901b16179390931790925590600201600160401b6001600160401b03421668ffffffffffffffffff1983541617179055335f52600560205260405f20604051906124b182612d8e565b3382526001600160a01b038616602083015263ffffffff8416604083015260443561ffff166060830152426001600160401b03166080830152600160a08301528054600160401b8110156112ed5761250e91600182018155612e69565b91909161293357805182546001600160a01b0319166001600160a01b03918216178355602082015160018401805460408501516001600160c01b0319909116929093169190911760a092831b63ffffffff60a01b161781556125769360029161072e9061070d565b8054600160401b8110156112ed578060016125949201835582612e13565b81549060031b906001600160401b03804216831b921b1916179055600181541480612856575b6008546001600160a01b0316803b1561025657604051633842af2d60e01b81526001600160a01b038716600482015263ffffffff85166024820152905f908290604490829084905af1801561284b57612838575b501561275857506040805160443561ffff168152426001600160401b0316602082015263ffffffff8316916001600160a01b0386169133917f3e358f5e9ccee95421ebc3fd26c6a7a82498f61ad5f9b2a0b61278fdee2bf59d91a45b60018060a01b038316825260036020526040822063ffffffff82165f5260205260405f20926040518085602082975493848152019086526020862092865b8181106127365750506126bd92500385612dd7565b8283918493855b875181101561093e576126e3426001600160a01b036108dc848c612fc2565b60a08101516126f6575b506001016126c4565b9493608061271861091a6001600160401b039361ffff60608b01511690612fd6565b960151166001600160401b0387168111156126ed57955060016126ed565b84546001600160a01b03168352600194850194899450602090930192016126a8565b805480600119810111612824576001600160401b039161277c916001190190612e13565b90549060031b1c1660018060a01b0384168352826020526040832063ffffffff83165f5260205260405f20335f5260205260405f20905f5260205261ffff600160405f20015460c01c1660405190815261ffff6044351660208201526001600160401b034216604082015263ffffffff82169060018060a01b038516907fb71ebe14aaf089219e4eb16ec1aca47f09219701edfb7d1ce4c4e5fee2e796e360603392a461266a565b634e487b7160e01b84526011600452602484fd5b612843919450612da9565b5f928561260e565b6040513d5f823e3d90fd5b60018060a01b0385165f52600360205260405f2063ffffffff84165f5260205260405f208054600160401b8110156112ed5761289791600182018155612ecd565b81549060031b9033821b9160018060a01b03901b191617905560018060a01b0385165f52600260205260405f2063ffffffff84165f5260205263ffffffff60405f205460101c166125ba576001600160a01b0385165f9081526004602052604090208054600160401b8110156112ed5761291691600182018155612ee2565b81549060031b9063ffffffff808716831b921b19161790556125ba565b634e487b7160e01b5f525f60045260245ffd5b90506020813d602011612978575b8161296160209383612dd7565b810103126102565761297290612f03565b846123c6565b3d9150612954565b90506020813d6020116129b2575b8161299b60209383612dd7565b81010312610256576129ac90612f03565b85612389565b3d915061298e565b5f198201918211612a4c576001600160401b03916129d791612e13565b90549060031b1c1662eff10081016001600160401b038111612a4c576001600160401b03166001600160401b03421610612a11578061235d565b60405163f07a4f3160e01b81523360048201526001600160a01b038616602482015263ffffffff841660448201526064810191909152608490fd5b634e487b7160e01b5f52601160045260245ffd5b503d805f833e612a708183612dd7565b81016020828203126102565781516001600160401b039283821161025657019060a0828203126102565760405191612aa783612d73565b612ab081613080565b835260208101518481116102565781019180601f8401121561025657825192612ad884612df8565b91612ae66040519384612dd7565b8483526020858301011161025657608093612b079160208085019101612e48565b6020840152612b1860408201613080565b6040840152612b2960608201612f03565b60608401520151918216820361025657606091608082015261231b565b90506020813d602011612b78575b81612b6160209383612dd7565b8101031261025657612b7290612f03565b856122b8565b3d9150612b54565b90506020813d602011612bb2575b81612b9b60209383612dd7565b8101031261025657612bac90612f03565b8561227f565b3d9150612b8e565b90506020813d602011612bec575b81612bd560209383612dd7565b8101031261025657612be690612f03565b8561224f565b3d9150612bc8565b90506020813d602011612c26575b81612c0f60209383612dd7565b8101031261025657612c2090612f03565b85612216565b3d9150612c02565b600435906001600160a01b038216820361025657565b604435906001600160a01b038216820361025657565b602435906001600160a01b038216820361025657565b6024359063ffffffff8216820361025657565b6044359063ffffffff8216820361025657565b91909160406001600160401b0381606084019561ffff815116855263ffffffff6020820151166020860152015116910152565b6080906003190112610256576001600160a01b036004358181168103610256579160243563ffffffff811681036102565791604435908116810361025657906064356001600160401b03811681036102565790565b60a08091600180831b03808251168552602082015116602085015263ffffffff604082015116604085015261ffff60608201511660608501526001600160401b03608082015116608085015201511515910152565b60a081019081106001600160401b038211176112ed57604052565b60c081019081106001600160401b038211176112ed57604052565b6001600160401b0381116112ed57604052565b606081019081106001600160401b038211176112ed57604052565b90601f801991011681019081106001600160401b038211176112ed57604052565b6001600160401b0381116112ed57601f01601f191660200190565b9190918054831015612e34575f52601860205f208360021c019260031b1690565b634e487b7160e01b5f52603260045260245ffd5b5f5b838110612e595750505f910152565b8181015183820152602001612e4a565b8054821015612e34575f52600360205f20910201905f90565b6001600160a01b0391821681529116602082015263ffffffff91909116604082015261ffff90911660608201526001600160401b03909116608082015290151560a082015260c00190565b8054821015612e34575f5260205f2001905f90565b9190918054831015612e34575f52601c60205f208360031c019260021b1690565b5190811515820361025657565b60405190612f1d82612dbc565b5f6040838281528260208201520152565b60405190612f3b82612d8e565b5f60a0838281528260208201528260408201528260608201528260808201520152565b90604051612f6b81612d8e565b60a060ff6002839561ffff600180861b038083541687526001830154908116602088015263ffffffff81871c16604088015260c01c16606086015201546001600160401b038116608085015260401c161515910152565b8051821015612e345760209160051b010190565b91908201809211612a4c57565b5f198114612a4c5760010190565b8115612ffb570490565b634e487b7160e01b5f52601260045260245ffd5b6001600160a01b03908116908115613068575f805160206133e483398151915280546001600160a01b031981168417909155167f8be0079c531659141344cd1fd0a4f28419497f9722a3daafe3b4186f6b6457e05f80a3565b604051631e4fbdf760e01b81525f6004820152602490fd5b519063ffffffff8216820361025657565b5f805160206133e4833981519152546001600160a01b031633036130b157565b60405163118cdaa760e01b8152336004820152602490fd5b9192906130d4612f2e565b5060018060a01b0380931693845f526001916020838194825260409663ffffffff885f20941693845f528352875f20941693845f528252865f20875190819381818693549485815201905f528a825f20945f5b878260038301106132ca57856131649854948484106132b1575b848410613296575b5083831061327a575b50501061326c575b5090500383612dd7565b815115613256575f95869283835b6131e5575b50505050156131b3576131b0955f525f8352845f20905f528252835f20905f5281526001600160401b03835f2092165f52525f20612f5e565b90565b5050925050805f809251936131c785612d8e565b8185528401528201525f60608201525f60808201525f60a082015290565b8151811015613251576001600160401b0383816132028486612fc2565b511611158061323a575b61321a575b50830183613172565b90945081985061322c85859493612fc2565b511697919390919084613211565b50806132468385612fc2565b5116818b161061320c565b613177565b50505050925050805f809251936131c785612d8e565b60c01c81520187905f61315a565b9091946001600160401b038560801c1681520193018785613152565b85901c6001600160401b03168652909401930187858f613149565b6001600160401b03861687529581019592820192613141565b92919550935060049286546001600160401b039283821683528d8483831c169084015260809382851c169083015260c01c60608201520194019101928a86938a9395613127565b60ff7ff0c57e16840df040f15088dc2f81fe391c3923bec73e23a9662efc9c229c6a005460401c161561334057565b604051631afcd79f60e31b8152600490fd5b905f8091602081519101845af480806133d0575b156133865750506040513d81523d5f602083013e60203d82010160405290565b156133ad57604051639996b31560e01b81526001600160a01b039091166004820152602490fd5b3d156133be576040513d5f823e3d90fd5b60405163d6bda27560e01b8152600490fd5b503d1515806133665750813b151561336656fe9016d09d72d40fdae2fd8ceac6b6234c7706214fd39c1cd1e609a0528c199300a26469706673582212206597b82533fa4ba455f0d00a9b54b53082dc4c3d72f2629121b5548fc635905464736f6c63430008180033","linkReferences":{}},"methodIdentifiers":{"MAX_RATING()":"94e113ea","MIN_RATING()":"bb0e4ea2","RATING_COOLDOWN_PERIOD()":"cc09d96a","UPGRADE_INTERFACE_VERSION()":"ad3cb1cc","adminRateUser(address,address,uint32,uint16)":"cc8df8f3","getAverageScore(address,uint32)":"c66a9e34","getRating(address,uint32,address)":"95ba6d80","getRatingAtTime(address,uint32,address,uint64)":"72a803cf","getRatingAtTimestamp(address,uint32,address,uint64)":"1dce94cc","getRatingCount(address,uint32)":"30e0cd85","getRatingTimestamps(address,uint32,address)":"3f9c1cc9","getRatingsByUser(address)":"29fc7aff","getTeamUserTopicRatingAtTime(uint64,address,uint32,uint64)":"f2773926","getTopicRaters(address,uint32)":"4d8a6826","getUserRatedTopics(address)":"2d6c3d12","getUserTopicRating(address,uint32)":"05dace7d","getUserTopicRatingAtTime(address,uint32,uint64)":"70a6e4b2","initialize(address,address,address)":"c0c53b8b","owner()":"8da5cb5b","proxiableUUID()":"52d1902d","rateUser(address,uint32,uint16)":"03f8db84","ratingExists(address,uint32,address)":"36a9c6a7","ratingExistsAtTimestamp(address,uint32,address,uint64)":"a6a9cfca","ratingTimestamps(address,uint32,address,uint256)":"a3bdbaa4","ratings(address,uint32,address,uint64)":"da9fbe3e","ratingsMadeByUser(address,uint256)":"b51b367a","renounceOwnership()":"715018a6","reputationEngine()":"c3f677ef","setReputationEngine(address)":"6bb5090c","topicRaters(address,uint32,uint256)":"b74173b7","topicRegistry()":"5055735b","transferOwnership(address)":"f2fde38b","upgradeToAndCall(address,bytes)":"4f1ef286","userContract()":"5000596b","userRatedTopics(address,uint256)":"db425557","userTopicRatings(address,uint32)":"24e348e0"},"id":34}