{"abi":[{"type":"constructor","inputs":[],"stateMutability":"nonpayable"},{"type":"function","name":"MAX_RATING","inputs":[],"outputs":[{"name":"","type":"uint16","internalType":"uint16"}],"stateMutability":"view"},{"type":"function","name":"MIN_RATING","inputs":[],"outputs":[{"name":"","type":"uint16","internalType":"uint16"}],"stateMutability":"view"},{"type":"function","name":"RATING_COOLDOWN_PERIOD","inputs":[],"outputs":[{"name":"","type":"uint64","internalType":"uint64"}],"stateMutability":"view"},{"type":"function","name":"UPGRADE_INTERFACE_VERSION","inputs":[],"outputs":[{"name":"","type":"string","internalType":"string"}],"stateMutability":"view"},{"type":"function","name":"adminRateUser","inputs":[{"name":"rater","type":"address","internalType":"address"},{"name":"ratee","type":"address","internalType":"address"},{"name":"topicId","type":"uint32","internalType":"uint32"},{"name":"score","type":"uint16","internalType":"uint16"}],"outputs":[],"stateMutability":"nonpayable"},{"type":"function","name":"getAverageScore","inputs":[{"name":"user","type":"address","internalType":"address"},{"name":"topicId","type":"uint32","internalType":"uint32"}],"outputs":[{"name":"","type":"uint16","internalType":"uint16"}],"stateMutability":"view"},{"type":"function","name":"getRating","inputs":[{"name":"ratee","type":"address","internalType":"address"},{"name":"topicId","type":"uint32","internalType":"uint32"},{"name":"rater","type":"address","internalType":"address"}],"outputs":[{"name":"","type":"tuple","internalType":"struct PeerRating.Rating","components":[{"name":"rater","type":"address","internalType":"address"},{"name":"ratee","type":"address","internalType":"address"},{"name":"topicId","type":"uint32","internalType":"uint32"},{"name":"score","type":"uint16","internalType":"uint16"},{"name":"timestamp","type":"uint64","internalType":"uint64"},{"name":"exists","type":"bool","internalType":"bool"}]}],"stateMutability":"view"},{"type":"function","name":"getRatingAtTime","inputs":[{"name":"ratee","type":"address","internalType":"address"},{"name":"topicId","type":"uint32","internalType":"uint32"},{"name":"rater","type":"address","internalType":"address"},{"name":"scoreTime","type":"uint64","internalType":"uint64"}],"outputs":[{"name":"","type":"tuple","internalType":"struct PeerRating.Rating","components":[{"name":"rater","type":"address","internalType":"address"},{"name":"ratee","type":"address","internalType":"address"},{"name":"topicId","type":"uint32","internalType":"uint32"},{"name":"score","type":"uint16","internalType":"uint16"},{"name":"timestamp","type":"uint64","internalType":"uint64"},{"name":"exists","type":"bool","internalType":"bool"}]}],"stateMutability":"view"},{"type":"function","name":"getRatingAtTimestamp","inputs":[{"name":"ratee","type":"address","internalType":"address"},{"name":"topicId","type":"uint32","internalType":"uint32"},{"name":"rater","type":"address","internalType":"address"},{"name":"timestamp","type":"uint64","internalType":"uint64"}],"outputs":[{"name":"","type":"tuple","internalType":"struct PeerRating.Rating","components":[{"name":"rater","type":"address","internalType":"address"},{"name":"ratee","type":"address","internalType":"address"},{"name":"topicId","type":"uint32","internalType":"uint32"},{"name":"score","type":"uint16","internalType":"uint16"},{"name":"timestamp","type":"uint64","internalType":"uint64"},{"name":"exists","type":"bool","internalType":"bool"}]}],"stateMutability":"view"},{"type":"function","name":"getRatingCount","inputs":[{"name":"user","type":"address","internalType":"address"},{"name":"topicId","type":"uint32","internalType":"uint32"}],"outputs":[{"name":"","type":"uint32","internalType":"uint32"}],"stateMutability":"view"},{"type":"function","name":"getRatingTimestamps","inputs":[{"name":"ratee","type":"address","internalType":"address"},{"name":"topicId","type":"uint32","internalType":"uint32"},{"name":"rater","type":"address","internalType":"address"}],"outputs":[{"name":"","type":"uint64[]","internalType":"uint64[]"}],"stateMutability":"view"},{"type":"function","name":"getRatingsByUser","inputs":[{"name":"user","type":"address","internalType":"address"}],"outputs":[{"name":"","type":"tuple[]","internalType":"struct PeerRating.Rating[]","components":[{"name":"rater","type":"address","internalType":"address"},{"name":"ratee","type":"address","internalType":"address"},{"name":"topicId","type":"uint32","internalType":"uint32"},{"name":"score","type":"uint16","internalType":"uint16"},{"name":"timestamp","type":"uint64","internalType":"uint64"},{"name":"exists","type":"bool","internalType":"bool"}]}],"stateMutability":"view"},{"type":"function","name":"getTopicRaters","inputs":[{"name":"user","type":"address","internalType":"address"},{"name":"topicId","type":"uint32","internalType":"uint32"}],"outputs":[{"name":"","type":"address[]","internalType":"address[]"}],"stateMutability":"view"},{"type":"function","name":"getUserRatedTopics","inputs":[{"name":"user","type":"address","internalType":"address"}],"outputs":[{"name":"","type":"uint32[]","internalType":"uint32[]"}],"stateMutability":"view"},{"type":"function","name":"getUserTopicRating","inputs":[{"name":"user","type":"address","internalType":"address"},{"name":"topicId","type":"uint32","internalType":"uint32"}],"outputs":[{"name":"","type":"tuple","internalType":"struct PeerRating.UserTopicRatings","components":[{"name":"averageScore","type":"uint16","internalType":"uint16"},{"name":"totalRatings","type":"uint32","internalType":"uint32"},{"name":"lastRatingTime","type":"uint64","internalType":"uint64"}]}],"stateMutability":"view"},{"type":"function","name":"getUserTopicRatingAtTime","inputs":[{"name":"user","type":"address","internalType":"address"},{"name":"topicId","type":"uint32","internalType":"uint32"},{"name":"scoreTime","type":"uint64","internalType":"uint64"}],"outputs":[{"name":"","type":"tuple","internalType":"struct PeerRating.UserTopicRatings","components":[{"name":"averageScore","type":"uint16","internalType":"uint16"},{"name":"totalRatings","type":"uint32","internalType":"uint32"},{"name":"lastRatingTime","type":"uint64","internalType":"uint64"}]}],"stateMutability":"view"},{"type":"function","name":"initialize","inputs":[{"name":"initialOwner","type":"address","internalType":"address"},{"name":"_topicRegistry","type":"address","internalType":"address"},{"name":"_userContract","type":"address","internalType":"address"}],"outputs":[],"stateMutability":"nonpayable"},{"type":"function","name":"owner","inputs":[],"outputs":[{"name":"","type":"address","internalType":"address"}],"stateMutability":"view"},{"type":"function","name":"proxiableUUID","inputs":[],"outputs":[{"name":"","type":"bytes32","internalType":"bytes32"}],"stateMutability":"view"},{"type":"function","name":"rateUser","inputs":[{"name":"ratee","type":"address","internalType":"address"},{"name":"topicId","type":"uint32","internalType":"uint32"},{"name":"score","type":"uint16","internalType":"uint16"}],"outputs":[],"stateMutability":"nonpayable"},{"type":"function","name":"ratingExists","inputs":[{"name":"ratee","type":"address","internalType":"address"},{"name":"topicId","type":"uint32","internalType":"uint32"},{"name":"rater","type":"address","internalType":"address"}],"outputs":[{"name":"","type":"bool","internalType":"bool"}],"stateMutability":"view"},{"type":"function","name":"ratingExistsAtTimestamp","inputs":[{"name":"ratee","type":"address","internalType":"address"},{"name":"topicId","type":"uint32","internalType":"uint32"},{"name":"rater","type":"address","internalType":"address"},{"name":"timestamp","type":"uint64","internalType":"uint64"}],"outputs":[{"name":"","type":"bool","internalType":"bool"}],"stateMutability":"view"},{"type":"function","name":"ratingTimestamps","inputs":[{"name":"","type":"address","internalType":"address"},{"name":"","type":"uint32","internalType":"uint32"},{"name":"","type":"address","internalType":"address"},{"name":"","type":"uint256","internalType":"uint256"}],"outputs":[{"name":"","type":"uint64","internalType":"uint64"}],"stateMutability":"view"},{"type":"function","name":"ratings","inputs":[{"name":"","type":"address","internalType":"address"},{"name":"","type":"uint32","internalType":"uint32"},{"name":"","type":"address","internalType":"address"},{"name":"","type":"uint64","internalType":"uint64"}],"outputs":[{"name":"rater","type":"address","internalType":"address"},{"name":"ratee","type":"address","internalType":"address"},{"name":"topicId","type":"uint32","internalType":"uint32"},{"name":"score","type":"uint16","internalType":"uint16"},{"name":"timestamp","type":"uint64","internalType":"uint64"},{"name":"exists","type":"bool","internalType":"bool"}],"stateMutability":"view"},{"type":"function","name":"ratingsMadeByUser","inputs":[{"name":"","type":"address","internalType":"address"},{"name":"","type":"uint256","internalType":"uint256"}],"outputs":[{"name":"rater","type":"address","internalType":"address"},{"name":"ratee","type":"address","internalType":"address"},{"name":"topicId","type":"uint32","internalType":"uint32"},{"name":"score","type":"uint16","internalType":"uint16"},{"name":"timestamp","type":"uint64","internalType":"uint64"},{"name":"exists","type":"bool","internalType":"bool"}],"stateMutability":"view"},{"type":"function","name":"renounceOwnership","inputs":[],"outputs":[],"stateMutability":"nonpayable"},{"type":"function","name":"reputationEngine","inputs":[],"outputs":[{"name":"","type":"address","internalType":"address"}],"stateMutability":"view"},{"type":"function","name":"setReputationEngine","inputs":[{"name":"_reputationEngine","type":"address","internalType":"address"}],"outputs":[],"stateMutability":"nonpayable"},{"type":"function","name":"topicRaters","inputs":[{"name":"","type":"address","internalType":"address"},{"name":"","type":"uint32","internalType":"uint32"},{"name":"","type":"uint256","internalType":"uint256"}],"outputs":[{"name":"","type":"address","internalType":"address"}],"stateMutability":"view"},{"type":"function","name":"topicRegistry","inputs":[],"outputs":[{"name":"","type":"address","internalType":"contract TopicRegistry"}],"stateMutability":"view"},{"type":"function","name":"transferOwnership","inputs":[{"name":"newOwner","type":"address","internalType":"address"}],"outputs":[],"stateMutability":"nonpayable"},{"type":"function","name":"upgradeToAndCall","inputs":[{"name":"newImplementation","type":"address","internalType":"address"},{"name":"data","type":"bytes","internalType":"bytes"}],"outputs":[],"stateMutability":"payable"},{"type":"function","name":"userContract","inputs":[],"outputs":[{"name":"","type":"address","internalType":"contract User"}],"stateMutability":"view"},{"type":"function","name":"userRatedTopics","inputs":[{"name":"","type":"address","internalType":"address"},{"name":"","type":"uint256","internalType":"uint256"}],"outputs":[{"name":"","type":"uint32","internalType":"uint32"}],"stateMutability":"view"},{"type":"function","name":"userTopicRatings","inputs":[{"name":"","type":"address","internalType":"address"},{"name":"","type":"uint32","internalType":"uint32"}],"outputs":[{"name":"averageScore","type":"uint16","internalType":"uint16"},{"name":"totalRatings","type":"uint32","internalType":"uint32"},{"name":"lastRatingTime","type":"uint64","internalType":"uint64"}],"stateMutability":"view"},{"type":"event","name":"AggregateRatingUpdated","inputs":[{"name":"user","type":"address","indexed":true,"internalType":"address"},{"name":"topicId","type":"uint32","indexed":true,"internalType":"uint32"},{"name":"newAverageScore","type":"uint16","indexed":false,"internalType":"uint16"},{"name":"totalRatings","type":"uint32","indexed":false,"internalType":"uint32"}],"anonymous":false},{"type":"event","name":"Initialized","inputs":[{"name":"version","type":"uint64","indexed":false,"internalType":"uint64"}],"anonymous":false},{"type":"event","name":"OwnershipTransferred","inputs":[{"name":"previousOwner","type":"address","indexed":true,"internalType":"address"},{"name":"newOwner","type":"address","indexed":true,"internalType":"address"}],"anonymous":false},{"type":"event","name":"RatingSubmitted","inputs":[{"name":"rater","type":"address","indexed":true,"internalType":"address"},{"name":"ratee","type":"address","indexed":true,"internalType":"address"},{"name":"topicId","type":"uint32","indexed":true,"internalType":"uint32"},{"name":"score","type":"uint16","indexed":false,"internalType":"uint16"},{"name":"timestamp","type":"uint64","indexed":false,"internalType":"uint64"}],"anonymous":false},{"type":"event","name":"RatingUpdated","inputs":[{"name":"rater","type":"address","indexed":true,"internalType":"address"},{"name":"ratee","type":"address","indexed":true,"internalType":"address"},{"name":"topicId","type":"uint32","indexed":true,"internalType":"uint32"},{"name":"oldScore","type":"uint16","indexed":false,"internalType":"uint16"},{"name":"newScore","type":"uint16","indexed":false,"internalType":"uint16"},{"name":"timestamp","type":"uint64","indexed":false,"internalType":"uint64"}],"anonymous":false},{"type":"event","name":"Upgraded","inputs":[{"name":"implementation","type":"address","indexed":true,"internalType":"address"}],"anonymous":false},{"type":"error","name":"AddressEmptyCode","inputs":[{"name":"target","type":"address","internalType":"address"}]},{"type":"error","name":"ERC1967InvalidImplementation","inputs":[{"name":"implementation","type":"address","internalType":"address"}]},{"type":"error","name":"ERC1967NonPayable","inputs":[]},{"type":"error","name":"FailedCall","inputs":[]},{"type":"error","name":"InvalidInitialization","inputs":[]},{"type":"error","name":"InvalidRatingValue","inputs":[]},{"type":"error","name":"InvalidTopicId","inputs":[]},{"type":"error","name":"NotInitializing","inputs":[]},{"type":"error","name":"OwnableInvalidOwner","inputs":[{"name":"owner","type":"address","internalType":"address"}]},{"type":"error","name":"OwnableUnauthorizedAccount","inputs":[{"name":"account","type":"address","internalType":"address"}]},{"type":"error","name":"RatedTooRecently","inputs":[{"name":"","type":"address","internalType":"address"},{"name":"","type":"address","internalType":"address"},{"name":"","type":"uint32","internalType":"uint32"},{"name":"","type":"uint64","internalType":"uint64"}]},{"type":"error","name":"RatingNotFound","inputs":[]},{"type":"error","name":"SelfRatingNotAllowed","inputs":[]},{"type":"error","name":"UUPSUnauthorizedCallContext","inputs":[]},{"type":"error","name":"UUPSUnsupportedProxiableUUID","inputs":[{"name":"slot","type":"bytes32","internalType":"bytes32"}]},{"type":"error","name":"Unauthorized","inputs":[]},{"type":"error","name":"UserNotRegistered","inputs":[]}],"bytecode":{"object":"0x60a080604052346100cc57306080527ff0c57e16840df040f15088dc2f81fe391c3923bec73e23a9662efc9c229c6a009081549060ff8260401c166100bd57506001600160401b036002600160401b031982821601610078575b604051612a6190816100d18239608051818181610f2d01526110610152f35b6001600160401b031990911681179091556040519081527fc7f505b2f371ae2175ee4913f4499e1f2633a7b5936321eed1cdaeb6115181d290602090a15f8080610059565b63f92ee8a960e01b8152600490fd5b5f80fdfe6080806040526004361015610012575f80fd5b60e05f3560e01c91826303f8db841461199b5750816305dace7d146118dd5781631dce94cc1461187757816324e348e01461180657816329fc7aff1461173a5781632d6c3d12146115205750806330e0cd85146114cd57806336a9c6a7146114655780633f9c1cc9146112bd5780634d8a6826146111f85780634f1ef28614610fe75780635000596b14610fbf5780635055735b14610f9757806352d1902d14610f1b5780636bb5090c14610ec157806370a6e4b214610d11578063715018a614610caa57806372a803cf14610c7b5780638da5cb5b14610c4757806394e113ea14610c2b57806395ba6d8014610bdd578063a3bdbaa414610b60578063a6a9cfca14610af7578063ad3cb1cc14610a75578063b51b367a146109e7578063b74173b714610977578063bb0e4ea21461095d578063c0c53b8b146107f7578063c3f677ef146107cf578063c66a9e341461077b578063cc09d96a1461075e578063cc8df8f3146102c3578063da9fbe3e1461022c578063db425557146101cf5763f2fde38b146101a0575f80fd5b346101cb5760203660031901126101cb576101c96101bc611ea2565b6101c46126b9565b612476565b005b5f80fd5b346101cb5760403660031901126101cb576101e8611ea2565b6001600160a01b03165f9081526004602052604090208054602435908110156101cb5761021c63ffffffff916020936120e2565b9190546040519260031b1c168152f35b346101cb576102bf61023d36611ef7565b929060018060a09694961b038092165f525f60205260405f2063ffffffff8096165f526020528160405f2091165f5260205260405f206001600160401b038094165f5260205260405f20908082541694600260018401549301549260405196879660ff8660401c1695169361ffff8360c01c16938360a01c1692169087612082565b0390f35b346101cb5760803660031901126101cb576102dc611ea2565b6102e4611ece565b60443563ffffffff808216908183036101cb5761ffff90606435828116908181036101cb576004926103146126b9565b60075460405163c3c5a54760e01b8082526001600160a01b038c811697830188905260209c93811698929091908d816024818d5afa9081156106b3575f91610729575b50156106e2578c8c6024849360405194859384928352169c8d60048301525afa9081156106b3575f916106f4575b50156106e2578787146106d0576103e886116106be575f6024916006541660405192838092637d3de18f60e11b82528d60048301525afa80156106b3576060915f91610691575b50015115610680578888938c6001600160401b03948a8a8742169a825f526001855260405f208a5f52855260405f20825f52855260405f20998a541597845f525f875260405f20825f52875260405f20845f5287528d60405f20905f52875260405f20908d6bffffffffffffffffffffffff60a01b91868385541617845587600185019384541617835561047c90839081549063ffffffff60a01b9060a01b169063ffffffff60a01b1916179055565b815461ffff60c01b191660c09190911b61ffff60c01b161790556002018d68ffffffffffffffffff1982541617600160401b179055825f526005865260405f2093604051936104ca85611fa1565b845286840152604083015260608201528a608082015260a08101600190526104f1916121f4565b836104fc8a896122c7565b610623575b5050505f146105605750506040805161ffff90931683526001600160401b039093166020830152506101c997507f3e358f5e9ccee95421ebc3fd26c6a7a82498f61ad5f9b2a0b61278fdee2bf59d91819081015b0390a45b42916124e7565b8294925491600119830192831161060f576101c99b6105a3610607947fb71ebe14aaf089219e4eb16ec1aca47f09219701edfb7d1ce4c4e5fee2e796e398612013565b9290548a5f525f835260405f208c5f52835260405f208a5f52835260405f209360031b1c165f5252600160405f20015460c01c1691604051938493849193926001600160401b0390604092606085019661ffff809216865216602085015216910152565b0390a4610559565b634e487b7160e01b5f52601160045260245ffd5b610640918b5f526003815260405f20908d5f525260405f20612303565b885f5260028d5260405f208a5f528d5260405f205460101c1615610667575b8c8c81610501565b875f5260048c5261067b8a60405f2061233e565b61065f565b6040516227fb4f60ea1b8152600490fd5b6106ad91503d805f833e6106a58183611fd7565b810190612121565b8d6103cc565b6040513d5f823e3d90fd5b60405163a9cadffd60e01b8152600490fd5b60405163cb02f59960e01b8152600490fd5b604051632163950f60e01b8152600490fd5b90508c81813d8311610722575b61070b8183611fd7565b810103126101cb5761071c90612103565b8d610385565b503d610701565b90508d81813d8311610757575b6107408183611fd7565b810103126101cb5761075190612103565b8e610357565b503d610736565b346101cb575f3660031901126101cb57602060405162eff1008152f35b346101cb5760403660031901126101cb57610794611ea2565b61079c611ee4565b9060018060a01b03165f52600260205263ffffffff60405f2091165f52602052602061ffff60405f205416604051908152f35b346101cb575f3660031901126101cb576008546040516001600160a01b039091168152602090f35b346101cb5760603660031901126101cb57610810611ea2565b610818611ece565b90610821611eb8565b917ff0c57e16840df040f15088dc2f81fe391c3923bec73e23a9662efc9c229c6a0092835460ff8160401c1615936001600160401b03821680159081610955575b600114908161094b575b159081610942575b506109305767ffffffffffffffff19821660011786556108a59185610911575b5061089d612939565b6101c4612939565b60018060a01b0390816bffffffffffffffffffffffff60a01b9316836006541617600655169060075416176007556108d957005b60ff60401b1981541690557fc7f505b2f371ae2175ee4913f4499e1f2633a7b5936321eed1cdaeb6115181d2602060405160018152a1005b68ffffffffffffffffff19166801000000000000000117865586610894565b60405163f92ee8a960e01b8152600490fd5b90501587610874565b303b15915061086c565b869150610862565b346101cb575f3660031901126101cb5760206040515f8152f35b346101cb5760603660031901126101cb57610990611ea2565b610998611ee4565b906044359160018060a01b038092165f52600360205263ffffffff60405f2091165f5260205260405f2080548310156101cb576020926109d7916120cd565b90549060031b1c16604051908152f35b346101cb5760403660031901126101cb57610a00611ea2565b6001600160a01b039081165f9081526005602052604090208054602435908110156101cb57610a2e91612069565b506102bf8282541660026001840154930154906040519485946001600160401b0360ff8560401c1694169261ffff8260c01c169263ffffffff8360a01c1692169087612082565b346101cb575f3660031901126101cb57604051604081018181106001600160401b03821117610ae357610ad59160409182526005815260208101640352e302e360dc1b815282519384926020845251809281602086015285850190612048565b601f01601f19168101030190f35b634e487b7160e01b5f52604160045260245ffd5b346101cb57610b0536611ef7565b92909160018060a01b038092165f525f60205263ffffffff60405f2091165f5260205260405f2091165f526020526001600160401b0360405f2091165f52602052602060ff600260405f20015460401c166040519015158152f35b346101cb5760803660031901126101cb57610b79611ea2565b610b81611ee4565b90610b8a611eb8565b906064359260018060a01b038092165f52600160205263ffffffff60405f2091165f5260205260405f2091165f5260205260405f209081548110156101cb5761021c6001600160401b0391602093612013565b346101cb5760603660031901126101cb5760c0610c1c610bfb611ea2565b610c03611ee4565b610c0b611eb8565b90610c14612395565b5042926126f1565b610c296040518092611f4c565bf35b346101cb575f3660031901126101cb5760206040516103e88152f35b346101cb575f3660031901126101cb575f80516020612a0c833981519152546040516001600160a01b039091168152602090f35b346101cb5760c0610c1c6001600160401b03610c9636611ef7565b610ca294919394612395565b5016926126f1565b346101cb575f3660031901126101cb57610cc26126b9565b5f80516020612a0c83398151915280546001600160a01b031981169091555f906001600160a01b03167f8be0079c531659141344cd1fd0a4f28419497f9722a3daafe3b4186f6b6457e08280a3005b346101cb576060806003193601126101cb57610d2b611ea2565b610d33611ee4565b604435906001600160401b03908183168093036101cb57610d52612377565b5060018060a01b03948585165f526020936003855260405f209563ffffffff968785165f52865260405f20936040518086898298549384815201905f52895f20928c8b5f915b838310610ea85750505050610daf92500386611fd7565b5f985f955f985f5b8251811015610e2257610dd88785610dcf8487612429565b511687896126f1565b60a0810151610deb575b50600101610db7565b989c6080610e0b610e058d9361ffff8d8f0151169061243d565b9f61244a565b9a0151168a8c16811115610de2579a506001610de2565b506102bf888a8c8f8f8487928115155f14610e9f5761ffff91610e4491612458565b16945b61ffff60405196610e5788611fbc565b16865216908401521660408201526040519182918291909160406001600160401b0381606084019561ffff815116855263ffffffff6020820151166020860152015116910152565b50505f94610e47565b86541684526001958601958b9550930192018b8e610d98565b346101cb5760203660031901126101cb57610eda611ea2565b610ee26126b9565b600854906001600160a01b0390818316610f0a576001600160a01b0319909216911617600855005b6040516282b42960e81b8152600490fd5b346101cb575f3660031901126101cb577f00000000000000000000000000000000000000000000000000000000000000006001600160a01b03163003610f855760206040517f360894a13ba1a3210667c828492db98dca3e2076cc3735a920a3ca505d382bbc8152f35b60405163703e46dd60e11b8152600490fd5b346101cb575f3660031901126101cb576006546040516001600160a01b039091168152602090f35b346101cb575f3660031901126101cb576007546040516001600160a01b039091168152602090f35b60403660031901126101cb57610ffb611ea2565b6024908135906001600160401b0382116101cb57366023830112156101cb5781600401359061102982611ff8565b916110376040519384611fd7565b808352602093368683830101116101cb57815f928787930183870137840101526001600160a01b037f000000000000000000000000000000000000000000000000000000000000000081163081149081156111ca575b50610f855761109a6126b9565b6040516352d1902d60e01b8152908216938082600481885afa9182915f9361119a575b50506110db5750505060405190634c9c8ce360e01b82526004820152fd5b847f360894a13ba1a3210667c828492db98dca3e2076cc3735a920a3ca505d382bbc918281036111855750823b1561116f575080546001600160a01b03191684179055604051927fbc7cd75a20ee27fd9adebab32041f755214dbc6bffa90cc0225b39da2e5c2d3b5f80a2815115611157576101c9925061297a565b50503461116057005b63b398979f60e01b8152600490fd5b604051634c9c8ce360e01b815260048101869052fd5b60405190632a87526960e21b82526004820152fd5b9080929350813d83116111c3575b6111b28183611fd7565b810103126101cb57519086806110bd565b503d6111a8565b9050817f360894a13ba1a3210667c828492db98dca3e2076cc3735a920a3ca505d382bbc541614158661108d565b346101cb5760403660031901126101cb57611211611ea2565b611219611ee4565b60018060a01b038092165f526020906003825263ffffffff60405f2091165f52815260405f20604051918281835491828152019081935f52825f20905f5b8181106112a7575050508361126d910384611fd7565b6040519281840190828552518091526040840192915f5b8281106112915785850386f35b8351871685529381019392810192600101611284565b8254881684529284019260019283019201611257565b346101cb576060806003193601126101cb576112d7611ea2565b906112e0611ee4565b906112e9611eb8565b60018060a01b038094165f5260019360209385855263ffffffff60405f2091165f52845260405f2091165f5282528160405f2091604051908192839181865494858152019081965f52825f20945f915b8a82600385011061141d57505061137e9554918a85838310611404575b8383106113e8575b8383106113cc575b5050106113be575b5090509593959492940384611fd7565b6040519281840190828552518091526040840194915f5b8281106113a25785870386f35b83516001600160401b0316875295810195928101928401611395565b60c01c81520185908861136e565b9091946001600160401b038560801c1681520193018a85611366565b9091946001600160401b038560401c1681520193018a8561135e565b9091946001600160401b03851681520193018a85611356565b9194509450600491928654906001600160401b03918281168252828160401c168c83015260809281841c16604083015260c01c87820152019501910187928694959295611339565b346101cb5760603660031901126101cb5761147e611ea2565b611486611ee4565b9061148f611eb8565b9160018060a01b038092165f52600160205263ffffffff60405f2091165f5260205260405f2091165f52602052602060405f20541515604051908152f35b346101cb5760403660031901126101cb5760206114e8611ea2565b6114f0611ee4565b9060018060a01b03165f526002825260405f2063ffffffff8092165f52825260405f205460101c16604051908152f35b346101cb57602090816003193601126101cb576001600160a01b03611543611ea2565b165f52600482528160405f2091604051908192839181865494858152019081965f52825f20945f915b8160078401106116c857506115ca955491848282106116b2575b82821061169a575b828210611681575b828210611668575b82821061164f575b828210611636575b82821061161d575b501061160f575b5090509392930383611fd7565b60405192839281840190828552518091526040840192915f5b8281106115f257505050500390f35b835163ffffffff16855286955093810193928101926001016115e3565b60e01c8152018590876115bd565b6001919463ffffffff8560c01c168152019301846115b6565b6001919463ffffffff8560a01c168152019301846115ae565b6001919463ffffffff8560801c168152019301846115a6565b6001919463ffffffff8560601c1681520193018461159e565b6001919463ffffffff8560401c16815201930184611596565b6001919463ffffffff85831c1681520193018461158e565b6001919463ffffffff8516815201930184611586565b945092509060016101006008928754808c63ffffffff91829182821686521c168d840152808260401c16604084015260608183821c169084015260808183821c169084015260a08183821c169084015260c09082821c1690830152871c8782015201950191018792869495929561156c565b346101cb576020806003193601126101cb576001600160a01b0361175c611ea2565b165f526005815260405f209081546001600160401b038111610ae3576040519061178b838260051b0183611fd7565b80825282820180945f52835f205f915b8383106117e9576040805187815286518189018190528992820190895f5b8281106117c65784840385f35b9091928260c0826117da6001948a51611f4c565b019601910194929190946117b9565b6003866001926117f8856123c5565b81520192019201919061179b565b346101cb5760403660031901126101cb576060611821611ea2565b611829611ee4565b9060018060a01b03165f52600260205260405f2063ffffffff8092165f526020526001600160401b0360405f20546040519261ffff821684528160101c16602084015260301c166040820152f35b346101cb5761188536611ef7565b929091611890612395565b5060018060a01b038092165f525f60205263ffffffff60405f2091165f5260205260405f2091165f526020526001600160401b0360405f2091165f5260205260c0610c1c60405f206123c5565b346101cb5760403660031901126101cb576102bf6118f9611ea2565b611901611ee4565b9061190a612377565b5060018060a01b03165f52600260205260405f2063ffffffff8092165f526020526001600160401b0360405f20916040519261194584611fbc565b549061ffff821684528160101c16602084015260301c1660408201526040519182918291909160406001600160401b0381606084019561ffff815116855263ffffffff6020820151166020860152015116910152565b346101cb5760603660031901126101cb576119b4611ea2565b6119bc611ee4565b61ffff60443516604435036101cb5760075463c3c5a54760e01b8085523360048601526001600160a01b039491851691602081602481865afa9081156106b3575f91611e68575b50156106e257602090602460405180948193825288881660048301525afa9081156106b3575f91611e2e575b50156106e25782821633146106d0576103e861ffff60443516116106be5760245f846006541660405192838092637d3de18f60e11b825263ffffffff871660048301525afa80156106b3576060915f91611e14575b50015115610680578282165f52600160205260405f2063ffffffff82165f5260205260405f20335f5260205260405f2092835480611d86575b8382165f8181526020818152604080832063ffffffff88168452825280832033808552908352818420426001600160401b0316855290925290912080546001600160a01b031916909117815560018101805460a087901b63ffffffff60a01b1665ffffffffffff60a01b199094166001600160d01b0319909116179290921760443560c01b61ffff60c01b1617909155600201600160401b6001600160401b03421668ffffffffffffffffff1983541617179055335f526005602052611bcb60405f2060405190611b8d82611fa1565b338252848716602083015263ffffffff8616604083015261ffff6044351660608301526001600160401b0342166080830152600160a08301526121f4565b611bde6001600160401b034216866122c7565b8015611d17575b611c42576040805161ffff604435168152426001600160401b031660208201526101c9955063ffffffff84169285169133917f3e358f5e9ccee95421ebc3fd26c6a7a82498f61ad5f9b2a0b61278fdee2bf59d9181908101610555565b8354600119810190811161060f57611c656001600160401b03916101c996612013565b9190548386165f525f60205260405f2063ffffffff86165f5260205260405f20335f5260205260405f209260031b1c165f5260205261ffff600160405f20015460c01c16604051907fb71ebe14aaf089219e4eb16ec1aca47f09219701edfb7d1ce4c4e5fee2e796e363ffffffff8516938616928061060733946001600160401b0342169060443590849193926001600160401b0390604092606085019661ffff809216865216602085015216910152565b8184165f52600360205260405f2063ffffffff84165f52602052611d3e3360405f20612303565b8184165f52600260205260405f2063ffffffff84165f5260205263ffffffff60405f205460101c16611be5578184165f526004602052611d818360405f2061233e565b611be5565b5f19810181811161060f57611da36001600160401b039187612013565b90549060031b1c166001600160401b0362eff10082011161060f576001600160401b0362eff1008201166001600160401b03421610611de25750611abd565b8460849163ffffffff86866040519463f07a4f3160e01b86523360048701521660248501521660448301526064820152fd5b611e2891503d805f833e6106a58183611fd7565b85611a84565b90506020813d602011611e60575b81611e4960209383611fd7565b810103126101cb57611e5a90612103565b84611a2f565b3d9150611e3c565b90506020813d602011611e9a575b81611e8360209383611fd7565b810103126101cb57611e9490612103565b86611a03565b3d9150611e76565b600435906001600160a01b03821682036101cb57565b604435906001600160a01b03821682036101cb57565b602435906001600160a01b03821682036101cb57565b6024359063ffffffff821682036101cb57565b60809060031901126101cb576001600160a01b0360043581811681036101cb579160243563ffffffff811681036101cb579160443590811681036101cb57906064356001600160401b03811681036101cb5790565b60a08091600180831b03808251168552602082015116602085015263ffffffff604082015116604085015261ffff60608201511660608501526001600160401b03608082015116608085015201511515910152565b60c081019081106001600160401b03821117610ae357604052565b606081019081106001600160401b03821117610ae357604052565b90601f801991011681019081106001600160401b03821117610ae357604052565b6001600160401b038111610ae357601f01601f191660200190565b9190918054831015612034575f52601860205f208360021c019260031b1690565b634e487b7160e01b5f52603260045260245ffd5b5f5b8381106120595750505f910152565b818101518382015260200161204a565b8054821015612034575f52600360205f20910201905f90565b6001600160a01b0391821681529116602082015263ffffffff91909116604082015261ffff90911660608201526001600160401b03909116608082015290151560a082015260c00190565b8054821015612034575f5260205f2001905f90565b9190918054831015612034575f52601c60205f208360031c019260021b1690565b519081151582036101cb57565b519063ffffffff821682036101cb57565b602080828403126101cb5781516001600160401b03928382116101cb570160a0818503126101cb576040519360a0850185811085821117610ae35760405261216882612110565b8552828201518481116101cb5782019281601f850112156101cb5783519361218f85611ff8565b9261219d6040519485611fd7565b8584528286830101116101cb576080946121bc91838086019101612048565b8501526121cb60408201612110565b60408501526121dc60608201612103565b6060850152015190811681036101cb57608082015290565b8054600160401b811015610ae35761221191600182018155612069565b6122b457815181546001600160a01b0319166001600160a01b0391821617825560208301516001830180546040860151606087015161ffff60c01b60c09190911b166001600160d01b0319909216939094169290921760a09390931b63ffffffff60a01b1692909217179055600201906001600160401b0360808201511660ff60401b60a08454930151151560401b169168ffffffffffffffffff191617179055565b634e487b7160e01b5f525f60045260245ffd5b8054600160401b811015610ae3576122e491600182018155612013565b6001600160401b039291928084549260031b9316831b921b1916179055565b8054600160401b811015610ae357612320916001820181556120cd565b60018060a09493941b038084549260031b9316831b921b1916179055565b8054600160401b811015610ae35761235b916001820181556120e2565b63ffffffff9291928084549260031b9316831b921b1916179055565b6040519061238482611fbc565b5f6040838281528260208201520152565b604051906123a282611fa1565b5f60a0838281528260208201528260408201528260608201528260808201520152565b906040516123d281611fa1565b60a060ff6002839561ffff600180861b038083541687526001830154908116602088015263ffffffff81871c16604088015260c01c16606086015201546001600160401b038116608085015260401c161515910152565b80518210156120345760209160051b010190565b9190820180921161060f57565b5f19811461060f5760010190565b8115612462570490565b634e487b7160e01b5f52601260045260245ffd5b6001600160a01b039081169081156124cf575f80516020612a0c83398151915280546001600160a01b031981168417909155167f8be0079c531659141344cd1fd0a4f28419497f9722a3daafe3b4186f6b6457e05f80a3565b604051631e4fbdf760e01b81525f6004820152602490fd5b92919260018060a01b039384821691825f5260209360038552604096875f2063ffffffff9788841691825f528852895f20918a5180848b8296549384815201905f528b5f20925f5b8d8282106126a15750505061254692500384611fd7565b5f975f9b5f9a5f5b86518110156125c55761256f8b89612566848b612429565b51168b8d6126f1565b60a0810151612582575b5060010161254e565b9e9b8f9060608f92015161ffff166125999161243d565b9c6125a39061244a565b9f6001600160401b03608081920151169116811115612579579c506001612579565b5095509750989550989150988093507f3a9cf2f120fb526b148a312034c60158d93c1f8544af59b232c38721acb96c7e968115155f146126985761ffff9161260c91612458565b16925b169184519061261d82611fbc565b61ffff80911694858352838301918583526001600160401b0388850192168252895f5260028552875f208b5f528552875f209351166dffffffffffffffff00000000000065ffffffff00008554945160101b16925160301b16926dffffffffffffffffffffffffffff191617171790558351928352820152a3565b50505f9261260f565b85548a1684526001958601958995509301920161252f565b5f80516020612a0c833981519152546001600160a01b031633036126d957565b60405163118cdaa760e01b8152336004820152602490fd5b9192906126fc612395565b5060018060a01b0380931693845f526001916020838194825260409663ffffffff885f20941693845f528352875f20941693845f528252865f20875190819381818693549485815201905f528a825f20945f5b878260038301106128f2578561278c9854948484106128d9575b8484106128be575b508383106128a2575b505010612894575b5090500383611fd7565b81511561287e575f95869283835b61280d575b50505050156127db576127d8955f525f8352845f20905f528252835f20905f5281526001600160401b03835f2092165f52525f206123c5565b90565b5050925050805f809251936127ef85611fa1565b8185528401528201525f60608201525f60808201525f60a082015290565b8151811015612879576001600160401b03838161282a8486612429565b5116111580612862575b612842575b5083018361279a565b90945081985061285485859493612429565b511697919390919084612839565b508061286e8385612429565b5116818b1610612834565b61279f565b50505050925050805f809251936127ef85611fa1565b60c01c81520187905f612782565b9091946001600160401b038560801c168152019301878561277a565b85901c6001600160401b03168652909401930187858f612771565b6001600160401b03861687529581019592820192612769565b92919550935060049286546001600160401b039283821683528d8483831c169084015260809382851c169083015260c01c60608201520194019101928a86938a939561274f565b60ff7ff0c57e16840df040f15088dc2f81fe391c3923bec73e23a9662efc9c229c6a005460401c161561296857565b604051631afcd79f60e31b8152600490fd5b905f8091602081519101845af480806129f8575b156129ae5750506040513d81523d5f602083013e60203d82010160405290565b156129d557604051639996b31560e01b81526001600160a01b039091166004820152602490fd5b3d156129e6576040513d5f823e3d90fd5b60405163d6bda27560e01b8152600490fd5b503d15158061298e5750813b151561298e56fe9016d09d72d40fdae2fd8ceac6b6234c7706214fd39c1cd1e609a0528c199300a264697066735822122060b83c29b4ffbd1f64c1967d76f7fe5eb09f992cbbeff82699339c76b20c3aae64736f6c63430008180033","linkReferences":{}},"methodIdentifiers":{"MAX_RATING()":"94e113ea","MIN_RATING()":"bb0e4ea2","RATING_COOLDOWN_PERIOD()":"cc09d96a","UPGRADE_INTERFACE_VERSION()":"ad3cb1cc","adminRateUser(address,address,uint32,uint16)":"cc8df8f3","getAverageScore(address,uint32)":"c66a9e34","getRating(address,uint32,address)":"95ba6d80","getRatingAtTime(address,uint32,address,uint64)":"72a803cf","getRatingAtTimestamp(address,uint32,address,uint64)":"1dce94cc","getRatingCount(address,uint32)":"30e0cd85","getRatingTimestamps(address,uint32,address)":"3f9c1cc9","getRatingsByUser(address)":"29fc7aff","getTopicRaters(address,uint32)":"4d8a6826","getUserRatedTopics(address)":"2d6c3d12","getUserTopicRating(address,uint32)":"05dace7d","getUserTopicRatingAtTime(address,uint32,uint64)":"70a6e4b2","initialize(address,address,address)":"c0c53b8b","owner()":"8da5cb5b","proxiableUUID()":"52d1902d","rateUser(address,uint32,uint16)":"03f8db84","ratingExists(address,uint32,address)":"36a9c6a7","ratingExistsAtTimestamp(address,uint32,address,uint64)":"a6a9cfca","ratingTimestamps(address,uint32,address,uint256)":"a3bdbaa4","ratings(address,uint32,address,uint64)":"da9fbe3e","ratingsMadeByUser(address,uint256)":"b51b367a","renounceOwnership()":"715018a6","reputationEngine()":"c3f677ef","setReputationEngine(address)":"6bb5090c","topicRaters(address,uint32,uint256)":"b74173b7","topicRegistry()":"5055735b","transferOwnership(address)":"f2fde38b","upgradeToAndCall(address,bytes)":"4f1ef286","userContract()":"5000596b","userRatedTopics(address,uint256)":"db425557","userTopicRatings(address,uint32)":"24e348e0"},"id":45}