{"abi":[{"type":"constructor","inputs":[],"stateMutability":"nonpayable"},{"type":"function","name":"UPGRADE_INTERFACE_VERSION","inputs":[],"outputs":[{"name":"","type":"string","internalType":"string"}],"stateMutability":"view"},{"type":"function","name":"closePoll","inputs":[{"name":"pollId","type":"uint64","internalType":"uint64"}],"outputs":[],"stateMutability":"nonpayable"},{"type":"function","name":"createPoll","inputs":[{"name":"topicId","type":"uint32","internalType":"uint32"},{"name":"question","type":"string","internalType":"string"},{"name":"options","type":"string[]","internalType":"string[]"},{"name":"durationInDays","type":"uint64","internalType":"uint64"}],"outputs":[{"name":"","type":"uint64","internalType":"uint64"}],"stateMutability":"nonpayable"},{"type":"function","name":"finalizePoll","inputs":[{"name":"pollId","type":"uint64","internalType":"uint64"}],"outputs":[],"stateMutability":"nonpayable"},{"type":"function","name":"getPoll","inputs":[{"name":"pollId","type":"uint64","internalType":"uint64"}],"outputs":[{"name":"","type":"tuple","internalType":"struct Poll.PollData","components":[{"name":"id","type":"uint64","internalType":"uint64"},{"name":"creator","type":"address","internalType":"address"},{"name":"topicId","type":"uint32","internalType":"uint32"},{"name":"question","type":"string","internalType":"string"},{"name":"questionHash","type":"bytes32","internalType":"bytes32"},{"name":"createdAt","type":"uint64","internalType":"uint64"},{"name":"endTime","type":"uint64","internalType":"uint64"},{"name":"status","type":"uint8","internalType":"enum Poll.PollStatus"},{"name":"optionCount","type":"uint8","internalType":"uint8"},{"name":"totalVoters","type":"uint32","internalType":"uint32"}]}],"stateMutability":"view"},{"type":"function","name":"getPollOption","inputs":[{"name":"pollId","type":"uint64","internalType":"uint64"},{"name":"optionId","type":"uint8","internalType":"uint8"}],"outputs":[{"name":"","type":"tuple","internalType":"struct Poll.PollOption","components":[{"name":"optionId","type":"uint8","internalType":"uint8"},{"name":"optionText","type":"string","internalType":"string"},{"name":"totalWeight","type":"uint256","internalType":"uint256"},{"name":"voteCount","type":"uint32","internalType":"uint32"}]}],"stateMutability":"view"},{"type":"function","name":"getPollOptions","inputs":[{"name":"pollId","type":"uint64","internalType":"uint64"}],"outputs":[{"name":"","type":"tuple[]","internalType":"struct Poll.PollOption[]","components":[{"name":"optionId","type":"uint8","internalType":"uint8"},{"name":"optionText","type":"string","internalType":"string"},{"name":"totalWeight","type":"uint256","internalType":"uint256"},{"name":"voteCount","type":"uint32","internalType":"uint32"}]}],"stateMutability":"view"},{"type":"function","name":"getPollResults","inputs":[{"name":"pollId","type":"uint64","internalType":"uint64"}],"outputs":[{"name":"","type":"tuple","internalType":"struct Poll.PollResults","components":[{"name":"pollId","type":"uint64","internalType":"uint64"},{"name":"winningOption","type":"uint8","internalType":"uint8"},{"name":"totalWeight","type":"uint256","internalType":"uint256"},{"name":"optionWeights","type":"uint256[]","internalType":"uint256[]"},{"name":"optionVoteCounts","type":"uint32[]","internalType":"uint32[]"}]}],"stateMutability":"view"},{"type":"function","name":"getTopicPolls","inputs":[{"name":"topicId","type":"uint32","internalType":"uint32"}],"outputs":[{"name":"","type":"uint64[]","internalType":"uint64[]"}],"stateMutability":"view"},{"type":"function","name":"getUserCreatedPolls","inputs":[{"name":"user","type":"address","internalType":"address"}],"outputs":[{"name":"","type":"uint64[]","internalType":"uint64[]"}],"stateMutability":"view"},{"type":"function","name":"getUserVote","inputs":[{"name":"pollId","type":"uint64","internalType":"uint64"},{"name":"voter","type":"address","internalType":"address"}],"outputs":[{"name":"","type":"tuple","internalType":"struct Poll.Vote","components":[{"name":"voter","type":"address","internalType":"address"},{"name":"pollId","type":"uint64","internalType":"uint64"},{"name":"selectedOption","type":"uint8","internalType":"uint8"},{"name":"weight","type":"uint256","internalType":"uint256"},{"name":"votedAt","type":"uint64","internalType":"uint64"}]}],"stateMutability":"view"},{"type":"function","name":"getUserVotedPolls","inputs":[{"name":"user","type":"address","internalType":"address"}],"outputs":[{"name":"","type":"uint64[]","internalType":"uint64[]"}],"stateMutability":"view"},{"type":"function","name":"getWeightedPercentages","inputs":[{"name":"pollId","type":"uint64","internalType":"uint64"}],"outputs":[{"name":"","type":"uint256[]","internalType":"uint256[]"}],"stateMutability":"view"},{"type":"function","name":"initialize","inputs":[{"name":"initialOwner","type":"address","internalType":"address"},{"name":"_userContract","type":"address","internalType":"address"},{"name":"_reputationEngine","type":"address","internalType":"address"},{"name":"_topicRegistry","type":"address","internalType":"address"}],"outputs":[],"stateMutability":"nonpayable"},{"type":"function","name":"isPollActive","inputs":[{"name":"pollId","type":"uint64","internalType":"uint64"}],"outputs":[{"name":"","type":"bool","internalType":"bool"}],"stateMutability":"view"},{"type":"function","name":"owner","inputs":[],"outputs":[{"name":"","type":"address","internalType":"address"}],"stateMutability":"view"},{"type":"function","name":"pollCount","inputs":[],"outputs":[{"name":"","type":"uint64","internalType":"uint64"}],"stateMutability":"view"},{"type":"function","name":"pollOptions","inputs":[{"name":"","type":"uint64","internalType":"uint64"},{"name":"","type":"uint8","internalType":"uint8"}],"outputs":[{"name":"optionId","type":"uint8","internalType":"uint8"},{"name":"optionText","type":"string","internalType":"string"},{"name":"totalWeight","type":"uint256","internalType":"uint256"},{"name":"voteCount","type":"uint32","internalType":"uint32"}],"stateMutability":"view"},{"type":"function","name":"polls","inputs":[{"name":"","type":"uint64","internalType":"uint64"}],"outputs":[{"name":"id","type":"uint64","internalType":"uint64"},{"name":"creator","type":"address","internalType":"address"},{"name":"topicId","type":"uint32","internalType":"uint32"},{"name":"question","type":"string","internalType":"string"},{"name":"questionHash","type":"bytes32","internalType":"bytes32"},{"name":"createdAt","type":"uint64","internalType":"uint64"},{"name":"endTime","type":"uint64","internalType":"uint64"},{"name":"status","type":"uint8","internalType":"enum Poll.PollStatus"},{"name":"optionCount","type":"uint8","internalType":"uint8"},{"name":"totalVoters","type":"uint32","internalType":"uint32"}],"stateMutability":"view"},{"type":"function","name":"proxiableUUID","inputs":[],"outputs":[{"name":"","type":"bytes32","internalType":"bytes32"}],"stateMutability":"view"},{"type":"function","name":"renounceOwnership","inputs":[],"outputs":[],"stateMutability":"nonpayable"},{"type":"function","name":"reputationEngine","inputs":[],"outputs":[{"name":"","type":"address","internalType":"contract ReputationEngine"}],"stateMutability":"view"},{"type":"function","name":"topicPolls","inputs":[{"name":"","type":"uint32","internalType":"uint32"},{"name":"","type":"uint256","internalType":"uint256"}],"outputs":[{"name":"","type":"uint64","internalType":"uint64"}],"stateMutability":"view"},{"type":"function","name":"topicRegistry","inputs":[],"outputs":[{"name":"","type":"address","internalType":"contract TopicRegistry"}],"stateMutability":"view"},{"type":"function","name":"transferOwnership","inputs":[{"name":"newOwner","type":"address","internalType":"address"}],"outputs":[],"stateMutability":"nonpayable"},{"type":"function","name":"upgradeToAndCall","inputs":[{"name":"newImplementation","type":"address","internalType":"address"},{"name":"data","type":"bytes","internalType":"bytes"}],"outputs":[],"stateMutability":"payable"},{"type":"function","name":"userContract","inputs":[],"outputs":[{"name":"","type":"address","internalType":"contract User"}],"stateMutability":"view"},{"type":"function","name":"userPolls","inputs":[{"name":"","type":"address","internalType":"address"},{"name":"","type":"uint256","internalType":"uint256"}],"outputs":[{"name":"","type":"uint64","internalType":"uint64"}],"stateMutability":"view"},{"type":"function","name":"userVotes","inputs":[{"name":"","type":"address","internalType":"address"},{"name":"","type":"uint256","internalType":"uint256"}],"outputs":[{"name":"","type":"uint64","internalType":"uint64"}],"stateMutability":"view"},{"type":"function","name":"vote","inputs":[{"name":"pollId","type":"uint64","internalType":"uint64"},{"name":"optionId","type":"uint8","internalType":"uint8"}],"outputs":[],"stateMutability":"nonpayable"},{"type":"function","name":"votes","inputs":[{"name":"","type":"uint64","internalType":"uint64"},{"name":"","type":"address","internalType":"address"}],"outputs":[{"name":"voter","type":"address","internalType":"address"},{"name":"pollId","type":"uint64","internalType":"uint64"},{"name":"selectedOption","type":"uint8","internalType":"uint8"},{"name":"weight","type":"uint256","internalType":"uint256"},{"name":"votedAt","type":"uint64","internalType":"uint64"}],"stateMutability":"view"},{"type":"event","name":"Initialized","inputs":[{"name":"version","type":"uint64","indexed":false,"internalType":"uint64"}],"anonymous":false},{"type":"event","name":"OwnershipTransferred","inputs":[{"name":"previousOwner","type":"address","indexed":true,"internalType":"address"},{"name":"newOwner","type":"address","indexed":true,"internalType":"address"}],"anonymous":false},{"type":"event","name":"PollClosed","inputs":[{"name":"pollId","type":"uint64","indexed":true,"internalType":"uint64"}],"anonymous":false},{"type":"event","name":"PollCreated","inputs":[{"name":"pollId","type":"uint64","indexed":true,"internalType":"uint64"},{"name":"creator","type":"address","indexed":true,"internalType":"address"},{"name":"topicId","type":"uint32","indexed":true,"internalType":"uint32"},{"name":"question","type":"string","indexed":false,"internalType":"string"},{"name":"endTime","type":"uint64","indexed":false,"internalType":"uint64"}],"anonymous":false},{"type":"event","name":"PollFinalized","inputs":[{"name":"pollId","type":"uint64","indexed":true,"internalType":"uint64"},{"name":"winningOption","type":"uint8","indexed":false,"internalType":"uint8"}],"anonymous":false},{"type":"event","name":"Upgraded","inputs":[{"name":"implementation","type":"address","indexed":true,"internalType":"address"}],"anonymous":false},{"type":"event","name":"VoteCast","inputs":[{"name":"pollId","type":"uint64","indexed":true,"internalType":"uint64"},{"name":"voter","type":"address","indexed":true,"internalType":"address"},{"name":"optionId","type":"uint8","indexed":false,"internalType":"uint8"},{"name":"weight","type":"uint256","indexed":false,"internalType":"uint256"}],"anonymous":false},{"type":"error","name":"AddressEmptyCode","inputs":[{"name":"target","type":"address","internalType":"address"}]},{"type":"error","name":"AlreadyVoted","inputs":[]},{"type":"error","name":"ERC1967InvalidImplementation","inputs":[{"name":"implementation","type":"address","internalType":"address"}]},{"type":"error","name":"ERC1967NonPayable","inputs":[]},{"type":"error","name":"FailedCall","inputs":[]},{"type":"error","name":"InvalidEndTime","inputs":[]},{"type":"error","name":"InvalidInitialization","inputs":[]},{"type":"error","name":"InvalidOption","inputs":[]},{"type":"error","name":"InvalidTopic","inputs":[]},{"type":"error","name":"NotInitializing","inputs":[]},{"type":"error","name":"OwnableInvalidOwner","inputs":[{"name":"owner","type":"address","internalType":"address"}]},{"type":"error","name":"OwnableUnauthorizedAccount","inputs":[{"name":"account","type":"address","internalType":"address"}]},{"type":"error","name":"PollAlreadyClosed","inputs":[]},{"type":"error","name":"PollNotActive","inputs":[]},{"type":"error","name":"PollNotEnded","inputs":[]},{"type":"error","name":"PollNotFound","inputs":[]},{"type":"error","name":"TooFewOptions","inputs":[]},{"type":"error","name":"TooManyOptions","inputs":[]},{"type":"error","name":"UUPSUnauthorizedCallContext","inputs":[]},{"type":"error","name":"UUPSUnsupportedProxiableUUID","inputs":[{"name":"slot","type":"bytes32","internalType":"bytes32"}]},{"type":"error","name":"Unauthorized","inputs":[]},{"type":"error","name":"UserNotRegistered","inputs":[]}],"bytecode":{"object":"0x60a080604052346100cd57306080527ff0c57e16840df040f15088dc2f81fe391c3923bec73e23a9662efc9c229c6a009081549060ff8260401c166100be57506001600160401b036002600160401b031982821601610079575b604051612ccb9081620000d282396080518181816119c10152611acb0152f35b6001600160401b031990911681179091556040519081527fc7f505b2f371ae2175ee4913f4499e1f2633a7b5936321eed1cdaeb6115181d290602090a15f8080610059565b63f92ee8a960e01b8152600490fd5b5f80fdfe6080806040526004361015610012575f80fd5b5f3560e01c9081630cf91c1a146123f157508063123472941461232f578063157bd75d146121445780632eb178fa146120565780632fd3b58914611fd9578063355589f214611d005780633b9cc85314611cc85780633c9066af14611c685780634f1ef28614611a7d5780635000596b14611a535780635055735b14611a2b57806352d1902d146119af57806370a9b3fd14611920578063715018a6146118b957806375bd7155146117ed5780638b3511f71461179d5780638da5cb5b146117695780639207891d1461174357806396248ffd1461162f5780639ccd868a14610d0b578063a060c2aa14610c88578063ad3cb1cc14610c1d578063b040d166146108e9578063c0e47ef9146107fa578063c2eb2d8c14610733578063c3f677ef1461070b578063cb034a09146104ca578063d059813714610399578063d78c03631461033d578063f2fde38b146103175763f8c8765e14610171575f80fd5b346103135760803660031901126103135761018a6124fa565b6101926124e4565b6001600160a01b039190604435838116919082900361031357606435938416809403610313577ff0c57e16840df040f15088dc2f81fe391c3923bec73e23a9662efc9c229c6a0093845460ff8160401c1615946001600160401b0382168015908161030b575b6001149081610301575b1590816102f8575b506102e65767ffffffffffffffff198216600117875561024091866102c7575b50610233612ba3565b61023b612ba3565b612afa565b600654926bffffffffffffffffffffffff60a01b908160075416176007556008541617600855600160401b600160e01b039060401b169063ffffffff60e01b161760065561028a57005b68ff00000000000000001981541690557fc7f505b2f371ae2175ee4913f4499e1f2633a7b5936321eed1cdaeb6115181d2602060405160018152a1005b68ffffffffffffffffff1916680100000000000000011787555f61022a565b60405163f92ee8a960e01b8152600490fd5b9050155f61020a565b303b159150610202565b8791506101f8565b5f80fd5b346103135760203660031901126103135761033b6103336124fa565b61023b612b6b565b005b346103135760403660031901126103135761035661281a565b63ffffffff60243591165f52600560205260405f20908154811015610313576103896001600160401b0391602093612757565b9190546040519260031b1c168152f35b34610313576020806003193601126103135763ffffffff6103b861281a565b165f526005815260405f2060405190818382549182815201915f52835f20905f915b81600384011061048a57928492610428969261041c95549184828210610471575b828210610455575b828210610439575b501061042c575b5090500382612661565b60405191829182612510565b0390f35b60c01c8152018086610412565b600191946001600160401b038560801c1681520193018461040b565b600191946001600160401b038560401c16815201930184610403565b600191946001600160401b0385168152019301846103fb565b9260016004918554906001600160401b03918281168252828160401c168a83015260809281841c16604083015260c01c60608201520194019201916103da565b3461031357602080600319360112610313576001600160401b0390816104ee6124ce565b1691825f525f825260405f2092604051916105088361262a565b8454818116845260018060a01b038160401c168585015260e01c6040840152600194610535868201612682565b6060906060860152600291600281015460808701526003809101549084821660a0880152848260401c1660c088015260ff94610579868460801c1660e08a0161282d565b610100880197868460881c16895263ffffffff809460901c166101208201525116156106f9578651851698966105c76105b18b612839565b9a6105bf6040519c8d612661565b808c52612839565b601f19015f5b8181106106dd575050875f905b610645575b505050505050505060405191808301818452845180915260408401918060408360051b8701019601925f905b8382106106185786880387f35b90919293948380610634839a603f198b820301865289516127dd565b99970195949391909101910161060b565b90889a9895949392918a88835116918b8a8216938410156106d157838a936106ba8d968f948b8b8f6106c1985f528a875260405f20855f52875260405f20906040519761069189612646565b8d83541689526106a28d8401612682565b9089015281015460408801520154168d850152612882565b528d612882565b500116909192939495989a6105da565b505050509997996105df565b8a906106ea9c9a9c612a67565b82828d010152019a989a6105cd565b604051633e75bf7b60e21b8152600490fd5b34610313575f366003190112610313576007546040516001600160a01b039091168152602090f35b3461031357602080600319360112610313576001600160a01b036107556124fa565b165f52600380825260405f2060405191828483549182815201925f52845f205f925b82818501106107b55750928492610428969261041c95549184828210610471578282106104555782821061043957501061042c575090500382612661565b9290936004600184928754906001600160401b03918281168252828160401c168c83015260809281841c16604083015260c01c60608201520196019201939050610777565b34610313576020366003190112610313576001600160401b038061081c6124ce565b1690815f525f60205260405f2090815491818316156106f9576003019182549160ff8360801c1660038110156108d5576108c3578260401c16421090816108a9575b506108985760ff60801b1916600160801b1790557f132bc6cc7b271c7806ab4fc811c96ce8ef6573613cffa607dee7bf437393d0055f80a2005b6040516282b42960e81b8152600490fd5b3360409190911c6001600160a01b0316141590508461085e565b604051639b22ddeb60e01b8152600490fd5b634e487b7160e01b5f52602160045260245ffd5b34610313576108f7366125a7565b906001600160401b039182821691825f526020905f825260405f20805490868216156106f9576003019081549660ff8860801c1660038110156108d557610c0b57808860401c16421015610c0b576006546040805163c3c5a54760e01b81523360048201526001600160a01b03989290918891839160249183911c8c165afa908115610b95575f91610bd6575b5015610bc457875f526002865260405f20335f52865281600260405f20015416610bb25760ff8091169860881c16881015610ba0578486600754169260446040518095819363ca1dc30b60e01b835233600484015260e01c60248301525afa958615610b955787925f97610b58575b5091610b279493916002610b179460405190610a0e8261260f565b3382528982018581528d6040840190815260608401928d8452608085019787421689525f52858d5260405f20335f528d5260405f209451168454926001600160401b0360a01b905160a01b169160ff60e01b905160e01b169262ffffff60e81b161717178255516001820155019151166001600160401b0319825416179055865f526001855260405f20885f528552600260405f2001610aaf878254612896565b9055865f526001855260405f20885f528552610af7600360405f200180549063ffffffff9182610ae0818316612ae5565b169063ffffffff1916179055825460901c16612ae5565b815463ffffffff60901b191660909190911b63ffffffff60901b16179055565b335f526004835260405f20612aa9565b6040519384528301527f0beae5c17bd90dd4f08218c8be881b30a8315ddd5c432803718ff2bf6ce4ee5760403393a3005b86809298508196959394503d8311610b8e575b610b758183612661565b8101031261031357925194919291869190610b276109f3565b503d610b6b565b6040513d5f823e3d90fd5b604051632a71953160e01b8152600490fd5b604051637c9a1cf960e01b8152600490fd5b604051632163950f60e01b8152600490fd5b90508681813d8311610c04575b610bed8183612661565b8101031261031357610bfe90612a8b565b8a610984565b503d610be3565b6040516327fd0eed60e11b8152600490fd5b34610313575f3660031901126103135760405160408101908082106001600160401b03831117610c74576104289160405260058152640352e302e360dc1b6020820152604051918291602083526020830190612575565b634e487b7160e01b5f52604160045260245ffd5b346103135760403660031901126103135760a0610ca36124ce565b610cab6124e4565b906001600160401b038091165f52600260205260405f20600180851b038093165f5260205260405f2060ff815483600260018501549401541693604051958216865281871c16602086015260e01c16604084015260608301526080820152f35b3461031357608036600319011261031357610d2461281a565b6024356001600160401b0381116103135736602382011215610313576001600160401b0381600401351161031357366024826004013583010111610313576001600160401b036044351161031357366023604435011215610313576001600160401b036044356004013511610313573660246044356004013560051b60443501011161031357606435906001600160401b0382168203610313576006549160405163c3c5a54760e01b815233600482015260208160248160018060a01b038860401c165afa908115610b95575f916115f5575b5015610bc457600260443560040135106115e357600a60443560040135116115d1576001600160401b038116156115bf57600854604051637d3de18f60e11b815263ffffffff86166004820152905f90829060249082906001600160a01b03165afa8015610b95575f906114ca575b606091500151156114b8576001600160401b038316926001600160401b0384146112345762015180916001600160401b0391826001870116908319161760065516026001600160401b038116908103611234576001600160401b038181421601116112345760405160208101908360040135602485018337610efb602082866004013581015f83820152038084520182612661565b51902060405190610f0b8261262a565b6001600160401b036001860116825233602083015263ffffffff86166040830152610f3e368560040135602487016127a7565b606083015260808201526001600160401b03421660a08201526001600160401b0382814216011660c08201525f60e082015260ff60443560040135166101008201525f6101208201526001600160401b0360018501165f525f60205260405f206001600160401b03825116600160401b600160e01b03602084015160401b169063ffffffff60e01b604085015160e01b16911717815560608201518051906001600160401b038211610c74578190610ff960018501546125d7565b601f8111611468575b50602090601f83116001146113fa575f926113ef575b50508160011b915f199060031b1c19161760018201555b608082015160028201556001600160401b0360a083015116916003820154926fffffffffffffffff000000000000000060c083015160401b169060e08301519260038410156108d557610100810151610120919091015163ffffffff60901b1971ffffffffffffffffffffffffffffffffffff199097169092179092179490941660809290921b60ff60801b169190911760889190911b60ff60881b161760909290921b63ffffffff60901b1691909117600391909101555f5b6044356004013560ff8216101561130c576024611fe08260051b1660443501013560421960443536030181121561031357604435016024810135906001600160401b0382116103135760440181360381136103135761115c906040519261114f84612646565b60ff8516845236916127a7565b602082019081525f60408301525f60608301526001600160401b0360018701165f52600160205260405f2060ff84165f5260205260405f209060ff83511660ff19835416178255518051906001600160401b038211610c74576111c260018401546125d7565b601f81116112c8575b50602090601f831160011461125357928260609360039363ffffffff965f92611248575b50505f1982851b1c1916600191821b17908201555b60408501516002820155019201511663ffffffff1982541617905560ff808216146112345760ff166001016110e9565b634e487b7160e01b5f52601160045260245ffd5b015190508c806111ef565b90600184015f5260205f20915f5b601f19851681106112b057508360039363ffffffff9693600193606097601f19811610611299575b505050811b016001820155611204565b01515f1983871b60f8161c191690558c8080611289565b91926020600181928685015181550194019201611261565b600184015f5260205f20601f840160051c810160208510611305575b601f830160051c820181106112fa5750506111cb565b5f81556001016112e4565b50806112e4565b5063ffffffff602094335f52600386526113356001600160401b03600187011660405f20612aa9565b8181165f52600586526113576001600160401b03600187011660405f20612aa9565b6001600160401b0360405193604085528560040135604086015285600401356024870160608701375f606087600401358701015281421601168684015216917fd42bc7b655581a8702526a1c7d843d90ccd74c4645cacc9719fd8894cc4d27d333926060816001600160401b03600189011694601f8019916004013501168101030190a46001600160401b0360016040519201168152f35b015190508880611018565b9250600184015f5260205f20905f935b601f198416851061144d576001945083601f19811610611435575b505050811b01600182015561102f565b01515f1960f88460031b161c19169055888080611425565b8181015183556020948501946001909301929091019061140a565b909150600184015f5260205f20601f840160051c8101602085106114b1575b90849392915b601f830160051c820181106114a3575050611002565b5f815585945060010161148d565b5080611487565b6040516369585f9960e01b8152600490fd5b503d805f833e6114da8183612661565b810190602081830312610313578051906001600160401b03821161031357019060a08282031261031357604051916115118361260f565b61151a81612a98565b835260208101516001600160401b0381116103135781019180601f84011215610313578251926115498461278c565b916115576040519384612661565b84835260208583010111610313576080936115789160208085019101612554565b602084015261158960408201612a98565b604084015261159a60608201612a8b565b60608401520151906001600160401b0382168203610313576060916080820152610e66565b6040516338af65f760e01b8152600490fd5b604051630de5482160e11b8152600490fd5b60405163742817d960e01b8152600490fd5b90506020813d602011611627575b8161161060209383612661565b810103126103135761162190612a8b565b85610df7565b3d9150611603565b3461031357602080600319360112610313576001600160401b03806116526124ce565b1690815f525f835260405f2090815416156106f95760030191825460ff9360ff8260801c169160038310156108d5576001809303610c0b575f925f815f60ff8560881c16915b6116df575b60ff60801b198516600160811b17865560405160ff8816815289907fb4b66bc17add9b49deaef829594a0e84842fe1ec03b8d608f3dabd9f84ff15d0908a90a2005b8981168281101561173d57908a918a5f52858a5260405f20815f528a52600290858260405f20015411611718575b505084011683611698565b5f8c8152878c526040808220928252918c52200154909750925089905086848061170d565b5061169d565b34610313575f3660031901126103135760206001600160401b0360065416604051908152f35b34610313575f366003190112610313575f80516020612c76833981519152546040516001600160a01b039091168152602090f35b34610313576040366003190112610313576117b66124fa565b6001600160a01b03165f908152600460205260409020805460243590811015610313576103896001600160401b0391602093612757565b34610313576020366003190112610313576001600160401b038061180f6124ce565b165f525f60205260405f2080549063ffffffff61182e60018301612682565b93600360028401549301549061187360405196879661014090848116895260018060a01b038160401c1660208a015260e01c6040890152806060890152870190612575565b93608086015280821660a08601528160401c1660c085015261189e60e0850160ff8360801c1661259a565b60ff8160881c1661010085015260901c166101208301520390f35b34610313575f366003190112610313576118d1612b6b565b5f80516020612c7683398151915280546001600160a01b031981169091555f906001600160a01b03167f8be0079c531659141344cd1fd0a4f28419497f9722a3daafe3b4186f6b6457e08280a3005b34610313576001600160401b03611936366125a7565b9190611940612a67565b50165f52600160205260ff60405f2091165f5260205261042860405f2063ffffffff60036040519261197184612646565b60ff815416845261198460018201612682565b60208501526002810154604085015201541660608201526040519182916020835260208301906127dd565b34610313575f366003190112610313577f00000000000000000000000000000000000000000000000000000000000000006001600160a01b03163003611a195760206040517f360894a13ba1a3210667c828492db98dca3e2076cc3735a920a3ca505d382bbc8152f35b60405163703e46dd60e11b8152600490fd5b34610313575f366003190112610313576008546040516001600160a01b039091168152602090f35b34610313575f366003190112610313576006546040805191901c6001600160a01b03168152602090f35b604036600319011261031357611a916124fa565b6024356001600160401b038111610313573660238201121561031357611ac19036906024816004013591016127a7565b6001600160a01b037f00000000000000000000000000000000000000000000000000000000000000008116308114908115611c3a575b50611a1957611b04612b6b565b8216916040516352d1902d60e01b8152602081600481875afa5f9181611c06575b50611b4357604051634c9c8ce360e01b815260048101859052602490fd5b7f360894a13ba1a3210667c828492db98dca3e2076cc3735a920a3ca505d382bbc90818103611bee5750813b15611bd55780546001600160a01b03191684179055604051927fbc7cd75a20ee27fd9adebab32041f755214dbc6bffa90cc0225b39da2e5c2d3b5f80a2815115611bbd5761033b9250612be4565b505034611bc657005b63b398979f60e01b8152600490fd5b604051634c9c8ce360e01b815260048101859052602490fd5b60249060405190632a87526960e21b82526004820152fd5b9091506020813d602011611c32575b81611c2260209383612661565b8101031261031357519085611b25565b3d9150611c15565b9050817f360894a13ba1a3210667c828492db98dca3e2076cc3735a920a3ca505d382bbc5416141584611af7565b3461031357604036600319011261031357611c816124fa565b6001600160a01b03165f90815260036020526040902080546024359081101561031357611cb86001600160401b0391602093612757565b90549060031b1c16604051908152f35b3461031357602036600319011261031357610428611cec611ce76124ce565b6128a3565b604051918291602083526020830190612724565b3461031357602036600319011261031357611d196124ce565b60606080604051611d298161260f565b5f81525f60208201525f6040820152828082015201526001600160401b0381165f525f60205260405f2063ffffffff600360405192611d678461262a565b80546001600160401b038116855260018060a01b038160401c16602086015260e01c6040850152611d9a60018201612682565b60608501526002810154608085015201546001600160401b03811660a08401526001600160401b038160401c1660c0840152611ddf60ff8260801c1660e0850161282d565b60ff8160881c1661010084015260901c166101208201526001600160401b03815116156106f957611e1760ff61010083015116612850565b60ff6101008301511690611e43611e2d83612839565b92611e3b6040519485612661565b808452612839565b601f19013660208401375f80925f935f5b60ff6101008801511660ff82161015611f1c576001600160401b0388165f52600160205260405f2060ff82165f526020526040611ef8815f209563ffffffff835197611e9f89612646565b60ff8154168952611eb260018201612682565b60208a015281600360028301549283888d01520154169060608a01918252611edd60ff88168c612882565b525116611eed60ff861688612882565b528287015190612896565b940151868111611f0f575b5060010160ff16611e54565b9550905080610100611f03565b5090611f8e846001600160401b039460ff8a958760405197611f3d8961260f565b1687528160208801911681526040870192835260608701938452608087019586526040519788976020895251166020880152511660408601525160608501525160a0608085015260c0840190612724565b905190601f198382030160a0840152602080835192838152019201905f5b818110611fba575050500390f35b825163ffffffff16845285945060209384019390920191600101611fac565b34610313576001600160401b03611fef366125a7565b91165f52600160205260ff60405f2091165f5260205260405f2060ff81541661201a60018301612682565b9163ffffffff60036002830154920154166120476040519485948552608060208601526080850190612575565b91604084015260608301520390f35b34610313576020366003190112610313576001600160401b03806120786124ce565b165f525f60205260405f206003604051916120928361262a565b8054848116845260018060a01b038160401c16602085015260e01c60408401526120be60018201612682565b606084015260028101546080840152015482811660a083015260c0820191838260401c16835261012063ffffffff60e083019361210160ff8260801c168661282d565b60ff8160881c1661010085015260901c16910152519160038310156108d557602092159182612137575b50506040519015158152f35b511642109050828061212b565b34610313576020366003190112610313576001600160401b036121656124ce565b5f6101206040516121758161262a565b8281528260208201528260408201526060808201528260808201528260a08201528260c08201528260e082015282610100820152015216805f525f6020526001600160401b0360405f205416156106f9575f525f60205260405f2063ffffffff6003604051926121e48461262a565b80546001600160401b038116855260018060a01b038160401c16602086015260e01c604085015261221760018201612682565b60608501526002810154608085015201546001600160401b03811660a08401526001600160401b038160401c1660c084015261225c60ff8260801c1660e0850161282d565b60ff8160881c1661010084015260901c166101208201526040518091602082526001600160401b03815116602083015260018060a01b03602082015116604083015263ffffffff6040820151166060830152606081015163ffffffff6101206122d361014093846080880152610160870190612575565b93608081015160a08701526001600160401b0360a08201511660c08701526001600160401b0360c08201511660e087015261231760e082015161010088019061259a565b60ff6101008201511682870152015116908301520390f35b3461031357602080600319360112610313576001600160a01b036123516124fa565b165f526004815260405f2060405190818382549182815201915f52835f20905f915b8160038401106123b157928492610428969261041c95549184828210610471578282106104555782821061043957501061042c575090500382612661565b9260016004918554906001600160401b03918281168252828160401c168a83015260809281841c16604083015260c01c6060820152019401920191612373565b346103135760403660031901126103135760a09061240d6124ce565b5f60806124186124e4565b936124228161260f565b82815282602082015282604082015282606082015201526001600160401b038091165f52600260205260405f20600180851b038093165f5260205260405f206040519061246e8261260f565b60ff815494851694858452846020850181838a1c16815283604087019360e01c168352608082600260018801549760608a019889520154169601958652604051978852511660208701525116604085015251606084015251166080820152f35b600435906001600160401b038216820361031357565b602435906001600160a01b038216820361031357565b600435906001600160a01b038216820361031357565b60209060206040818301928281528551809452019301915f5b828110612537575050505090565b83516001600160401b031685529381019392810192600101612529565b5f5b8381106125655750505f910152565b8181015183820152602001612556565b9060209161258e81518092818552858086019101612554565b601f01601f1916010190565b9060038210156108d55752565b6040906003190112610313576004356001600160401b0381168103610313579060243560ff811681036103135790565b90600182811c92168015612605575b60208310146125f157565b634e487b7160e01b5f52602260045260245ffd5b91607f16916125e6565b60a081019081106001600160401b03821117610c7457604052565b61014081019081106001600160401b03821117610c7457604052565b608081019081106001600160401b03821117610c7457604052565b90601f801991011681019081106001600160401b03821117610c7457604052565b9060405191825f8254612694816125d7565b908184526020946001916001811690815f1461270257506001146126c4575b5050506126c292500383612661565b565b5f90815285812095935091905b8183106126ea5750506126c293508201015f80806126b3565b855488840185015294850194879450918301916126d1565b925050506126c294925060ff191682840152151560051b8201015f80806126b3565b9081518082526020808093019301915f5b828110612743575050505090565b835185529381019392810192600101612735565b9190918054831015612778575f52601860205f208360021c019260031b1690565b634e487b7160e01b5f52603260045260245ffd5b6001600160401b038111610c7457601f01601f191660200190565b9291926127b38261278c565b916127c16040519384612661565b829481845281830111610313578281602093845f960137010152565b9060ff8251168152606063ffffffff816128066020860151608060208701526080860190612575565b946040810151604086015201511691015290565b6004359063ffffffff8216820361031357565b60038210156108d55752565b6001600160401b038111610c745760051b60200190565b9061285a82612839565b6128676040519182612661565b8281528092612878601f1991612839565b0190602036910137565b80518210156127785760209160051b010190565b9190820180921161123457565b6001600160401b03809116805f526020905f8252604092835f20918451936128ca8561262a565b8354838116865280871c6001600160a01b03168287015260e01c868601526001936128f6858201612682565b606087015260036002916002810154608089015201549380851660a08801528085891c1660c088015260ff96612934888760801c1660e0830161282d565b63ffffffff610100820196898160881c16885260901c16610120820152511615612a565761296486855116612850565b965f92838789815b612a0f575b50505083159485612a03575f96885b612992575b5050505050505050505090565b898151168a8916908110156129fd57825f52898452845f20815f52845285855f2001546127109081810291818304149015171561123457886129e9578a998d6129e08e948b8e950492612882565b52011697612980565b634e487b7160e01b5f52601260045260245ffd5b50612985565b50505050505050505090565b9091958189511682881690811015612a4c578391612a41918a5f52838752875f20905f52865287875f20015490612896565b96011690898161296c565b5095508190612971565b8651633e75bf7b60e21b8152600490fd5b60405190612a7482612646565b5f6060838281528160208201528260408201520152565b5190811515820361031357565b519063ffffffff8216820361031357565b8054600160401b811015610c7457612ac691600182018155612757565b6001600160401b039291928084549260031b9316831b921b1916179055565b63ffffffff8091169081146112345760010190565b6001600160a01b03908116908115612b53575f80516020612c7683398151915280546001600160a01b031981168417909155167f8be0079c531659141344cd1fd0a4f28419497f9722a3daafe3b4186f6b6457e05f80a3565b604051631e4fbdf760e01b81525f6004820152602490fd5b5f80516020612c76833981519152546001600160a01b03163303612b8b57565b60405163118cdaa760e01b8152336004820152602490fd5b60ff7ff0c57e16840df040f15088dc2f81fe391c3923bec73e23a9662efc9c229c6a005460401c1615612bd257565b604051631afcd79f60e31b8152600490fd5b905f8091602081519101845af48080612c62575b15612c185750506040513d81523d5f602083013e60203d82010160405290565b15612c3f57604051639996b31560e01b81526001600160a01b039091166004820152602490fd5b3d15612c50576040513d5f823e3d90fd5b60405163d6bda27560e01b8152600490fd5b503d151580612bf85750813b1515612bf856fe9016d09d72d40fdae2fd8ceac6b6234c7706214fd39c1cd1e609a0528c199300a2646970667358221220a51b579f4c4dc8033332767fafcdd3256d87fa940e59fc341e4af9277a1005a564736f6c63430008180033","linkReferences":{}},"methodIdentifiers":{"UPGRADE_INTERFACE_VERSION()":"ad3cb1cc","closePoll(uint64)":"c0e47ef9","createPoll(uint32,string,string[],uint64)":"9ccd868a","finalizePoll(uint64)":"96248ffd","getPoll(uint64)":"157bd75d","getPollOption(uint64,uint8)":"70a9b3fd","getPollOptions(uint64)":"cb034a09","getPollResults(uint64)":"355589f2","getTopicPolls(uint32)":"d0598137","getUserCreatedPolls(address)":"c2eb2d8c","getUserVote(uint64,address)":"0cf91c1a","getUserVotedPolls(address)":"12347294","getWeightedPercentages(uint64)":"3b9cc853","initialize(address,address,address,address)":"f8c8765e","isPollActive(uint64)":"2eb178fa","owner()":"8da5cb5b","pollCount()":"9207891d","pollOptions(uint64,uint8)":"2fd3b589","polls(uint64)":"75bd7155","proxiableUUID()":"52d1902d","renounceOwnership()":"715018a6","reputationEngine()":"c3f677ef","topicPolls(uint32,uint256)":"d78c0363","topicRegistry()":"5055735b","transferOwnership(address)":"f2fde38b","upgradeToAndCall(address,bytes)":"4f1ef286","userContract()":"5000596b","userPolls(address,uint256)":"3c9066af","userVotes(address,uint256)":"8b3511f7","vote(uint64,uint8)":"b040d166","votes(uint64,address)":"a060c2aa"},"id":35}