{"abi":[{"type":"constructor","inputs":[],"stateMutability":"nonpayable"},{"type":"function","name":"ACCURACY_WEIGHT","inputs":[],"outputs":[{"name":"","type":"uint16","internalType":"uint16"}],"stateMutability":"view"},{"type":"function","name":"MAX_SCORE","inputs":[],"outputs":[{"name":"","type":"uint16","internalType":"uint16"}],"stateMutability":"view"},{"type":"function","name":"MID_PERIOD","inputs":[],"outputs":[{"name":"","type":"uint64","internalType":"uint64"}],"stateMutability":"view"},{"type":"function","name":"MIN_SCORE","inputs":[],"outputs":[{"name":"","type":"uint16","internalType":"uint16"}],"stateMutability":"view"},{"type":"function","name":"RECENT_PERIOD","inputs":[],"outputs":[{"name":"","type":"uint64","internalType":"uint64"}],"stateMutability":"view"},{"type":"function","name":"UPGRADE_INTERFACE_VERSION","inputs":[],"outputs":[{"name":"","type":"string","internalType":"string"}],"stateMutability":"view"},{"type":"function","name":"VOLUME_WEIGHT","inputs":[],"outputs":[{"name":"","type":"uint16","internalType":"uint16"}],"stateMutability":"view"},{"type":"function","name":"batchRecalculateScores","inputs":[{"name":"user","type":"address","internalType":"address"},{"name":"topicIds","type":"uint32[]","internalType":"uint32[]"}],"outputs":[],"stateMutability":"nonpayable"},{"type":"function","name":"calculateChallengeScore","inputs":[{"name":"user","type":"address","internalType":"address"},{"name":"topicId","type":"uint32","internalType":"uint32"}],"outputs":[{"name":"","type":"uint16","internalType":"uint16"}],"stateMutability":"view"},{"type":"function","name":"calculateChallengeScore","inputs":[{"name":"user","type":"address","internalType":"address"},{"name":"topicId","type":"uint32","internalType":"uint32"},{"name":"scoreTime","type":"uint64","internalType":"uint64"}],"outputs":[{"name":"","type":"uint16","internalType":"uint16"}],"stateMutability":"view"},{"type":"function","name":"calculateExpertiseScore","inputs":[{"name":"user","type":"address","internalType":"address"},{"name":"topicId","type":"uint32","internalType":"uint32"},{"name":"scoreTime","type":"uint64","internalType":"uint64"}],"outputs":[{"name":"","type":"uint16","internalType":"uint16"}],"stateMutability":"view"},{"type":"function","name":"calculateExpertiseScore","inputs":[{"name":"user","type":"address","internalType":"address"},{"name":"topicId","type":"uint32","internalType":"uint32"}],"outputs":[{"name":"","type":"uint16","internalType":"uint16"}],"stateMutability":"view"},{"type":"function","name":"calculatePeerRatingScore","inputs":[{"name":"user","type":"address","internalType":"address"},{"name":"topicId","type":"uint32","internalType":"uint32"},{"name":"scoreTime","type":"uint64","internalType":"uint64"}],"outputs":[{"name":"","type":"uint16","internalType":"uint16"}],"stateMutability":"view"},{"type":"function","name":"calculatePeerRatingScore","inputs":[{"name":"user","type":"address","internalType":"address"},{"name":"topicId","type":"uint32","internalType":"uint32"}],"outputs":[{"name":"","type":"uint16","internalType":"uint16"}],"stateMutability":"view"},{"type":"function","name":"calculateRatingVolumeBonus","inputs":[{"name":"totalRatings","type":"uint32","internalType":"uint32"}],"outputs":[{"name":"","type":"uint256","internalType":"uint256"}],"stateMutability":"pure"},{"type":"function","name":"calculateTimeDecay","inputs":[{"name":"lastActivityTime","type":"uint64","internalType":"uint64"},{"name":"scoreTime","type":"uint64","internalType":"uint64"}],"outputs":[{"name":"","type":"uint256","internalType":"uint256"}],"stateMutability":"pure"},{"type":"function","name":"calculateTimeDecay","inputs":[{"name":"lastActivityTime","type":"uint64","internalType":"uint64"}],"outputs":[{"name":"","type":"uint256","internalType":"uint256"}],"stateMutability":"view"},{"type":"function","name":"calculateVolumeBonus","inputs":[{"name":"totalChallenges","type":"uint32","internalType":"uint32"}],"outputs":[{"name":"","type":"uint256","internalType":"uint256"}],"stateMutability":"pure"},{"type":"function","name":"challengeContract","inputs":[],"outputs":[{"name":"","type":"address","internalType":"contract Challenge"}],"stateMutability":"view"},{"type":"function","name":"getVotingWeight","inputs":[{"name":"user","type":"address","internalType":"address"},{"name":"topicId","type":"uint32","internalType":"uint32"}],"outputs":[{"name":"","type":"uint256","internalType":"uint256"}],"stateMutability":"view"},{"type":"function","name":"initialize","inputs":[{"name":"initialOwner","type":"address","internalType":"address"},{"name":"_userContract","type":"address","internalType":"address"},{"name":"_challengeContract","type":"address","internalType":"address"},{"name":"_topicRegistry","type":"address","internalType":"address"}],"outputs":[],"stateMutability":"nonpayable"},{"type":"function","name":"owner","inputs":[],"outputs":[{"name":"","type":"address","internalType":"address"}],"stateMutability":"view"},{"type":"function","name":"peerRatingContract","inputs":[],"outputs":[{"name":"","type":"address","internalType":"contract PeerRating"}],"stateMutability":"view"},{"type":"function","name":"previewScoreChange","inputs":[{"name":"user","type":"address","internalType":"address"},{"name":"topicId","type":"uint32","internalType":"uint32"},{"name":"wouldBeCorrect","type":"bool","internalType":"bool"}],"outputs":[{"name":"","type":"uint16","internalType":"uint16"}],"stateMutability":"view"},{"type":"function","name":"previewScoreChange","inputs":[{"name":"user","type":"address","internalType":"address"},{"name":"topicId","type":"uint32","internalType":"uint32"},{"name":"wouldBeCorrect","type":"bool","internalType":"bool"},{"name":"scoreTime","type":"uint64","internalType":"uint64"}],"outputs":[{"name":"","type":"uint16","internalType":"uint16"}],"stateMutability":"view"},{"type":"function","name":"proxiableUUID","inputs":[],"outputs":[{"name":"","type":"bytes32","internalType":"bytes32"}],"stateMutability":"view"},{"type":"function","name":"recalculateScore","inputs":[{"name":"user","type":"address","internalType":"address"},{"name":"topicId","type":"uint32","internalType":"uint32"}],"outputs":[],"stateMutability":"nonpayable"},{"type":"function","name":"renounceOwnership","inputs":[],"outputs":[],"stateMutability":"nonpayable"},{"type":"function","name":"setPeerRatingContract","inputs":[{"name":"_peerRatingContract","type":"address","internalType":"address"}],"outputs":[],"stateMutability":"nonpayable"},{"type":"function","name":"topicRegistry","inputs":[],"outputs":[{"name":"","type":"address","internalType":"contract TopicRegistry"}],"stateMutability":"view"},{"type":"function","name":"transferOwnership","inputs":[{"name":"newOwner","type":"address","internalType":"address"}],"outputs":[],"stateMutability":"nonpayable"},{"type":"function","name":"upgradeToAndCall","inputs":[{"name":"newImplementation","type":"address","internalType":"address"},{"name":"data","type":"bytes","internalType":"bytes"}],"outputs":[],"stateMutability":"payable"},{"type":"function","name":"userContract","inputs":[],"outputs":[{"name":"","type":"address","internalType":"contract User"}],"stateMutability":"view"},{"type":"event","name":"Initialized","inputs":[{"name":"version","type":"uint64","indexed":false,"internalType":"uint64"}],"anonymous":false},{"type":"event","name":"OwnershipTransferred","inputs":[{"name":"previousOwner","type":"address","indexed":true,"internalType":"address"},{"name":"newOwner","type":"address","indexed":true,"internalType":"address"}],"anonymous":false},{"type":"event","name":"ScoreCalculated","inputs":[{"name":"user","type":"address","indexed":true,"internalType":"address"},{"name":"topicId","type":"uint32","indexed":true,"internalType":"uint32"},{"name":"oldScore","type":"uint16","indexed":false,"internalType":"uint16"},{"name":"newScore","type":"uint16","indexed":false,"internalType":"uint16"}],"anonymous":false},{"type":"event","name":"Upgraded","inputs":[{"name":"implementation","type":"address","indexed":true,"internalType":"address"}],"anonymous":false},{"type":"error","name":"AddressEmptyCode","inputs":[{"name":"target","type":"address","internalType":"address"}]},{"type":"error","name":"ERC1967InvalidImplementation","inputs":[{"name":"implementation","type":"address","internalType":"address"}]},{"type":"error","name":"ERC1967NonPayable","inputs":[]},{"type":"error","name":"FailedCall","inputs":[]},{"type":"error","name":"InvalidInitialization","inputs":[]},{"type":"error","name":"InvalidInput","inputs":[]},{"type":"error","name":"NotInitializing","inputs":[]},{"type":"error","name":"OwnableInvalidOwner","inputs":[{"name":"owner","type":"address","internalType":"address"}]},{"type":"error","name":"OwnableUnauthorizedAccount","inputs":[{"name":"account","type":"address","internalType":"address"}]},{"type":"error","name":"UUPSUnauthorizedCallContext","inputs":[]},{"type":"error","name":"UUPSUnsupportedProxiableUUID","inputs":[{"name":"slot","type":"bytes32","internalType":"bytes32"}]},{"type":"error","name":"Unauthorized","inputs":[]}],"bytecode":{"object":"0x60a080604052346100cc57306080527ff0c57e16840df040f15088dc2f81fe391c3923bec73e23a9662efc9c229c6a009081549060ff8260401c166100bd57506001600160401b036002600160401b031982821601610078575b6040516117d690816100d1823960805181818161087101526109a40152f35b6001600160401b031990911681179091556040519081527fc7f505b2f371ae2175ee4913f4499e1f2633a7b5936321eed1cdaeb6115181d290602090a15f8080610059565b63f92ee8a960e01b8152600490fd5b5f80fdfe6080604090808252600480361015610015575f80fd5b5f3560e01c918262cdf18a14610ccd5750816327ff622314610cb15781632a74f96414610c785781632a943cd414610c505781633842af2d14610c2757816338aec2d614610bed5781633ac8315414610bb45781633de308d214610b9957816340b8927014610b7e578163438031c314610b565781634f1ef286146109245781635000596b146108fd5781635055735b146108d557816352d1902d1461085e5781635ec33520146107d857816361cb6b081461079e5781636447752d14610764578163715018a6146106fd5781637cc92bf1146106a55781638da5cb5b1461067157816390d1c96d1461062d578163941e39b6146105fd5781639a4106e0146105e0578163a172c316146105bb578163ad3cb1cc1461051e578163be7881e1146104f2578163ca1dc30b14610421578163eb7e1207146103e7578163ede53540146103cc578163f2fde38b146103a6578163f5a82da81461036d578163f8c8765e146101e4575063fb01e5441461018a575f80fd5b346101e05760803660031901126101e0576101a3610ce8565b906101ac610cfe565b6101b4610d85565b926064356001600160401b03811681036101e05760209461ffff936101d893611501565b915191168152f35b5f80fd5b9050346101e05760803660031901126101e0576101ff610ce8565b906001600160a01b03602435818116908190036101e0576044358281168091036101e0576064359283168093036101e0577ff0c57e16840df040f15088dc2f81fe391c3923bec73e23a9662efc9c229c6a0094855460ff81891c1615956001600160401b03821680159081610365575b600114908161035b575b159081610352575b50610344575067ffffffffffffffff19811660011787556102b9919086610325575b506102ac6116ae565b6102b46116ae565b6112ce565b6bffffffffffffffffffffffff60a01b91825f5416175f5581600154161760015560025416176002556102e857005b805468ff00000000000000001916905551600181527fc7f505b2f371ae2175ee4913f4499e1f2633a7b5936321eed1cdaeb6115181d290602090a1005b68ffffffffffffffffff1916680100000000000000011787555f6102a3565b885163f92ee8a960e01b8152fd5b9050155f610281565b303b159150610279565b88915061026f565b82346101e05760603660031901126101e05760209061ffff6101d8610390610ce8565b610398610cfe565b6103a0610d24565b916113a9565b346101e05760203660031901126101e0576103ca6103c2610ce8565b6102b4611631565b005b82346101e0575f3660031901126101e05760209051601e8152f35b82346101e057806003193601126101e05760209061ffff6101d8610409610ce8565b610411610cfe565b6001600160401b03421691610e12565b82346101e057806003193601126101e057602061048892610440610ce8565b90610449610cfe565b5f54855163389e5bed60e01b81526001600160a01b0394851693810193845263ffffffff90921660208401529095869391909116918391829160400190565b03915afa9182156104e8575f926104a8575b60208361ffff845191168152f35b91506020823d6020116104e0575b816104c360209383610d50565b810103126101e05761ffff6104d9602093610ee7565b925061049a565b3d91506104b6565b50513d5f823e3d90fd5b82346101e05760203660031901126101e057602090610517610512610d11565b611294565b9051908152f35b82346101e0575f3660031901126101e057805191818301908382106001600160401b038311176105a857508152600582526020640352e302e360dc1b60208401528151928391602083528151918260208501525f5b8381106105925750505f83830185015250601f01601f19168101030190f35b8181018301518782018701528694508201610573565b604190634e487b7160e01b5f525260245ffd5b82346101e05760203660031901126101e0576020906105176105db610d11565b611257565b82346101e0575f3660031901126101e0576020905162278d008152f35b82346101e05760203660031901126101e05760209061051761061d610d3a565b6001600160401b0342169061106f565b82346101e05760603660031901126101e05760209061ffff6101d8610650610ce8565b610658610cfe565b610660610d85565b906001600160401b03421692611501565b82346101e0575f3660031901126101e0575f805160206117818339815191525490516001600160a01b039091168152602090f35b82346101e05760203660031901126101e0576106bf610ce8565b6106c7611631565b600354926001600160a01b03928385166106f15750506001600160a01b0319909216911617600355005b516282b42960e81b8152fd5b346101e0575f3660031901126101e057610715611631565b5f8051602061178183398151915280546001600160a01b031981169091555f906001600160a01b03167f8be0079c531659141344cd1fd0a4f28419497f9722a3daafe3b4186f6b6457e08280a3005b82346101e057806003193601126101e05760209061ffff6101d8610786610ce8565b61078e610cfe565b6001600160401b034216916113a9565b82346101e057806003193601126101e05760209061ffff6101d86107c0610ce8565b6107c8610cfe565b6001600160401b034216916110dd565b82346101e0573660031901126101e0576107f0610ce8565b90602480356001600160401b03928382116101e057366023830112156101e0578101359283116101e05760053660248560051b840101116101e0575f5b84811061083657005b8381831b840101359063ffffffff821682036101e05761085860019288610ef6565b0161082d565b82346101e0575f3660031901126101e0577f00000000000000000000000000000000000000000000000000000000000000006001600160a01b031630036108c857602090517f360894a13ba1a3210667c828492db98dca3e2076cc3735a920a3ca505d382bbc8152f35b5163703e46dd60e11b8152fd5b82346101e0575f3660031901126101e05760025490516001600160a01b039091168152602090f35b82346101e0575f3660031901126101e0575f5490516001600160a01b039091168152602090f35b9050816003193601126101e057610939610ce8565b60249283356001600160401b03928382116101e057366023830112156101e05781850135938411610b445760209383519261097d86601f19601f8501160185610d50565b818452368883830101116101e057815f928988930183870137840101526001600160a01b037f00000000000000000000000000000000000000000000000000000000000000008116308114908115610b16575b50610b06576109dd611631565b83516352d1902d60e01b81529082169480828881895afa9182915f93610ad6575b5050610a18575050505191634c9c8ce360e01b8352820152fd5b85938591887f360894a13ba1a3210667c828492db98dca3e2076cc3735a920a3ca505d382bbc91828103610ac15750843b15610aad575080546001600160a01b0319168317905551907fbc7cd75a20ee27fd9adebab32041f755214dbc6bffa90cc0225b39da2e5c2d3b5f80a2825115610a9757506103ca92506116ef565b91505034610aa157005b63b398979f60e01b8152fd5b8251634c9c8ce360e01b8152808801859052fd5b8351632a87526960e21b815280890191909152fd5b9080929350813d8311610aff575b610aee8183610d50565b810103126101e05751905f806109fe565b503d610ae4565b835163703e46dd60e11b81528690fd5b9050817f360894a13ba1a3210667c828492db98dca3e2076cc3735a920a3ca505d382bbc541614155f6109d0565b85604186634e487b7160e01b5f52525ffd5b82346101e0575f3660031901126101e05760015490516001600160a01b039091168152602090f35b82346101e0575f3660031901126101e0576020905160328152f35b82346101e0575f3660031901126101e0576020905160468152f35b82346101e05760603660031901126101e05760209061ffff6101d8610bd7610ce8565b610bdf610cfe565b610be7610d24565b916110dd565b82346101e057806003193601126101e057610c06610d3a565b90602435916001600160401b03831683036101e0576020926105179161106f565b82346101e0573660031901126101e0576103ca610c42610ce8565b610c4a610cfe565b90610ef6565b82346101e0575f3660031901126101e05760035490516001600160a01b039091168152602090f35b82346101e05760603660031901126101e05760209061ffff6101d8610c9b610ce8565b610ca3610cfe565b610cab610d24565b91610e12565b82346101e0575f3660031901126101e057602090516103e88152f35b346101e0575f3660031901126101e05780624f1a0060209252f35b600435906001600160a01b03821682036101e057565b6024359063ffffffff821682036101e057565b6004359063ffffffff821682036101e057565b604435906001600160401b03821682036101e057565b600435906001600160401b03821682036101e057565b90601f801991011681019081106001600160401b03821117610d7157604052565b634e487b7160e01b5f52604160045260245ffd5b6044359081151582036101e057565b90604682029180830460461490151715610daa57565b634e487b7160e01b5f52601160045260245ffd5b90601e820291808304601e1490151715610daa57565b81810292918115918404141715610daa57565b91908201809211610daa57565b8115610dfe570490565b634e487b7160e01b5f52601260045260245ffd5b91610e2891610e228282866113a9565b936110dd565b61ffff91828116919082158080610edd575b610ed357610ecc57838216918215610ec457603c840292848404603c03610daa5760288102818104602803610daa57610e766064918896610de7565b04941115610ebc5750915b1690828116821115610eb45750905b811660328110610ead576103e8809111610ea8575090565b905090565b5050603290565b905090610e90565b905091610e81565b509250505090565b5091505090565b5050505050603290565b5084831615610e3a565b519061ffff821682036101e057565b5f546040805163389e5bed60e01b81526001600160a01b03848116600483015263ffffffff86166024830152928316949390602081604481895afa908115611065575f9161102b575b506001600160401b0361ffff80610f594284168987610e12565b16921692828403610f6f575b5050505050505050565b873b156101e05763ffffffff9560645f92838851998a948593639063598960e01b8552169b8c6004850152169b8c60248401528760448401525af1801561102157610ff1575b507f66214a7594e7bb34c7901447891b8538d2c45b2e33dd58448b8d21a5d8599e3f935082519182526020820152a35f80808080808080610f65565b8411610d71577f66214a7594e7bb34c7901447891b8538d2c45b2e33dd58448b8d21a5d8599e3f9383525f610fb5565b84513d5f823e3d90fd5b90506020813d60201161105d575b8161104660209383610d50565b810103126101e05761105790610ee7565b5f610f3f565b3d9150611039565b83513d5f823e3d90fd5b6001600160401b03808093169116908082116110b15703818111610daa571662278d0081106110ab57624f1a00116110a657603290565b604b90565b50606490565b5050505f90565b519063ffffffff821682036101e057565b51906001600160401b03821682036101e057565b6003546001600160a01b039391929084169081156111d157604094855194633853725960e11b865216600485015263ffffffff80911660248501526060846064816001600160401b039586881660448301525afa93841561124d575f946111da575b506020840151169182156111d15761116b9161ffff956111628787511695611257565b9501511661106f565b605082029180830460501490151715610daa57601483029280840460141490151715610daa576111a56111aa926064808096049104610de7565b610dd4565b04603281106111c9575b6103e88082116111c357501690565b90501690565b5060326111b4565b50505050505f90565b9093506060813d606011611245575b816111f660609383610d50565b810103126101e0578451906060820182811084821117610d715761123a918791825261122181610ee7565b845261122f602082016110b8565b6020850152016110c9565b85820152925f61113f565b3d91506111e9565b85513d5f823e3d90fd5b63ffffffff16801561128f5761126c90611669565b606481029080820460641490151715610daa576103e89081811115610ea8575090565b505f90565b63ffffffff16801561128f576112a990611669565b600a810290808204600a1490151715610daa5760c88111156112cb575060c890565b90565b6001600160a01b03908116908115611327575f8051602061178183398151915280546001600160a01b031981168417909155167f8be0079c531659141344cd1fd0a4f28419497f9722a3daafe3b4186f6b6457e05f80a3565b604051631e4fbdf760e01b81525f6004820152602490fd5b908160809103126101e05760405190608082018281106001600160401b03821117610d71576113a19160609160405261137781610ee7565b8452611385602082016110b8565b6020850152611396604082016110b8565b6040850152016110c9565b606082015290565b5f546040516317c909e360e01b81526001600160a01b03928316600482015263ffffffff93909316602484015291929160809184916044918391165afa9182156114f6575f926114c5575b506020820163ffffffff808251161580156114ac575b6114a45780604085015116916103e89384840293808504861490151715610daa5761ffff95606461147d816114766114706111a5966001600160401b0360606114678c61145f889f6114849f8f511690610df4565b9c5116611294565b9801511661106f565b96610d94565b0492610dbe565b0490610de7565b04906032821061149b575b8082116111c357501690565b6032915061148f565b505050505f90565b506001600160401b03806060860151169084161061140a565b6114e891925060803d6080116114ef575b6114e08183610d50565b81019061133f565b905f6113f4565b503d6114d6565b6040513d5f823e3d90fd5b5f546040516317c909e360e01b81526001600160a01b03928316600482015263ffffffff93909316602484015291939160809185916044918391165afa9283156114f6575f93611610575b506001600160401b0380606085015116911610610ead5763ffffffff906001826020850151160192828411610daa5760400151821690156116085760ff60015b1601818111610daa578116916103e89283810290808204851490151715610daa5761147d60646114766115cf6115c983956115d598881690610df4565b95611294565b94610d94565b606481029080820460641490151715610daa576064900460328110610ead578181116116045761ffff91501690565b5090565b60ff5f61158c565b61162a91935060803d6080116114ef576114e08183610d50565b915f61154c565b5f80516020611781833981519152546001600160a01b0316330361165157565b60405163118cdaa760e01b8152336004820152602490fd5b801561128f576001808201808311610daa5760011c90825b83831061168e5750505090565b909192506116a5836116a08184610df4565b610de7565b821c9190611681565b60ff7ff0c57e16840df040f15088dc2f81fe391c3923bec73e23a9662efc9c229c6a005460401c16156116dd57565b604051631afcd79f60e31b8152600490fd5b905f8091602081519101845af4808061176d575b156117235750506040513d81523d5f602083013e60203d82010160405290565b1561174a57604051639996b31560e01b81526001600160a01b039091166004820152602490fd5b3d1561175b576040513d5f823e3d90fd5b60405163d6bda27560e01b8152600490fd5b503d1515806117035750813b151561170356fe9016d09d72d40fdae2fd8ceac6b6234c7706214fd39c1cd1e609a0528c199300a2646970667358221220f477ded66926b0d4745355ee3b0f65d89d8fadd7a60fa32393025e0a64b9326364736f6c63430008180033","linkReferences":{}},"methodIdentifiers":{"ACCURACY_WEIGHT()":"3de308d2","MAX_SCORE()":"27ff6223","MID_PERIOD()":"00cdf18a","MIN_SCORE()":"40b89270","RECENT_PERIOD()":"9a4106e0","UPGRADE_INTERFACE_VERSION()":"ad3cb1cc","VOLUME_WEIGHT()":"ede53540","batchRecalculateScores(address,uint32[])":"5ec33520","calculateChallengeScore(address,uint32)":"6447752d","calculateChallengeScore(address,uint32,uint64)":"f5a82da8","calculateExpertiseScore(address,uint32)":"eb7e1207","calculateExpertiseScore(address,uint32,uint64)":"2a74f964","calculatePeerRatingScore(address,uint32)":"61cb6b08","calculatePeerRatingScore(address,uint32,uint64)":"3ac83154","calculateRatingVolumeBonus(uint32)":"a172c316","calculateTimeDecay(uint64)":"941e39b6","calculateTimeDecay(uint64,uint64)":"38aec2d6","calculateVolumeBonus(uint32)":"be7881e1","challengeContract()":"438031c3","getVotingWeight(address,uint32)":"ca1dc30b","initialize(address,address,address,address)":"f8c8765e","owner()":"8da5cb5b","peerRatingContract()":"2a943cd4","previewScoreChange(address,uint32,bool)":"90d1c96d","previewScoreChange(address,uint32,bool,uint64)":"fb01e544","proxiableUUID()":"52d1902d","recalculateScore(address,uint32)":"3842af2d","renounceOwnership()":"715018a6","setPeerRatingContract(address)":"7cc92bf1","topicRegistry()":"5055735b","transferOwnership(address)":"f2fde38b","upgradeToAndCall(address,bytes)":"4f1ef286","userContract()":"5000596b"},"id":36}