{"abi":[{"type":"constructor","inputs":[],"stateMutability":"nonpayable"},{"type":"function","name":"ACCURACY_WEIGHT","inputs":[],"outputs":[{"name":"","type":"uint16","internalType":"uint16"}],"stateMutability":"view"},{"type":"function","name":"MAX_SCORE","inputs":[],"outputs":[{"name":"","type":"uint16","internalType":"uint16"}],"stateMutability":"view"},{"type":"function","name":"MID_PERIOD","inputs":[],"outputs":[{"name":"","type":"uint64","internalType":"uint64"}],"stateMutability":"view"},{"type":"function","name":"MIN_SCORE","inputs":[],"outputs":[{"name":"","type":"uint16","internalType":"uint16"}],"stateMutability":"view"},{"type":"function","name":"RECENT_PERIOD","inputs":[],"outputs":[{"name":"","type":"uint64","internalType":"uint64"}],"stateMutability":"view"},{"type":"function","name":"UPGRADE_INTERFACE_VERSION","inputs":[],"outputs":[{"name":"","type":"string","internalType":"string"}],"stateMutability":"view"},{"type":"function","name":"VOLUME_WEIGHT","inputs":[],"outputs":[{"name":"","type":"uint16","internalType":"uint16"}],"stateMutability":"view"},{"type":"function","name":"batchRecalculateScores","inputs":[{"name":"user","type":"address","internalType":"address"},{"name":"topicIds","type":"uint32[]","internalType":"uint32[]"}],"outputs":[],"stateMutability":"nonpayable"},{"type":"function","name":"calculateChallengeScore","inputs":[{"name":"user","type":"address","internalType":"address"},{"name":"topicId","type":"uint32","internalType":"uint32"}],"outputs":[{"name":"","type":"uint16","internalType":"uint16"}],"stateMutability":"view"},{"type":"function","name":"calculateChallengeScore","inputs":[{"name":"user","type":"address","internalType":"address"},{"name":"topicId","type":"uint32","internalType":"uint32"},{"name":"scoreTime","type":"uint64","internalType":"uint64"}],"outputs":[{"name":"","type":"uint16","internalType":"uint16"}],"stateMutability":"view"},{"type":"function","name":"calculateExpertiseScore","inputs":[{"name":"user","type":"address","internalType":"address"},{"name":"topicId","type":"uint32","internalType":"uint32"},{"name":"scoreTime","type":"uint64","internalType":"uint64"}],"outputs":[{"name":"","type":"uint16","internalType":"uint16"}],"stateMutability":"view"},{"type":"function","name":"calculateExpertiseScore","inputs":[{"name":"user","type":"address","internalType":"address"},{"name":"topicId","type":"uint32","internalType":"uint32"}],"outputs":[{"name":"","type":"uint16","internalType":"uint16"}],"stateMutability":"view"},{"type":"function","name":"calculatePeerRatingScore","inputs":[{"name":"user","type":"address","internalType":"address"},{"name":"topicId","type":"uint32","internalType":"uint32"},{"name":"scoreTime","type":"uint64","internalType":"uint64"}],"outputs":[{"name":"","type":"uint16","internalType":"uint16"}],"stateMutability":"view"},{"type":"function","name":"calculatePeerRatingScore","inputs":[{"name":"user","type":"address","internalType":"address"},{"name":"topicId","type":"uint32","internalType":"uint32"}],"outputs":[{"name":"","type":"uint16","internalType":"uint16"}],"stateMutability":"view"},{"type":"function","name":"calculateRatingVolumeBonus","inputs":[{"name":"totalRatings","type":"uint32","internalType":"uint32"}],"outputs":[{"name":"","type":"uint256","internalType":"uint256"}],"stateMutability":"pure"},{"type":"function","name":"calculateTimeDecay","inputs":[{"name":"lastActivityTime","type":"uint64","internalType":"uint64"},{"name":"scoreTime","type":"uint64","internalType":"uint64"}],"outputs":[{"name":"","type":"uint256","internalType":"uint256"}],"stateMutability":"pure"},{"type":"function","name":"calculateTimeDecay","inputs":[{"name":"lastActivityTime","type":"uint64","internalType":"uint64"}],"outputs":[{"name":"","type":"uint256","internalType":"uint256"}],"stateMutability":"view"},{"type":"function","name":"calculateVolumeBonus","inputs":[{"name":"totalChallenges","type":"uint32","internalType":"uint32"}],"outputs":[{"name":"","type":"uint256","internalType":"uint256"}],"stateMutability":"pure"},{"type":"function","name":"challengeContract","inputs":[],"outputs":[{"name":"","type":"address","internalType":"contract Challenge"}],"stateMutability":"view"},{"type":"function","name":"getVotingWeight","inputs":[{"name":"user","type":"address","internalType":"address"},{"name":"topicId","type":"uint32","internalType":"uint32"}],"outputs":[{"name":"","type":"uint256","internalType":"uint256"}],"stateMutability":"view"},{"type":"function","name":"initialize","inputs":[{"name":"initialOwner","type":"address","internalType":"address"},{"name":"_userContract","type":"address","internalType":"address"},{"name":"_challengeContract","type":"address","internalType":"address"},{"name":"_topicRegistry","type":"address","internalType":"address"}],"outputs":[],"stateMutability":"nonpayable"},{"type":"function","name":"owner","inputs":[],"outputs":[{"name":"","type":"address","internalType":"address"}],"stateMutability":"view"},{"type":"function","name":"peerRatingContract","inputs":[],"outputs":[{"name":"","type":"address","internalType":"contract PeerRating"}],"stateMutability":"view"},{"type":"function","name":"previewScoreChange","inputs":[{"name":"user","type":"address","internalType":"address"},{"name":"topicId","type":"uint32","internalType":"uint32"},{"name":"wouldBeCorrect","type":"bool","internalType":"bool"}],"outputs":[{"name":"","type":"uint16","internalType":"uint16"}],"stateMutability":"view"},{"type":"function","name":"previewScoreChange","inputs":[{"name":"user","type":"address","internalType":"address"},{"name":"topicId","type":"uint32","internalType":"uint32"},{"name":"wouldBeCorrect","type":"bool","internalType":"bool"},{"name":"scoreTime","type":"uint64","internalType":"uint64"}],"outputs":[{"name":"","type":"uint16","internalType":"uint16"}],"stateMutability":"view"},{"type":"function","name":"processChallengeAttempt","inputs":[{"name":"user","type":"address","internalType":"address"},{"name":"challengeId","type":"uint64","internalType":"uint64"}],"outputs":[],"stateMutability":"nonpayable"},{"type":"function","name":"proxiableUUID","inputs":[],"outputs":[{"name":"","type":"bytes32","internalType":"bytes32"}],"stateMutability":"view"},{"type":"function","name":"recalculateScore","inputs":[{"name":"user","type":"address","internalType":"address"},{"name":"topicId","type":"uint32","internalType":"uint32"}],"outputs":[],"stateMutability":"nonpayable"},{"type":"function","name":"renounceOwnership","inputs":[],"outputs":[],"stateMutability":"nonpayable"},{"type":"function","name":"setPeerRatingContract","inputs":[{"name":"_peerRatingContract","type":"address","internalType":"address"}],"outputs":[],"stateMutability":"nonpayable"},{"type":"function","name":"topicRegistry","inputs":[],"outputs":[{"name":"","type":"address","internalType":"contract TopicRegistry"}],"stateMutability":"view"},{"type":"function","name":"transferOwnership","inputs":[{"name":"newOwner","type":"address","internalType":"address"}],"outputs":[],"stateMutability":"nonpayable"},{"type":"function","name":"upgradeToAndCall","inputs":[{"name":"newImplementation","type":"address","internalType":"address"},{"name":"data","type":"bytes","internalType":"bytes"}],"outputs":[],"stateMutability":"payable"},{"type":"function","name":"userContract","inputs":[],"outputs":[{"name":"","type":"address","internalType":"contract User"}],"stateMutability":"view"},{"type":"event","name":"Initialized","inputs":[{"name":"version","type":"uint64","indexed":false,"internalType":"uint64"}],"anonymous":false},{"type":"event","name":"OwnershipTransferred","inputs":[{"name":"previousOwner","type":"address","indexed":true,"internalType":"address"},{"name":"newOwner","type":"address","indexed":true,"internalType":"address"}],"anonymous":false},{"type":"event","name":"ScoreCalculated","inputs":[{"name":"user","type":"address","indexed":true,"internalType":"address"},{"name":"topicId","type":"uint32","indexed":true,"internalType":"uint32"},{"name":"oldScore","type":"uint16","indexed":false,"internalType":"uint16"},{"name":"newScore","type":"uint16","indexed":false,"internalType":"uint16"}],"anonymous":false},{"type":"event","name":"Upgraded","inputs":[{"name":"implementation","type":"address","indexed":true,"internalType":"address"}],"anonymous":false},{"type":"error","name":"AddressEmptyCode","inputs":[{"name":"target","type":"address","internalType":"address"}]},{"type":"error","name":"ERC1967InvalidImplementation","inputs":[{"name":"implementation","type":"address","internalType":"address"}]},{"type":"error","name":"ERC1967NonPayable","inputs":[]},{"type":"error","name":"FailedCall","inputs":[]},{"type":"error","name":"InvalidInitialization","inputs":[]},{"type":"error","name":"InvalidInput","inputs":[]},{"type":"error","name":"NotInitializing","inputs":[]},{"type":"error","name":"OwnableInvalidOwner","inputs":[{"name":"owner","type":"address","internalType":"address"}]},{"type":"error","name":"OwnableUnauthorizedAccount","inputs":[{"name":"account","type":"address","internalType":"address"}]},{"type":"error","name":"UUPSUnauthorizedCallContext","inputs":[]},{"type":"error","name":"UUPSUnsupportedProxiableUUID","inputs":[{"name":"slot","type":"bytes32","internalType":"bytes32"}]},{"type":"error","name":"Unauthorized","inputs":[]}],"bytecode":{"object":"0x60a080604052346100cc57306080527ff0c57e16840df040f15088dc2f81fe391c3923bec73e23a9662efc9c229c6a009081549060ff8260401c166100bd57506001600160401b036002600160401b031982821601610078575b604051611ecb90816100d18239608051818181610ebf0152610ff60152f35b6001600160401b031990911681179091556040519081527fc7f505b2f371ae2175ee4913f4499e1f2633a7b5936321eed1cdaeb6115181d290602090a15f8080610059565b63f92ee8a960e01b8152600490fd5b5f80fdfe608060409080825260049081361015610016575f80fd5b5f915f3560e01c918262cdf18a146114a95750816327ff62231461148d5781632a74f964146114545781632a943cd41461142c5781633842af2d1461127a57816338aec2d61461124c5781633ac83154146112125781633de308d2146111f657816340b89270146111da578163438031c3146111b15781634f1ef28614610f745781635000596b14610f4c5781635055735b14610f2357816352d1902d14610eaa5781635ec3352014610c5357816361cb6b0814610c185781636447752d14610bdd578163715018a614610b745781637cc92bf114610b145781638da5cb5b14610adf57816390d1c96d14610a9a578163941e39b614610a695781639a4106e014610a4b578163a172c31614610a25578163ad3cb1cc14610986578163be7881e114610959578163ca1dc30b14610884578163e1dd33d514610447578163eb7e12071461040c578163ede53540146103f0578163f2fde38b146103c8578163f5a82da81461038a578163f8c8765e146101f6575063fb01e54414610198575f80fd5b346101f35760803660031901126101f357506101b26114c4565b906101bb6114da565b6101c361158a565b926064356001600160401b03811681036101ef5760209461ffff936101e793611bd6565b915191168152f35b5f80fd5b80fd5b83915034610386576080366003190112610386576102126114c4565b906001600160a01b03602435818116908190036101ef576044358281168091036101ef576064359283168093036101ef577ff0c57e16840df040f15088dc2f81fe391c3923bec73e23a9662efc9c229c6a0094855460ff81891c1615956001600160401b0382168015908161037e575b6001149081610374575b15908161036b575b5061035d575067ffffffffffffffff19811660011787556102cc91908661033e575b506102bf611d83565b6102c7611d83565b6119a3565b6bffffffffffffffffffffffff60a01b918288541617875581600154161760015560025416176002556102fd578280f35b805468ff00000000000000001916905551600181527fc7f505b2f371ae2175ee4913f4499e1f2633a7b5936321eed1cdaeb6115181d290602090a181808280f35b68ffffffffffffffffff191668010000000000000001178755896102b6565b885163f92ee8a960e01b8152fd5b9050158b610294565b303b15915061028c565b889150610282565b8280fd5b8284346103c45760603660031901126103c45760209061ffff6101e76103ae6114c4565b6103b66114da565b6103be611500565b91611a7e565b5080fd5b82346101f35760203660031901126101f3576103ed6103e56114c4565b6102c7611d06565b80f35b8284346103c457816003193601126103c45760209051601e8152f35b8284346103c457806003193601126103c45760209061ffff6101e761042f6114c4565b6104376114da565b6001600160401b03421691611617565b839150346103865781600319360112610386576104626114c4565b61046a61152c565b60018060a01b03908160015416928551906315f584bb60e31b82528381169586818401526001600160401b038094169586602485015260a0968785604481855afa94851561087a578b956107da575b5085608086015116156107ca57908a9392918a51918291634ebedadf60e11b8352848301528160246101409485935afa9889156107c05785996106c7575b505050888684541697019363ffffffff97606089875116920151151591813b156106c35760648b8780948f519687958694634f762fc360e01b86528a860152602485015260448401525af180156106a5576106af575b506105636105a195888651169042169084611617565b958354166020888651168b518098819263389e5bed60e01b83528787840190929163ffffffff602091604084019560018060a01b0316845216910152565b0381845afa9586156106a5578496610665575b508785511690803b15610661578a51639063598960e01b81526001600160a01b0390941692840192835263ffffffff909116602083015261ffff87166040830152839183919082908490829060600103925af180156106575761063f575b505051945161ffff9182168152911660208201529216915f80516020611e5683398151915290604090a380f35b61064890611542565b610653578688610612565b8680fd5b88513d84823e3d90fd5b8480fd5b9095506020813d60201161069d575b8161068160209383611569565b8101031261069957610692906116ec565b948b6105b4565b8380fd5b3d9150610674565b8a513d86823e3d90fd5b6106b98491611542565b610386578a61054d565b8580fd5b919394509197508282813d83116107b9575b6106e38183611569565b810103126107b5578951928301838110878211176107a2578a528a9392919061070b82611755565b83526107196020830161198f565b60208401526107298b8301611744565b8b8401526060820151898110156106c3576060840152608082015160038110156106c3576080840152808201519083015260c081015160c083015261077060e08201611755565b60e0830152610100610783818301611744565b90830152610795610120809201611744565b90820152958a80806104f7565b604189634e487b7160e01b5f525260245ffd5b8a80fd5b503d6106d9565b8b513d87823e3d90fd5b895163b4fa3fb360e01b81528390fd5b9094508781813d8311610873575b6107f28183611569565b810103126107b55789519088820182811088821117610860578b526108168161198f565b825261082460208201611755565b60208301528a8101518b8301526060810151801515810361085c57606083015261085090608001611755565b6080820152938b6104b9565b8c80fd5b604185634e487b7160e01b5f525260245ffd5b503d6107e8565b8a513d8d823e3d90fd5b8391503461038657816003193601126103865760206108ed916108a56114c4565b906108ae6114da565b8654865163389e5bed60e01b81526001600160a01b0394851693810193845263ffffffff90921660208401529094859391909116918391829160400190565b03915afa92831561094e57809361090d575b60208461ffff855191168152f35b9092506020833d602011610946575b8161092960209383611569565b810103126101f3575061ffff6109406020936116ec565b926108ff565b3d915061091c565b8251903d90823e3d90fd5b8284346103c45760203660031901126103c45760209061097f61097a6114ed565b611955565b9051908152f35b83915034610386578260031936011261038657815190828201908282106001600160401b03831117610a125750825260058152602090640352e302e360dc1b6020820152825193849260208452825192836020860152825b8481106109fc57505050828201840152601f01601f19168101030190f35b81810183015188820188015287955082016109de565b604190634e487b7160e01b5f525260245ffd5b8284346103c45760203660031901126103c45760209061097f610a466114ed565b611918565b8284346103c457816003193601126103c4576020905162278d008152f35b8284346103c45760203660031901126103c45760209061097f610a8a611516565b6001600160401b034216906116fb565b8284346103c45760603660031901126103c45760209061ffff6101e7610abe6114c4565b610ac66114da565b610ace61158a565b906001600160401b03421692611bd6565b8284346103c457816003193601126103c4575f80516020611e768339815191525490516001600160a01b039091168152602090f35b9050823461038657602036600319011261038657610b306114c4565b610b38611d06565b600354926001600160a01b0392838516610b6857505016906bffffffffffffffffffffffff60a01b161760035580f35b516282b42960e81b8152fd5b82346101f357806003193601126101f357610b8d611d06565b5f80516020611e7683398151915280546001600160a01b031981169091555f906001600160a01b03167f8be0079c531659141344cd1fd0a4f28419497f9722a3daafe3b4186f6b6457e08280a380f35b8284346103c457806003193601126103c45760209061ffff6101e7610c006114c4565b610c086114da565b6001600160401b03421691611a7e565b8284346103c457806003193601126103c45760209061ffff6101e7610c3b6114c4565b610c436114da565b6001600160401b03421691611769565b83915034610386578160031936011261038657610c6e6114c4565b6024356001600160401b03928382116106c357366023830112156106c35781810135848111610653576024830192602436918360051b010111610653579193421691865b818110610cbd578780f35b87546001600160a01b039081169190610cdf610cda83868b6118e3565b611907565b895163389e5bed60e01b81526001600160a01b03891687820190815263ffffffff909216602083810191909152918c91908390829081906040010381895afa928315610ea0578b869289928c9596610e53575b5050610d4c9392610d4692610cda926118e3565b8a611617565b9361ffff80861690831603610d69575b5050506001915001610cb2565b610d77610cda85888d6118e3565b908c813b156101f3578c51639063598960e01b81526001600160a01b038c16818b0190815263ffffffff909416602085015261ffff881660408501528d939092839182908490829060600103925af18d8115610e485788928d92610e2c575b505091610e21600197610e00610cda8963ffffffff965f80516020611e56833981519152986118e3565b925161ffff9687168152951660208601529116938a16929081906040820190565b0390a3898080610d5c565b91509250610e3a9150611542565b6107b55789858a8d8f610dd6565b8351903d90823e3d90fd5b9450945050505081813d8311610e99575b610e6e8183611569565b810103126107b557610d4c87610d46610cda8689610e8c8f976116ec565b9692509281949550610d32565b503d610e64565b8c513d84823e3d90fd5b8383346101f357806003193601126101f357507f00000000000000000000000000000000000000000000000000000000000000006001600160a01b03163003610f1657602090517f360894a13ba1a3210667c828492db98dca3e2076cc3735a920a3ca505d382bbc8152f35b5163703e46dd60e11b8152fd5b8284346103c457816003193601126103c45760025490516001600160a01b039091168152602090f35b8284346103c457816003193601126103c457905490516001600160a01b039091168152602090f35b9050828060031936011261038657610f8a6114c4565b9060249384356001600160401b03938482116103865736602383011215610386578186013594851161119f57602094845192610fcf87601f19601f8501160185611569565b81845236898383010111610661578185928a89930183870137840101526001600160a01b037f00000000000000000000000000000000000000000000000000000000000000008116308114908115611171575b506111615761102f611d06565b84516352d1902d60e01b815290821695808289818a5afa9182918693611131575b505061106b57505050505191634c9c8ce360e01b8352820152fd5b9093919492967f360894a13ba1a3210667c828492db98dca3e2076cc3735a920a3ca505d382bbc9182810361111c5750843b15611108575080546001600160a01b0319168317905551907fbc7cd75a20ee27fd9adebab32041f755214dbc6bffa90cc0225b39da2e5c2d3b8680a28251156110ef57506110eb9250611dc4565b5080f35b915050346110fc57505080f35b63b398979f60e01b8152fd5b8251634c9c8ce360e01b8152808801859052fd5b8351632a87526960e21b815280890191909152fd5b9080929350813d831161115a575b6111498183611569565b810103126106615751908980611050565b503d61113f565b845163703e46dd60e11b81528790fd5b9050817f360894a13ba1a3210667c828492db98dca3e2076cc3735a920a3ca505d382bbc5416141589611022565b86604187634e487b7160e01b5f52525ffd5b8284346103c457816003193601126103c45760015490516001600160a01b039091168152602090f35b8284346103c457816003193601126103c4576020905160328152f35b8284346103c457816003193601126103c4576020905160468152f35b8284346103c45760603660031901126103c45760209061ffff6101e76112366114c4565b61123e6114da565b611246611500565b91611769565b8284346103c457806003193601126103c45760209061097f61126c611516565b61127461152c565b906116fb565b839150346101ef57816003193601126101ef576112956114c4565b9161129e6114da565b5f54825163389e5bed60e01b81526001600160a01b0386811686830190815263ffffffff8516602082810191909152929694959382169491939290879081906040010381875afa9586156113e6575f966113f0575b506113086001600160401b0342168689611617565b9361ffff8086169088160361131b578880f35b803b156101ef578251639063598960e01b81526001600160a01b03891692810192835263ffffffff8716602084015261ffff86166040840152915f91839182908490829060600103925af180156113e6576113b4575b505161ffff948516815293909116602084015263ffffffff919091169216905f80516020611e568339815191529080604081015b0390a381808080808080808880f35b6113a5919750925f80516020611e5683398151915294926113d963ffffffff95611542565b5f98925092945092611371565b82513d5f823e3d90fd5b9095506020813d602011611424575b8161140c60209383611569565b810103126101ef5761141d906116ec565b94886112f3565b3d91506113ff565b83346101ef575f3660031901126101ef5760035490516001600160a01b039091168152602090f35b83346101ef5760603660031901126101ef5760209061ffff6101e76114776114c4565b61147f6114da565b611487611500565b91611617565b83346101ef575f3660031901126101ef57602090516103e88152f35b346101ef575f3660031901126101ef5780624f1a0060209252f35b600435906001600160a01b03821682036101ef57565b6024359063ffffffff821682036101ef57565b6004359063ffffffff821682036101ef57565b604435906001600160401b03821682036101ef57565b600435906001600160401b03821682036101ef57565b602435906001600160401b03821682036101ef57565b6001600160401b03811161155557604052565b634e487b7160e01b5f52604160045260245ffd5b90601f801991011681019081106001600160401b0382111761155557604052565b6044359081151582036101ef57565b906046820291808304604614901517156115af57565b634e487b7160e01b5f52601160045260245ffd5b90601e820291808304601e14901517156115af57565b818102929181159184041417156115af57565b919082018092116115af57565b8115611603570490565b634e487b7160e01b5f52601260045260245ffd5b9161162d91611627828286611a7e565b93611769565b61ffff918281169190821580806116e2575b6116d8576116d1578382169182156116c957603c840292848404603c036115af57602881028181046028036115af5761167b60649188966115ec565b049411156116c15750915b16908281168211156116b95750905b8116603281106116b2576103e88091116116ad575090565b905090565b5050603290565b905090611695565b905091611686565b509250505090565b5091505090565b5050505050603290565b508483161561163f565b519061ffff821682036101ef57565b6001600160401b038080931691169080821161173d57038181116115af571662278d00811061173757624f1a001161173257603290565b604b90565b50606490565b5050505f90565b519063ffffffff821682036101ef57565b51906001600160401b03821682036101ef57565b6003546001600160a01b0393919290841690811561185d57604094855194633853725960e11b865216600485015263ffffffff80911660248501526060846064816001600160401b039586881660448301525afa9384156118d9575f94611866575b5060208401511691821561185d576117f79161ffff956117ee8787511695611918565b950151166116fb565b6050820291808304605014901517156115af576014830292808404601414901517156115af576118316118369260648080960491046115ec565b6115d9565b0460328110611855575b6103e880821161184f57501690565b90501690565b506032611840565b50505050505f90565b9093506060813d6060116118d1575b8161188260609383611569565b810103126101ef578451906060820182811084821117611555576118c691879182526118ad816116ec565b84526118bb60208201611744565b602085015201611755565b85820152925f6117cb565b3d9150611875565b85513d5f823e3d90fd5b91908110156118f35760051b0190565b634e487b7160e01b5f52603260045260245ffd5b3563ffffffff811681036101ef5790565b63ffffffff1680156119505761192d90611d3e565b6064810290808204606414901517156115af576103e890818111156116ad575090565b505f90565b63ffffffff1680156119505761196a90611d3e565b600a810290808204600a14901517156115af5760c881111561198c575060c890565b90565b51906001600160a01b03821682036101ef57565b6001600160a01b039081169081156119fc575f80516020611e7683398151915280546001600160a01b031981168417909155167f8be0079c531659141344cd1fd0a4f28419497f9722a3daafe3b4186f6b6457e05f80a3565b604051631e4fbdf760e01b81525f6004820152602490fd5b908160809103126101ef5760405190608082018281106001600160401b0382111761155557611a7691606091604052611a4c816116ec565b8452611a5a60208201611744565b6020850152611a6b60408201611744565b604085015201611755565b606082015290565b5f546040516317c909e360e01b81526001600160a01b03928316600482015263ffffffff93909316602484015291929160809184916044918391165afa918215611bcb575f92611b9a575b506020820163ffffffff80825116158015611b81575b611b795780604085015116916103e893848402938085048614901517156115af5761ffff956064611b5281611b4b611b45611831966001600160401b036060611b3c8c611b34889f611b599f8f5116906115f9565b9c5116611955565b980151166116fb565b96611599565b04926115c3565b04906115ec565b049060328210611b70575b80821161184f57501690565b60329150611b64565b505050505f90565b506001600160401b038060608601511690841610611adf565b611bbd91925060803d608011611bc4575b611bb58183611569565b810190611a14565b905f611ac9565b503d611bab565b6040513d5f823e3d90fd5b5f546040516317c909e360e01b81526001600160a01b03928316600482015263ffffffff93909316602484015291939160809185916044918391165afa928315611bcb575f93611ce5575b506001600160401b03806060850151169116106116b25763ffffffff9060018260208501511601928284116115af576040015182169015611cdd5760ff60015b16018181116115af578116916103e892838102908082048514901517156115af57611b526064611b4b611ca4611c9e8395611caa988816906115f9565b95611955565b94611599565b6064810290808204606414901517156115af5760649004603281106116b257818111611cd95761ffff91501690565b5090565b60ff5f611c61565b611cff91935060803d608011611bc457611bb58183611569565b915f611c21565b5f80516020611e76833981519152546001600160a01b03163303611d2657565b60405163118cdaa760e01b8152336004820152602490fd5b80156119505760018082018083116115af5760011c90825b838310611d635750505090565b90919250611d7a83611d7581846115f9565b6115ec565b821c9190611d56565b60ff7ff0c57e16840df040f15088dc2f81fe391c3923bec73e23a9662efc9c229c6a005460401c1615611db257565b604051631afcd79f60e31b8152600490fd5b905f8091602081519101845af48080611e42575b15611df85750506040513d81523d5f602083013e60203d82010160405290565b15611e1f57604051639996b31560e01b81526001600160a01b039091166004820152602490fd5b3d15611e30576040513d5f823e3d90fd5b60405163d6bda27560e01b8152600490fd5b503d151580611dd85750813b1515611dd856fe66214a7594e7bb34c7901447891b8538d2c45b2e33dd58448b8d21a5d8599e3f9016d09d72d40fdae2fd8ceac6b6234c7706214fd39c1cd1e609a0528c199300a2646970667358221220d4d8fe800b5c7e656d6453f3182a7da8f25250e27d44158155f19eececf97c3864736f6c63430008180033","linkReferences":{}},"methodIdentifiers":{"ACCURACY_WEIGHT()":"3de308d2","MAX_SCORE()":"27ff6223","MID_PERIOD()":"00cdf18a","MIN_SCORE()":"40b89270","RECENT_PERIOD()":"9a4106e0","UPGRADE_INTERFACE_VERSION()":"ad3cb1cc","VOLUME_WEIGHT()":"ede53540","batchRecalculateScores(address,uint32[])":"5ec33520","calculateChallengeScore(address,uint32)":"6447752d","calculateChallengeScore(address,uint32,uint64)":"f5a82da8","calculateExpertiseScore(address,uint32)":"eb7e1207","calculateExpertiseScore(address,uint32,uint64)":"2a74f964","calculatePeerRatingScore(address,uint32)":"61cb6b08","calculatePeerRatingScore(address,uint32,uint64)":"3ac83154","calculateRatingVolumeBonus(uint32)":"a172c316","calculateTimeDecay(uint64)":"941e39b6","calculateTimeDecay(uint64,uint64)":"38aec2d6","calculateVolumeBonus(uint32)":"be7881e1","challengeContract()":"438031c3","getVotingWeight(address,uint32)":"ca1dc30b","initialize(address,address,address,address)":"f8c8765e","owner()":"8da5cb5b","peerRatingContract()":"2a943cd4","previewScoreChange(address,uint32,bool)":"90d1c96d","previewScoreChange(address,uint32,bool,uint64)":"fb01e544","processChallengeAttempt(address,uint64)":"e1dd33d5","proxiableUUID()":"52d1902d","recalculateScore(address,uint32)":"3842af2d","renounceOwnership()":"715018a6","setPeerRatingContract(address)":"7cc92bf1","topicRegistry()":"5055735b","transferOwnership(address)":"f2fde38b","upgradeToAndCall(address,bytes)":"4f1ef286","userContract()":"5000596b"},"id":47}