{"abi":[{"type":"constructor","inputs":[],"stateMutability":"nonpayable"},{"type":"function","name":"ACCURACY_WEIGHT","inputs":[],"outputs":[{"name":"","type":"uint16","internalType":"uint16"}],"stateMutability":"view"},{"type":"function","name":"MAX_SCORE","inputs":[],"outputs":[{"name":"","type":"uint16","internalType":"uint16"}],"stateMutability":"view"},{"type":"function","name":"MID_PERIOD","inputs":[],"outputs":[{"name":"","type":"uint64","internalType":"uint64"}],"stateMutability":"view"},{"type":"function","name":"MIN_SCORE","inputs":[],"outputs":[{"name":"","type":"uint16","internalType":"uint16"}],"stateMutability":"view"},{"type":"function","name":"RECENT_PERIOD","inputs":[],"outputs":[{"name":"","type":"uint64","internalType":"uint64"}],"stateMutability":"view"},{"type":"function","name":"UPGRADE_INTERFACE_VERSION","inputs":[],"outputs":[{"name":"","type":"string","internalType":"string"}],"stateMutability":"view"},{"type":"function","name":"VOLUME_WEIGHT","inputs":[],"outputs":[{"name":"","type":"uint16","internalType":"uint16"}],"stateMutability":"view"},{"type":"function","name":"batchRecalculateScores","inputs":[{"name":"user","type":"address","internalType":"address"},{"name":"topicIds","type":"uint32[]","internalType":"uint32[]"}],"outputs":[],"stateMutability":"nonpayable"},{"type":"function","name":"batchRecalculateTeamScores","inputs":[{"name":"teamId","type":"uint64","internalType":"uint64"},{"name":"user","type":"address","internalType":"address"},{"name":"topicIds","type":"uint32[]","internalType":"uint32[]"}],"outputs":[],"stateMutability":"nonpayable"},{"type":"function","name":"calculateChallengeScore","inputs":[{"name":"user","type":"address","internalType":"address"},{"name":"topicId","type":"uint32","internalType":"uint32"}],"outputs":[{"name":"","type":"uint16","internalType":"uint16"}],"stateMutability":"view"},{"type":"function","name":"calculateChallengeScore","inputs":[{"name":"user","type":"address","internalType":"address"},{"name":"topicId","type":"uint32","internalType":"uint32"},{"name":"scoreTime","type":"uint64","internalType":"uint64"}],"outputs":[{"name":"","type":"uint16","internalType":"uint16"}],"stateMutability":"view"},{"type":"function","name":"calculateExpertiseScore","inputs":[{"name":"user","type":"address","internalType":"address"},{"name":"topicId","type":"uint32","internalType":"uint32"},{"name":"scoreTime","type":"uint64","internalType":"uint64"}],"outputs":[{"name":"","type":"uint16","internalType":"uint16"}],"stateMutability":"view"},{"type":"function","name":"calculateExpertiseScore","inputs":[{"name":"user","type":"address","internalType":"address"},{"name":"topicId","type":"uint32","internalType":"uint32"}],"outputs":[{"name":"","type":"uint16","internalType":"uint16"}],"stateMutability":"view"},{"type":"function","name":"calculatePeerRatingScore","inputs":[{"name":"user","type":"address","internalType":"address"},{"name":"topicId","type":"uint32","internalType":"uint32"},{"name":"scoreTime","type":"uint64","internalType":"uint64"}],"outputs":[{"name":"","type":"uint16","internalType":"uint16"}],"stateMutability":"view"},{"type":"function","name":"calculatePeerRatingScore","inputs":[{"name":"user","type":"address","internalType":"address"},{"name":"topicId","type":"uint32","internalType":"uint32"}],"outputs":[{"name":"","type":"uint16","internalType":"uint16"}],"stateMutability":"view"},{"type":"function","name":"calculateRatingVolumeBonus","inputs":[{"name":"totalRatings","type":"uint32","internalType":"uint32"}],"outputs":[{"name":"","type":"uint256","internalType":"uint256"}],"stateMutability":"pure"},{"type":"function","name":"calculateTeamChallengeScore","inputs":[{"name":"teamId","type":"uint64","internalType":"uint64"},{"name":"user","type":"address","internalType":"address"},{"name":"topicId","type":"uint32","internalType":"uint32"}],"outputs":[{"name":"","type":"uint16","internalType":"uint16"}],"stateMutability":"view"},{"type":"function","name":"calculateTeamChallengeScore","inputs":[{"name":"teamId","type":"uint64","internalType":"uint64"},{"name":"user","type":"address","internalType":"address"},{"name":"topicId","type":"uint32","internalType":"uint32"},{"name":"scoreTime","type":"uint64","internalType":"uint64"}],"outputs":[{"name":"","type":"uint16","internalType":"uint16"}],"stateMutability":"view"},{"type":"function","name":"calculateTeamExpertiseScore","inputs":[{"name":"teamId","type":"uint64","internalType":"uint64"},{"name":"user","type":"address","internalType":"address"},{"name":"topicId","type":"uint32","internalType":"uint32"},{"name":"scoreTime","type":"uint64","internalType":"uint64"}],"outputs":[{"name":"","type":"uint16","internalType":"uint16"}],"stateMutability":"view"},{"type":"function","name":"calculateTeamExpertiseScore","inputs":[{"name":"teamId","type":"uint64","internalType":"uint64"},{"name":"user","type":"address","internalType":"address"},{"name":"topicId","type":"uint32","internalType":"uint32"}],"outputs":[{"name":"","type":"uint16","internalType":"uint16"}],"stateMutability":"view"},{"type":"function","name":"calculateTeamPeerRatingScore","inputs":[{"name":"teamId","type":"uint64","internalType":"uint64"},{"name":"user","type":"address","internalType":"address"},{"name":"topicId","type":"uint32","internalType":"uint32"},{"name":"scoreTime","type":"uint64","internalType":"uint64"}],"outputs":[{"name":"","type":"uint16","internalType":"uint16"}],"stateMutability":"view"},{"type":"function","name":"calculateTeamPeerRatingScore","inputs":[{"name":"teamId","type":"uint64","internalType":"uint64"},{"name":"user","type":"address","internalType":"address"},{"name":"topicId","type":"uint32","internalType":"uint32"}],"outputs":[{"name":"","type":"uint16","internalType":"uint16"}],"stateMutability":"view"},{"type":"function","name":"calculateTimeDecay","inputs":[{"name":"lastActivityTime","type":"uint64","internalType":"uint64"},{"name":"scoreTime","type":"uint64","internalType":"uint64"}],"outputs":[{"name":"","type":"uint256","internalType":"uint256"}],"stateMutability":"pure"},{"type":"function","name":"calculateTimeDecay","inputs":[{"name":"lastActivityTime","type":"uint64","internalType":"uint64"}],"outputs":[{"name":"","type":"uint256","internalType":"uint256"}],"stateMutability":"view"},{"type":"function","name":"calculateVolumeBonus","inputs":[{"name":"totalChallenges","type":"uint32","internalType":"uint32"}],"outputs":[{"name":"","type":"uint256","internalType":"uint256"}],"stateMutability":"pure"},{"type":"function","name":"challengeContract","inputs":[],"outputs":[{"name":"","type":"address","internalType":"contract Challenge"}],"stateMutability":"view"},{"type":"function","name":"getTeamVotingWeight","inputs":[{"name":"teamId","type":"uint64","internalType":"uint64"},{"name":"user","type":"address","internalType":"address"},{"name":"topicId","type":"uint32","internalType":"uint32"}],"outputs":[{"name":"","type":"uint256","internalType":"uint256"}],"stateMutability":"view"},{"type":"function","name":"getVotingWeight","inputs":[{"name":"user","type":"address","internalType":"address"},{"name":"topicId","type":"uint32","internalType":"uint32"}],"outputs":[{"name":"","type":"uint256","internalType":"uint256"}],"stateMutability":"view"},{"type":"function","name":"initialize","inputs":[{"name":"initialOwner","type":"address","internalType":"address"},{"name":"_userContract","type":"address","internalType":"address"},{"name":"_challengeContract","type":"address","internalType":"address"},{"name":"_topicRegistry","type":"address","internalType":"address"}],"outputs":[],"stateMutability":"nonpayable"},{"type":"function","name":"owner","inputs":[],"outputs":[{"name":"","type":"address","internalType":"address"}],"stateMutability":"view"},{"type":"function","name":"peerRatingContract","inputs":[],"outputs":[{"name":"","type":"address","internalType":"contract PeerRating"}],"stateMutability":"view"},{"type":"function","name":"previewScoreChange","inputs":[{"name":"user","type":"address","internalType":"address"},{"name":"topicId","type":"uint32","internalType":"uint32"},{"name":"wouldBeCorrect","type":"bool","internalType":"bool"}],"outputs":[{"name":"","type":"uint16","internalType":"uint16"}],"stateMutability":"view"},{"type":"function","name":"previewScoreChange","inputs":[{"name":"user","type":"address","internalType":"address"},{"name":"topicId","type":"uint32","internalType":"uint32"},{"name":"wouldBeCorrect","type":"bool","internalType":"bool"},{"name":"scoreTime","type":"uint64","internalType":"uint64"}],"outputs":[{"name":"","type":"uint16","internalType":"uint16"}],"stateMutability":"view"},{"type":"function","name":"proxiableUUID","inputs":[],"outputs":[{"name":"","type":"bytes32","internalType":"bytes32"}],"stateMutability":"view"},{"type":"function","name":"recalculateScore","inputs":[{"name":"user","type":"address","internalType":"address"},{"name":"topicId","type":"uint32","internalType":"uint32"}],"outputs":[],"stateMutability":"nonpayable"},{"type":"function","name":"recalculateTeamScore","inputs":[{"name":"teamId","type":"uint64","internalType":"uint64"},{"name":"user","type":"address","internalType":"address"},{"name":"topicId","type":"uint32","internalType":"uint32"}],"outputs":[],"stateMutability":"nonpayable"},{"type":"function","name":"renounceOwnership","inputs":[],"outputs":[],"stateMutability":"nonpayable"},{"type":"function","name":"setPeerRatingContract","inputs":[{"name":"_peerRatingContract","type":"address","internalType":"address"}],"outputs":[],"stateMutability":"nonpayable"},{"type":"function","name":"topicRegistry","inputs":[],"outputs":[{"name":"","type":"address","internalType":"contract TopicRegistry"}],"stateMutability":"view"},{"type":"function","name":"transferOwnership","inputs":[{"name":"newOwner","type":"address","internalType":"address"}],"outputs":[],"stateMutability":"nonpayable"},{"type":"function","name":"upgradeToAndCall","inputs":[{"name":"newImplementation","type":"address","internalType":"address"},{"name":"data","type":"bytes","internalType":"bytes"}],"outputs":[],"stateMutability":"payable"},{"type":"function","name":"userContract","inputs":[],"outputs":[{"name":"","type":"address","internalType":"contract User"}],"stateMutability":"view"},{"type":"event","name":"Initialized","inputs":[{"name":"version","type":"uint64","indexed":false,"internalType":"uint64"}],"anonymous":false},{"type":"event","name":"OwnershipTransferred","inputs":[{"name":"previousOwner","type":"address","indexed":true,"internalType":"address"},{"name":"newOwner","type":"address","indexed":true,"internalType":"address"}],"anonymous":false},{"type":"event","name":"ScoreCalculated","inputs":[{"name":"user","type":"address","indexed":true,"internalType":"address"},{"name":"topicId","type":"uint32","indexed":true,"internalType":"uint32"},{"name":"oldScore","type":"uint16","indexed":false,"internalType":"uint16"},{"name":"newScore","type":"uint16","indexed":false,"internalType":"uint16"}],"anonymous":false},{"type":"event","name":"TeamScoreCalculated","inputs":[{"name":"teamId","type":"uint64","indexed":true,"internalType":"uint64"},{"name":"user","type":"address","indexed":true,"internalType":"address"},{"name":"topicId","type":"uint32","indexed":true,"internalType":"uint32"},{"name":"oldScore","type":"uint16","indexed":false,"internalType":"uint16"},{"name":"newScore","type":"uint16","indexed":false,"internalType":"uint16"}],"anonymous":false},{"type":"event","name":"Upgraded","inputs":[{"name":"implementation","type":"address","indexed":true,"internalType":"address"}],"anonymous":false},{"type":"error","name":"AddressEmptyCode","inputs":[{"name":"target","type":"address","internalType":"address"}]},{"type":"error","name":"ERC1967InvalidImplementation","inputs":[{"name":"implementation","type":"address","internalType":"address"}]},{"type":"error","name":"ERC1967NonPayable","inputs":[]},{"type":"error","name":"FailedCall","inputs":[]},{"type":"error","name":"InvalidInitialization","inputs":[]},{"type":"error","name":"InvalidInput","inputs":[]},{"type":"error","name":"InvalidTeamId","inputs":[]},{"type":"error","name":"NotInitializing","inputs":[]},{"type":"error","name":"OwnableInvalidOwner","inputs":[{"name":"owner","type":"address","internalType":"address"}]},{"type":"error","name":"OwnableUnauthorizedAccount","inputs":[{"name":"account","type":"address","internalType":"address"}]},{"type":"error","name":"UUPSUnauthorizedCallContext","inputs":[]},{"type":"error","name":"UUPSUnsupportedProxiableUUID","inputs":[{"name":"slot","type":"bytes32","internalType":"bytes32"}]},{"type":"error","name":"Unauthorized","inputs":[]}],"bytecode":{"object":"0x60a080604052346100cc57306080527ff0c57e16840df040f15088dc2f81fe391c3923bec73e23a9662efc9c229c6a009081549060ff8260401c166100bd57506001600160401b036002600160401b031982821601610078575b604051611ebe90816100d18239608051818181610a9f0152610bf30152f35b6001600160401b031990911681179091556040519081527fc7f505b2f371ae2175ee4913f4499e1f2633a7b5936321eed1cdaeb6115181d290602090a15f8080610059565b63f92ee8a960e01b8152600490fd5b5f80fdfe6080604090808252600480361015610015575f80fd5b5f3560e01c918262cdf18a14610f815750816327ff622314610f65578163290bc60614610f215781632a74f96414610ee85781632a943cd414610ec05781632d958d1e14610e9f5781633842af2d14610e7657816338aec2d614610e3c5781633ac8315414610e035781633de308d214610de857816340b8927014610dcd578163438031c314610da55781634f1ef28614610b735781635000596b14610b4c5781635055735b14610b24578163517c4eec14610b0357816352d1902d14610a8c578163547e8757146109ed5781635b4379a3146109bb5781635ec335201461095657816361cb6b081461091c57816363687ced146108d85781636447752d1461089e578163715018a6146108375781637cc92bf1146107df5781638da5cb5b146107ab57816390d1c96d14610767578163941e39b6146107375781639a4106e01461071a578163a172c316146106f5578163a9fce59d146106d4578163ad3cb1cc14610637578163be7881e11461060b578163ca1dc30b1461053a578163ca7b7c33146104c6578163d0f35f4014610482578163eb7e120714610448578163ede535401461042d578163f2fde38b14610407578163f5a82da8146103ce578163f8c8765e14610247575063fb01e544146101ed575f80fd5b3461024357608036600319011261024357610206610fde565b9061020f611007565b6102176110fb565b926064356001600160401b03811681036102435760209461ffff9361023b93611be9565b915191168152f35b5f80fd5b90503461024357608036600319011261024357610262610fde565b9061026b610fc8565b6001600160a01b0390604435828116908190036102435760643592808416809403610243577ff0c57e16840df040f15088dc2f81fe391c3923bec73e23a9662efc9c229c6a0095865460ff818a1c1615966001600160401b038216801590816103c6575b60011490816103bc575b1590816103b3575b506103a5575067ffffffffffffffff1981166001178855610319919087610386575b5061030c611d96565b610314611d96565b611a88565b6bffffffffffffffffffffffff60a01b9216825f5416175f55816001541617600155600254161760025561034957005b805468ff00000000000000001916905551600181527fc7f505b2f371ae2175ee4913f4499e1f2633a7b5936321eed1cdaeb6115181d290602090a1005b68ffffffffffffffffff1916680100000000000000011788555f610303565b895163f92ee8a960e01b8152fd5b9050155f6102e1565b303b1591506102d9565b8991506102cf565b82346102435760603660031901126102435760209061ffff61023b6103f1610fde565b6103f9611007565b610401610fb2565b91611af9565b346102435760203660031901126102435761042b610423610fde565b610314611d19565b005b8234610243575f3660031901126102435760209051601e8152f35b823461024357806003193601126102435760209061ffff61023b61046a610fde565b610472611007565b6001600160401b03421691611188565b82346102435760603660031901126102435760209061ffff61023b6104a5610f9c565b6104ad610fc8565b6104b5610ff4565b906001600160401b034216926112e9565b34610243576060366003190112610243576104df610f9c565b906104e8610fc8565b90604435906001600160401b03821161024357610507913691016110cb565b90925f5b82811061051457005b8061053461052d610528600194878a611818565b61183c565b868561169c565b0161050b565b823461024357806003193601126102435760206105a192610559610fde565b90610562611007565b5f54855163389e5bed60e01b81526001600160a01b0394851693810193845263ffffffff90921660208401529095869391909116918391829160400190565b03915afa918215610601575f926105c1575b60208361ffff845191168152f35b91506020823d6020116105f9575b816105dc602093836110aa565b810103126102435761ffff6105f260209361125d565b92506105b3565b3d91506105cf565b50513d5f823e3d90fd5b82346102435760203660031901126102435760209061063061062b61101a565b611a4e565b9051908152f35b8234610243575f36600319011261024357805191818301908382106001600160401b038311176106c157508152600582526020640352e302e360dc1b60208401528151928391602083528151918260208501525f5b8381106106ab5750505f83830185015250601f01601f19168101030190f35b818101830151878201870152869450820161068c565b604190634e487b7160e01b5f525260245ffd5b82346102435760209061ffff61023b6106ec3661102d565b929190916118f4565b82346102435760203660031901126102435760209061063061071561101a565b61184d565b8234610243575f366003190112610243576020905162278d008152f35b823461024357602036600319011261024357602090610630610757610f9c565b6001600160401b0342169061159e565b82346102435760603660031901126102435760209061ffff61023b61078a610fde565b610792611007565b61079a6110fb565b906001600160401b03421692611be9565b8234610243575f366003190112610243575f80516020611e698339815191525490516001600160a01b039091168152602090f35b8234610243576020366003190112610243576107f9610fde565b610801611d19565b600354926001600160a01b039283851661082b5750506001600160a01b0319909216911617600355005b516282b42960e81b8152fd5b34610243575f3660031901126102435761084f611d19565b5f80516020611e6983398151915280546001600160a01b031981169091555f906001600160a01b03167f8be0079c531659141344cd1fd0a4f28419497f9722a3daafe3b4186f6b6457e08280a3005b823461024357806003193601126102435760209061ffff61023b6108c0610fde565b6108c8611007565b6001600160401b03421691611af9565b82346102435760603660031901126102435760209061ffff61023b6108fb610f9c565b610903610fc8565b61090b610ff4565b906001600160401b03421692611674565b823461024357806003193601126102435760209061ffff61023b61093e610fde565b610946611007565b6001600160401b034216916115e7565b8234610243573660031901126102435761096e610fde565b90602435906001600160401b0382116102435761098d913691016110cb565b5f9291925b81811061099b57005b806109b56109af6105286001948689611818565b8561144f565b01610992565b346102435760603660031901126102435761042b6109d7610f9c565b6109df610fc8565b6109e7610ff4565b9161169c565b823461024357606036600319011261024357610a07610f9c565b91610a10610fc8565b90610a19610ff4565b936001600160401b03811615610a7d575f548451630f1fd40160e21b81526001600160401b039092169282019283526001600160a01b0393841660208481019190915263ffffffff90961660408401529094928592911690829081906060016105a1565b508251632a982bb360e01b8152fd5b8234610243575f366003190112610243577f00000000000000000000000000000000000000000000000000000000000000006001600160a01b03163003610af657602090517f360894a13ba1a3210667c828492db98dca3e2076cc3735a920a3ca505d382bbc8152f35b5163703e46dd60e11b8152fd5b82346102435760209061ffff61023b610b1b3661102d565b92919091611674565b8234610243575f3660031901126102435760025490516001600160a01b039091168152602090f35b8234610243575f366003190112610243575f5490516001600160a01b039091168152602090f35b90508160031936011261024357610b88610fde565b60249283356001600160401b039283821161024357366023830112156102435781850135938411610d9357602093835192610bcc86601f19601f85011601856110aa565b8184523688838301011161024357815f928988930183870137840101526001600160a01b037f00000000000000000000000000000000000000000000000000000000000000008116308114908115610d65575b50610d5557610c2c611d19565b83516352d1902d60e01b81529082169480828881895afa9182915f93610d25575b5050610c67575050505191634c9c8ce360e01b8352820152fd5b85938591887f360894a13ba1a3210667c828492db98dca3e2076cc3735a920a3ca505d382bbc91828103610d105750843b15610cfc575080546001600160a01b0319168317905551907fbc7cd75a20ee27fd9adebab32041f755214dbc6bffa90cc0225b39da2e5c2d3b5f80a2825115610ce6575061042b9250611dd7565b91505034610cf057005b63b398979f60e01b8152fd5b8251634c9c8ce360e01b8152808801859052fd5b8351632a87526960e21b815280890191909152fd5b9080929350813d8311610d4e575b610d3d81836110aa565b810103126102435751905f80610c4d565b503d610d33565b835163703e46dd60e11b81528690fd5b9050817f360894a13ba1a3210667c828492db98dca3e2076cc3735a920a3ca505d382bbc541614155f610c1f565b85604186634e487b7160e01b5f52525ffd5b8234610243575f3660031901126102435760015490516001600160a01b039091168152602090f35b8234610243575f366003190112610243576020905160328152f35b8234610243575f366003190112610243576020905160468152f35b82346102435760603660031901126102435760209061ffff61023b610e26610fde565b610e2e611007565b610e36610fb2565b916115e7565b8234610243578060031936011261024357610e55610f9c565b90602435916001600160401b0383168303610243576020926106309161159e565b8234610243573660031901126102435761042b610e91610fde565b610e99611007565b9061144f565b82346102435760209061ffff61023b610eb73661102d565b929190916112e9565b8234610243575f3660031901126102435760035490516001600160a01b039091168152602090f35b82346102435760603660031901126102435760209061ffff61023b610f0b610fde565b610f13611007565b610f1b610fb2565b91611188565b82346102435760603660031901126102435760209061ffff61023b610f44610f9c565b610f4c610fc8565b610f54610ff4565b906001600160401b034216926118f4565b8234610243575f36600319011261024357602090516103e88152f35b34610243575f3660031901126102435780624f1a0060209252f35b600435906001600160401b038216820361024357565b604435906001600160401b038216820361024357565b602435906001600160a01b038216820361024357565b600435906001600160a01b038216820361024357565b6044359063ffffffff8216820361024357565b6024359063ffffffff8216820361024357565b6004359063ffffffff8216820361024357565b6080906003190112610243576001600160401b0390600435828116810361024357916024356001600160a01b0381168103610243579160443563ffffffff81168103610243579160643590811681036102435790565b6001600160401b03811161109657604052565b634e487b7160e01b5f52604160045260245ffd5b90601f801991011681019081106001600160401b0382111761109657604052565b9181601f84011215610243578235916001600160401b038311610243576020808501948460051b01011161024357565b60443590811515820361024357565b9060468202918083046046149015171561112057565b634e487b7160e01b5f52601160045260245ffd5b90601e820291808304601e149015171561112057565b8181029291811591840414171561112057565b9190820180921161112057565b8115611174570490565b634e487b7160e01b5f52601260045260245ffd5b9161119e91611198828286611af9565b936115e7565b61ffff91828116919082158080611253575b611249576112425783821691821561123a57603c840292848404603c036111205760288102818104602803611120576111ec606491889661115d565b049411156112325750915b169082811682111561122a5750905b811660328110611223576103e880911161121e575090565b905090565b5050603290565b905090611206565b9050916111f7565b509250505090565b5091505090565b5050505050603290565b50848316156111b0565b519061ffff8216820361024357565b519063ffffffff8216820361024357565b51906001600160401b038216820361024357565b908160609103126102435760405190606082018281106001600160401b03821117611096576112e19160409182526112c88161125d565b84526112d66020820161126c565b60208501520161127d565b604082015290565b9290916001600160401b03809416801561143d576003546001600160a01b0394908516801561143257606092608491604051978894859363793b9c9360e11b8552600485015216602483015263ffffffff809616604483015288871660648301525afa928315611427575f936113f6575b506020830151169081156113ee576113889061ffff94604061137f878751169561184d565b9501511661159e565b60508202918083046050149015171561112057601483029280840460141490151715611120576113c26113c792606480809604910461115d565b61114a565b04603281106113e6575b6103e88082116113e057501690565b90501690565b5060326113d1565b505050505f90565b61141991935060603d606011611420575b61141181836110aa565b810190611291565b915f61135a565b503d611407565b6040513d5f823e3d90fd5b505050505050505f90565b604051632a982bb360e01b8152600490fd5b5f5460405163389e5bed60e01b81526001600160a01b03838116600483015263ffffffff8516602483015293929184169190602081604481865afa908115611427575f91611564575b506114ad6001600160401b0342168584611188565b9161ffff9586841680978416036114c8575b50505050505050565b843b156102435760645f928363ffffffff976040519889958694639063598960e01b8652169a8b6004860152169a8b602485015260448401525af1928315611427577f66214a7594e7bb34c7901447891b8538d2c45b2e33dd58448b8d21a5d8599e3f93611555575b506040805161ffff928316815292909116602083015290a35f8080808080806114bf565b61155e90611083565b5f611531565b90506020813d602011611596575b8161157f602093836110aa565b81010312610243576115909061125d565b5f611498565b3d9150611572565b6001600160401b03808093169116908082116115e05703818111611120571662278d0081106115da57624f1a00116115d557603290565b604b90565b50606490565b5050505f90565b6003546001600160a01b0390811693919290841561166b5760405193633853725960e11b855216600484015263ffffffff80911660248401526060836064816001600160401b039788871660448301525afa928315611427575f936113f657506020830151169081156113ee576113889061ffff94604061137f878751169561184d565b50505050505f90565b9290916001600160401b0384161561143d5782611696838361119e96886118f4565b946112e9565b91906001600160401b039283811691821561143d575f54604051630f1fd40160e21b81526001600160401b03841660048201526001600160a01b03838116602483015263ffffffff871660448301529691871693602082606481885afa918215611427578488915f946117d7575b506117189394421692611674565b9161ffff968784168098841603611734575b5050505050505050565b843b156102435760845f928363ffffffff97604051988995869463c0a65a5d60e01b86528c6004870152169b8c6024860152169b8c604485015260648401525af1928315611427577f8b5d7b7acb70185dc1f29d718a63d0e916c21c8fa193e6e05230418c8dcf4167936117c8575b506040805161ffff928316815292909116602083015290a45f8080808080808061172a565b6117d190611083565b5f6117a3565b935050506020823d602011611810575b816117f4602093836110aa565b8101031261024357868461180a6117189461125d565b9361170a565b3d91506117e7565b91908110156118285760051b0190565b634e487b7160e01b5f52603260045260245ffd5b3563ffffffff811681036102435790565b63ffffffff1680156118855761186290611d51565b606481029080820460641490151715611120576103e8908181111561121e575090565b505f90565b908160809103126102435760405190608082018281106001600160401b03821117611096576118ec916060916040526118c28161125d565b84526118d06020820161126c565b60208501526118e16040820161126c565b60408501520161127d565b606082015290565b9192906001600160401b03938484161561143d575f5460405163fd268af960e01b81526001600160401b039590951660048601526001600160a01b03928316602486015263ffffffff91909116604485015260809184916064918391165afa918215611427575f92611a1d575b50602082019263ffffffff9384815116158015611a0c575b61166b5784604085015116946103e894858702968088048714901517156111205760646119e5816119de6119d882996119ec9960606119cf61ffff9f9a6119c76113c29c828f51169061116a565b9c5116611a4e565b9801511661159e565b9661110a565b0492611134565b049061115d565b049060328210611a03575b8082116113e057501690565b603291506119f7565b508160608501511682841610611979565b611a4091925060803d608011611a47575b611a3881836110aa565b81019061188a565b905f611961565b503d611a2e565b63ffffffff16801561188557611a6390611d51565b600a810290808204600a14901517156111205760c8811115611a85575060c890565b90565b6001600160a01b03908116908115611ae1575f80516020611e6983398151915280546001600160a01b031981168417909155167f8be0079c531659141344cd1fd0a4f28419497f9722a3daafe3b4186f6b6457e05f80a3565b604051631e4fbdf760e01b81525f6004820152602490fd5b5f546040516317c909e360e01b81526001600160a01b03928316600482015263ffffffff93909316602484015291929160809184916044918391165afa918215611427575f92611bc8575b506020820163ffffffff80825116158015611baf575b6113ee5780604085015116916103e893848402938085048614901517156111205761ffff9560646119e5816119de6119d86113c2966001600160401b0360606119cf8c6119c7889f6119ec9f8f51169061116a565b506001600160401b038060608601511690841610611b5a565b611be291925060803d608011611a4757611a3881836110aa565b905f611b44565b5f546040516317c909e360e01b81526001600160a01b03928316600482015263ffffffff93909316602484015291939160809185916044918391165afa928315611427575f93611cf8575b506001600160401b03806060850151169116106112235763ffffffff906001826020850151160192828411611120576040015182169015611cf05760ff60015b1601818111611120578116916103e89283810290808204851490151715611120576119e560646119de611cb7611cb18395611cbd9888169061116a565b95611a4e565b9461110a565b60648102908082046064149015171561112057606490046032811061122357818111611cec5761ffff91501690565b5090565b60ff5f611c74565b611d1291935060803d608011611a4757611a3881836110aa565b915f611c34565b5f80516020611e69833981519152546001600160a01b03163303611d3957565b60405163118cdaa760e01b8152336004820152602490fd5b80156118855760018082018083116111205760011c90825b838310611d765750505090565b90919250611d8d83611d88818461116a565b61115d565b821c9190611d69565b60ff7ff0c57e16840df040f15088dc2f81fe391c3923bec73e23a9662efc9c229c6a005460401c1615611dc557565b604051631afcd79f60e31b8152600490fd5b905f8091602081519101845af48080611e55575b15611e0b5750506040513d81523d5f602083013e60203d82010160405290565b15611e3257604051639996b31560e01b81526001600160a01b039091166004820152602490fd5b3d15611e43576040513d5f823e3d90fd5b60405163d6bda27560e01b8152600490fd5b503d151580611deb5750813b1515611deb56fe9016d09d72d40fdae2fd8ceac6b6234c7706214fd39c1cd1e609a0528c199300a264697066735822122062ed7372606d97500c978aa4a2ba0d35c6181c87a07b704446d4ec17963e67bc64736f6c63430008180033","linkReferences":{}},"methodIdentifiers":{"ACCURACY_WEIGHT()":"3de308d2","MAX_SCORE()":"27ff6223","MID_PERIOD()":"00cdf18a","MIN_SCORE()":"40b89270","RECENT_PERIOD()":"9a4106e0","UPGRADE_INTERFACE_VERSION()":"ad3cb1cc","VOLUME_WEIGHT()":"ede53540","batchRecalculateScores(address,uint32[])":"5ec33520","batchRecalculateTeamScores(uint64,address,uint32[])":"ca7b7c33","calculateChallengeScore(address,uint32)":"6447752d","calculateChallengeScore(address,uint32,uint64)":"f5a82da8","calculateExpertiseScore(address,uint32)":"eb7e1207","calculateExpertiseScore(address,uint32,uint64)":"2a74f964","calculatePeerRatingScore(address,uint32)":"61cb6b08","calculatePeerRatingScore(address,uint32,uint64)":"3ac83154","calculateRatingVolumeBonus(uint32)":"a172c316","calculateTeamChallengeScore(uint64,address,uint32)":"290bc606","calculateTeamChallengeScore(uint64,address,uint32,uint64)":"a9fce59d","calculateTeamExpertiseScore(uint64,address,uint32)":"63687ced","calculateTeamExpertiseScore(uint64,address,uint32,uint64)":"517c4eec","calculateTeamPeerRatingScore(uint64,address,uint32)":"d0f35f40","calculateTeamPeerRatingScore(uint64,address,uint32,uint64)":"2d958d1e","calculateTimeDecay(uint64)":"941e39b6","calculateTimeDecay(uint64,uint64)":"38aec2d6","calculateVolumeBonus(uint32)":"be7881e1","challengeContract()":"438031c3","getTeamVotingWeight(uint64,address,uint32)":"547e8757","getVotingWeight(address,uint32)":"ca1dc30b","initialize(address,address,address,address)":"f8c8765e","owner()":"8da5cb5b","peerRatingContract()":"2a943cd4","previewScoreChange(address,uint32,bool)":"90d1c96d","previewScoreChange(address,uint32,bool,uint64)":"fb01e544","proxiableUUID()":"52d1902d","recalculateScore(address,uint32)":"3842af2d","recalculateTeamScore(uint64,address,uint32)":"5b4379a3","renounceOwnership()":"715018a6","setPeerRatingContract(address)":"7cc92bf1","topicRegistry()":"5055735b","transferOwnership(address)":"f2fde38b","upgradeToAndCall(address,bytes)":"4f1ef286","userContract()":"5000596b"},"id":36}