{"abi":[{"type":"constructor","inputs":[],"stateMutability":"nonpayable"},{"type":"function","name":"UPGRADE_INTERFACE_VERSION","inputs":[],"outputs":[{"name":"","type":"string","internalType":"string"}],"stateMutability":"view"},{"type":"function","name":"addMember","inputs":[{"name":"teamId","type":"uint64","internalType":"uint64"},{"name":"member","type":"address","internalType":"address"},{"name":"role","type":"uint8","internalType":"enum TeamRegistry.TeamRole"}],"outputs":[],"stateMutability":"nonpayable"},{"type":"function","name":"changeMemberRole","inputs":[{"name":"teamId","type":"uint64","internalType":"uint64"},{"name":"member","type":"address","internalType":"address"},{"name":"newRole","type":"uint8","internalType":"enum TeamRegistry.TeamRole"}],"outputs":[],"stateMutability":"nonpayable"},{"type":"function","name":"createTeam","inputs":[{"name":"name","type":"string","internalType":"string"}],"outputs":[{"name":"teamId","type":"uint64","internalType":"uint64"}],"stateMutability":"nonpayable"},{"type":"function","name":"deactivateTeam","inputs":[{"name":"teamId","type":"uint64","internalType":"uint64"}],"outputs":[],"stateMutability":"nonpayable"},{"type":"function","name":"getTeam","inputs":[{"name":"teamId","type":"uint64","internalType":"uint64"}],"outputs":[{"name":"team","type":"tuple","internalType":"struct TeamRegistry.Team","components":[{"name":"teamId","type":"uint64","internalType":"uint64"},{"name":"name","type":"string","internalType":"string"},{"name":"owner","type":"address","internalType":"address"},{"name":"createdAt","type":"uint64","internalType":"uint64"},{"name":"isActive","type":"bool","internalType":"bool"}]}],"stateMutability":"view"},{"type":"function","name":"getTeamIdCounter","inputs":[],"outputs":[{"name":"counter","type":"uint64","internalType":"uint64"}],"stateMutability":"view"},{"type":"function","name":"getTeamMember","inputs":[{"name":"teamId","type":"uint64","internalType":"uint64"},{"name":"member","type":"address","internalType":"address"}],"outputs":[{"name":"teamMember","type":"tuple","internalType":"struct TeamRegistry.TeamMember","components":[{"name":"role","type":"uint8","internalType":"enum TeamRegistry.TeamRole"},{"name":"joinedAt","type":"uint64","internalType":"uint64"},{"name":"isActive","type":"bool","internalType":"bool"}]}],"stateMutability":"view"},{"type":"function","name":"getTeamMembers","inputs":[{"name":"teamId","type":"uint64","internalType":"uint64"}],"outputs":[{"name":"members","type":"address[]","internalType":"address[]"}],"stateMutability":"view"},{"type":"function","name":"getTeamRole","inputs":[{"name":"teamId","type":"uint64","internalType":"uint64"},{"name":"user","type":"address","internalType":"address"}],"outputs":[{"name":"role","type":"uint8","internalType":"enum TeamRegistry.TeamRole"}],"stateMutability":"view"},{"type":"function","name":"getUserTeams","inputs":[{"name":"user","type":"address","internalType":"address"}],"outputs":[{"name":"teamIds","type":"uint64[]","internalType":"uint64[]"}],"stateMutability":"view"},{"type":"function","name":"initialize","inputs":[],"outputs":[],"stateMutability":"nonpayable"},{"type":"function","name":"isTeamAdmin","inputs":[{"name":"teamId","type":"uint64","internalType":"uint64"},{"name":"user","type":"address","internalType":"address"}],"outputs":[{"name":"isAdmin","type":"bool","internalType":"bool"}],"stateMutability":"view"},{"type":"function","name":"isTeamMember","inputs":[{"name":"teamId","type":"uint64","internalType":"uint64"},{"name":"user","type":"address","internalType":"address"}],"outputs":[{"name":"isMember","type":"bool","internalType":"bool"}],"stateMutability":"view"},{"type":"function","name":"isTeamOwner","inputs":[{"name":"teamId","type":"uint64","internalType":"uint64"},{"name":"user","type":"address","internalType":"address"}],"outputs":[{"name":"isOwner","type":"bool","internalType":"bool"}],"stateMutability":"view"},{"type":"function","name":"owner","inputs":[],"outputs":[{"name":"","type":"address","internalType":"address"}],"stateMutability":"view"},{"type":"function","name":"proxiableUUID","inputs":[],"outputs":[{"name":"","type":"bytes32","internalType":"bytes32"}],"stateMutability":"view"},{"type":"function","name":"reactivateTeam","inputs":[{"name":"teamId","type":"uint64","internalType":"uint64"}],"outputs":[],"stateMutability":"nonpayable"},{"type":"function","name":"removeMember","inputs":[{"name":"teamId","type":"uint64","internalType":"uint64"},{"name":"member","type":"address","internalType":"address"}],"outputs":[],"stateMutability":"nonpayable"},{"type":"function","name":"renounceOwnership","inputs":[],"outputs":[],"stateMutability":"nonpayable"},{"type":"function","name":"transferOwnership","inputs":[{"name":"newOwner","type":"address","internalType":"address"}],"outputs":[],"stateMutability":"nonpayable"},{"type":"function","name":"transferTeamOwnership","inputs":[{"name":"teamId","type":"uint64","internalType":"uint64"},{"name":"newOwner","type":"address","internalType":"address"}],"outputs":[],"stateMutability":"nonpayable"},{"type":"function","name":"upgradeToAndCall","inputs":[{"name":"newImplementation","type":"address","internalType":"address"},{"name":"data","type":"bytes","internalType":"bytes"}],"outputs":[],"stateMutability":"payable"},{"type":"event","name":"Initialized","inputs":[{"name":"version","type":"uint64","indexed":false,"internalType":"uint64"}],"anonymous":false},{"type":"event","name":"MemberAdded","inputs":[{"name":"teamId","type":"uint64","indexed":true,"internalType":"uint64"},{"name":"member","type":"address","indexed":true,"internalType":"address"},{"name":"role","type":"uint8","indexed":false,"internalType":"enum TeamRegistry.TeamRole"},{"name":"joinedAt","type":"uint64","indexed":false,"internalType":"uint64"}],"anonymous":false},{"type":"event","name":"MemberRemoved","inputs":[{"name":"teamId","type":"uint64","indexed":true,"internalType":"uint64"},{"name":"member","type":"address","indexed":true,"internalType":"address"},{"name":"removedAt","type":"uint64","indexed":false,"internalType":"uint64"}],"anonymous":false},{"type":"event","name":"MemberRoleChanged","inputs":[{"name":"teamId","type":"uint64","indexed":true,"internalType":"uint64"},{"name":"member","type":"address","indexed":true,"internalType":"address"},{"name":"oldRole","type":"uint8","indexed":false,"internalType":"enum TeamRegistry.TeamRole"},{"name":"newRole","type":"uint8","indexed":false,"internalType":"enum TeamRegistry.TeamRole"}],"anonymous":false},{"type":"event","name":"OwnershipTransferred","inputs":[{"name":"previousOwner","type":"address","indexed":true,"internalType":"address"},{"name":"newOwner","type":"address","indexed":true,"internalType":"address"}],"anonymous":false},{"type":"event","name":"OwnershipTransferred","inputs":[{"name":"teamId","type":"uint64","indexed":true,"internalType":"uint64"},{"name":"previousOwner","type":"address","indexed":true,"internalType":"address"},{"name":"newOwner","type":"address","indexed":true,"internalType":"address"}],"anonymous":false},{"type":"event","name":"TeamCreated","inputs":[{"name":"teamId","type":"uint64","indexed":true,"internalType":"uint64"},{"name":"name","type":"string","indexed":false,"internalType":"string"},{"name":"owner","type":"address","indexed":true,"internalType":"address"},{"name":"createdAt","type":"uint64","indexed":false,"internalType":"uint64"}],"anonymous":false},{"type":"event","name":"TeamDeactivated","inputs":[{"name":"teamId","type":"uint64","indexed":true,"internalType":"uint64"},{"name":"deactivatedAt","type":"uint64","indexed":false,"internalType":"uint64"}],"anonymous":false},{"type":"event","name":"TeamReactivated","inputs":[{"name":"teamId","type":"uint64","indexed":true,"internalType":"uint64"},{"name":"reactivatedAt","type":"uint64","indexed":false,"internalType":"uint64"}],"anonymous":false},{"type":"event","name":"Upgraded","inputs":[{"name":"implementation","type":"address","indexed":true,"internalType":"address"}],"anonymous":false},{"type":"error","name":"AddressEmptyCode","inputs":[{"name":"target","type":"address","internalType":"address"}]},{"type":"error","name":"ERC1967InvalidImplementation","inputs":[{"name":"implementation","type":"address","internalType":"address"}]},{"type":"error","name":"ERC1967NonPayable","inputs":[]},{"type":"error","name":"FailedCall","inputs":[]},{"type":"error","name":"InvalidInitialization","inputs":[]},{"type":"error","name":"NotInitializing","inputs":[]},{"type":"error","name":"OwnableInvalidOwner","inputs":[{"name":"owner","type":"address","internalType":"address"}]},{"type":"error","name":"OwnableUnauthorizedAccount","inputs":[{"name":"account","type":"address","internalType":"address"}]},{"type":"error","name":"TeamRegistry__CannotRemoveOwner","inputs":[]},{"type":"error","name":"TeamRegistry__CannotRemoveSelf","inputs":[]},{"type":"error","name":"TeamRegistry__InvalidRole","inputs":[]},{"type":"error","name":"TeamRegistry__InvalidTeamName","inputs":[]},{"type":"error","name":"TeamRegistry__NotTeamAdmin","inputs":[]},{"type":"error","name":"TeamRegistry__NotTeamMember","inputs":[]},{"type":"error","name":"TeamRegistry__NotTeamOwner","inputs":[]},{"type":"error","name":"TeamRegistry__TeamAlreadyExists","inputs":[]},{"type":"error","name":"TeamRegistry__TeamDoesNotExist","inputs":[]},{"type":"error","name":"TeamRegistry__TeamInactive","inputs":[]},{"type":"error","name":"TeamRegistry__UserAlreadyMember","inputs":[]},{"type":"error","name":"TeamRegistry__UserNotMember","inputs":[]},{"type":"error","name":"UUPSUnauthorizedCallContext","inputs":[]},{"type":"error","name":"UUPSUnsupportedProxiableUUID","inputs":[{"name":"slot","type":"bytes32","internalType":"bytes32"}]}],"bytecode":{"object":"0x60a080604052346100cc57306080527ff0c57e16840df040f15088dc2f81fe391c3923bec73e23a9662efc9c229c6a009081549060ff8260401c166100bd57506001600160401b036002600160401b031982821601610078575b604051611dc290816100d182396080518181816113ef01526114a70152f35b6001600160401b031990911681179091556040519081527fc7f505b2f371ae2175ee4913f4499e1f2633a7b5936321eed1cdaeb6115181d290602090a15f8080610059565b63f92ee8a960e01b8152600490fd5b5f80fdfe6080806040526004361015610012575f80fd5b5f3560e01c9081631aa172c6146118c85750806320f4967e1461181c57806324e926e3146117f75780633113ed8f146116445780634f1ef2861461145957806352d1902d146113dd5780636aa92c27146112475780636eca384a146111a1578063715018a61461113a578063746e4698146110075780638129fc1c14610ed7578063835b22ec14610e88578063883baf3f14610cbc5780638da5cb5b14610c88578063972fa53f146108f3578063a2d611f61461081c578063ad3cb1cc146107ad578063b52cfad814610630578063b6a7a67b1461058b578063c94dfe5c146104b6578063e1f35fe4146101a5578063f2fde38b1461017a5763f8bf4c4614610119575f80fd5b3461017657604036600319011261017657610132611987565b6001600160401b0361014261199d565b91165f52600260205260405f209060018060a01b03165f52602052602060ff60405f2054166101746040518092611ae6565bf35b5f80fd5b34610176576020366003190112610176576101a36101966119b3565b61019e611c62565b611bf1565b005b34610176576101b336611aa3565b90916001600160401b039182821692835f5260209260018452600290828260405f20015460a01c16156104a457855f526001855260ff8260405f20015460e01c161561049257855f5281855260405f20335f52855260405f2060ff6040519161021b83611a07565b5461022882821684611af3565b858160081c168884015260481c1615908115918260408301529161045e575b5061044c5760048410156103e65783158015610442575b61043057855f5281855260405f209660018060a01b03811697885f52865260405f2092835460ff8160481c1680809161041b575b6104095786901591826103fa575b505015610306575050509282916102f16040947f9ce35968a415eccd3dce61f2826f8b54b3340420f7d46652c6e4097919b5abe196690100000000000000000060ff60481b19825416178155611b37565b6102fd84518094611ae6565b421690820152a3005b909493919592506040519461031a86611a07565b6103248587611af3565b8386018342168152604087019260018452895f52855260405f208a5f52855260405f2096519760048910156103e6576103c3886103e1956103d29461038c7f9ce35968a415eccd3dce61f2826f8b54b3340420f7d46652c6e4097919b5abe19d60409d611b37565b518254915169ffffffffffffffffff001990921660089190911b68ffffffffffffffff00161790151560481b60ff60481b16179055565b8a5f5260038652875f20611b4f565b875f5260048452855f20611bac565b6102f1565b634e487b7160e01b5f52602160045260245ffd5b60081c1615159050858b6102a0565b604051630179ebcf60e71b8152600490fd5b5060ff821660048110156103e6571515610292565b604051636731370b60e01b8152600490fd5b506003841461025e565b60405163cc424aab60e01b8152600490fd5b8091505160048110156103e657831415908161047c575b5088610247565b90505160048110156103e6576003141588610475565b6040516326f9979360e01b8152600490fd5b604051632ef3ef0b60e21b8152600490fd5b3461017657602080600319360112610176576001600160401b0390816104da611987565b16805f5260019260018352600260405f20015460a01c16156104a4575f526004815260405f2091604051918281855491828152019081955f52825f20905f5b81811061056f575050508361052f910384611a3d565b6040519281840190828552518091526040840194915f5b8281106105535785870386f35b83516001600160a01b0316875295810195928101928401610546565b82546001600160a01b0316845292840192918501918501610519565b34610176576040366003190112610176576105a4611987565b6105ac61199d565b6001600160401b038092165f52600260205260405f209060018060a01b03165f5260205260ff60405f2091604051926105e484611a07565b54906105f283831685611af3565b8160081c16602084015260481c1615158060408301528061061b575b6020906040519015158152f35b505160048110156103e657602090151561060e565b3461017657602080600319360112610176576001600160a01b036106526119b3565b165f5260038082528160405f2091604051908192839181865494858152019081965f52825f20945f915b818184011061076057506106b995549184828210610747575b82821061072b575b82821061070f575b5010610701575b5090509392930383611a3d565b60405192839281840190828552518091526040840192915f5b8281106106e157505050500390f35b83516001600160401b0316855286955093810193928101926001016106d2565b60c01c8152018590876106ac565b600191946001600160401b038560801c168152019301846106a5565b600191946001600160401b038560401c1681520193018461069d565b600191946001600160401b038516815201930184610695565b94509250906004600184928754906001600160401b03918281168252828160401c168d83015260809281841c16604083015260c01c6060820152019601920190508792869495929561067c565b34610176575f3660031901126101765760405160408101908082106001600160401b03831117610808576108049160405260058152640352e302e360dc1b60208201526040519182916020835260208301906119c9565b0390f35b634e487b7160e01b5f52604160045260245ffd5b3461017657604036600319011261017657610835611987565b61083d61199d565b906040519061084b82611a07565b5f82525f6040602093828582015201526001600160401b0380911692835f526001835281600260405f20015460a01c16156104a4576060935f526002835260405f209060018060a01b03165f52825260405f2091604051926108ac84611a07565b54916108bb60ff841685611af3565b818401818460081c16815260ff604086019460481c16151584526108e3604051809651611ae6565b5116908301525115156040820152f35b34610176576020366003190112610176576004356001600160401b038082116101765736602383011215610176578082600401351161017657366024836004013584010111610176578160040135158015610c7a575b610c68575f54908080831614610c545767ffffffffffffffff198281168383166001018316175f556040519061097e82611a22565b828416825261099536866004013560248801611a5e565b602083019081523360408401528342166060840152600160808401528385165f52600160205260405f2091848451169083541617825551805190848211610808576109e36001840154611aff565b601f8111610c10575b50602090601f8311600114610ba35760029392915f9183610b98575b50508160011b915f199060031b1c19161760018201555b019060018060a01b03604082015116908254916001600160401b0360a01b606083015160a01b1691608060ff60e01b910151151560e01b169262ffffff60e81b16171717905560405192610a7284611a07565b60038452602084019382421685526040810190600182528385165f52600260205260405f20335f5260205260405f2090519160048310156103e65760209661038c610abd9484611b37565b335f5260038452610ad382841660405f20611b4f565b8183165f5260048452610ae93360405f20611bac565b60405190604082528060040135604083015280600401356024820160608401375f6060826004013584010152824216858301527fb488534ab2b78284ea76bb57b2b4e71f6fea843f44e5aa0cd697f97e75354365339260608186881694601f8019916004013501168101030190a3604051600381528142168482015233907f9ce35968a415eccd3dce61f2826f8b54b3340420f7d46652c6e4097919b5abe1604084861692a360405191168152f35b015190508880610a08565b90601f19831691600185015f5260205f20925f5b818110610bf85750916001939185600297969410610be0575b505050811b016001820155610a1f565b01515f1960f88460031b161c19169055888080610bd0565b92936020600181928786015181550195019301610bb7565b600184015f5260205f20601f840160051c810160208510610c4d575b601f830160051c82018110610c425750506109ec565b5f8155600101610c2c565b5080610c2c565b634e487b7160e01b5f52601160045260245ffd5b604051634d49c2e560e01b8152600490fd5b506064826004013511610949565b34610176575f366003190112610176575f80516020611d6d833981519152546040516001600160a01b039091168152602090f35b3461017657604036600319011261017657610cd5611987565b610cdd61199d565b6001600160401b039182811690815f52602092600184526002858160405f20015460a01c16156104a457835f526001855260ff8160405f20015460e01c1615610492575f84815260018652604090208101546001600160a01b03959086163303610e7657845f52600181528160405f20019687549787891697851680996bffffffffffffffffffffffff60a01b1617905582825260405f20875f52825260405f2060ff19908482825416179055865f5283835260405f20895f52835260405f2090815460ff8160481c16158015610e62575b15610e515750505060405194610dc486611a07565b600386528286019142168252604086019360018552875f52835260405f20895f52835260405f20955160048110156103e65786600495610e1e9461038c610e0e94610e2b9b611b37565b885f526003835260405f20611b4f565b845f525260405f20611bac565b7f5bef236c3d8ca4802fed22bae661560c9d4f6e9c79b438d14c05b1fe9190b6a75f80a4005b16600317905550610e2b9350505050565b5060ff811660048110156103e65715610daf565b6040516343e605a960e01b8152600490fd5b34610176576040366003190112610176576020610ea3611987565b6001600160401b03610eb361199d565b91165f526001825260018060a01b0380600260405f20015416906040519216148152f35b34610176575f366003190112610176577ff0c57e16840df040f15088dc2f81fe391c3923bec73e23a9662efc9c229c6a00805460ff8160401c1615906001600160401b03811680159081610fff575b6001149081610ff5575b159081610fec575b50610fda5767ffffffffffffffff19808216600190811785559183610fbb575b50610f61611c9a565b610f69611c9a565b610f7233611bf1565b5f5416175f55610f7e57005b68ff00000000000000001981541690557fc7f505b2f371ae2175ee4913f4499e1f2633a7b5936321eed1cdaeb6115181d2602060405160018152a1005b68ffffffffffffffffff19166801000000000000000117845584610f58565b60405163f92ee8a960e01b8152600490fd5b90501584610f38565b303b159150610f30565b839150610f26565b346101765761101536611aa3565b6001600160401b0392919280921691825f5260209060018252600260405f20015460a01c16156104a457825f526001815260ff600260405f20015460e01c1615610492575f8381526001825260409020600201546001600160a01b039081163303610e765760048310156103e65782158015611130575b61043057835f526002825260405f20941693845f52815260405f20805460ff8160481c1615801561111c575b61110a57836040936110ff611107936110f47f139524fd1227fd715fa75070e10cf5aaee6b712dfe890dea9b8745b9ecd7653f9860ff97611b37565b865195869116611ae6565b830190611ae6565ba3005b60405163ae8d1f6b60e01b8152600490fd5b5060ff811660048110156103e657156110b8565b506003831461108c565b34610176575f36600319011261017657611152611c62565b5f80516020611d6d83398151915280546001600160a01b031981169091555f906001600160a01b03167f8be0079c531659141344cd1fd0a4f28419497f9722a3daafe3b4186f6b6457e08280a3005b34610176576020366003190112610176576001600160401b03806111c3611987565b1690815f52600160205280600260405f20015460a01c16156104a4575f828152600160205260409020600201546001600160a01b03163303610e765760207f2869cd9a16f0f68958db63c62cf40585590ff6d838635c4f45eef7f8bccad71791835f5260018252600260405f200160ff60e01b1981541690556040519042168152a2005b3461017657604036600319011261017657611260611987565b61126861199d565b906001600160401b0380911690815f526020926001845281600260405f20015460a01c16156104a457825f526002845260405f20335f52845260405f2060ff604051916112b483611a07565b546112c182821684611af3565b848160081c168784015260481c161590811591826040830152916113a8575b5061044c576001600160a01b03169233841461139757825f526002815260405f20845f52815260405f209182549260ff8460481c16158015611383575b61110a5760ff841660048110156103e657600314611371577fdc95aca9c67a711e3fd665792c20e9a5cfcd1fdd9ca5fa790438fb9ba69349ac9369ff0000000000000000ff191690556040519042168152a3005b6040516316fb4edd60e01b8152600490fd5b5060ff841660048110156103e6571561131d565b6040516297772760e71b8152600490fd5b8091505160048110156103e6576002141590816113c7575b50856112e0565b90505160048110156103e65760031415856113c0565b34610176575f366003190112610176577f00000000000000000000000000000000000000000000000000000000000000006001600160a01b031630036114475760206040517f360894a13ba1a3210667c828492db98dca3e2076cc3735a920a3ca505d382bbc8152f35b60405163703e46dd60e11b8152600490fd5b60403660031901126101765761146d6119b3565b6024356001600160401b03811161017657366023820112156101765761149d903690602481600401359101611a5e565b6001600160a01b037f00000000000000000000000000000000000000000000000000000000000000008116308114908115611616575b50611447576114e0611c62565b8216916040516352d1902d60e01b8152602081600481875afa5f91816115e2575b5061151f57604051634c9c8ce360e01b815260048101859052602490fd5b7f360894a13ba1a3210667c828492db98dca3e2076cc3735a920a3ca505d382bbc908181036115ca5750813b156115b15780546001600160a01b03191684179055604051927fbc7cd75a20ee27fd9adebab32041f755214dbc6bffa90cc0225b39da2e5c2d3b5f80a2815115611599576101a39250611cdb565b5050346115a257005b63b398979f60e01b8152600490fd5b604051634c9c8ce360e01b815260048101859052602490fd5b60249060405190632a87526960e21b82526004820152fd5b9091506020813d60201161160e575b816115fe60209383611a3d565b8101031261017657519085611501565b3d91506115f1565b9050817f360894a13ba1a3210667c828492db98dca3e2076cc3735a920a3ca505d382bbc54161415846114d3565b34610176576020806003193601126101765761165e611987565b905f608060405161166e81611a22565b82815260608482015282604082015282606082015201526001600160401b03809216805f526001906001835283600260405f20015460a01c16156104a4575f526001825260405f209183604051936116c585611a22565b818154168552600181016040519485915f918154916116e383611aff565b92838652886001821691825f146117d1575050600114611785575b50505060029291611710910386611a3d565b83860194855201549160018060a01b0361176a604087019582861687526060880193858760a01c16855260ff60808a019760e01c1615158752604051998a99828b525116908901525160a0604089015260c08801906119c9565b94511660608601525116608084015251151560a08301520390f35b87929196959493505f52815f20955f965b8288106117b557505050906117109160029495820101918193946116fe565b80548a890185015292909601958a955088935087928101611796565b60ff19168782015293151560051b860190930193508492506117109150600290506116fe565b34610176575f3660031901126101765760206001600160401b035f5416604051908152f35b34610176576020366003190112610176576001600160401b038061183e611987565b1690815f52600160205280600260405f20015460a01c16156104a4575f828152600160205260409020600201546001600160a01b03163303610e765760207f95032f06fa0ba4c3eb6482eadfb9309e93dd2e638c067e5a6d1ed82c8be8e4c591835f5260018252600260405f2001600160e01b60ff60e01b198254161790556040519042168152a2005b346101765760403660031901126101765760ff6118e3611987565b6118eb61199d565b6001600160401b038092165f52600260205260405f209060018060a01b03165f5260205260405f2061191c84611a07565b549061192a83831685611af3565b8160081c16602084015260481c16151580604083015280611952576020906040519015158152f35b50805160048110156103e6576002148015611971575b6020915061060e565b505160048110156103e657600360209114611968565b600435906001600160401b038216820361017657565b602435906001600160a01b038216820361017657565b600435906001600160a01b038216820361017657565b91908251928382525f5b8481106119f3575050825f602080949584010152601f8019910116010190565b6020818301810151848301820152016119d3565b606081019081106001600160401b0382111761080857604052565b60a081019081106001600160401b0382111761080857604052565b90601f801991011681019081106001600160401b0382111761080857604052565b9291926001600160401b0382116108085760405191611a87601f8201601f191660200184611a3d565b829481845281830111610176578281602093845f960137010152565b6060906003190112610176576004356001600160401b038116810361017657906024356001600160a01b0381168103610176579060443560048110156101765790565b9060048210156103e65752565b60048210156103e65752565b90600182811c92168015611b2d575b6020831014611b1957565b634e487b7160e01b5f52602260045260245ffd5b91607f1691611b0e565b9060048110156103e65760ff80198354169116179055565b90815491600160401b8310156108085760018301808255831015611b98575f5260205f208260021c01916001600160401b038060c085549360061b169316831b921b1916179055565b634e487b7160e01b5f52603260045260245ffd5b805490600160401b8210156108085760018201808255821015611b98575f5260205f20019060018060a01b03166bffffffffffffffffffffffff60a01b825416179055565b6001600160a01b03908116908115611c4a575f80516020611d6d83398151915280546001600160a01b031981168417909155167f8be0079c531659141344cd1fd0a4f28419497f9722a3daafe3b4186f6b6457e05f80a3565b604051631e4fbdf760e01b81525f6004820152602490fd5b5f80516020611d6d833981519152546001600160a01b03163303611c8257565b60405163118cdaa760e01b8152336004820152602490fd5b60ff7ff0c57e16840df040f15088dc2f81fe391c3923bec73e23a9662efc9c229c6a005460401c1615611cc957565b604051631afcd79f60e31b8152600490fd5b905f8091602081519101845af48080611d59575b15611d0f5750506040513d81523d5f602083013e60203d82010160405290565b15611d3657604051639996b31560e01b81526001600160a01b039091166004820152602490fd5b3d15611d47576040513d5f823e3d90fd5b60405163d6bda27560e01b8152600490fd5b503d151580611cef5750813b1515611cef56fe9016d09d72d40fdae2fd8ceac6b6234c7706214fd39c1cd1e609a0528c199300a2646970667358221220ec427300f8db3b330fc821aae7950af93d7201a3b1de082d1ab41a150f78446f64736f6c63430008180033","linkReferences":{}},"methodIdentifiers":{"UPGRADE_INTERFACE_VERSION()":"ad3cb1cc","addMember(uint64,address,uint8)":"e1f35fe4","changeMemberRole(uint64,address,uint8)":"746e4698","createTeam(string)":"972fa53f","deactivateTeam(uint64)":"6eca384a","getTeam(uint64)":"3113ed8f","getTeamIdCounter()":"24e926e3","getTeamMember(uint64,address)":"a2d611f6","getTeamMembers(uint64)":"c94dfe5c","getTeamRole(uint64,address)":"f8bf4c46","getUserTeams(address)":"b52cfad8","initialize()":"8129fc1c","isTeamAdmin(uint64,address)":"1aa172c6","isTeamMember(uint64,address)":"b6a7a67b","isTeamOwner(uint64,address)":"835b22ec","owner()":"8da5cb5b","proxiableUUID()":"52d1902d","reactivateTeam(uint64)":"20f4967e","removeMember(uint64,address)":"6aa92c27","renounceOwnership()":"715018a6","transferOwnership(address)":"f2fde38b","transferTeamOwnership(uint64,address)":"883baf3f","upgradeToAndCall(address,bytes)":"4f1ef286"},"id":39}