{"abi":[{"type":"constructor","inputs":[],"stateMutability":"nonpayable"},{"type":"function","name":"UPGRADE_INTERFACE_VERSION","inputs":[],"outputs":[{"name":"","type":"string","internalType":"string"}],"stateMutability":"view"},{"type":"function","name":"childTopics","inputs":[{"name":"","type":"uint32","internalType":"uint32"},{"name":"","type":"uint256","internalType":"uint256"}],"outputs":[{"name":"","type":"uint32","internalType":"uint32"}],"stateMutability":"view"},{"type":"function","name":"createTopic","inputs":[{"name":"name","type":"string","internalType":"string"},{"name":"parentId","type":"uint32","internalType":"uint32"}],"outputs":[{"name":"","type":"uint32","internalType":"uint32"}],"stateMutability":"nonpayable"},{"type":"function","name":"getChildTopics","inputs":[{"name":"parentId","type":"uint32","internalType":"uint32"}],"outputs":[{"name":"","type":"uint32[]","internalType":"uint32[]"}],"stateMutability":"view"},{"type":"function","name":"getRootTopics","inputs":[],"outputs":[{"name":"","type":"uint32[]","internalType":"uint32[]"}],"stateMutability":"view"},{"type":"function","name":"getTopic","inputs":[{"name":"topicId","type":"uint32","internalType":"uint32"}],"outputs":[{"name":"","type":"tuple","internalType":"struct TopicRegistry.Topic","components":[{"name":"id","type":"uint32","internalType":"uint32"},{"name":"name","type":"string","internalType":"string"},{"name":"parentId","type":"uint32","internalType":"uint32"},{"name":"isActive","type":"bool","internalType":"bool"},{"name":"createdAt","type":"uint64","internalType":"uint64"}]}],"stateMutability":"view"},{"type":"function","name":"getTopicIdByName","inputs":[{"name":"name","type":"string","internalType":"string"}],"outputs":[{"name":"","type":"uint32","internalType":"uint32"}],"stateMutability":"view"},{"type":"function","name":"initialize","inputs":[{"name":"initialOwner","type":"address","internalType":"address"}],"outputs":[],"stateMutability":"nonpayable"},{"type":"function","name":"isDescendant","inputs":[{"name":"childId","type":"uint32","internalType":"uint32"},{"name":"ancestorId","type":"uint32","internalType":"uint32"}],"outputs":[{"name":"","type":"bool","internalType":"bool"}],"stateMutability":"view"},{"type":"function","name":"owner","inputs":[],"outputs":[{"name":"","type":"address","internalType":"address"}],"stateMutability":"view"},{"type":"function","name":"proxiableUUID","inputs":[],"outputs":[{"name":"","type":"bytes32","internalType":"bytes32"}],"stateMutability":"view"},{"type":"function","name":"renounceOwnership","inputs":[],"outputs":[],"stateMutability":"nonpayable"},{"type":"function","name":"setTopicActive","inputs":[{"name":"topicId","type":"uint32","internalType":"uint32"},{"name":"isActive","type":"bool","internalType":"bool"}],"outputs":[],"stateMutability":"nonpayable"},{"type":"function","name":"topicCount","inputs":[],"outputs":[{"name":"","type":"uint32","internalType":"uint32"}],"stateMutability":"view"},{"type":"function","name":"topicNameToId","inputs":[{"name":"","type":"string","internalType":"string"}],"outputs":[{"name":"","type":"uint32","internalType":"uint32"}],"stateMutability":"view"},{"type":"function","name":"topics","inputs":[{"name":"","type":"uint32","internalType":"uint32"}],"outputs":[{"name":"id","type":"uint32","internalType":"uint32"},{"name":"name","type":"string","internalType":"string"},{"name":"parentId","type":"uint32","internalType":"uint32"},{"name":"isActive","type":"bool","internalType":"bool"},{"name":"createdAt","type":"uint64","internalType":"uint64"}],"stateMutability":"view"},{"type":"function","name":"transferOwnership","inputs":[{"name":"newOwner","type":"address","internalType":"address"}],"outputs":[],"stateMutability":"nonpayable"},{"type":"function","name":"upgradeToAndCall","inputs":[{"name":"newImplementation","type":"address","internalType":"address"},{"name":"data","type":"bytes","internalType":"bytes"}],"outputs":[],"stateMutability":"payable"},{"type":"event","name":"Initialized","inputs":[{"name":"version","type":"uint64","indexed":false,"internalType":"uint64"}],"anonymous":false},{"type":"event","name":"OwnershipTransferred","inputs":[{"name":"previousOwner","type":"address","indexed":true,"internalType":"address"},{"name":"newOwner","type":"address","indexed":true,"internalType":"address"}],"anonymous":false},{"type":"event","name":"TopicCreated","inputs":[{"name":"topicId","type":"uint32","indexed":true,"internalType":"uint32"},{"name":"name","type":"string","indexed":false,"internalType":"string"},{"name":"parentId","type":"uint32","indexed":true,"internalType":"uint32"}],"anonymous":false},{"type":"event","name":"TopicUpdated","inputs":[{"name":"topicId","type":"uint32","indexed":true,"internalType":"uint32"},{"name":"name","type":"string","indexed":false,"internalType":"string"},{"name":"isActive","type":"bool","indexed":false,"internalType":"bool"}],"anonymous":false},{"type":"event","name":"Upgraded","inputs":[{"name":"implementation","type":"address","indexed":true,"internalType":"address"}],"anonymous":false},{"type":"error","name":"AddressEmptyCode","inputs":[{"name":"target","type":"address","internalType":"address"}]},{"type":"error","name":"ERC1967InvalidImplementation","inputs":[{"name":"implementation","type":"address","internalType":"address"}]},{"type":"error","name":"ERC1967NonPayable","inputs":[]},{"type":"error","name":"FailedCall","inputs":[]},{"type":"error","name":"InvalidInitialization","inputs":[]},{"type":"error","name":"InvalidParentTopic","inputs":[]},{"type":"error","name":"NotInitializing","inputs":[]},{"type":"error","name":"OwnableInvalidOwner","inputs":[{"name":"owner","type":"address","internalType":"address"}]},{"type":"error","name":"OwnableUnauthorizedAccount","inputs":[{"name":"account","type":"address","internalType":"address"}]},{"type":"error","name":"TopicAlreadyExists","inputs":[]},{"type":"error","name":"TopicNameEmpty","inputs":[]},{"type":"error","name":"TopicNotFound","inputs":[]},{"type":"error","name":"UUPSUnauthorizedCallContext","inputs":[]},{"type":"error","name":"UUPSUnsupportedProxiableUUID","inputs":[{"name":"slot","type":"bytes32","internalType":"bytes32"}]}],"bytecode":{"object":"0x60a080604052346100cc57306080527ff0c57e16840df040f15088dc2f81fe391c3923bec73e23a9662efc9c229c6a009081549060ff8260401c166100bd57506001600160401b036002600160401b031982821601610078575b6040516116bc90816100d18239608051818181610da90152610e620152f35b6001600160401b031990911681179091556040519081527fc7f505b2f371ae2175ee4913f4499e1f2633a7b5936321eed1cdaeb6115181d290602090a15f8080610059565b63f92ee8a960e01b8152600490fd5b5f80fdfe6080806040526004361015610012575f80fd5b60e05f35811c918263327e7faa14610fff575081634f1ef28614610e1357816352d1902d14610d975781635b5a130a14610d0e578163634f196c1461092c578163715018a6146108c5578163722e8f40146108515781638da5cb5b1461081d57816395e08da3146107c5578163a5e3a37f1461078f578163ad3cb1cc14610723578163c4d66de8146105ea578163e4e133f01461042c57508063f2fde38b14610401578063f315f553146103de578063f94f9b8c14610389578063fa7bc31e1461028c5763fcc1899f146100e4575f80fd5b34610288576040366003190112610288576100fd6112bd565b60243590811515918281036102885761011461155c565b63ffffffff80921692835f526020925f60205260405f2054161561027657835f525f60205261016360405f2092600284019064ff00000000825491151560201b169064ff000000001916179055565b600180920160405193604085525f93825461017d816112e3565b938460408901526060916001811690815f1461022a57506001146101cc575b887f7bb4c2a952d47662f26bb4c0666c24e24c6f334f65130e9a0d88e8356a80018e89808a8a60208301520390a2005b5f90815260208120959650945b8486106102175750505050908301606001919050807f7bb4c2a952d47662f26bb4c0666c24e24c6f334f65130e9a0d88e8356a80018e845f8061019c565b80548887018301529483019482016101d9565b92505050869550606092507f7bb4c2a952d47662f26bb4c0666c24e24c6f334f65130e9a0d88e8356a80018e969493915060ff191682850152151560051b830101929381925f8061019c565b6040516304a29d5560e01b8152600490fd5b5f80fd5b3461028857602080600319360112610288576102a66112bd565b905f60806040516102b681611239565b828152606084820152826040820152826060820152015263ffffffff809216805f525f82528260405f20541615610276575f525f815260405f20604051916102fd83611239565b83825416835260026103116001840161131b565b928285019384520154604084019285821684528561036e606087019260ff85871c161515845267ffffffffffffffff958660808a019660281c168652604051998a99828b525116908901525160a0604089015260c08801906113de565b94511660608601525115156080850152511660a08301520390f35b34610288576040366003190112610288576103a26112bd565b6024359063ffffffff8091165f52600160205260405f208054831015610288576020926103ce91611431565b9190546040519260031b1c168152f35b34610288575f36600319011261028857602063ffffffff60035416604051908152f35b346102885760203660031901126102885761042a61041d611223565b61042561155c565b6114eb565b005b3461028857602090816003193601126102885763ffffffff918261044e6112bd565b165f5260019182825260405f209060405180948484549283815201935f52845f20905f915b83600784011061058a57926104e798928795926104db988a98965495848410610578575b848410610564575b84841061054e575b848410610538575b848410610522575b84841061050c575b8484106104f7575b505050106104eb575b505090500382611255565b604051918291826111e2565b0390f35b1c8152018086806104d0565b60c087901c16875290950194018a86816104c7565b9296818391858960a01c168152019701926104bf565b9296818391858960801c168152019701926104b7565b9296818391858960601c168152019701926104af565b9296818391858960401c168152019701926104a7565b86821c81168852968101969282019261049f565b86811688529681019692820192610497565b948161010060089288548c811682528c818c1c168b8301528c8160401c16604083015260608d82821c169083015260808d82821c169083015260a08d82821c169083015260c08d82821c1690830152881c88820152019601920191610473565b3461028857602036600319011261028857610603611223565b7ff0c57e16840df040f15088dc2f81fe391c3923bec73e23a9662efc9c229c6a0090815460ff8160401c16159167ffffffffffffffff82168015908161071b575b6001149081610711575b159081610708575b506106f65767ffffffffffffffff198216600117845561068791836106d7575b5061067f611594565b610425611594565b63ffffffff196003541660035561069a57005b68ff00000000000000001981541690557fc7f505b2f371ae2175ee4913f4499e1f2633a7b5936321eed1cdaeb6115181d2602060405160018152a1005b68ffffffffffffffffff19166801000000000000000117845584610676565b60405163f92ee8a960e01b8152600490fd5b90501585610656565b303b15915061064e565b849150610644565b34610288575f36600319011261028857604051604081019080821067ffffffffffffffff83111761077b576104e79160405260058152640352e302e360dc1b60208201526040519182916020835260208301906113de565b634e487b7160e01b5f52604160045260245ffd5b346102885760403660031901126102885760206107bb6107ad6112bd565b6107b56112d0565b90611466565b6040519015158152f35b346102885760203660031901126102885760043567ffffffffffffffff81116102885763ffffffff60206107fe81933690600401611403565b9190826040519384928337810160028152030190205416604051908152f35b34610288575f366003190112610288575f80516020611667833981519152546040516001600160a01b039091168152602090f35b346102885760203660031901126102885760043567ffffffffffffffff811161028857366023820112156102885763ffffffff6108b1602061089e81943690602481600401359101611277565b81604051938285809451938492016113bd565b810160028152030190205416604051908152f35b34610288575f366003190112610288576108dd61155c565b5f8051602061166783398151915280546001600160a01b031981169091555f906001600160a01b03167f8be0079c531659141344cd1fd0a4f28419497f9722a3daafe3b4186f6b6457e08280a3005b346102885760403660031901126102885767ffffffffffffffff6004358181116102885761095e903690600401611403565b91906109686112d0565b9261097161155c565b8015610cfc5763ffffffff6040518284823760208184810160028152030190205416610cea5763ffffffff8416151580610cc8575b610cb6576003549263ffffffff84169363ffffffff8514610ca25763ffffffff19166001850163ffffffff1617600355604051906109e382611239565b63ffffffff600186011682526109fa368486611277565b906020830191825263ffffffff8716604084015260016060840152804216608084015263ffffffff60018701165f525f60205260405f209163ffffffff84511663ffffffff1984541617835551805191821161077b57610a5d60018401546112e3565b601f8111610c5e575b50602090601f8311600114610bef579180608094926002945f92610be4575b50508160011b915f199060031b1c19161760018201555b604084015191018054606085015164ff0000000090151560201b1663ffffffff90931664ffffffffff19909116179190911781559101516cffffffffffffffff000000000082549160281b16906cffffffffffffffff0000000000191617905560405181838237602081838101600281520301902063ffffffff600185011663ffffffff1982541617905563ffffffff84165f52600160205260405f2080546801000000000000000081101561077b57602095610b85827fd42a180e3b80cf10c92c53da4676494a1346f0bec46440e1fde9973988e2c0a494600163ffffffff95018155611431565b81549060031b90848060018b0116831b921b19161790558360405195888752818988015260408701375f60408587010152169260408163ffffffff600188011694601f80199101168101030190a363ffffffff60016040519201168152f35b015190508a80610a85565b90601f19831691600185015f5260205f20925f5b818110610c4657509260019285926002966080989610610c2e575b505050811b016001820155610a9c565b01515f1960f88460031b161c191690558a8080610c1e565b92936020600181928786015181550195019301610c03565b600184015f5260205f20601f840160051c810160208510610c9b575b601f830160051c82018110610c90575050610a66565b5f8155600101610c7a565b5080610c7a565b634e487b7160e01b5f52601160045260245ffd5b60405163b389d35560e01b8152600490fd5b5063ffffffff84165f525f60205260ff600260405f20015460201c16156109a6565b6040516394b0e08160e01b8152600490fd5b60405163228f1b7160e11b8152600490fd5b346102885760203660031901126102885763ffffffff80610d2d6112bd565b165f525f60205260405f2090808254169067ffffffffffffffff6002610d556001860161131b565b940154610d74604051958695865260a0602087015260a08601906113de565b928116604085015260ff8160201c161515606085015260281c1660808301520390f35b34610288575f366003190112610288577f00000000000000000000000000000000000000000000000000000000000000006001600160a01b03163003610e015760206040517f360894a13ba1a3210667c828492db98dca3e2076cc3735a920a3ca505d382bbc8152f35b60405163703e46dd60e11b8152600490fd5b604036600319011261028857610e27611223565b60243567ffffffffffffffff8111610288573660238201121561028857610e58903690602481600401359101611277565b6001600160a01b037f00000000000000000000000000000000000000000000000000000000000000008116308114908115610fd1575b50610e0157610e9b61155c565b8216916040516352d1902d60e01b8152602081600481875afa5f9181610f9d575b50610eda57604051634c9c8ce360e01b815260048101859052602490fd5b7f360894a13ba1a3210667c828492db98dca3e2076cc3735a920a3ca505d382bbc90818103610f855750813b15610f6c5780546001600160a01b03191684179055604051927fbc7cd75a20ee27fd9adebab32041f755214dbc6bffa90cc0225b39da2e5c2d3b5f80a2815115610f545761042a92506115d5565b505034610f5d57005b63b398979f60e01b8152600490fd5b604051634c9c8ce360e01b815260048101859052602490fd5b60249060405190632a87526960e21b82526004820152fd5b9091506020813d602011610fc9575b81610fb960209383611255565b8101031261028857519085610ebc565b3d9150610fac565b9050817f360894a13ba1a3210667c828492db98dca3e2076cc3735a920a3ca505d382bbc5416141584610e8e565b34610288575f36600319011261028857600160208181527fa6eef7e35abe7026729641147f7915573c7e97b47efa546f5f6e3230263bcb4980548085525f9182529194848601939290917f0eb5be412f275a18f6e4d622aee4ff40b21467c926224771b782d4c095d1444b5b82600783011061117b57926104db95928795926104e79995549386838310611165575b83831061114d575b838310611134575b83831061111b575b838310611102575b8383106110e9575b8383106110d0575b5050106104eb57505090500382611255565b90919563ffffffff8660c01c1681520194018a866110be565b81929663ffffffff8760a01c16815201950190866110b6565b81929663ffffffff8760801c16815201950190866110ae565b81929663ffffffff8760601c16815201950190866110a6565b81929663ffffffff8760401c168152019501908661109e565b81929663ffffffff87831c1681520195019086611096565b81929663ffffffff87168152019501908661108e565b94846101006008928854808c63ffffffff91829182821686521c168d840152808260401c16604084015260608183821c169084015260808183821c169084015260a08183821c169084015260c09082821c1690830152871c8782015201960191019061106b565b60209060206040818301928281528551809452019301915f5b828110611209575050505090565b835163ffffffff16855293810193928101926001016111fb565b600435906001600160a01b038216820361028857565b60a0810190811067ffffffffffffffff82111761077b57604052565b90601f8019910116810190811067ffffffffffffffff82111761077b57604052565b92919267ffffffffffffffff821161077b57604051916112a1601f8201601f191660200184611255565b829481845281830111610288578281602093845f960137010152565b6004359063ffffffff8216820361028857565b6024359063ffffffff8216820361028857565b90600182811c92168015611311575b60208310146112fd57565b634e487b7160e01b5f52602260045260245ffd5b91607f16916112f2565b9060405191825f825461132d816112e3565b908184526020946001916001811690815f1461139b575060011461135d575b50505061135b92500383611255565b565b5f90815285812095935091905b81831061138357505061135b93508201015f808061134c565b8554888401850152948501948794509183019161136a565b9250505061135b94925060ff191682840152151560051b8201015f808061134c565b5f5b8381106113ce5750505f910152565b81810151838201526020016113bf565b906020916113f7815180928185528580860191016113bd565b601f01601f1916010190565b9181601f840112156102885782359167ffffffffffffffff8311610288576020838186019501011161028857565b9190918054831015611452575f52601c60205f208360031c019260021b1690565b634e487b7160e01b5f52603260045260245ffd5b9063ffffffff918281161580156114e1575b6114da5792825f945b16801515806114d0575b156114c75783831681146114bd575f525f60205282600260405f20015416935f198114610ca257600184910194611481565b5092505050600190565b50925050505f90565b506064851061148b565b5050505f90565b5082821615611478565b6001600160a01b03908116908115611544575f8051602061166783398151915280546001600160a01b031981168417909155167f8be0079c531659141344cd1fd0a4f28419497f9722a3daafe3b4186f6b6457e05f80a3565b604051631e4fbdf760e01b81525f6004820152602490fd5b5f80516020611667833981519152546001600160a01b0316330361157c57565b60405163118cdaa760e01b8152336004820152602490fd5b60ff7ff0c57e16840df040f15088dc2f81fe391c3923bec73e23a9662efc9c229c6a005460401c16156115c357565b604051631afcd79f60e31b8152600490fd5b905f8091602081519101845af48080611653575b156116095750506040513d81523d5f602083013e60203d82010160405290565b1561163057604051639996b31560e01b81526001600160a01b039091166004820152602490fd5b3d15611641576040513d5f823e3d90fd5b60405163d6bda27560e01b8152600490fd5b503d1515806115e95750813b15156115e956fe9016d09d72d40fdae2fd8ceac6b6234c7706214fd39c1cd1e609a0528c199300a2646970667358221220494e277fadd67ede8a30074bc9ca1cd8647ef5404806c3cb5e91968b82edce6564736f6c63430008180033","linkReferences":{}},"methodIdentifiers":{"UPGRADE_INTERFACE_VERSION()":"ad3cb1cc","childTopics(uint32,uint256)":"f94f9b8c","createTopic(string,uint32)":"634f196c","getChildTopics(uint32)":"e4e133f0","getRootTopics()":"327e7faa","getTopic(uint32)":"fa7bc31e","getTopicIdByName(string)":"95e08da3","initialize(address)":"c4d66de8","isDescendant(uint32,uint32)":"a5e3a37f","owner()":"8da5cb5b","proxiableUUID()":"52d1902d","renounceOwnership()":"715018a6","setTopicActive(uint32,bool)":"fcc1899f","topicCount()":"f315f553","topicNameToId(string)":"722e8f40","topics(uint32)":"5b5a130a","transferOwnership(address)":"f2fde38b","upgradeToAndCall(address,bytes)":"4f1ef286"},"id":48}