{"abi":[{"type":"constructor","inputs":[],"stateMutability":"nonpayable"},{"type":"function","name":"UPGRADE_INTERFACE_VERSION","inputs":[],"outputs":[{"name":"","type":"string","internalType":"string"}],"stateMutability":"view"},{"type":"function","name":"childTopics","inputs":[{"name":"","type":"uint32","internalType":"uint32"},{"name":"","type":"uint256","internalType":"uint256"}],"outputs":[{"name":"","type":"uint32","internalType":"uint32"}],"stateMutability":"view"},{"type":"function","name":"createTeamTopic","inputs":[{"name":"teamId","type":"uint64","internalType":"uint64"},{"name":"name","type":"string","internalType":"string"},{"name":"parentId","type":"uint32","internalType":"uint32"}],"outputs":[{"name":"","type":"uint32","internalType":"uint32"}],"stateMutability":"nonpayable"},{"type":"function","name":"createTopic","inputs":[{"name":"name","type":"string","internalType":"string"},{"name":"parentId","type":"uint32","internalType":"uint32"}],"outputs":[{"name":"","type":"uint32","internalType":"uint32"}],"stateMutability":"nonpayable"},{"type":"function","name":"getChildTopics","inputs":[{"name":"parentId","type":"uint32","internalType":"uint32"}],"outputs":[{"name":"","type":"uint32[]","internalType":"uint32[]"}],"stateMutability":"view"},{"type":"function","name":"getRootTopics","inputs":[],"outputs":[{"name":"","type":"uint32[]","internalType":"uint32[]"}],"stateMutability":"view"},{"type":"function","name":"getTeamChildTopics","inputs":[{"name":"teamId","type":"uint64","internalType":"uint64"},{"name":"parentId","type":"uint32","internalType":"uint32"}],"outputs":[{"name":"childIds","type":"uint32[]","internalType":"uint32[]"}],"stateMutability":"view"},{"type":"function","name":"getTeamRegistry","inputs":[],"outputs":[{"name":"teamRegistry","type":"address","internalType":"address"}],"stateMutability":"view"},{"type":"function","name":"getTeamTopic","inputs":[{"name":"teamId","type":"uint64","internalType":"uint64"},{"name":"topicId","type":"uint32","internalType":"uint32"}],"outputs":[{"name":"topic","type":"tuple","internalType":"struct TopicRegistry.Topic","components":[{"name":"id","type":"uint32","internalType":"uint32"},{"name":"name","type":"string","internalType":"string"},{"name":"parentId","type":"uint32","internalType":"uint32"},{"name":"isActive","type":"bool","internalType":"bool"},{"name":"createdAt","type":"uint64","internalType":"uint64"}]}],"stateMutability":"view"},{"type":"function","name":"getTeamTopicSettings","inputs":[{"name":"teamId","type":"uint64","internalType":"uint64"},{"name":"topicId","type":"uint32","internalType":"uint32"}],"outputs":[{"name":"settings","type":"tuple","internalType":"struct TopicRegistry.TeamTopicSettings","components":[{"name":"isEnabled","type":"bool","internalType":"bool"},{"name":"isConfigured","type":"bool","internalType":"bool"}]}],"stateMutability":"view"},{"type":"function","name":"getTopic","inputs":[{"name":"topicId","type":"uint32","internalType":"uint32"}],"outputs":[{"name":"","type":"tuple","internalType":"struct TopicRegistry.Topic","components":[{"name":"id","type":"uint32","internalType":"uint32"},{"name":"name","type":"string","internalType":"string"},{"name":"parentId","type":"uint32","internalType":"uint32"},{"name":"isActive","type":"bool","internalType":"bool"},{"name":"createdAt","type":"uint64","internalType":"uint64"}]}],"stateMutability":"view"},{"type":"function","name":"getTopicIdByName","inputs":[{"name":"name","type":"string","internalType":"string"}],"outputs":[{"name":"","type":"uint32","internalType":"uint32"}],"stateMutability":"view"},{"type":"function","name":"getTopicInTeamContext","inputs":[{"name":"teamId","type":"uint64","internalType":"uint64"},{"name":"topicId","type":"uint32","internalType":"uint32"}],"outputs":[{"name":"topic","type":"tuple","internalType":"struct TopicRegistry.Topic","components":[{"name":"id","type":"uint32","internalType":"uint32"},{"name":"name","type":"string","internalType":"string"},{"name":"parentId","type":"uint32","internalType":"uint32"},{"name":"isActive","type":"bool","internalType":"bool"},{"name":"createdAt","type":"uint64","internalType":"uint64"}]}],"stateMutability":"view"},{"type":"function","name":"initialize","inputs":[{"name":"initialOwner","type":"address","internalType":"address"}],"outputs":[],"stateMutability":"nonpayable"},{"type":"function","name":"isDescendant","inputs":[{"name":"childId","type":"uint32","internalType":"uint32"},{"name":"ancestorId","type":"uint32","internalType":"uint32"}],"outputs":[{"name":"","type":"bool","internalType":"bool"}],"stateMutability":"view"},{"type":"function","name":"isTopicEnabledInTeam","inputs":[{"name":"teamId","type":"uint64","internalType":"uint64"},{"name":"topicId","type":"uint32","internalType":"uint32"}],"outputs":[{"name":"isEnabled","type":"bool","internalType":"bool"}],"stateMutability":"view"},{"type":"function","name":"owner","inputs":[],"outputs":[{"name":"","type":"address","internalType":"address"}],"stateMutability":"view"},{"type":"function","name":"proxiableUUID","inputs":[],"outputs":[{"name":"","type":"bytes32","internalType":"bytes32"}],"stateMutability":"view"},{"type":"function","name":"renounceOwnership","inputs":[],"outputs":[],"stateMutability":"nonpayable"},{"type":"function","name":"setTeamRegistry","inputs":[{"name":"teamRegistry","type":"address","internalType":"address"}],"outputs":[],"stateMutability":"nonpayable"},{"type":"function","name":"setTopicActive","inputs":[{"name":"topicId","type":"uint32","internalType":"uint32"},{"name":"isActive","type":"bool","internalType":"bool"}],"outputs":[],"stateMutability":"nonpayable"},{"type":"function","name":"setTopicEnabledInTeam","inputs":[{"name":"teamId","type":"uint64","internalType":"uint64"},{"name":"topicId","type":"uint32","internalType":"uint32"},{"name":"isEnabled","type":"bool","internalType":"bool"}],"outputs":[],"stateMutability":"nonpayable"},{"type":"function","name":"topicCount","inputs":[],"outputs":[{"name":"","type":"uint32","internalType":"uint32"}],"stateMutability":"view"},{"type":"function","name":"topicNameToId","inputs":[{"name":"","type":"string","internalType":"string"}],"outputs":[{"name":"","type":"uint32","internalType":"uint32"}],"stateMutability":"view"},{"type":"function","name":"topics","inputs":[{"name":"","type":"uint32","internalType":"uint32"}],"outputs":[{"name":"id","type":"uint32","internalType":"uint32"},{"name":"name","type":"string","internalType":"string"},{"name":"parentId","type":"uint32","internalType":"uint32"},{"name":"isActive","type":"bool","internalType":"bool"},{"name":"createdAt","type":"uint64","internalType":"uint64"}],"stateMutability":"view"},{"type":"function","name":"transferOwnership","inputs":[{"name":"newOwner","type":"address","internalType":"address"}],"outputs":[],"stateMutability":"nonpayable"},{"type":"function","name":"upgradeToAndCall","inputs":[{"name":"newImplementation","type":"address","internalType":"address"},{"name":"data","type":"bytes","internalType":"bytes"}],"outputs":[],"stateMutability":"payable"},{"type":"event","name":"Initialized","inputs":[{"name":"version","type":"uint64","indexed":false,"internalType":"uint64"}],"anonymous":false},{"type":"event","name":"OwnershipTransferred","inputs":[{"name":"previousOwner","type":"address","indexed":true,"internalType":"address"},{"name":"newOwner","type":"address","indexed":true,"internalType":"address"}],"anonymous":false},{"type":"event","name":"TeamRegistrySet","inputs":[{"name":"teamRegistry","type":"address","indexed":true,"internalType":"address"}],"anonymous":false},{"type":"event","name":"TeamTopicCreated","inputs":[{"name":"teamId","type":"uint64","indexed":true,"internalType":"uint64"},{"name":"topicId","type":"uint32","indexed":true,"internalType":"uint32"},{"name":"name","type":"string","indexed":false,"internalType":"string"},{"name":"parentId","type":"uint32","indexed":true,"internalType":"uint32"}],"anonymous":false},{"type":"event","name":"TeamTopicUpdated","inputs":[{"name":"teamId","type":"uint64","indexed":true,"internalType":"uint64"},{"name":"topicId","type":"uint32","indexed":true,"internalType":"uint32"},{"name":"isEnabled","type":"bool","indexed":false,"internalType":"bool"}],"anonymous":false},{"type":"event","name":"TopicCreated","inputs":[{"name":"topicId","type":"uint32","indexed":true,"internalType":"uint32"},{"name":"name","type":"string","indexed":false,"internalType":"string"},{"name":"parentId","type":"uint32","indexed":true,"internalType":"uint32"}],"anonymous":false},{"type":"event","name":"TopicUpdated","inputs":[{"name":"topicId","type":"uint32","indexed":true,"internalType":"uint32"},{"name":"name","type":"string","indexed":false,"internalType":"string"},{"name":"isActive","type":"bool","indexed":false,"internalType":"bool"}],"anonymous":false},{"type":"event","name":"Upgraded","inputs":[{"name":"implementation","type":"address","indexed":true,"internalType":"address"}],"anonymous":false},{"type":"error","name":"AddressEmptyCode","inputs":[{"name":"target","type":"address","internalType":"address"}]},{"type":"error","name":"ERC1967InvalidImplementation","inputs":[{"name":"implementation","type":"address","internalType":"address"}]},{"type":"error","name":"ERC1967NonPayable","inputs":[]},{"type":"error","name":"FailedCall","inputs":[]},{"type":"error","name":"GlobalTopicId","inputs":[]},{"type":"error","name":"InvalidInitialization","inputs":[]},{"type":"error","name":"InvalidParentTopic","inputs":[]},{"type":"error","name":"NotInitializing","inputs":[]},{"type":"error","name":"NotTeamAdmin","inputs":[]},{"type":"error","name":"OwnableInvalidOwner","inputs":[{"name":"owner","type":"address","internalType":"address"}]},{"type":"error","name":"OwnableUnauthorizedAccount","inputs":[{"name":"account","type":"address","internalType":"address"}]},{"type":"error","name":"TeamRegistryNotSet","inputs":[]},{"type":"error","name":"TeamTopicNotFound","inputs":[]},{"type":"error","name":"TopicAlreadyExists","inputs":[]},{"type":"error","name":"TopicNameEmpty","inputs":[]},{"type":"error","name":"TopicNotFound","inputs":[]},{"type":"error","name":"UUPSUnauthorizedCallContext","inputs":[]},{"type":"error","name":"UUPSUnsupportedProxiableUUID","inputs":[{"name":"slot","type":"bytes32","internalType":"bytes32"}]}],"bytecode":{"object":"0x60a080604052346100cd57306080527ff0c57e16840df040f15088dc2f81fe391c3923bec73e23a9662efc9c229c6a009081549060ff8260401c166100be57506001600160401b036002600160401b031982821601610079575b604051612aef9081620000d2823960805181818161120b01526112c30152f35b6001600160401b031990911681179091556040519081527fc7f505b2f371ae2175ee4913f4499e1f2633a7b5936321eed1cdaeb6115181d290602090a15f8080610059565b63f92ee8a960e01b8152600490fd5b5f80fdfe6080806040526004361015610012575f80fd5b60e05f35811c9182631dfa957b146119d1575081631f11f0c9146118f157816321d6fa4b146118c55781632855c1d2146118375781632ade9cae146116ae578163327e7faa146114c657816336bfe08e1461148d5781634b0fa573146114605781634f1ef2861461127557816352d1902d146111f95781635b5a130a14611162578163634f196c14610e11578163715018a614610daa578163722e8f4014610d375781638da5cb5b14610d0357816395e08da314610cac578163a5e3a37f14610c76578163ad3cb1cc14610c31578163c333190714610bcb578163c4d66de814610a93578163c912481514610537578163e4e133f01461037d57508063f2fde38b14610352578063f315f5531461032f578063f94f9b8c146102da578063fa7bc31e1461021f5763fcc1899f14610147575f80fd5b3461021b57604036600319011261021b57610160611a1d565b60243580151580820361021b5761017561298f565b63ffffffff80931692835f525f60205260405f20541615610209577f7bb4c2a952d47662f26bb4c0666c24e24c6f334f65130e9a0d88e8356a80018e916101fe91845f525f6020526101e760405f2092600284019064ff00000000825491151560201b169064ff000000001916179055565b604051928392604084526001604085019101611c07565b9060208301520390a2005b6040516304a29d5560e01b8152600490fd5b5f80fd5b3461021b57602036600319011261021b57610238611a1d565b610240611cfa565b5063ffffffff80911690815f525f6020528060405f20541615610209576102d6915f525f6020526001600160401b0360405f209160026040519361028385611b24565b8281541685526040516102a48161029d8160018601611c07565b0382611b5a565b60208601520154908116604084015260ff8160201c161515606084015260281c16608082015260405191829182611a76565b0390f35b3461021b57604036600319011261021b576102f3611a1d565b6024359063ffffffff8091165f52600160205260405f20805483101561021b5760209261031f91611cc5565b9190546040519260031b1c168152f35b3461021b575f36600319011261021b57602063ffffffff60035416604051908152f35b3461021b57602036600319011261021b5761037b61036e611b0e565b61037661298f565b61274e565b005b3461021b576020908160031936011261021b5763ffffffff918261039f611a1d565b165f5260019182825260405f209060405180948484549283815201935f52845f20905f915b8360078401106104d757926102d6989287959261042c988a989654958484106104c5575b8484106104b1575b84841061049b575b848410610485575b84841061046f575b848410610459575b848410610444575b50505010610438575b505090500382611b5a565b60405191829182611acd565b1c815201808680610421565b60c087901c16875290950194018a8681610418565b9296818391858960a01c16815201970192610410565b9296818391858960801c16815201970192610408565b9296818391858960601c16815201970192610400565b9296818391858960401c168152019701926103f8565b86821c8116885296810196928201926103f0565b868116885296810196928201926103e8565b948161010060089288548c811682528c818c1c168b8301528c8160401c16604083015260608d82821c169083015260808d82821c169083015260a08d82821c169083015260c08d82821c1690830152881c888201520196019201916103c4565b3461021b57606036600319011261021b576105506119f4565b6001600160401b0360243581811161021b57610570903690600401611c98565b6044939193359063ffffffff8216820361021b576009546001600160a01b03168015610a8157604051630d50b96360e11b81526001600160401b038516600482015233602482015290602090829060449082905afa908115610a76575f91610a47575b5015610a35578015610a23578383165f52600860205263ffffffff6105fc60405f20838861263d565b5416610a115763ffffffff8216610953575b8383165f52600760205260405f20805463ffffffff61062e818316612656565b169063ffffffff19161790558383165f52600760205263ffffffff60405f2054169360405161065c81611b24565b85815261066a368489611b8a565b6020820190815263ffffffff851660408301526001606083015282421660808301528286165f52600460205260405f20875f5260205260405f209063ffffffff83511663ffffffff198354161782555180519084821161093f576106d16001840154611bcf565b601f81116108fb575b5091602099959391899795938b90601f831160011461085c57600263ffffffff9794847f07f89168991959a55b5803d3028d286d44f1d651fcc8b1c16f7b9983d86ab8d39a989561084698956080955f92610851575b50508160011b915f199060031b1c19161760018201555b019187604082015116881984541617835561078160608201511515849064ff00000000825491151560201b169064ff000000001916179055565b015167ffffffffffffffff60281b82549160281b169067ffffffffffffffff60281b19161790558089165f5260088b526107bf60405f20838961263d565b8886198254161790558089165f5260068b5260405f208585165f528b526107e98860405f2061266b565b6040516107f581611b3f565b600181528b810160018152828b165f5260058d5260405f208a5f528d5260405f20915115159060ff61ff0084549251151560081b1692169061ffff19161717905560405194859416981695836126a9565b0390a4604051908152f35b015190505f80610730565b90600184015f528c5f20915f5b601f19851681106108e1575063ffffffff979460018561084698956080956002957f07f89168991959a55b5803d3028d286d44f1d651fcc8b1c16f7b9983d86ab8d39e9c99601f198116106108c9575b505050811b016001820155610747565b01515f1960f88460031b161c191690555f80806108b9565b8183015184558d9b50600190930192918e01918e01610869565b600184015f5260205f20601f840160051c810160208510610938575b601f830160051c8201811061092d5750506106da565b5f8155600101610917565b5080610917565b634e487b7160e01b5f52604160045260245ffd5b5f63ffffffff83165f525f60205260405f2063ffffffff815416151590816109ff575b5015610997575060015b61060e575b60405163b389d35560e01b8152600490fd5b8484165f52600460205260405f2063ffffffff84165f5260205263ffffffff60405f2054161515806109d1575b1561098057506001610980565b508484165f52600460205260405f2063ffffffff84165f5260205260ff600260405f20015460201c166109c4565b60ff91506002015460201c1687610976565b6040516394b0e08160e01b8152600490fd5b60405163228f1b7160e11b8152600490fd5b604051631182377960e31b8152600490fd5b610a69915060203d602011610a6f575b610a618183611b5a565b810190611da4565b866105d3565b503d610a57565b6040513d5f823e3d90fd5b604051632f8ecd6f60e21b8152600490fd5b3461021b57602036600319011261021b57610aac611b0e565b7ff0c57e16840df040f15088dc2f81fe391c3923bec73e23a9662efc9c229c6a0090815460ff8160401c1615916001600160401b03821680159081610bc3575b6001149081610bb9575b159081610bb0575b50610b9e5767ffffffffffffffff1982166001178455610b2f9183610b7f575b50610b276129c7565b6103766129c7565b63ffffffff1960035416600355610b4257005b68ff00000000000000001981541690557fc7f505b2f371ae2175ee4913f4499e1f2633a7b5936321eed1cdaeb6115181d2602060405160018152a1005b68ffffffffffffffffff19166801000000000000000117845584610b1e565b60405163f92ee8a960e01b8152600490fd5b90501585610afe565b303b159150610af6565b849150610aec565b3461021b57602036600319011261021b57610be4611b0e565b610bec61298f565b600980546001600160a01b0319166001600160a01b039290921691821790557fd0801fff3e2226ee289a97ef9d3f4aedceb36ab883e6d7cdb8a22de6f3f242915f80a2005b3461021b575f36600319011261021b576102d6604051610c5081611b3f565b60058152640352e302e360dc1b6020820152604051918291602083526020830190611a51565b3461021b57604036600319011261021b576020610ca2610c94611a1d565b610c9c611a0a565b906126d0565b6040519015158152f35b3461021b57602036600319011261021b576004356001600160401b03811161021b5763ffffffff6020610ce481933690600401611c98565b9190826040519384928337810160028152030190205416604051908152f35b3461021b575f36600319011261021b575f80516020612a9a833981519152546040516001600160a01b039091168152602090f35b3461021b57602036600319011261021b576004356001600160401b03811161021b573660238201121561021b5763ffffffff610d966020610d8381943690602481600401359101611b8a565b8160405193828580945193849201611a30565b810160028152030190205416604051908152f35b3461021b575f36600319011261021b57610dc261298f565b5f80516020612a9a83398151915280546001600160a01b031981169091555f906001600160a01b03167f8be0079c531659141344cd1fd0a4f28419497f9722a3daafe3b4186f6b6457e08280a3005b3461021b57604036600319011261021b576004356001600160401b03811161021b57610e41903690600401611c98565b610e49611a0a565b91610e5261298f565b8115610a235763ffffffff6040518383823760208185810160028152030190205416610a115763ffffffff8316151580611140575b610985576003549163ffffffff610e9f818516612656565b16809363ffffffff191617600355604051610eb981611b24565b838152610ec7368385611b8a565b6020820190815263ffffffff86166040830152600160608301526001600160401b0342166080830152845f525f60205260405f209063ffffffff83511663ffffffff19835416178255518051906001600160401b03821161093f57610f2f6001840154611bcf565b601f81116110f8575b509160209793918795938990601f831160011461105a576002611044948463ffffffff98957fd42a180e3b80cf10c92c53da4676494a1346f0bec46440e1fde9973988e2c0a49a98956080955f9261104f575b50508160011b915f199060031b1c19161760018201555b0191866040820151168719845416178355610fdc60608201511515849064ff00000000825491151560201b169064ff000000001916179055565b015167ffffffffffffffff60281b82549160281b169067ffffffffffffffff60281b191617905560405181888237898183810160028152030190208685198254161790558383165f52600189526110368660405f2061266b565b6040519384931696836126a9565b0390a3604051908152f35b015190508f80610f8b565b90600184015f528a5f20915f5b601f19851681106110de5750611044946001857fd42a180e3b80cf10c92c53da4676494a1346f0bec46440e1fde9973988e2c0a49a989560809560029563ffffffff9c99601f198116106110c6575b505050811b016001820155610fa2565b01515f1960f88460031b161c191690558f80806110b6565b8183015184558b9950600190930192918c01918c01611067565b600184015f5260205f20601f840160051c81019160208510611136575b601f0160051c01905b81811061112b5750610f38565b5f815560010161111e565b9091508190611115565b5063ffffffff83165f525f60205260ff600260405f20015460201c1615610e87565b3461021b57602036600319011261021b5763ffffffff80611181611a1d565b165f525f60205260405f209080825416906001600160401b036002604051946111b8866111b18160018501611c07565b0387611b5a565b01546111d6604051958695865260a0602087015260a0860190611a51565b928116604085015260ff8160201c161515606085015260281c1660808301520390f35b3461021b575f36600319011261021b577f00000000000000000000000000000000000000000000000000000000000000006001600160a01b031630036112635760206040517f360894a13ba1a3210667c828492db98dca3e2076cc3735a920a3ca505d382bbc8152f35b60405163703e46dd60e11b8152600490fd5b604036600319011261021b57611289611b0e565b6024356001600160401b03811161021b573660238201121561021b576112b9903690602481600401359101611b8a565b6001600160a01b037f00000000000000000000000000000000000000000000000000000000000000008116308114908115611432575b50611263576112fc61298f565b8216916040516352d1902d60e01b8152602081600481875afa5f91816113fe575b5061133b57604051634c9c8ce360e01b815260048101859052602490fd5b7f360894a13ba1a3210667c828492db98dca3e2076cc3735a920a3ca505d382bbc908181036113e65750813b156113cd5780546001600160a01b03191684179055604051927fbc7cd75a20ee27fd9adebab32041f755214dbc6bffa90cc0225b39da2e5c2d3b5f80a28151156113b55761037b9250612a08565b5050346113be57005b63b398979f60e01b8152600490fd5b604051634c9c8ce360e01b815260048101859052602490fd5b60249060405190632a87526960e21b82526004820152fd5b9091506020813d60201161142a575b8161141a60209383611b5a565b8101031261021b5751908561131d565b3d915061140d565b9050817f360894a13ba1a3210667c828492db98dca3e2076cc3735a920a3ca505d382bbc54161415846112ef565b3461021b57604036600319011261021b576102d661042c61147f6119f4565b611487611a0a565b90612088565b3461021b57604036600319011261021b576102d66114ba6114ac6119f4565b6114b4611a0a565b90611f5e565b60405191829182611a76565b3461021b575f36600319011261021b57600160208181526040517fa6eef7e35abe7026729641147f7915573c7e97b47efa546f5f6e3230263bcb4980548083525f91825292949193848601939092917f0eb5be412f275a18f6e4d622aee4ff40b21467c926224771b782d4c095d1444b5b826007830110611647579261042c95928795926102d69995549386838310611631575b838310611619575b838310611600575b8383106115e7575b8383106115ce575b8383106115b5575b83831061159c575b50501061043857505090500382611b5a565b90919563ffffffff8660c01c1681520194018a8661158a565b81929663ffffffff8760a01c1681520195019086611582565b81929663ffffffff8760801c168152019501908661157a565b81929663ffffffff8760601c1681520195019086611572565b81929663ffffffff8760401c168152019501908661156a565b81929663ffffffff87831c1681520195019086611562565b81929663ffffffff87168152019501908661155a565b94846101006008928854808c63ffffffff91829182821686521c168d840152808260401c16604084015260608183821c169084015260808183821c169084015260a08183821c169084015260c09082821c1690830152871c87820152019601910190611537565b3461021b57606036600319011261021b576116c76119f4565b6116cf611a0a565b604435801590811580910361021b576009546001600160a01b0316908115610a8157604051630d50b96360e11b81526001600160401b03861660048201523360248201526020928390829060449082905afa908115610a76575f9161181a575b5015610a355763ffffffff8481165f818152808552604081205491949290918116156117ee57505060015b15610209577fc3245d00c33121773379e2885a32910992eaba859b71d3d465d1fea4fc3cb2c4906040519261178e84611b3f565b80845281840193600185526001600160401b03891694855f526005845260405f20875f52845260405f20915115159060ff61ff0084549251151560081b1692169061ffff191617179055604051908152a36117e557005b61037b916127bf565b6001600160401b0388165f526004835260405f20855f52835260405f2054161561175a5750600161175a565b6118319150833d8511610a6f57610a618183611b5a565b8661172f565b3461021b57604036600319011261021b576118506119f4565b6001600160401b03611860611a0a565b915f602060405161187081611b3f565b8281520152165f52600560205263ffffffff60405f2091165f526020526040805f2081519061189e82611b3f565b5460ff6020818316151593848152019160081c161515815282519182525115156020820152f35b3461021b57604036600319011261021b576020610ca26118e36119f4565b6118eb611a0a565b90611d25565b3461021b57604036600319011261021b5761190a6119f4565b611912611a0a565b61191a611cfa565b506001600160401b0380921691825f5260206004815260405f2063ffffffff80941690815f5282528360405f205416156119bf576102d6945f526004825260405f20905f52815260ff60405f209360026040519561197787611b24565b8281541687526040516119918161029d8160018601611c07565b858801520154928391821660408701521c161515606084015260281c16608082015260405191829182611a76565b604051631f2d41bf60e21b8152600490fd5b3461021b575f36600319011261021b576009546001600160a01b03168152602090f35b600435906001600160401b038216820361021b57565b6024359063ffffffff8216820361021b57565b6004359063ffffffff8216820361021b57565b5f5b838110611a415750505f910152565b8181015183820152602001611a32565b90602091611a6a81518092818552858086019101611a30565b601f01601f1916010190565b6020815260a06001600160401b03608063ffffffff94858151166020860152611aad602082015185604088015260c0870190611a51565b956040820151166060860152606081015115158286015201511691015290565b60209060206040818301928281528551809452019301915f5b828110611af4575050505090565b835163ffffffff1685529381019392810192600101611ae6565b600435906001600160a01b038216820361021b57565b60a081019081106001600160401b0382111761093f57604052565b604081019081106001600160401b0382111761093f57604052565b90601f801991011681019081106001600160401b0382111761093f57604052565b60405190611b8882611b3f565b565b9291926001600160401b03821161093f5760405191611bb3601f8201601f191660200184611b5a565b82948184528183011161021b578281602093845f960137010152565b90600182811c92168015611bfd575b6020831014611be957565b634e487b7160e01b5f52602260045260245ffd5b91607f1691611bde565b80545f9392611c1582611bcf565b918282526020936001916001811690815f14611c795750600114611c3b575b5050505050565b90939495505f92919252835f2092845f945b838610611c6557505050500101905f80808080611c34565b805485870183015294019385908201611c4d565b60ff19168685015250505090151560051b010191505f80808080611c34565b9181601f8401121561021b578235916001600160401b03831161021b576020838186019501011161021b57565b9190918054831015611ce6575f52601c60205f208360031c019260021b1690565b634e487b7160e01b5f52603260045260245ffd5b60405190611d0782611b24565b5f608083828152606060208201528260408201528260608201520152565b6001600160401b03165f52600560205260405f209063ffffffff80911691825f5260205260405f209160ff60405193611d5d85611b3f565b548181161515855260081c161580156020850152611d7d57505051151590565b9091505f525f60205260405f2090815416611d9757505f90565b6002015460201c60ff1690565b9081602091031261021b5751801515810361021b5790565b906040916040518093825492838352602091828401915f52825f20945f915b816007840110611eee5750611b8895549184828210611ed8575b828210611ec0575b828210611ea7575b828210611e8e575b828210611e75575b828210611e5c575b828210611e43575b5010611e36575b5090500383611b5a565b60e01c815201805f611e2c565b6001919463ffffffff8560c01c16815201930184611e25565b6001919463ffffffff8560a01c16815201930184611e1d565b6001919463ffffffff8560801c16815201930184611e15565b6001919463ffffffff8560601c16815201930184611e0d565b6001919463ffffffff8560401c16815201930184611e05565b6001919463ffffffff85831c16815201930184611dfd565b6001919463ffffffff8516815201930184611df5565b865463ffffffff808216865281871c81168688015281831c811686840152606082811c821690870152608082811c82169087015260a082811c82169087015260c082811c9091169086015260e090811c908501526001909601958895506101009093019260089290920191611ddb565b611f66611cfa565b506001600160401b03809116805f5260209260048452604091825f209063ffffffff80931691825f52865282845f2054166120165750805f525f855281835f20541615612005579060ff915f525f8552825f20946002845196611fc888611b24565b8381541688528551611fe18161029d8160018601611c07565b8389015201549384928316908701521c161515606084015260281c16608082015290565b82516304a29d5560e01b8152600490fd5b9060ff92915f5260048652835f20905f528552825f20946002845196611fc888611b24565b6001600160401b03811161093f5760051b60200190565b8051821015611ce65760209160051b010190565b5f1981146120745760010190565b634e487b7160e01b5f52601160045260245ffd5b6001600160401b03169081156124a25763ffffffff809116805f5260019160208092848252604095865f20875190819681818993549485815201905f528a825f20945f5b8c8b83600784011061243457869061212c995495858510612422575b85851061240e575b8585106123f6575b50508383106123e1575b8383106123cc575b8383106123b7575b8383106123a2575b505010612394575b5090500386611b5a565b5f5260068252855f20905f52815280855f20865190819381818693549485815201905f5289825f20945f5b8b8a8360078401106123275786906121b6995495858510612315575b858510612301575b8585106122ed575b50508383106122d8575b8383106122c3575b8383106122ae575b838310612299575b50501061228b575090500383611b5a565b8351825181018091116120745790816121dd6121d48896959461203b565b98519889611b5a565b8088526121ec601f199161203b565b01903690880137825f945f915b61224a575b50505f925b612210575b505050505090565b8051831015612245578461223c81958461222a8786612052565b5116612236828b612052565b52612066565b93019293612203565b612208565b9094819492939451861015612281576122758391866122698986612052565b5116612236828c612052565b950190829493926121f9565b94939291936121fe565b60e01c81520183905f611e2c565b9091948b8560c01c1681520193018b856121a5565b9091948b8560a01c1681520193018b8561219d565b9091948b8560801c1681520193018b85612195565b9091948b8560601c1681520193018b8561218d565b86901c16865290940193018b858b8f612183565b86831c82168852968201969383019361217b565b86821688529682019693830193612173565b5092509350935061010060089286548a811682528a818a1c16898301528d8b82821c169083015260608b82821c169083015260808b82821c169083015260a08b82821c169083015260c08b82821c169083015260e090811c90820152019401910192898693869395612157565b60e01c81520185905f612122565b9091948c8560c01c1681520193018c8561211a565b9091948c8560a01c1681520193018c85612112565b9091948c8560801c1681520193018c8561210a565b9091948c8560601c1681520193018c85612102565b869097929394971c1681520193018c858f8d906120f8565b86831c8216885296820196938301936120f0565b868216885296820196938301936120e8565b50926101009296506008949195508754908c821683528c828d1c168c8401528c82821c169083015260608c82821c169083015260808c82821c169083015260a08c82821c169083015260c08c82821c169083015260e090811c908201520194019101928a89938893956120cc565b905063ffffffff8091165f526001602081815260409060405f20604051948586948484549283815201935f52845f20965f915b8360078401106125d55750856125329854948484106125c3575b8484106125af575b848410612599575b848410612583575b84841061256d575b848410612557575b848410612542575b50505010612535575b5090500382611b5a565b90565b60e01c815201805f612528565b60c086901c16865290940193015f858161251f565b9295818391858860a01c16815201960192612517565b9295818391858860801c1681520196019261250f565b9295818391858860601c16815201960192612507565b9295818391858860401c168152019601926124ff565b85821c8116875295810195928201926124f7565b858116875295810195928201926124ef565b8854808616875280881c86168789015280821c861687830152606081811c871690880152608081811c87169088015260a081811c87169088015260c081811c87169088015260e090811c908701529781019789975061010090950194600892909201916124d5565b6020919283604051948593843782019081520301902090565b63ffffffff8091169081146120745760010190565b80546801000000000000000081101561093f5761268d91600182018155611cc5565b63ffffffff9291928084549260031b9316831b921b1916179055565b90918060409360208452816020850152848401375f828201840152601f01601f1916010190565b63ffffffff90818116158015612744575b61273d5791815f935b1680151580612733575b1561272b578282168114612722575f525f6020528161271c81600260405f2001541694612066565b936126ea565b50505050600190565b505050505f90565b50606484106126f4565b5050505f90565b50818316156126e1565b6001600160a01b039081169081156127a7575f80516020612a9a83398151915280546001600160a01b031981168417909155167f8be0079c531659141344cd1fd0a4f28419497f9722a3daafe3b4186f6b6457e05f80a3565b604051631e4fbdf760e01b81525f6004820152602490fd5b90916127e16127dc8463ffffffff165f52600160205260405f2090565b611dbc565b905f5b82518110156128c8576128c06128076127fd8386612052565b5163ffffffff1690565b61287b612812611b7b565b5f81526001602082015261284e8361283b8a6001600160401b03165f52600560205260405f2090565b9063ffffffff165f5260205260405f2090565b8151815460209093015161ffff1990931660ff911515919091161791151560081b61ff0016919091179055565b6040515f815263ffffffff8216906001600160401b038816907fc3245d00c33121773379e2885a32910992eaba859b71d3d465d1fea4fc3cb2c490602090a3856127bf565b6001016127e4565b50926128ee91506127dc9061283b846001600160401b03165f52600660205260405f2090565b5f5b815181101561298a576129826129096127fd8385612052565b61293d612914611b7b565b5f81526001602082015261284e8361283b896001600160401b03165f52600560205260405f2090565b6040515f815263ffffffff8216906001600160401b038716907fc3245d00c33121773379e2885a32910992eaba859b71d3d465d1fea4fc3cb2c490602090a3846127bf565b6001016128f0565b505050565b5f80516020612a9a833981519152546001600160a01b031633036129af57565b60405163118cdaa760e01b8152336004820152602490fd5b60ff7ff0c57e16840df040f15088dc2f81fe391c3923bec73e23a9662efc9c229c6a005460401c16156129f657565b604051631afcd79f60e31b8152600490fd5b905f8091602081519101845af48080612a86575b15612a3c5750506040513d81523d5f602083013e60203d82010160405290565b15612a6357604051639996b31560e01b81526001600160a01b039091166004820152602490fd5b3d15612a74576040513d5f823e3d90fd5b60405163d6bda27560e01b8152600490fd5b503d151580612a1c5750813b1515612a1c56fe9016d09d72d40fdae2fd8ceac6b6234c7706214fd39c1cd1e609a0528c199300a264697066735822122088257ab76faac8618c63bca61a23e0c8ae8d8128675e67360450d057edd4cb1b64736f6c63430008180033","linkReferences":{}},"methodIdentifiers":{"UPGRADE_INTERFACE_VERSION()":"ad3cb1cc","childTopics(uint32,uint256)":"f94f9b8c","createTeamTopic(uint64,string,uint32)":"c9124815","createTopic(string,uint32)":"634f196c","getChildTopics(uint32)":"e4e133f0","getRootTopics()":"327e7faa","getTeamChildTopics(uint64,uint32)":"4b0fa573","getTeamRegistry()":"1dfa957b","getTeamTopic(uint64,uint32)":"1f11f0c9","getTeamTopicSettings(uint64,uint32)":"2855c1d2","getTopic(uint32)":"fa7bc31e","getTopicIdByName(string)":"95e08da3","getTopicInTeamContext(uint64,uint32)":"36bfe08e","initialize(address)":"c4d66de8","isDescendant(uint32,uint32)":"a5e3a37f","isTopicEnabledInTeam(uint64,uint32)":"21d6fa4b","owner()":"8da5cb5b","proxiableUUID()":"52d1902d","renounceOwnership()":"715018a6","setTeamRegistry(address)":"c3331907","setTopicActive(uint32,bool)":"fcc1899f","setTopicEnabledInTeam(uint64,uint32,bool)":"2ade9cae","topicCount()":"f315f553","topicNameToId(string)":"722e8f40","topics(uint32)":"5b5a130a","transferOwnership(address)":"f2fde38b","upgradeToAndCall(address,bytes)":"4f1ef286"},"id":40}