{"abi":[{"type":"constructor","inputs":[],"stateMutability":"nonpayable"},{"type":"function","name":"INITIAL_SCORE","inputs":[],"outputs":[{"name":"","type":"uint16","internalType":"uint16"}],"stateMutability":"view"},{"type":"function","name":"MAX_SCORE","inputs":[],"outputs":[{"name":"","type":"uint16","internalType":"uint16"}],"stateMutability":"view"},{"type":"function","name":"MIN_SCORE","inputs":[],"outputs":[{"name":"","type":"uint16","internalType":"uint16"}],"stateMutability":"view"},{"type":"function","name":"UPGRADE_INTERFACE_VERSION","inputs":[],"outputs":[{"name":"","type":"string","internalType":"string"}],"stateMutability":"view"},{"type":"function","name":"adminRegisterUser","inputs":[{"name":"userAddress","type":"address","internalType":"address"},{"name":"name","type":"string","internalType":"string"}],"outputs":[],"stateMutability":"nonpayable"},{"type":"function","name":"getAccuracy","inputs":[{"name":"user","type":"address","internalType":"address"},{"name":"topicId","type":"uint32","internalType":"uint32"}],"outputs":[{"name":"","type":"uint16","internalType":"uint16"}],"stateMutability":"view"},{"type":"function","name":"getUserExpertise","inputs":[{"name":"user","type":"address","internalType":"address"},{"name":"topicId","type":"uint32","internalType":"uint32"}],"outputs":[{"name":"","type":"tuple","internalType":"struct User.UserTopicExpertise","components":[{"name":"score","type":"uint16","internalType":"uint16"},{"name":"totalChallenges","type":"uint32","internalType":"uint32"},{"name":"correctChallenges","type":"uint32","internalType":"uint32"},{"name":"lastActivityTime","type":"uint64","internalType":"uint64"}]}],"stateMutability":"view"},{"type":"function","name":"getUserProfile","inputs":[{"name":"user","type":"address","internalType":"address"}],"outputs":[{"name":"","type":"tuple","internalType":"struct User.UserProfile","components":[{"name":"userAddress","type":"address","internalType":"address"},{"name":"isRegistered","type":"bool","internalType":"bool"},{"name":"registrationTime","type":"uint64","internalType":"uint64"},{"name":"totalTopicsEngaged","type":"uint32","internalType":"uint32"},{"name":"name","type":"string","internalType":"string"}]}],"stateMutability":"view"},{"type":"function","name":"getUserScore","inputs":[{"name":"user","type":"address","internalType":"address"},{"name":"topicId","type":"uint32","internalType":"uint32"}],"outputs":[{"name":"","type":"uint16","internalType":"uint16"}],"stateMutability":"view"},{"type":"function","name":"getUserTopics","inputs":[{"name":"user","type":"address","internalType":"address"}],"outputs":[{"name":"","type":"uint32[]","internalType":"uint32[]"}],"stateMutability":"view"},{"type":"function","name":"initialize","inputs":[{"name":"initialOwner","type":"address","internalType":"address"},{"name":"_topicRegistry","type":"address","internalType":"address"}],"outputs":[],"stateMutability":"nonpayable"},{"type":"function","name":"isRegistered","inputs":[{"name":"user","type":"address","internalType":"address"}],"outputs":[{"name":"","type":"bool","internalType":"bool"}],"stateMutability":"view"},{"type":"function","name":"owner","inputs":[],"outputs":[{"name":"","type":"address","internalType":"address"}],"stateMutability":"view"},{"type":"function","name":"peerRatingContract","inputs":[],"outputs":[{"name":"","type":"address","internalType":"address"}],"stateMutability":"view"},{"type":"function","name":"proxiableUUID","inputs":[],"outputs":[{"name":"","type":"bytes32","internalType":"bytes32"}],"stateMutability":"view"},{"type":"function","name":"recordChallengeAttempt","inputs":[{"name":"user","type":"address","internalType":"address"},{"name":"topicId","type":"uint32","internalType":"uint32"},{"name":"correct","type":"bool","internalType":"bool"}],"outputs":[],"stateMutability":"nonpayable"},{"type":"function","name":"registerUser","inputs":[{"name":"name","type":"string","internalType":"string"}],"outputs":[],"stateMutability":"nonpayable"},{"type":"function","name":"renounceOwnership","inputs":[],"outputs":[],"stateMutability":"nonpayable"},{"type":"function","name":"reputationEngine","inputs":[],"outputs":[{"name":"","type":"address","internalType":"address"}],"stateMutability":"view"},{"type":"function","name":"setPeerRatingContract","inputs":[{"name":"_peerRatingContract","type":"address","internalType":"address"}],"outputs":[],"stateMutability":"nonpayable"},{"type":"function","name":"setReputationEngine","inputs":[{"name":"_reputationEngine","type":"address","internalType":"address"}],"outputs":[],"stateMutability":"nonpayable"},{"type":"function","name":"topicRegistry","inputs":[],"outputs":[{"name":"","type":"address","internalType":"contract TopicRegistry"}],"stateMutability":"view"},{"type":"function","name":"transferOwnership","inputs":[{"name":"newOwner","type":"address","internalType":"address"}],"outputs":[],"stateMutability":"nonpayable"},{"type":"function","name":"updateExpertiseScore","inputs":[{"name":"user","type":"address","internalType":"address"},{"name":"topicId","type":"uint32","internalType":"uint32"},{"name":"newScore","type":"uint16","internalType":"uint16"}],"outputs":[],"stateMutability":"nonpayable"},{"type":"function","name":"upgradeToAndCall","inputs":[{"name":"newImplementation","type":"address","internalType":"address"},{"name":"data","type":"bytes","internalType":"bytes"}],"outputs":[],"stateMutability":"payable"},{"type":"function","name":"userExpertise","inputs":[{"name":"","type":"address","internalType":"address"},{"name":"","type":"uint32","internalType":"uint32"}],"outputs":[{"name":"score","type":"uint16","internalType":"uint16"},{"name":"totalChallenges","type":"uint32","internalType":"uint32"},{"name":"correctChallenges","type":"uint32","internalType":"uint32"},{"name":"lastActivityTime","type":"uint64","internalType":"uint64"}],"stateMutability":"view"},{"type":"function","name":"userProfiles","inputs":[{"name":"","type":"address","internalType":"address"}],"outputs":[{"name":"userAddress","type":"address","internalType":"address"},{"name":"isRegistered","type":"bool","internalType":"bool"},{"name":"registrationTime","type":"uint64","internalType":"uint64"},{"name":"totalTopicsEngaged","type":"uint32","internalType":"uint32"},{"name":"name","type":"string","internalType":"string"}],"stateMutability":"view"},{"type":"function","name":"userTopics","inputs":[{"name":"","type":"address","internalType":"address"},{"name":"","type":"uint256","internalType":"uint256"}],"outputs":[{"name":"","type":"uint32","internalType":"uint32"}],"stateMutability":"view"},{"type":"event","name":"ChallengeAttempted","inputs":[{"name":"user","type":"address","indexed":true,"internalType":"address"},{"name":"topicId","type":"uint32","indexed":true,"internalType":"uint32"},{"name":"correct","type":"bool","indexed":false,"internalType":"bool"}],"anonymous":false},{"type":"event","name":"ExpertiseUpdated","inputs":[{"name":"user","type":"address","indexed":true,"internalType":"address"},{"name":"topicId","type":"uint32","indexed":true,"internalType":"uint32"},{"name":"newScore","type":"uint16","indexed":false,"internalType":"uint16"}],"anonymous":false},{"type":"event","name":"Initialized","inputs":[{"name":"version","type":"uint64","indexed":false,"internalType":"uint64"}],"anonymous":false},{"type":"event","name":"OwnershipTransferred","inputs":[{"name":"previousOwner","type":"address","indexed":true,"internalType":"address"},{"name":"newOwner","type":"address","indexed":true,"internalType":"address"}],"anonymous":false},{"type":"event","name":"Upgraded","inputs":[{"name":"implementation","type":"address","indexed":true,"internalType":"address"}],"anonymous":false},{"type":"event","name":"UserRegistered","inputs":[{"name":"user","type":"address","indexed":true,"internalType":"address"},{"name":"timestamp","type":"uint64","indexed":false,"internalType":"uint64"}],"anonymous":false},{"type":"error","name":"AddressEmptyCode","inputs":[{"name":"target","type":"address","internalType":"address"}]},{"type":"error","name":"ERC1967InvalidImplementation","inputs":[{"name":"implementation","type":"address","internalType":"address"}]},{"type":"error","name":"ERC1967NonPayable","inputs":[]},{"type":"error","name":"FailedCall","inputs":[]},{"type":"error","name":"InvalidInitialization","inputs":[]},{"type":"error","name":"InvalidTopicId","inputs":[]},{"type":"error","name":"NotInitializing","inputs":[]},{"type":"error","name":"OwnableInvalidOwner","inputs":[{"name":"owner","type":"address","internalType":"address"}]},{"type":"error","name":"OwnableUnauthorizedAccount","inputs":[{"name":"account","type":"address","internalType":"address"}]},{"type":"error","name":"UUPSUnauthorizedCallContext","inputs":[]},{"type":"error","name":"UUPSUnsupportedProxiableUUID","inputs":[{"name":"slot","type":"bytes32","internalType":"bytes32"}]},{"type":"error","name":"Unauthorized","inputs":[]},{"type":"error","name":"UserAlreadyRegistered","inputs":[]},{"type":"error","name":"UserNotRegistered","inputs":[]}],"bytecode":{"object":"0x60a080604052346100cc57306080527ff0c57e16840df040f15088dc2f81fe391c3923bec73e23a9662efc9c229c6a009081549060ff8260401c166100bd57506001600160401b036002600160401b031982821601610078575b6040516119ce90816100d182396080518181816108810152610d4d0152f35b6001600160401b031990911681179091556040519081527fc7f505b2f371ae2175ee4913f4499e1f2633a7b5936321eed1cdaeb6115181d290602090a15f8080610059565b63f92ee8a960e01b8152600490fd5b5f80fdfe6080604090808252600480361015610015575f80fd5b60e05f3560e01c92836317c909e3146111485750826327ff62231461112c5782632a943cd414611104578263332d56d71461107b578263389e5bed1461104b57826340b8927014610200578263485cc95514610ef45782634f1ef28614610cfd5782634f762fc3146109b35782635055735b1461098b578263509a9ca61461092d57826350e869f3146108e557826352d1902d1461086d5782635c40be59146108355782636bb5090c146107dc578263704f1b94146107a3578263715018a61461073c5782637cc92bf1146106e35782638da5cb5b146106af57826390635989146105d55782639425b741146103be57508163987ee156146102d5578163ad3cb1cc1461026a578163c3c5a5471461022c578163c3f677ef1461020557508063de33037314610200578063f2fde38b146101d55763fb503eeb14610157575f80fd5b346101d157806003193601126101d1576080906001600160401b0361017a61120b565b91610183611221565b9260018060a01b03165f526001602052805f2063ffffffff8094165f52602052805f20549080519361ffff83168552808360101c1660208601528260301c169084015260501c166060820152f35b5f80fd5b346101d15760203660031901126101d1576101fe6101f161120b565b6101f9611651565b6115e0565b005b6113bf565b82346101d1575f3660031901126101d157905490516001600160a01b039091168152602090f35b82346101d15760203660031901126101d1576020906001600160a01b0361025161120b565b165f525f825260ff815f205460a01c1690519015158152f35b82346101d1575f3660031901126101d1578051908082018281106001600160401b038211176102c2576102be9350815260058252640352e302e360dc1b60208301525191829160208352602083019061139a565b0390f35b604184634e487b7160e01b5f525260245ffd5b82346101d157602090816003193601126101d1576102be6102f461120b565b926060608084516103048161129b565b5f81525f848201525f868201525f83820152015260018060a01b038094165f525f8152825f20928051936103378561129b565b80549186831686528386019260ff8160a01c16151584526001600160401b0391828189019260a81c16825263ffffffff946103826002876001880154169660608c01978852016112d7565b9660808a0197885282519a8b9a828c525116908a01525115159088015251166060860152511660808401525160a08084015260c083019061139a565b8390346101d157602090816003193601126101d157906001600160a01b036103e461120b565b165f526002815280835f20928451908193849181875494858152019081975f52825f20945f915b816007840110610566575061046c95549184828210610550575b828210610538575b8b83831061051f575b50828210610506575b8282106104ed575b8282106104d4575b8282106104bb575b50106104ad575b5090509594939503856112b6565b825181815293518185018190528493840192915f5b82811061049057505050500390f35b835163ffffffff1685528695509381019392810192600101610481565b60e01c81520183908861045e565b6001919463ffffffff8560c01c16815201930184610457565b6001919463ffffffff8560a01c1681520193018461044f565b6001919463ffffffff8560801c16815201930184610447565b6001919463ffffffff8560601c1681520193018461043f565b9463ffffffff85600194971c168152019301848b610436565b6001919463ffffffff85831c1681520193018461042d565b6001919463ffffffff8516815201930184610425565b94509250906001610100600892875463ffffffff808216835280828c1c168b8401528d8183821c169084015260608183821c169084015260808183821c169084015260a08183821c169084015260c09082821c1690830152871c8782015201950191018592879495929561040b565b8382346101d15760603660031901126101d1576105f061120b565b906105f9611221565b926044359161ffff93848416938481036101d15782546001600160a01b039390841633036106a2575091602093917ff330ead817a300daf2736f4890df21da08f0a0d0f7fbd97732533a97adf2dafc956103e880911161069a575b50603287851610610691575b1694855f526001845263ffffffff825f20971696875f528452815f209216918261ffff1982541617905551908152a3005b60329350610660565b935088610654565b84516282b42960e81b8152fd5b83346101d1575f3660031901126101d1575f805160206119798339815191525490516001600160a01b039091168152602090f35b5082346101d15760203660031901126101d1576106fe61120b565b610706611651565b600554926001600160a01b03928385166107305750506001600160a01b0319909216911617600555005b516282b42960e81b8152fd5b346101d1575f3660031901126101d157610754611651565b5f8051602061197983398151915280546001600160a01b031981169091555f906001600160a01b03167f8be0079c531659141344cd1fd0a4f28419497f9722a3daafe3b4186f6b6457e08280a3005b50346101d15760203660031901126101d15780356001600160401b0381116101d1576101fe916107d591369101611460565b9033611689565b5082346101d15760203660031901126101d1576107f761120b565b90610800611651565b8254916001600160a01b039182841661082757506001600160a01b03199092169116179055005b516282b42960e81b81528490fd5b83346101d157806003193601126101d15760209061ffff61086561085761120b565b61085f611221565b9061153a565b915191168152f35b5082346101d1575f3660031901126101d1577f00000000000000000000000000000000000000000000000000000000000000006001600160a01b031630036108d857602090517f360894a13ba1a3210667c828492db98dca3e2076cc3735a920a3ca505d382bbc8152f35b5163703e46dd60e11b8152fd5b5082346101d1573660031901126101d1576108fe61120b565b6024356001600160401b0381116101d1576101fe9261091f91369101611460565b91610928611651565b611689565b83346101d157806003193601126101d15761094661120b565b6001600160a01b03165f90815260026020528190208054909190602435908110156101d15761097c63ffffffff9160209461142b565b92905490519260031b1c168152f35b83346101d1575f3660031901126101d15760035490516001600160a01b039091168152602090f35b5082346101d15760603660031901126101d1576109ce61120b565b6109d6611221565b9060443592831515908185036101d157855486956001600160a01b0394909185163303610cee57841694855f526020945f865260ff845f205460a01c1615610cde575f60249160035416855192838092637d3de18f60e11b825263ffffffff809716809d8301525afa8015610cd4575f90610bf7575b60609150015115610be857855f5260018552825f20875f528552825f20918254828160101c1615610b38575b507f4c03bc530c33de426a271cb46728bd7eba902b7e0eea53096c7d35b36d01b6489697985082549165ffffffff0000610ab6828560101c16611511565b60101b16918265ffffffff00001985161790818655610b00575b5050825467ffffffffffffffff60501b19164260501b67ffffffffffffffff60501b1617909255505051908152a3005b69ffffffff00000000000091610b199160301c16611511565b60301b169169ffffffffffffffff000019161717815587808080610ad0565b61ffff191660321783555f87815260028752849020805499680100000000000000008b1015610bd5575089610b959160017f4c03bc530c33de426a271cb46728bd7eba902b7e0eea53096c7d35b36d01b6489a9b9c01815561142b565b81549060031b90848c831b921b1916179055875f525f86526001845f2001805483610bc1818316611511565b169063ffffffff1916179055889796610a78565b604190634e487b7160e01b5f525260245ffd5b82516227fb4f60ea1b81528890fd5b503d805f833e610c0781836112b6565b810186828203126101d15781516001600160401b03928382116101d1570160a0818303126101d157855191610c3b8361129b565b610c4482611500565b8352888201518481116101d157820181601f820112156101d1578051610c69816113da565b92610c768a5194856112b6565b8184528b82840101116101d157610c92918b8085019101611379565b88830152610ca1868201611500565b8683015260608101519081151582036101d1576080916060840152015191821682036101d1576060916080820152610a4c565b84513d5f823e3d90fd5b8351632163950f60e01b81528890fd5b82516282b42960e81b81528790fd5b8382816003193601126101d157610d1261120b565b916024356001600160401b0381116101d157366023820112156101d157610d4290369060248186013591016113f5565b906001600160a01b037f00000000000000000000000000000000000000000000000000000000000000008116308114908115610ec6575b50610eb657610d86611651565b8416918151946352d1902d60e01b86526020868681875afa5f9681610e82575b50610dc257505051634c9c8ce360e01b81529182015260249150fd5b838593877f360894a13ba1a3210667c828492db98dca3e2076cc3735a920a3ca505d382bbc90818103610e6c5750833b15610e555780546001600160a01b0319168317905551907fbc7cd75a20ee27fd9adebab32041f755214dbc6bffa90cc0225b39da2e5c2d3b5f80a2825115610e3f57506101fe92506118e7565b91505034610e4957005b63b398979f60e01b8152fd5b8151634c9c8ce360e01b8152808701849052602490fd5b86602491845191632a87526960e21b8352820152fd5b9096506020813d602011610eae575b81610e9e602093836112b6565b810103126101d157519587610da6565b3d9150610e91565b815163703e46dd60e11b81528490fd5b9050817f360894a13ba1a3210667c828492db98dca3e2076cc3735a920a3ca505d382bbc5416141586610d79565b8382346101d157816003193601126101d157610f0e61120b565b906024356001600160a01b038116908190036101d1577ff0c57e16840df040f15088dc2f81fe391c3923bec73e23a9662efc9c229c6a0092835460ff81871c1615936001600160401b03821680159081611043575b6001149081611039575b159081611030575b50611022575067ffffffffffffffff1981166001178555610fa8919084611003575b50610fa06118a6565b6101f96118a6565b6bffffffffffffffffffffffff60a01b6003541617600355610fc657005b805468ff00000000000000001916905551600181527fc7f505b2f371ae2175ee4913f4499e1f2633a7b5936321eed1cdaeb6115181d290602090a1005b68ffffffffffffffffff19166801000000000000000117855586610f97565b865163f92ee8a960e01b8152fd5b90501588610f75565b303b159150610f6d565b869150610f63565b83346101d157806003193601126101d15760209061ffff61086561106d61120b565b611075611221565b9061148d565b83346101d15760203660031901126101d1576001600160a01b038061109e61120b565b165f525f6020526102be825f20928354936110c6600263ffffffff60018401541692016112d7565b916001600160401b0381519687968116875260ff8160a01c161515602088015260a81c1690850152606084015260a0608084015260a083019061139a565b83346101d1575f3660031901126101d15760055490516001600160a01b039091168152602090f35b83346101d1575f3660031901126101d157602090516103e88152f35b84346101d157806003193601126101d157606060809261116661120b565b5f83611170611221565b9361117a8161126c565b8281528260208201528287820152015260018060a01b03165f526001602052825f2063ffffffff8092165f52602052825f20928051936111b98561126c565b549161ffff8316948581528160208201818660101c16815284830192828760301c1684526001600160401b03978891019660501c16865284519788525116602087015251169084015251166060820152f35b600435906001600160a01b03821682036101d157565b6024359063ffffffff821682036101d157565b90600182811c92168015611262575b602083101461124e57565b634e487b7160e01b5f52602260045260245ffd5b91607f1691611243565b608081019081106001600160401b0382111761128757604052565b634e487b7160e01b5f52604160045260245ffd5b60a081019081106001600160401b0382111761128757604052565b90601f801991011681019081106001600160401b0382111761128757604052565b9060405191825f82546112e981611234565b908184526020946001916001811690815f146113575750600114611319575b505050611317925003836112b6565b565b5f90815285812095935091905b81831061133f57505061131793508201015f8080611308565b85548884018501529485019487945091830191611326565b9250505061131794925060ff191682840152151560051b8201015f8080611308565b5f5b83811061138a5750505f910152565b818101518382015260200161137b565b906020916113b381518092818552858086019101611379565b601f01601f1916010190565b346101d1575f3660031901126101d157602060405160328152f35b6001600160401b03811161128757601f01601f191660200190565b929192611401826113da565b9161140f60405193846112b6565b8294818452818301116101d1578281602093845f960137010152565b919091805483101561144c575f52601c60205f208360031c019260021b1690565b634e487b7160e01b5f52603260045260245ffd5b9181601f840112156101d1578235916001600160401b0383116101d157602083818601950101116101d157565b60018060a01b03165f52600160205260405f2063ffffffff8092165f5260205260405f2090604051916114bf8361126c565b549160606001600160401b0361ffff851694858452848160101c16948560208601528160301c16604085015260501c16910152156114fa5790565b50603290565b519063ffffffff821682036101d157565b63ffffffff8091169081146115265760010190565b634e487b7160e01b5f52601160045260245ffd5b60018060a01b03165f52600160205260405f2063ffffffff8092165f5260205260405f206040519061156b8261126c565b549161ffff928381168352818160101c16602084019381855260606001600160401b03858560301c169485604085015260501c16910152156115d85761271002918183169283036115265751169081156115c457041690565b634e487b7160e01b5f52601260045260245ffd5b505050505f90565b6001600160a01b03908116908115611639575f8051602061197983398151915280546001600160a01b031981168417909155167f8be0079c531659141344cd1fd0a4f28419497f9722a3daafe3b4186f6b6457e05f80a3565b604051631e4fbdf760e01b81525f6004820152602490fd5b5f80516020611979833981519152546001600160a01b0316330361167157565b60405163118cdaa760e01b8152336004820152602490fd5b6001600160a01b039081165f818152602081815260409182902054949695929490939060a01c60ff16611895576001600160401b036002814216948451906116d08261129b565b88825287820160019b8c82526116f5888501918a835260608601945f865236916113f5565b96608085019788528b5f525f8b52885f2094511684549260ff60a01b9051151560a01b16916001600160401b0360a81b905160a81b169262ffffff60e81b16171717825563ffffffff8b830191511663ffffffff19825416179055019151978851918211611287576117678354611234565b601f811161184f575b508598601f83116001146117d05782917f38fb07334ce9e7075e2c2f4a587afece66d5a7374a230473bab05bc0e92a71f698999a83925f946117c5575b50501b915f199060031b1c19161790555b51908152a2565b015192505f806117ad565b601f92919219821699845f52875f20915f5b8c811061183a5750837f38fb07334ce9e7075e2c2f4a587afece66d5a7374a230473bab05bc0e92a71f69a9b9c10611822575b505050811b0190556117be565b01515f1960f88460031b161c191690555f8080611815565b818301518455928501929189019189016117e2565b835f52865f20601f840160051c81019188851061188b575b601f0160051c019082905b828110611880575050611770565b5f8155018290611872565b9091508190611867565b8151634f2532fb60e11b8152600490fd5b60ff7ff0c57e16840df040f15088dc2f81fe391c3923bec73e23a9662efc9c229c6a005460401c16156118d557565b604051631afcd79f60e31b8152600490fd5b905f8091602081519101845af48080611965575b1561191b5750506040513d81523d5f602083013e60203d82010160405290565b1561194257604051639996b31560e01b81526001600160a01b039091166004820152602490fd5b3d15611953576040513d5f823e3d90fd5b60405163d6bda27560e01b8152600490fd5b503d1515806118fb5750813b15156118fb56fe9016d09d72d40fdae2fd8ceac6b6234c7706214fd39c1cd1e609a0528c199300a2646970667358221220139b4521b6a9a0a107f3d613386fd946a5cdf13d2de064ccf4b77338f5a053ac64736f6c63430008180033","linkReferences":{}},"methodIdentifiers":{"INITIAL_SCORE()":"de330373","MAX_SCORE()":"27ff6223","MIN_SCORE()":"40b89270","UPGRADE_INTERFACE_VERSION()":"ad3cb1cc","adminRegisterUser(address,string)":"50e869f3","getAccuracy(address,uint32)":"5c40be59","getUserExpertise(address,uint32)":"17c909e3","getUserProfile(address)":"987ee156","getUserScore(address,uint32)":"389e5bed","getUserTopics(address)":"9425b741","initialize(address,address)":"485cc955","isRegistered(address)":"c3c5a547","owner()":"8da5cb5b","peerRatingContract()":"2a943cd4","proxiableUUID()":"52d1902d","recordChallengeAttempt(address,uint32,bool)":"4f762fc3","registerUser(string)":"704f1b94","renounceOwnership()":"715018a6","reputationEngine()":"c3f677ef","setPeerRatingContract(address)":"7cc92bf1","setReputationEngine(address)":"6bb5090c","topicRegistry()":"5055735b","transferOwnership(address)":"f2fde38b","updateExpertiseScore(address,uint32,uint16)":"90635989","upgradeToAndCall(address,bytes)":"4f1ef286","userExpertise(address,uint32)":"fb503eeb","userProfiles(address)":"332d56d7","userTopics(address,uint256)":"509a9ca6"},"id":49}