{"abi":[{"type":"constructor","inputs":[],"stateMutability":"nonpayable"},{"type":"function","name":"INITIAL_SCORE","inputs":[],"outputs":[{"name":"","type":"uint16","internalType":"uint16"}],"stateMutability":"view"},{"type":"function","name":"MAX_SCORE","inputs":[],"outputs":[{"name":"","type":"uint16","internalType":"uint16"}],"stateMutability":"view"},{"type":"function","name":"MIN_SCORE","inputs":[],"outputs":[{"name":"","type":"uint16","internalType":"uint16"}],"stateMutability":"view"},{"type":"function","name":"UPGRADE_INTERFACE_VERSION","inputs":[],"outputs":[{"name":"","type":"string","internalType":"string"}],"stateMutability":"view"},{"type":"function","name":"adminRegisterUser","inputs":[{"name":"userAddress","type":"address","internalType":"address"},{"name":"name","type":"string","internalType":"string"}],"outputs":[],"stateMutability":"nonpayable"},{"type":"function","name":"getAccuracy","inputs":[{"name":"user","type":"address","internalType":"address"},{"name":"topicId","type":"uint32","internalType":"uint32"}],"outputs":[{"name":"","type":"uint16","internalType":"uint16"}],"stateMutability":"view"},{"type":"function","name":"getUserExpertise","inputs":[{"name":"user","type":"address","internalType":"address"},{"name":"topicId","type":"uint32","internalType":"uint32"}],"outputs":[{"name":"","type":"tuple","internalType":"struct User.UserTopicExpertise","components":[{"name":"score","type":"uint16","internalType":"uint16"},{"name":"totalChallenges","type":"uint32","internalType":"uint32"},{"name":"correctChallenges","type":"uint32","internalType":"uint32"},{"name":"lastActivityTime","type":"uint64","internalType":"uint64"}]}],"stateMutability":"view"},{"type":"function","name":"getUserProfile","inputs":[{"name":"user","type":"address","internalType":"address"}],"outputs":[{"name":"","type":"tuple","internalType":"struct User.UserProfile","components":[{"name":"userAddress","type":"address","internalType":"address"},{"name":"isRegistered","type":"bool","internalType":"bool"},{"name":"registrationTime","type":"uint64","internalType":"uint64"},{"name":"totalTopicsEngaged","type":"uint32","internalType":"uint32"},{"name":"name","type":"string","internalType":"string"}]}],"stateMutability":"view"},{"type":"function","name":"getUserScore","inputs":[{"name":"user","type":"address","internalType":"address"},{"name":"topicId","type":"uint32","internalType":"uint32"}],"outputs":[{"name":"","type":"uint16","internalType":"uint16"}],"stateMutability":"view"},{"type":"function","name":"getUserTopics","inputs":[{"name":"user","type":"address","internalType":"address"}],"outputs":[{"name":"","type":"uint32[]","internalType":"uint32[]"}],"stateMutability":"view"},{"type":"function","name":"initialize","inputs":[{"name":"initialOwner","type":"address","internalType":"address"},{"name":"_topicRegistry","type":"address","internalType":"address"}],"outputs":[],"stateMutability":"nonpayable"},{"type":"function","name":"isRegistered","inputs":[{"name":"user","type":"address","internalType":"address"}],"outputs":[{"name":"","type":"bool","internalType":"bool"}],"stateMutability":"view"},{"type":"function","name":"owner","inputs":[],"outputs":[{"name":"","type":"address","internalType":"address"}],"stateMutability":"view"},{"type":"function","name":"peerRatingContract","inputs":[],"outputs":[{"name":"","type":"address","internalType":"address"}],"stateMutability":"view"},{"type":"function","name":"proxiableUUID","inputs":[],"outputs":[{"name":"","type":"bytes32","internalType":"bytes32"}],"stateMutability":"view"},{"type":"function","name":"recordChallengeAttempt","inputs":[{"name":"user","type":"address","internalType":"address"},{"name":"topicId","type":"uint32","internalType":"uint32"},{"name":"correct","type":"bool","internalType":"bool"}],"outputs":[],"stateMutability":"nonpayable"},{"type":"function","name":"registerUser","inputs":[{"name":"name","type":"string","internalType":"string"}],"outputs":[],"stateMutability":"nonpayable"},{"type":"function","name":"renounceOwnership","inputs":[],"outputs":[],"stateMutability":"nonpayable"},{"type":"function","name":"reputationEngine","inputs":[],"outputs":[{"name":"","type":"address","internalType":"address"}],"stateMutability":"view"},{"type":"function","name":"setPeerRatingContract","inputs":[{"name":"_peerRatingContract","type":"address","internalType":"address"}],"outputs":[],"stateMutability":"nonpayable"},{"type":"function","name":"setReputationEngine","inputs":[{"name":"_reputationEngine","type":"address","internalType":"address"}],"outputs":[],"stateMutability":"nonpayable"},{"type":"function","name":"topicRegistry","inputs":[],"outputs":[{"name":"","type":"address","internalType":"contract TopicRegistry"}],"stateMutability":"view"},{"type":"function","name":"transferOwnership","inputs":[{"name":"newOwner","type":"address","internalType":"address"}],"outputs":[],"stateMutability":"nonpayable"},{"type":"function","name":"updateExpertiseScore","inputs":[{"name":"user","type":"address","internalType":"address"},{"name":"topicId","type":"uint32","internalType":"uint32"},{"name":"newScore","type":"uint16","internalType":"uint16"}],"outputs":[],"stateMutability":"nonpayable"},{"type":"function","name":"upgradeToAndCall","inputs":[{"name":"newImplementation","type":"address","internalType":"address"},{"name":"data","type":"bytes","internalType":"bytes"}],"outputs":[],"stateMutability":"payable"},{"type":"function","name":"userExpertise","inputs":[{"name":"","type":"address","internalType":"address"},{"name":"","type":"uint32","internalType":"uint32"}],"outputs":[{"name":"score","type":"uint16","internalType":"uint16"},{"name":"totalChallenges","type":"uint32","internalType":"uint32"},{"name":"correctChallenges","type":"uint32","internalType":"uint32"},{"name":"lastActivityTime","type":"uint64","internalType":"uint64"}],"stateMutability":"view"},{"type":"function","name":"userProfiles","inputs":[{"name":"","type":"address","internalType":"address"}],"outputs":[{"name":"userAddress","type":"address","internalType":"address"},{"name":"isRegistered","type":"bool","internalType":"bool"},{"name":"registrationTime","type":"uint64","internalType":"uint64"},{"name":"totalTopicsEngaged","type":"uint32","internalType":"uint32"},{"name":"name","type":"string","internalType":"string"}],"stateMutability":"view"},{"type":"function","name":"userTopics","inputs":[{"name":"","type":"address","internalType":"address"},{"name":"","type":"uint256","internalType":"uint256"}],"outputs":[{"name":"","type":"uint32","internalType":"uint32"}],"stateMutability":"view"},{"type":"event","name":"ChallengeAttempted","inputs":[{"name":"user","type":"address","indexed":true,"internalType":"address"},{"name":"topicId","type":"uint32","indexed":true,"internalType":"uint32"},{"name":"correct","type":"bool","indexed":false,"internalType":"bool"}],"anonymous":false},{"type":"event","name":"ExpertiseUpdated","inputs":[{"name":"user","type":"address","indexed":true,"internalType":"address"},{"name":"topicId","type":"uint32","indexed":true,"internalType":"uint32"},{"name":"newScore","type":"uint16","indexed":false,"internalType":"uint16"}],"anonymous":false},{"type":"event","name":"Initialized","inputs":[{"name":"version","type":"uint64","indexed":false,"internalType":"uint64"}],"anonymous":false},{"type":"event","name":"OwnershipTransferred","inputs":[{"name":"previousOwner","type":"address","indexed":true,"internalType":"address"},{"name":"newOwner","type":"address","indexed":true,"internalType":"address"}],"anonymous":false},{"type":"event","name":"Upgraded","inputs":[{"name":"implementation","type":"address","indexed":true,"internalType":"address"}],"anonymous":false},{"type":"event","name":"UserRegistered","inputs":[{"name":"user","type":"address","indexed":true,"internalType":"address"},{"name":"timestamp","type":"uint64","indexed":false,"internalType":"uint64"}],"anonymous":false},{"type":"error","name":"AddressEmptyCode","inputs":[{"name":"target","type":"address","internalType":"address"}]},{"type":"error","name":"ERC1967InvalidImplementation","inputs":[{"name":"implementation","type":"address","internalType":"address"}]},{"type":"error","name":"ERC1967NonPayable","inputs":[]},{"type":"error","name":"FailedCall","inputs":[]},{"type":"error","name":"InvalidInitialization","inputs":[]},{"type":"error","name":"InvalidTopicId","inputs":[]},{"type":"error","name":"NotInitializing","inputs":[]},{"type":"error","name":"OwnableInvalidOwner","inputs":[{"name":"owner","type":"address","internalType":"address"}]},{"type":"error","name":"OwnableUnauthorizedAccount","inputs":[{"name":"account","type":"address","internalType":"address"}]},{"type":"error","name":"UUPSUnauthorizedCallContext","inputs":[]},{"type":"error","name":"UUPSUnsupportedProxiableUUID","inputs":[{"name":"slot","type":"bytes32","internalType":"bytes32"}]},{"type":"error","name":"Unauthorized","inputs":[]},{"type":"error","name":"UserAlreadyRegistered","inputs":[]},{"type":"error","name":"UserNotRegistered","inputs":[]}],"bytecode":{"object":"0x60a080604052346100cc57306080527ff0c57e16840df040f15088dc2f81fe391c3923bec73e23a9662efc9c229c6a009081549060ff8260401c166100bd57506001600160401b036002600160401b031982821601610078575b604051611a0b90816100d182396080518181816108ad0152610de10152f35b6001600160401b031990911681179091556040519081527fc7f505b2f371ae2175ee4913f4499e1f2633a7b5936321eed1cdaeb6115181d290602090a15f8080610059565b63f92ee8a960e01b8152600490fd5b5f80fdfe6080604081815260049182361015610015575f80fd5b5f9260e05f3560e01c92836317c909e3146112135750826327ff6223146111f75782632a943cd4146111cf578263332d56d714611146578263389e5bed146110f657826340b89270146110dc578263485cc95514610f8a5782634f1ef28614610d915782634f762fc3146109e55782635055735b146109bb578263509a9ca61461095e57826350e869f31461091157826352d1902d146108975782635c40be591461085d5782636bb5090c14610802578263704f1b94146107c8578263715018a61461075f5782637cc92bf1146107045782638da5cb5b146106ce57826390635989146106045782639425b741146103e857508163987ee156146102fb578163ad3cb1cc1461028e578163c3c5a5471461024e578163c3f677ef1461022257508063de33037314610207578063f2fde38b146101d75763fb503eeb14610159575f80fd5b346101d357806003193601126101d357906001600160401b038260809361017e6112d6565b936101876112ec565b9460018060a01b0316815260016020522063ffffffff8094165f52602052805f20549080519361ffff83168552808360101c1660208601528260301c169084015260501c166060820152f35b5080fd5b8234610204576020366003190112610204576102016101f46112d6565b6101fc61168e565b61161d565b80f35b80fd5b50346101d357816003193601126101d35760209051607b8152f35b90503461024a578260031936011261024a575490516001600160a01b03909116815260209150f35b8280fd5b5050346101d35760203660031901126101d35760209160ff9082906001600160a01b036102796112d6565b168152808552205460a01c1690519015158152f35b828434610204578060031936011261020457508051908082018281106001600160401b038211176102e8576102e49350815260058252640352e302e360dc1b602083015251918291602083526020830190611465565b0390f35b604184634e487b7160e01b5f525260245ffd5b5050346101d35760208060031936011261024a576102e4908261031c6112d6565b9460606080835161032c81611366565b83815285810184905284810184905282810184905201526001600160a01b039586168152808352208351939061036185611366565b80549186831686528386019260ff8160a01c16151584526001600160401b0391828189019260a81c16825263ffffffff946103ac6002876001880154169660608c01978852016113a2565b9660808a0197885282519a8b9a828c525116908a01525115159088015251166060860152511660808401525160a08084015260c0830190611465565b848491346101d35760208060031936011261024a57909181906001600160a01b036104116112d6565b168152600282528481209385519081948591818854948581520190819886528286209486915b816007840110610594575061049a9554918482821061057e575b828210610566575b8c83831061054d575b50828210610534575b82821061051b575b828210610502575b8282106104e9575b50106104db575b5090509695949293960382611381565b83519485948186019282875251809352850193925b8281106104be57505050500390f35b835163ffffffff16855286955093810193928101926001016104af565b60e01c81520184908961048a565b6001919463ffffffff8560c01c16815201930184610483565b6001919463ffffffff8560a01c1681520193018461047b565b6001919463ffffffff8560801c16815201930184610473565b6001919463ffffffff8560601c1681520193018461046b565b9463ffffffff85600194971c168152019301848c610462565b6001919463ffffffff85831c16815201930184610459565b6001919463ffffffff8516815201930184610451565b865463ffffffff8082168652818b1c81168b870152818e1c81168e870152606082811c821690870152608082811c82169087015260a082811c82169087015260c082811c90911690860152811c848201526001969096019589955088945061010090930192600890920191610437565b8482853461024a57606036600319011261024a576106206112d6565b6106286112ec565b9261ffff604435818116908181036106ca5783546001600160a01b039490851633036106bd575091602093917ff330ead817a300daf2736f4890df21da08f0a0d0f7fbd97732533a97adf2dafc9593906103e88091116106b5575b50169116938487526001835263ffffffff818820961695865f528352805f208261ffff1982541617905551908152a380f35b905089610683565b86516282b42960e81b8152fd5b8780fd5b505050346101d357816003193601126101d3575f805160206119b68339815191525490516001600160a01b039091168152602090f35b8482853461024a57602036600319011261024a576107206112d6565b61072861168e565b600554926001600160a01b039283851661075357505016906001600160601b0360a01b161760055580f35b516282b42960e81b8152fd5b843461020457806003193601126102045761077861168e565b5f805160206119b683398151915280546001600160a01b031981169091555f906001600160a01b03167f8be0079c531659141344cd1fd0a4f28419497f9722a3daafe3b4186f6b6457e08280a380f35b8482346101d35760203660031901126101d35780356001600160401b03811161024a57610201916107fb91369101611510565b90336116c6565b8482853461024a57602036600319011261024a5761081e6112d6565b9061082761168e565b8254916001600160a01b039182841661084f575016906001600160601b0360a01b1617905580f35b516282b42960e81b81528490fd5b505050346101d357806003193601126101d35760209061ffff61088f6108816112d6565b6108896112ec565b90611577565b915191168152f35b50828434610204578060031936011261020457507f00000000000000000000000000000000000000000000000000000000000000006001600160a01b0316300361090457602090517f360894a13ba1a3210667c828492db98dca3e2076cc3735a920a3ca505d382bbc8152f35b5163703e46dd60e11b8152fd5b8482853461024a573660031901126101d35761092b6112d6565b6024356001600160401b03811161095a576102019261094c91369101611510565b9161095561168e565b6116c6565b8380fd5b505050346101d357806003193601126101d3576109796112d6565b6001600160a01b0316825260026020528082208054602435939084101561020457506109ac60209363ffffffff926114db565b92905490519260031b1c168152f35b505050346101d357816003193601126101d35760035490516001600160a01b039091168152602090f35b84828534610bc3576060366003190112610bc357610a016112d6565b90610a0a6112ec565b926044359182151591828403610bc35780546001600160a01b03959086163303610d8357851694855f526020945f865260ff845f205460a01c1615610d73578160035416978451637d3de18f60e11b81525f8160248163ffffffff8096169d8e8a8301525afa8015610d69575f90610c8c575b60609150015115610c7d57875f5260018752845f20895f528752845f209181835460101c1615610bff575b82549165ffffffff0000610ac0828560101c1661154e565b60101b16918265ffffffff00001985161790818655610bc7575b5050825467ffffffffffffffff60501b19164260501b67ffffffffffffffff60501b1617909255505081541690813b15610bc3575f80926044855180958193633842af2d60e01b83528b878401528c60248401525af18015610bb957610b68575b5050519081527f4c03bc530c33de426a271cb46728bd7eba902b7e0eea53096c7d35b36d01b6489190a380f35b909196506001600160401b038211610ba6575085525f947f4c03bc530c33de426a271cb46728bd7eba902b7e0eea53096c7d35b36d01b64887610b3b565b604190634e487b7160e01b5f525260245ffd5b83513d5f823e3d90fd5b5f80fd5b69ffffffff00000000000091610be09160301c1661154e565b60301b169169ffffffffffffffff000019161717815589808080610ada565b885f5260028852855f2080549068010000000000000000821015610c6a5790610c2d916001820181556114db565b81549060031b90848d831b921b1916179055885f525f88526001865f2001805483610c5981831661154e565b169063ffffffff1916179055610aa8565b604187634e487b7160e01b5f525260245ffd5b84516227fb4f60ea1b81528490fd5b503d805f833e610c9c8183611381565b81018882820312610bc35781516001600160401b0392838211610bc3570160a081830312610bc357875191610cd083611366565b610cd98261153d565b83528a820151848111610bc357820181601f82011215610bc3578051610cfe8161148a565b92610d0b8c519485611381565b8184528d8284010111610bc357610d27918d8085019101611444565b8a830152610d3688820161153d565b888301526060810151908115158203610bc357608091606084015201519182168203610bc3576060916080820152610a7d565b86513d5f823e3d90fd5b8351632163950f60e01b81528390fd5b5090516282b42960e81b8152fd5b838281600319360112610bc357610da66112d6565b916024356001600160401b038111610bc35736602382011215610bc357610dd690369060248186013591016114a5565b906001600160a01b037f00000000000000000000000000000000000000000000000000000000000000008116308114908115610f5c575b50610f4c57610e1a61168e565b8416918151946352d1902d60e01b86526020868681875afa5f9681610f18575b50610e5657505051634c9c8ce360e01b81529182015260249150fd5b838593877f360894a13ba1a3210667c828492db98dca3e2076cc3735a920a3ca505d382bbc90818103610f025750833b15610eeb5780546001600160a01b0319168317905551907fbc7cd75a20ee27fd9adebab32041f755214dbc6bffa90cc0225b39da2e5c2d3b5f80a2825115610ed55750610ed39250611924565b005b91505034610edf57005b63b398979f60e01b8152fd5b8151634c9c8ce360e01b8152808701849052602490fd5b86602491845191632a87526960e21b8352820152fd5b9096506020813d602011610f44575b81610f3460209383611381565b81010312610bc357519587610e3a565b3d9150610f27565b815163703e46dd60e11b81528490fd5b9050817f360894a13ba1a3210667c828492db98dca3e2076cc3735a920a3ca505d382bbc5416141586610e0d565b838234610bc35781600319360112610bc357610fa46112d6565b906024356001600160a01b03811690819003610bc3577ff0c57e16840df040f15088dc2f81fe391c3923bec73e23a9662efc9c229c6a0092835460ff81871c1615936001600160401b038216801590816110d4575b60011490816110ca575b1590816110c1575b506110b3575067ffffffffffffffff198116600117855561103e919084611094575b506110366118e3565b6101fc6118e3565b6001600160601b0360a01b600354161760035561105757005b805468ff00000000000000001916905551600181527fc7f505b2f371ae2175ee4913f4499e1f2633a7b5936321eed1cdaeb6115181d290602090a1005b68ffffffffffffffffff1916680100000000000000011785558661102d565b865163f92ee8a960e01b8152fd5b9050158861100b565b303b159150611003565b869150610ff9565b8334610bc3575f366003190112610bc357602090515f8152f35b8334610bc35780600319360112610bc3576020906111126112d6565b61111a6112ec565b9060018060a01b03165f526001835263ffffffff825f2091165f52825261ffff815f2054169051908152f35b8334610bc3576020366003190112610bc3576001600160a01b03806111696112d6565b165f525f6020526102e4825f2092835493611191600263ffffffff60018401541692016113a2565b916001600160401b0381519687968116875260ff8160a01c161515602088015260a81c1690850152606084015260a0608084015260a0830190611465565b8334610bc3575f366003190112610bc35760055490516001600160a01b039091168152602090f35b8334610bc3575f366003190112610bc357602090516103e88152f35b8434610bc35780600319360112610bc35760606080926112316112d6565b5f8361123b6112ec565b9361124581611337565b8281528260208201528287820152015260018060a01b03165f526001602052825f2063ffffffff8092165f52602052825f209280519361128485611337565b549161ffff8316948581528160208201818660101c16815284830192828760301c1684526001600160401b03978891019660501c16865284519788525116602087015251169084015251166060820152f35b600435906001600160a01b0382168203610bc357565b6024359063ffffffff82168203610bc357565b90600182811c9216801561132d575b602083101461131957565b634e487b7160e01b5f52602260045260245ffd5b91607f169161130e565b608081019081106001600160401b0382111761135257604052565b634e487b7160e01b5f52604160045260245ffd5b60a081019081106001600160401b0382111761135257604052565b90601f801991011681019081106001600160401b0382111761135257604052565b9060405191825f82546113b4816112ff565b908184526020946001916001811690815f1461142257506001146113e4575b5050506113e292500383611381565b565b5f90815285812095935091905b81831061140a5750506113e293508201015f80806113d3565b855488840185015294850194879450918301916113f1565b925050506113e294925060ff191682840152151560051b8201015f80806113d3565b5f5b8381106114555750505f910152565b8181015183820152602001611446565b9060209161147e81518092818552858086019101611444565b601f01601f1916010190565b6001600160401b03811161135257601f01601f191660200190565b9291926114b18261148a565b916114bf6040519384611381565b829481845281830111610bc3578281602093845f960137010152565b91909180548310156114fc575f52601c60205f208360031c019260021b1690565b634e487b7160e01b5f52603260045260245ffd5b9181601f84011215610bc3578235916001600160401b038311610bc35760208381860195010111610bc357565b519063ffffffff82168203610bc357565b63ffffffff8091169081146115635760010190565b634e487b7160e01b5f52601160045260245ffd5b60018060a01b03165f52600160205260405f2063ffffffff8092165f5260205260405f20604051906115a882611337565b549161ffff928381168352818160101c16602084019381855260606001600160401b03858560301c169485604085015260501c169101521561161557612710029181831692830361156357511690811561160157041690565b634e487b7160e01b5f52601260045260245ffd5b505050505f90565b6001600160a01b03908116908115611676575f805160206119b683398151915280546001600160a01b031981168417909155167f8be0079c531659141344cd1fd0a4f28419497f9722a3daafe3b4186f6b6457e05f80a3565b604051631e4fbdf760e01b81525f6004820152602490fd5b5f805160206119b6833981519152546001600160a01b031633036116ae57565b60405163118cdaa760e01b8152336004820152602490fd5b6001600160a01b039081165f818152602081815260409182902054949695929490939060a01c60ff166118d2576001600160401b0360028142169484519061170d82611366565b88825287820160019b8c8252611732888501918a835260608601945f865236916114a5565b96608085019788528b5f525f8b52885f2094511684549260ff60a01b9051151560a01b16916001600160401b0360a81b905160a81b169262ffffff60e81b16171717825563ffffffff8b830191511663ffffffff19825416179055019151978851918211611352576117a483546112ff565b601f811161188c575b508598601f831160011461180d5782917f38fb07334ce9e7075e2c2f4a587afece66d5a7374a230473bab05bc0e92a71f698999a83925f94611802575b50501b915f199060031b1c19161790555b51908152a2565b015192505f806117ea565b601f92919219821699845f52875f20915f5b8c81106118775750837f38fb07334ce9e7075e2c2f4a587afece66d5a7374a230473bab05bc0e92a71f69a9b9c1061185f575b505050811b0190556117fb565b01515f1960f88460031b161c191690555f8080611852565b8183015184559285019291890191890161181f565b835f52865f20601f840160051c8101918885106118c8575b601f0160051c019082905b8281106118bd5750506117ad565b5f81550182906118af565b90915081906118a4565b8151634f2532fb60e11b8152600490fd5b60ff7ff0c57e16840df040f15088dc2f81fe391c3923bec73e23a9662efc9c229c6a005460401c161561191257565b604051631afcd79f60e31b8152600490fd5b905f8091602081519101845af480806119a2575b156119585750506040513d81523d5f602083013e60203d82010160405290565b1561197f57604051639996b31560e01b81526001600160a01b039091166004820152602490fd5b3d15611990576040513d5f823e3d90fd5b60405163d6bda27560e01b8152600490fd5b503d1515806119385750813b151561193856fe9016d09d72d40fdae2fd8ceac6b6234c7706214fd39c1cd1e609a0528c199300a26469706673582212206306e1234f3b2680c8a7bf01f40862582df31b44a77c8cc715796695ed2de48364736f6c63430008180033","linkReferences":{}},"methodIdentifiers":{"INITIAL_SCORE()":"de330373","MAX_SCORE()":"27ff6223","MIN_SCORE()":"40b89270","UPGRADE_INTERFACE_VERSION()":"ad3cb1cc","adminRegisterUser(address,string)":"50e869f3","getAccuracy(address,uint32)":"5c40be59","getUserExpertise(address,uint32)":"17c909e3","getUserProfile(address)":"987ee156","getUserScore(address,uint32)":"389e5bed","getUserTopics(address)":"9425b741","initialize(address,address)":"485cc955","isRegistered(address)":"c3c5a547","owner()":"8da5cb5b","peerRatingContract()":"2a943cd4","proxiableUUID()":"52d1902d","recordChallengeAttempt(address,uint32,bool)":"4f762fc3","registerUser(string)":"704f1b94","renounceOwnership()":"715018a6","reputationEngine()":"c3f677ef","setPeerRatingContract(address)":"7cc92bf1","setReputationEngine(address)":"6bb5090c","topicRegistry()":"5055735b","transferOwnership(address)":"f2fde38b","updateExpertiseScore(address,uint32,uint16)":"90635989","upgradeToAndCall(address,bytes)":"4f1ef286","userExpertise(address,uint32)":"fb503eeb","userProfiles(address)":"332d56d7","userTopics(address,uint256)":"509a9ca6"},"id":38}