{"abi":[{"type":"constructor","inputs":[],"stateMutability":"nonpayable"},{"type":"function","name":"INITIAL_SCORE","inputs":[],"outputs":[{"name":"","type":"uint16","internalType":"uint16"}],"stateMutability":"view"},{"type":"function","name":"MAX_SCORE","inputs":[],"outputs":[{"name":"","type":"uint16","internalType":"uint16"}],"stateMutability":"view"},{"type":"function","name":"MIN_SCORE","inputs":[],"outputs":[{"name":"","type":"uint16","internalType":"uint16"}],"stateMutability":"view"},{"type":"function","name":"UPGRADE_INTERFACE_VERSION","inputs":[],"outputs":[{"name":"","type":"string","internalType":"string"}],"stateMutability":"view"},{"type":"function","name":"adminRegisterUser","inputs":[{"name":"userAddress","type":"address","internalType":"address"},{"name":"name","type":"string","internalType":"string"}],"outputs":[],"stateMutability":"nonpayable"},{"type":"function","name":"adminRegisterUserInTeam","inputs":[{"name":"teamId","type":"uint64","internalType":"uint64"},{"name":"userAddress","type":"address","internalType":"address"},{"name":"name","type":"string","internalType":"string"}],"outputs":[],"stateMutability":"nonpayable"},{"type":"function","name":"challengeContract","inputs":[],"outputs":[{"name":"","type":"address","internalType":"address"}],"stateMutability":"view"},{"type":"function","name":"getAccuracy","inputs":[{"name":"user","type":"address","internalType":"address"},{"name":"topicId","type":"uint32","internalType":"uint32"}],"outputs":[{"name":"","type":"uint16","internalType":"uint16"}],"stateMutability":"view"},{"type":"function","name":"getTeamAccuracy","inputs":[{"name":"teamId","type":"uint64","internalType":"uint64"},{"name":"user","type":"address","internalType":"address"},{"name":"topicId","type":"uint32","internalType":"uint32"}],"outputs":[{"name":"","type":"uint16","internalType":"uint16"}],"stateMutability":"view"},{"type":"function","name":"getTeamRegistry","inputs":[],"outputs":[{"name":"teamRegistry","type":"address","internalType":"address"}],"stateMutability":"view"},{"type":"function","name":"getTeamUserExpertise","inputs":[{"name":"teamId","type":"uint64","internalType":"uint64"},{"name":"user","type":"address","internalType":"address"},{"name":"topicId","type":"uint32","internalType":"uint32"}],"outputs":[{"name":"","type":"tuple","internalType":"struct User.UserTopicExpertise","components":[{"name":"score","type":"uint16","internalType":"uint16"},{"name":"totalChallenges","type":"uint32","internalType":"uint32"},{"name":"correctChallenges","type":"uint32","internalType":"uint32"},{"name":"lastActivityTime","type":"uint64","internalType":"uint64"}]}],"stateMutability":"view"},{"type":"function","name":"getTeamUserProfile","inputs":[{"name":"teamId","type":"uint64","internalType":"uint64"},{"name":"user","type":"address","internalType":"address"}],"outputs":[{"name":"","type":"tuple","internalType":"struct User.UserProfile","components":[{"name":"userAddress","type":"address","internalType":"address"},{"name":"isRegistered","type":"bool","internalType":"bool"},{"name":"registrationTime","type":"uint64","internalType":"uint64"},{"name":"totalTopicsEngaged","type":"uint32","internalType":"uint32"},{"name":"name","type":"string","internalType":"string"}]}],"stateMutability":"view"},{"type":"function","name":"getTeamUserScore","inputs":[{"name":"teamId","type":"uint64","internalType":"uint64"},{"name":"user","type":"address","internalType":"address"},{"name":"topicId","type":"uint32","internalType":"uint32"}],"outputs":[{"name":"","type":"uint16","internalType":"uint16"}],"stateMutability":"view"},{"type":"function","name":"getTeamUserTopics","inputs":[{"name":"teamId","type":"uint64","internalType":"uint64"},{"name":"user","type":"address","internalType":"address"}],"outputs":[{"name":"","type":"uint32[]","internalType":"uint32[]"}],"stateMutability":"view"},{"type":"function","name":"getUserExpertise","inputs":[{"name":"user","type":"address","internalType":"address"},{"name":"topicId","type":"uint32","internalType":"uint32"}],"outputs":[{"name":"","type":"tuple","internalType":"struct User.UserTopicExpertise","components":[{"name":"score","type":"uint16","internalType":"uint16"},{"name":"totalChallenges","type":"uint32","internalType":"uint32"},{"name":"correctChallenges","type":"uint32","internalType":"uint32"},{"name":"lastActivityTime","type":"uint64","internalType":"uint64"}]}],"stateMutability":"view"},{"type":"function","name":"getUserProfile","inputs":[{"name":"user","type":"address","internalType":"address"}],"outputs":[{"name":"","type":"tuple","internalType":"struct User.UserProfile","components":[{"name":"userAddress","type":"address","internalType":"address"},{"name":"isRegistered","type":"bool","internalType":"bool"},{"name":"registrationTime","type":"uint64","internalType":"uint64"},{"name":"totalTopicsEngaged","type":"uint32","internalType":"uint32"},{"name":"name","type":"string","internalType":"string"}]}],"stateMutability":"view"},{"type":"function","name":"getUserScore","inputs":[{"name":"user","type":"address","internalType":"address"},{"name":"topicId","type":"uint32","internalType":"uint32"}],"outputs":[{"name":"","type":"uint16","internalType":"uint16"}],"stateMutability":"view"},{"type":"function","name":"getUserTopics","inputs":[{"name":"user","type":"address","internalType":"address"}],"outputs":[{"name":"","type":"uint32[]","internalType":"uint32[]"}],"stateMutability":"view"},{"type":"function","name":"initialize","inputs":[{"name":"initialOwner","type":"address","internalType":"address"},{"name":"_topicRegistry","type":"address","internalType":"address"}],"outputs":[],"stateMutability":"nonpayable"},{"type":"function","name":"isRegistered","inputs":[{"name":"user","type":"address","internalType":"address"}],"outputs":[{"name":"","type":"bool","internalType":"bool"}],"stateMutability":"view"},{"type":"function","name":"isRegisteredInTeam","inputs":[{"name":"teamId","type":"uint64","internalType":"uint64"},{"name":"user","type":"address","internalType":"address"}],"outputs":[{"name":"","type":"bool","internalType":"bool"}],"stateMutability":"view"},{"type":"function","name":"owner","inputs":[],"outputs":[{"name":"","type":"address","internalType":"address"}],"stateMutability":"view"},{"type":"function","name":"peerRatingContract","inputs":[],"outputs":[{"name":"","type":"address","internalType":"address"}],"stateMutability":"view"},{"type":"function","name":"proxiableUUID","inputs":[],"outputs":[{"name":"","type":"bytes32","internalType":"bytes32"}],"stateMutability":"view"},{"type":"function","name":"recordChallengeAttempt","inputs":[{"name":"user","type":"address","internalType":"address"},{"name":"topicId","type":"uint32","internalType":"uint32"},{"name":"correct","type":"bool","internalType":"bool"}],"outputs":[],"stateMutability":"nonpayable"},{"type":"function","name":"recordTeamChallengeAttempt","inputs":[{"name":"teamId","type":"uint64","internalType":"uint64"},{"name":"user","type":"address","internalType":"address"},{"name":"topicId","type":"uint32","internalType":"uint32"},{"name":"correct","type":"bool","internalType":"bool"}],"outputs":[],"stateMutability":"nonpayable"},{"type":"function","name":"registerUser","inputs":[{"name":"name","type":"string","internalType":"string"}],"outputs":[],"stateMutability":"nonpayable"},{"type":"function","name":"registerUserInTeam","inputs":[{"name":"teamId","type":"uint64","internalType":"uint64"},{"name":"name","type":"string","internalType":"string"}],"outputs":[],"stateMutability":"nonpayable"},{"type":"function","name":"renounceOwnership","inputs":[],"outputs":[],"stateMutability":"nonpayable"},{"type":"function","name":"reputationEngine","inputs":[],"outputs":[{"name":"","type":"address","internalType":"address"}],"stateMutability":"view"},{"type":"function","name":"setChallengeContract","inputs":[{"name":"_challengeContract","type":"address","internalType":"address"}],"outputs":[],"stateMutability":"nonpayable"},{"type":"function","name":"setPeerRatingContract","inputs":[{"name":"_peerRatingContract","type":"address","internalType":"address"}],"outputs":[],"stateMutability":"nonpayable"},{"type":"function","name":"setReputationEngine","inputs":[{"name":"_reputationEngine","type":"address","internalType":"address"}],"outputs":[],"stateMutability":"nonpayable"},{"type":"function","name":"setTeamRegistry","inputs":[{"name":"teamRegistry","type":"address","internalType":"address"}],"outputs":[],"stateMutability":"nonpayable"},{"type":"function","name":"topicRegistry","inputs":[],"outputs":[{"name":"","type":"address","internalType":"contract TopicRegistry"}],"stateMutability":"view"},{"type":"function","name":"transferOwnership","inputs":[{"name":"newOwner","type":"address","internalType":"address"}],"outputs":[],"stateMutability":"nonpayable"},{"type":"function","name":"updateExpertiseScore","inputs":[{"name":"user","type":"address","internalType":"address"},{"name":"topicId","type":"uint32","internalType":"uint32"},{"name":"newScore","type":"uint16","internalType":"uint16"}],"outputs":[],"stateMutability":"nonpayable"},{"type":"function","name":"updateTeamExpertiseScore","inputs":[{"name":"teamId","type":"uint64","internalType":"uint64"},{"name":"user","type":"address","internalType":"address"},{"name":"topicId","type":"uint32","internalType":"uint32"},{"name":"newScore","type":"uint16","internalType":"uint16"}],"outputs":[],"stateMutability":"nonpayable"},{"type":"function","name":"upgradeToAndCall","inputs":[{"name":"newImplementation","type":"address","internalType":"address"},{"name":"data","type":"bytes","internalType":"bytes"}],"outputs":[],"stateMutability":"payable"},{"type":"function","name":"userExpertise","inputs":[{"name":"","type":"address","internalType":"address"},{"name":"","type":"uint32","internalType":"uint32"}],"outputs":[{"name":"score","type":"uint16","internalType":"uint16"},{"name":"totalChallenges","type":"uint32","internalType":"uint32"},{"name":"correctChallenges","type":"uint32","internalType":"uint32"},{"name":"lastActivityTime","type":"uint64","internalType":"uint64"}],"stateMutability":"view"},{"type":"function","name":"userProfiles","inputs":[{"name":"","type":"address","internalType":"address"}],"outputs":[{"name":"userAddress","type":"address","internalType":"address"},{"name":"isRegistered","type":"bool","internalType":"bool"},{"name":"registrationTime","type":"uint64","internalType":"uint64"},{"name":"totalTopicsEngaged","type":"uint32","internalType":"uint32"},{"name":"name","type":"string","internalType":"string"}],"stateMutability":"view"},{"type":"function","name":"userTopics","inputs":[{"name":"","type":"address","internalType":"address"},{"name":"","type":"uint256","internalType":"uint256"}],"outputs":[{"name":"","type":"uint32","internalType":"uint32"}],"stateMutability":"view"},{"type":"event","name":"ChallengeAttempted","inputs":[{"name":"user","type":"address","indexed":true,"internalType":"address"},{"name":"topicId","type":"uint32","indexed":true,"internalType":"uint32"},{"name":"correct","type":"bool","indexed":false,"internalType":"bool"}],"anonymous":false},{"type":"event","name":"ExpertiseUpdated","inputs":[{"name":"user","type":"address","indexed":true,"internalType":"address"},{"name":"topicId","type":"uint32","indexed":true,"internalType":"uint32"},{"name":"newScore","type":"uint16","indexed":false,"internalType":"uint16"}],"anonymous":false},{"type":"event","name":"Initialized","inputs":[{"name":"version","type":"uint64","indexed":false,"internalType":"uint64"}],"anonymous":false},{"type":"event","name":"OwnershipTransferred","inputs":[{"name":"previousOwner","type":"address","indexed":true,"internalType":"address"},{"name":"newOwner","type":"address","indexed":true,"internalType":"address"}],"anonymous":false},{"type":"event","name":"TeamChallengeAttempted","inputs":[{"name":"teamId","type":"uint64","indexed":true,"internalType":"uint64"},{"name":"user","type":"address","indexed":true,"internalType":"address"},{"name":"topicId","type":"uint32","indexed":true,"internalType":"uint32"},{"name":"correct","type":"bool","indexed":false,"internalType":"bool"}],"anonymous":false},{"type":"event","name":"TeamExpertiseUpdated","inputs":[{"name":"teamId","type":"uint64","indexed":true,"internalType":"uint64"},{"name":"user","type":"address","indexed":true,"internalType":"address"},{"name":"topicId","type":"uint32","indexed":true,"internalType":"uint32"},{"name":"newScore","type":"uint16","indexed":false,"internalType":"uint16"}],"anonymous":false},{"type":"event","name":"TeamRegistrySet","inputs":[{"name":"teamRegistry","type":"address","indexed":true,"internalType":"address"}],"anonymous":false},{"type":"event","name":"TeamUserRegistered","inputs":[{"name":"teamId","type":"uint64","indexed":true,"internalType":"uint64"},{"name":"user","type":"address","indexed":true,"internalType":"address"},{"name":"timestamp","type":"uint64","indexed":false,"internalType":"uint64"}],"anonymous":false},{"type":"event","name":"Upgraded","inputs":[{"name":"implementation","type":"address","indexed":true,"internalType":"address"}],"anonymous":false},{"type":"event","name":"UserRegistered","inputs":[{"name":"user","type":"address","indexed":true,"internalType":"address"},{"name":"timestamp","type":"uint64","indexed":false,"internalType":"uint64"}],"anonymous":false},{"type":"error","name":"AddressEmptyCode","inputs":[{"name":"target","type":"address","internalType":"address"}]},{"type":"error","name":"ERC1967InvalidImplementation","inputs":[{"name":"implementation","type":"address","internalType":"address"}]},{"type":"error","name":"ERC1967NonPayable","inputs":[]},{"type":"error","name":"FailedCall","inputs":[]},{"type":"error","name":"InvalidInitialization","inputs":[]},{"type":"error","name":"InvalidTeamId","inputs":[]},{"type":"error","name":"InvalidTopicId","inputs":[]},{"type":"error","name":"NotInitializing","inputs":[]},{"type":"error","name":"NotTeamMember","inputs":[]},{"type":"error","name":"OwnableInvalidOwner","inputs":[{"name":"owner","type":"address","internalType":"address"}]},{"type":"error","name":"OwnableUnauthorizedAccount","inputs":[{"name":"account","type":"address","internalType":"address"}]},{"type":"error","name":"TeamRegistryNotSet","inputs":[]},{"type":"error","name":"UUPSUnauthorizedCallContext","inputs":[]},{"type":"error","name":"UUPSUnsupportedProxiableUUID","inputs":[{"name":"slot","type":"bytes32","internalType":"bytes32"}]},{"type":"error","name":"Unauthorized","inputs":[]},{"type":"error","name":"UserAlreadyRegistered","inputs":[]},{"type":"error","name":"UserNotRegistered","inputs":[]}],"bytecode":{"object":"0x60a080604052346100cc57306080527ff0c57e16840df040f15088dc2f81fe391c3923bec73e23a9662efc9c229c6a009081549060ff8260401c166100bd57506001600160401b036002600160401b031982821601610078575b6040516129ad90816100d1823960805181818161111d01526115020152f35b6001600160401b031990911681179091556040519081527fc7f505b2f371ae2175ee4913f4499e1f2633a7b5936321eed1cdaeb6115181d290602090a15f8080610059565b63f92ee8a960e01b8152600490fd5b5f80fdfe6080806040526004361015610012575f80fd5b5f9060e05f35811c918263094a2b4f14611b6d575081630991072d14611b1957816317c909e314611ab15781631dfa957b14611a8957816327ff622314611a6d57816328377de314611a125781632a943cd4146119ea578163332d56d71461195f578163389e5bed1461190b5781633c7f50041461189c5781633fb6b89f1461183257816340b8927014611818578163438031c3146117f0578163485cc955146116a15781634f1ef286146114b45781634f762fc31461125c5781635055735b14611233578163509a9ca6146111d657816350e869f31461118757816352d1902d1461110a5781635c40be59146110dd5781635d22f6161461109c5781636bb5090c14611051578163704f1b9414611016578163715018a614610fad5781637cc92bf114610f625781638da5cb5b14610f2d5781638efa378614610e285781639063598914610d5b5781639425b74114610b8957508063987ee15614610aec578063ad3cb1cc14610a80578063b37256b914610a35578063c0a65a5d14610944578063c3331907146108dc578063c3c5a5471461089b578063c3f677ef14610872578063de33037314610856578063f2fde38b14610829578063fb503eeb146107ab578063fce19dbb146102e05763fd268af9146101ee575f80fd5b346102dd5760603660031901126102dd576102d99061020b611d4e565b610213611d64565b604061021d611e11565b93610226612090565b506001600160401b0380941681526004602052209060018060a01b03165f5260205260405f2063ffffffff8093165f5260205260405f20916040519261026b84611e5c565b549061ffff82168452808260101c1660208501528160301c16604084015260501c1660608201526040519182918291909160606001600160401b0381608084019561ffff8151168552602081015163ffffffff80911660208701526040820151166040860152015116910152565b0390f35b80fd5b50346102dd5760803660031901126102dd576102fa611d4e565b610302611d64565b9061030b611e11565b6064351515606435036107a7576008546001600160a01b031633141580610792575b610781576001600160401b0382161561076f576001600160401b038216845260036020526040842060018060a01b0384165f5260205260ff60405f205460a01c161561075d57600654604051637d3de18f60e11b815263ffffffff8316600482015285916001600160a01b0316908281602481855afa879181610741575b50610692575b508115610615575b5015610604576001600160401b038216845260046020526040842060018060a01b0384165f5260205260405f2063ffffffff82165f5260205261046c60405f2063ffffffff815460101c1615610587575b61043e61042063ffffffff835460101c16612204565b825465ffffffff0000191660109190911b65ffffffff000016178255565b606435610546575b805467ffffffffffffffff60501b19164260501b67ffffffffffffffff60501b16179055565b60085484906001600160a01b0316803b1561054257604051635b4379a360e01b81526001600160401b03851660048201526001600160a01b038616602482015263ffffffff841660448201529082908290606490829084905af180156105375761051f575b50507f267dec283fd413f02d2258c0d3b426cef89b2476aa19dccad3fdc08adadb309160206001600160401b0363ffffffff6040519460643515158652169560018060a01b0316941692a480f35b61052890611e92565b61053357835f6104d1565b8380fd5b6040513d84823e3d90fd5b5080fd5b61058261055c63ffffffff835460301c16612204565b825469ffffffff000000000000191660309190911b69ffffffff00000000000016178255565b610446565b6001600160401b038416865260056020526040862060018060a01b0386165f526020526105b78360405f206121c6565b6001600160401b038416865260036020526040862060018060a01b0386165f52602052600160405f2001805463ffffffff6105f3818316612204565b169063ffffffff191617905561040a565b6040516227fb4f60ea1b8152600490fd5b604051631f11f0c960e01b81526001600160401b038516600482015263ffffffff84166024820152908690829060449082905afa86918161066e575b50156103b95760600151610666575b5f6103b9565b506001610660565b61068b9192503d8089833e6106838183611ea5565b8101906120fc565b905f610651565b606001511515806106b2575b6106a9575b5f6103b1565b600191506106a3565b506040516321d6fa4b60e01b81526001600160401b038516600482015263ffffffff84166024820152602081604481855afa9081156107365787916106f8575b5061069e565b90506020813d60201161072e575b8161071360209383611ea5565b8101031261072a57610724906120ef565b5f6106f2565b8680fd5b3d9150610706565b6040513d89823e3d90fd5b6107569192503d808a833e6106838183611ea5565b905f6103ab565b604051632163950f60e01b8152600490fd5b604051632a982bb360e01b8152600490fd5b6040516282b42960e81b8152600490fd5b50600a546001600160a01b031633141561032d565b5f80fd5b50346102dd5760403660031901126102dd5760809060406107ca611d7a565b916107d3611dfe565b9260018060a01b0316815260016020522063ffffffff8092165f526020526001600160401b0360405f20546040519261ffff82168452808260101c1660208501528160301c16604084015260501c166060820152f35b50346102dd5760203660031901126102dd57610853610846611d7a565b61084e6123f8565b612387565b80f35b50346102dd57806003193601126102dd57602060405160328152f35b50346102dd57806003193601126102dd576008546040516001600160a01b039091168152602090f35b50346102dd5760203660031901126102dd5760209060ff906040906001600160a01b036108c6611d7a565b168152808452205460a01c166040519015158152f35b50346102dd5760203660031901126102dd576108f6611d7a565b6108fe6123f8565b600780546001600160a01b0319166001600160a01b039290921691821790557fd0801fff3e2226ee289a97ef9d3f4aedceb36ab883e6d7cdb8a22de6f3f242918280a280f35b50346102dd5760803660031901126102dd5761095e611d4e565b610966611d64565b61096e611e11565b9161ffff90606435828116908181036107a7576008546001600160a01b039190821633141580610a27575b610781576001600160401b0390931693841561076f577f71394f07e45ad32bbfd6795b11dcea74e0b77dd8216de70d0ec6f9d8167d21c4936020936103e8809111610a1f575b5016908488526004835260408820951694855f52825263ffffffff60405f20961695865f52825260405f208161ffff19825416179055604051908152a480f35b90505f6109df565b5081600a5416331415610999565b50346102dd5760203660031901126102dd57610a4f611d7a565b610a576123f8565b600a54906001600160a01b03908183166107815716906001600160601b0360a01b1617600a5580f35b50346102dd57806003193601126102dd5760405160408101908082106001600160401b03831117610ad8576102d99160405260058152640352e302e360dc1b6020820152604051918291602083526020830190611f89565b634e487b7160e01b5f52604160045260245ffd5b50346102dd5760203660031901126102dd576102d990610b7860026040610b11611d7a565b93610b1a6120b4565b506001600160a01b039485168152602081905220604051936001600160401b0390610b4486611e77565b8254908116865260ff8160a01c161515602087015260a81c16604085015263ffffffff600182015416606085015201611ec6565b608082015260405191829182611fae565b90503461054257602091826003193601126102dd576001600160a01b03610bae611d7a565b168152600283526040812090604051928385845491828152019383528583205b816007850110610cf557926102d99692610c3295928795549285828210610cdf575b828210610cc7575b828210610cae575b828210610c95575b828210610c7c575b828210610c63575b828210610c4a575b5010610c3e575b505090500382611ea5565b60405191829182611d90565b1c815201805f80610c27565b6001919563ffffffff8660c01c16815201940185610c20565b6001919563ffffffff8660a01c16815201940185610c18565b6001919563ffffffff8660801c16815201940185610c10565b6001919563ffffffff8660601c16815201940185610c08565b6001919563ffffffff8660401c16815201940185610c00565b6001919563ffffffff86831c16815201940185610bf8565b6001919563ffffffff8616815201940185610bf0565b936001610100600892875463ffffffff808216835280828d1c168c840152808260401c16604084015260608183821c169084015260808183821c169084015260a08183821c169084015260c09082821c1690830152861c86820152019501930192610bce565b82346102dd5760603660031901126102dd57610d75611d7a565b610d7d611dfe565b9061ffff604435818116918282036107a7576008546001600160a01b039190821633141580610e1a575b610781577ff330ead817a300daf2736f4890df21da08f0a0d0f7fbd97732533a97adf2dafc93602093906103e8809111610e12575b50169316928386526001825263ffffffff60408720951694855f52825260405f208161ffff19825416179055604051908152a380f35b905088610ddc565b5081600a5416331415610da7565b82346102dd5760403660031901126102dd57610e42611d4e565b6001600160401b0360243581811161053357610e62903690600401611dd1565b918316801561076f576007546001600160a01b0316908115610f1b5760209060446040518094819363b6a7a67b60e01b835260048301523360248301525afa908115610f10578591610ed2575b5015610ec057610853923390612430565b604051632793ed7d60e01b8152600490fd5b90506020813d602011610f08575b81610eed60209383611ea5565b81010312610f0457610efe906120ef565b85610eaf565b8480fd5b3d9150610ee0565b6040513d87823e3d90fd5b604051632f8ecd6f60e21b8152600490fd5b82346102dd57806003193601126102dd575f80516020612958833981519152546040516001600160a01b039091168152602090f35b82346102dd5760203660031901126102dd57610f7c611d7a565b610f846123f8565b600954906001600160a01b03908183166107815716906001600160601b0360a01b161760095580f35b82346102dd57806003193601126102dd57610fc66123f8565b5f8051602061295883398151915280546001600160a01b031981169091555f906001600160a01b03167f8be0079c531659141344cd1fd0a4f28419497f9722a3daafe3b4186f6b6457e08280a380f35b82346102dd5760203660031901126102dd576004356001600160401b0381116105425761104a610853913690600401611dd1565b9033612668565b82346102dd5760203660031901126102dd5761106b611d7a565b6110736123f8565b600854906001600160a01b03908183166107815716906001600160601b0360a01b161760085580f35b82346102dd5760603660031901126102dd5760206110d16110bb611d4e565b6110c3611d64565b6110cb611e11565b916122fd565b61ffff60405191168152f35b82346102dd5760403660031901126102dd5760206110d16110fc611d7a565b611104611dfe565b9061226f565b82346102dd57806003193601126102dd577f00000000000000000000000000000000000000000000000000000000000000006001600160a01b031630036111755760206040517f360894a13ba1a3210667c828492db98dca3e2076cc3735a920a3ca505d382bbc8152f35b60405163703e46dd60e11b8152600490fd5b82346102dd5760403660031901126102dd576111a1611d7a565b602435906001600160401b0382116111d2576111c4610853923690600401611dd1565b916111cd6123f8565b612668565b8280fd5b82346102dd5760403660031901126102dd576111f0611d7a565b6001600160a01b03168152600260205260408120805460243592908310156102dd57602063ffffffff611223858561205b565b9190546040519260031b1c168152f35b82346102dd57806003193601126102dd576006546040516001600160a01b039091168152602090f35b82346107a75760603660031901126107a757611276611d7a565b61127e611dfe565b906044358015158082036107a7576008546001600160a01b0393908416331415806114a6575b61078157831692835f526020925f845260ff60405f205460a01c161561075d57816006541695604051637d3de18f60e11b815263ffffffff905f816024818587169c8d60048301525afa8015611428576060915f9161148c575b500151156106045761138992875f526001875260405f20895f52875260405f209282845460101c161561144b575b5061135d61133f83855460101c16612204565b845465ffffffff0000191660109190911b65ffffffff000016178455565b611433575b50805467ffffffffffffffff60501b19164260501b67ffffffffffffffff60501b16179055565b60085416803b156107a7575f8091604460405180948193633842af2d60e01b83528960048401528a60248401525af18015611428576113f1575b50907f4c03bc530c33de426a271cb46728bd7eba902b7e0eea53096c7d35b36d01b64891604051908152a380f35b7f4c03bc530c33de426a271cb46728bd7eba902b7e0eea53096c7d35b36d01b6489291955061141f90611e92565b5f9490916113c3565b6040513d5f823e3d90fd5b61055c61144591835460301c16612204565b88611362565b61145f90895f526002895260405f206121c6565b875f525f8752600160405f200180548361147a818316612204565b169063ffffffff19161790558a61132c565b6114a091503d805f833e6106838183611ea5565b8b6112fe565b5083600a54163314156112a4565b60403660031901126107a7576114c8611d7a565b6024356001600160401b0381116107a757366023820112156107a7576114f8903690602481600401359101612025565b6001600160a01b037f00000000000000000000000000000000000000000000000000000000000000008116308114908115611673575b506111755761153b6123f8565b8216916040516352d1902d60e01b8152602081600481875afa5f918161163f575b5061157a57604051634c9c8ce360e01b815260048101859052602490fd5b7f360894a13ba1a3210667c828492db98dca3e2076cc3735a920a3ca505d382bbc908181036116275750813b1561160e5780546001600160a01b03191684179055604051927fbc7cd75a20ee27fd9adebab32041f755214dbc6bffa90cc0225b39da2e5c2d3b5f80a28151156115f6576115f492506128c6565b005b5050346115ff57005b63b398979f60e01b8152600490fd5b604051634c9c8ce360e01b815260048101859052602490fd5b60249060405190632a87526960e21b82526004820152fd5b9091506020813d60201161166b575b8161165b60209383611ea5565b810103126107a75751908561155c565b3d915061164e565b9050817f360894a13ba1a3210667c828492db98dca3e2076cc3735a920a3ca505d382bbc541614158461152e565b346107a75760403660031901126107a7576116ba611d7a565b6116c2611d64565b907ff0c57e16840df040f15088dc2f81fe391c3923bec73e23a9662efc9c229c6a0091825460ff8160401c1615926001600160401b038216801590816117e8575b60011490816117de575b1590816117d5575b506117c35767ffffffffffffffff198216600117855561174691846117a4575b5061173e612885565b61084e612885565b60018060a01b03166001600160601b0360a01b600654161760065561176757005b68ff00000000000000001981541690557fc7f505b2f371ae2175ee4913f4499e1f2633a7b5936321eed1cdaeb6115181d2602060405160018152a1005b68ffffffffffffffffff19166801000000000000000117855585611735565b60405163f92ee8a960e01b8152600490fd5b90501586611715565b303b15915061170d565b859150611703565b346107a7575f3660031901126107a757600a546040516001600160a01b039091168152602090f35b346107a7575f3660031901126107a75760206040515f8152f35b346107a75760403660031901126107a7576102d961184e611d4e565b610b78600261185b611d64565b926118646120b4565b506001600160401b038091165f52600360205260405f2060018060a01b038095165f5260205260405f209060405194610b4486611e77565b346107a75760603660031901126107a7576118b5611d4e565b6118bd611d64565b6001600160401b036118cd611e11565b92165f52600460205260405f209060018060a01b03165f5260205263ffffffff60405f2091165f52602052602061ffff60405f205416604051908152f35b346107a75760403660031901126107a757611924611d7a565b61192c611dfe565b9060018060a01b03165f52600160205263ffffffff60405f2091165f52602052602061ffff60405f205416604051908152f35b346107a75760203660031901126107a7576001600160a01b0380611981611d7a565b165f525f60205260405f20906102d98254926119aa600263ffffffff6001840154169201611ec6565b906001600160401b036040519586958116865260ff8160a01c161515602087015260a81c166040850152606084015260a0608084015260a0830190611f89565b346107a7575f3660031901126107a7576009546040516001600160a01b039091168152602090f35b346107a75760403660031901126107a757611a2b611d4e565b6001600160401b03611a3b611d64565b91165f52600360205260405f209060018060a01b03165f52602052602060ff60405f205460a01c166040519015158152f35b346107a7575f3660031901126107a75760206040516103e88152f35b346107a7575f3660031901126107a7576007546040516001600160a01b039091168152602090f35b346107a75760403660031901126107a7576102d9611acd611d7a565b611ad5611dfe565b90611ade612090565b5060018060a01b03165f52600160205260405f2063ffffffff8092165f526020526001600160401b0360405f20916040519261026b84611e5c565b346107a75760603660031901126107a757611b32611d4e565b611b3a611d64565b604435916001600160401b0383116107a757611b5d6115f4933690600401611dd1565b929091611b686123f8565b612430565b346107a75760403660031901126107a757611b86611d4e565b916001600160401b03611b97611d64565b93165f9081526005602090815260408083206001600160a01b03909616835294815293812080548085529082528482208486019391905b816007850110611ce857926102d99692610c3295928795549285828210611cd2575b828210611cba575b828210611ca1575b828210611c88575b828210611c6f575b828210611c56575b828210611c3d575b5010611c3157505090500382611ea5565b1c815201808680610c27565b6001919563ffffffff8660c01c16815201940185611c20565b6001919563ffffffff8660a01c16815201940185611c18565b6001919563ffffffff8660801c16815201940185611c10565b6001919563ffffffff8660601c16815201940185611c08565b6001919563ffffffff8660401c16815201940185611c00565b6001919563ffffffff86831c16815201940185611bf8565b6001919563ffffffff8616815201940185611bf0565b936001610100600892875463ffffffff808216835280828d1c168c840152808260401c16604084015260608183821c169084015260808183821c169084015260a08183821c169084015260c09082821c1690830152861c86820152019501930192611bce565b600435906001600160401b03821682036107a757565b602435906001600160a01b03821682036107a757565b600435906001600160a01b03821682036107a757565b60209060206040818301928281528551809452019301915f5b828110611db7575050505090565b835163ffffffff1685529381019392810192600101611da9565b9181601f840112156107a7578235916001600160401b0383116107a757602083818601950101116107a757565b6024359063ffffffff821682036107a757565b6044359063ffffffff821682036107a757565b90600182811c92168015611e52575b6020831014611e3e57565b634e487b7160e01b5f52602260045260245ffd5b91607f1691611e33565b608081019081106001600160401b03821117610ad857604052565b60a081019081106001600160401b03821117610ad857604052565b6001600160401b038111610ad857604052565b90601f801991011681019081106001600160401b03821117610ad857604052565b9060405191825f8254611ed881611e24565b908184526020946001916001811690815f14611f465750600114611f08575b505050611f0692500383611ea5565b565b5f90815285812095935091905b818310611f2e575050611f0693508201015f8080611ef7565b85548884018501529485019487945091830191611f15565b92505050611f0694925060ff191682840152151560051b8201015f8080611ef7565b5f5b838110611f795750505f910152565b8181015183820152602001611f6a565b90602091611fa281518092818552858086019101611f68565b601f01601f1916010190565b60c06080612007936020845260018060a01b0381511660208501526020810151151560408501526001600160401b03604082015116606085015263ffffffff6060820151168285015201519160a0808201520190611f89565b90565b6001600160401b038111610ad857601f01601f191660200190565b9291926120318261200a565b9161203f6040519384611ea5565b8294818452818301116107a7578281602093845f960137010152565b919091805483101561207c575f52601c60205f208360031c019260021b1690565b634e487b7160e01b5f52603260045260245ffd5b6040519061209d82611e5c565b5f6060838281528260208201528260408201520152565b604051906120c182611e77565b60606080835f81525f60208201525f60408201525f838201520152565b519063ffffffff821682036107a757565b519081151582036107a757565b602080828403126107a75781516001600160401b03928382116107a7570160a0818503126107a7576040519361213185611e77565b61213a826120de565b8552828201518481116107a75782019281601f850112156107a7578351936121618561200a565b9261216f6040519485611ea5565b8584528286830101116107a75760809461218e91838086019101611f68565b85015261219d604082016120de565b60408501526121ae606082016120ef565b6060850152015190811681036107a757608082015290565b805468010000000000000000811015610ad8576121e89160018201815561205b565b63ffffffff9291928084549260031b9316831b921b1916179055565b63ffffffff8091169081146122195760010190565b634e487b7160e01b5f52601160045260245ffd5b9061271063ffffffff8093160291821691820361221957565b9063ffffffff80911691821561225b57160490565b634e487b7160e01b5f52601260045260245ffd5b60018060a01b03165f52600160205260405f2063ffffffff8092165f5260205260405f20604051906122a082611e5c565b549061ffff928383168252808360101c16602083019281845260606001600160401b03848760301c169687604085015260501c16910152156122f5576122e86122f19361222d565b91511690612246565b1690565b505050505f90565b91906001600160401b038093165f52600460205260405f209060018060a01b03165f5260205260405f2063ffffffff8092165f5260205260405f20916040519261234684611e5c565b549161ffff938484168152818460101c169060606020820194838652848760301c169687604085015260501c16910152156122f5576122e86122f19361222d565b6001600160a01b039081169081156123e0575f8051602061295883398151915280546001600160a01b031981168417909155167f8be0079c531659141344cd1fd0a4f28419497f9722a3daafe3b4186f6b6457e05f80a3565b604051631e4fbdf760e01b81525f6004820152602490fd5b5f80516020612958833981519152546001600160a01b0316330361241857565b60405163118cdaa760e01b8152336004820152602490fd5b919392906001600160401b0380931691821561076f57825f5260209160038352604090815f209560018060a01b0380921696875f52855260ff835f205460a01c166126575760028142169484519061248782611e77565b89825287820160019c8d82526124ac888501918a835260608601945f86523691612025565b96608085019788528b5f5260038b52885f208d5f528b52885f2094511684549260ff60a01b9051151560a01b16916001600160401b0360a81b905160a81b169262ffffff60e81b16171717825563ffffffff8c830191511663ffffffff19825416179055019151988951918211610ad8576125278354611e24565b601f8111612611575b508599601f83116001146125915782917f71b13d445dcc63f75d74a9013a5b1eda971e91ff5528f7318984ecb0d3a8a40798999a9b83925f94612586575b50501b915f199060031b1c19161790555b51908152a3565b015192505f8061256e565b601f9291921982169a845f52875f20915f5b8d81106125fc5750837f71b13d445dcc63f75d74a9013a5b1eda971e91ff5528f7318984ecb0d3a8a4079a9b9c9d106125e4575b505050811b01905561257f565b01515f1960f88460031b161c191690555f80806125d7565b818301518455928501929189019189016125a3565b835f52865f20601f840160051c81019188851061264d575b601f0160051c019082905b828110612642575050612530565b5f8155018290612634565b9091508190612629565b8251634f2532fb60e11b8152600490fd5b6001600160a01b039081165f818152602081815260409182902054949695929490939060a01c60ff16612874576001600160401b036002814216948451906126af82611e77565b88825287820160019b8c82526126d4888501918a835260608601945f86523691612025565b96608085019788528b5f525f8b52885f2094511684549260ff60a01b9051151560a01b16916001600160401b0360a81b905160a81b169262ffffff60e81b16171717825563ffffffff8b830191511663ffffffff19825416179055019151978851918211610ad8576127468354611e24565b601f811161282e575b508598601f83116001146127af5782917f38fb07334ce9e7075e2c2f4a587afece66d5a7374a230473bab05bc0e92a71f698999a83925f946127a4575b50501b915f199060031b1c19161790555b51908152a2565b015192505f8061278c565b601f92919219821699845f52875f20915f5b8c81106128195750837f38fb07334ce9e7075e2c2f4a587afece66d5a7374a230473bab05bc0e92a71f69a9b9c10612801575b505050811b01905561279d565b01515f1960f88460031b161c191690555f80806127f4565b818301518455928501929189019189016127c1565b835f52865f20601f840160051c81019188851061286a575b601f0160051c019082905b82811061285f57505061274f565b5f8155018290612851565b9091508190612846565b8151634f2532fb60e11b8152600490fd5b60ff7ff0c57e16840df040f15088dc2f81fe391c3923bec73e23a9662efc9c229c6a005460401c16156128b457565b604051631afcd79f60e31b8152600490fd5b905f8091602081519101845af48080612944575b156128fa5750506040513d81523d5f602083013e60203d82010160405290565b1561292157604051639996b31560e01b81526001600160a01b039091166004820152602490fd5b3d15612932576040513d5f823e3d90fd5b60405163d6bda27560e01b8152600490fd5b503d1515806128da5750813b15156128da56fe9016d09d72d40fdae2fd8ceac6b6234c7706214fd39c1cd1e609a0528c199300a26469706673582212200cd3d0819b22958754997b8dbcd24ee9e17e2d03ceda387812219a1c808d2b1c64736f6c63430008180033","linkReferences":{}},"methodIdentifiers":{"INITIAL_SCORE()":"de330373","MAX_SCORE()":"27ff6223","MIN_SCORE()":"40b89270","UPGRADE_INTERFACE_VERSION()":"ad3cb1cc","adminRegisterUser(address,string)":"50e869f3","adminRegisterUserInTeam(uint64,address,string)":"0991072d","challengeContract()":"438031c3","getAccuracy(address,uint32)":"5c40be59","getTeamAccuracy(uint64,address,uint32)":"5d22f616","getTeamRegistry()":"1dfa957b","getTeamUserExpertise(uint64,address,uint32)":"fd268af9","getTeamUserProfile(uint64,address)":"3fb6b89f","getTeamUserScore(uint64,address,uint32)":"3c7f5004","getTeamUserTopics(uint64,address)":"094a2b4f","getUserExpertise(address,uint32)":"17c909e3","getUserProfile(address)":"987ee156","getUserScore(address,uint32)":"389e5bed","getUserTopics(address)":"9425b741","initialize(address,address)":"485cc955","isRegistered(address)":"c3c5a547","isRegisteredInTeam(uint64,address)":"28377de3","owner()":"8da5cb5b","peerRatingContract()":"2a943cd4","proxiableUUID()":"52d1902d","recordChallengeAttempt(address,uint32,bool)":"4f762fc3","recordTeamChallengeAttempt(uint64,address,uint32,bool)":"fce19dbb","registerUser(string)":"704f1b94","registerUserInTeam(uint64,string)":"8efa3786","renounceOwnership()":"715018a6","reputationEngine()":"c3f677ef","setChallengeContract(address)":"b37256b9","setPeerRatingContract(address)":"7cc92bf1","setReputationEngine(address)":"6bb5090c","setTeamRegistry(address)":"c3331907","topicRegistry()":"5055735b","transferOwnership(address)":"f2fde38b","updateExpertiseScore(address,uint32,uint16)":"90635989","updateTeamExpertiseScore(uint64,address,uint32,uint16)":"c0a65a5d","upgradeToAndCall(address,bytes)":"4f1ef286","userExpertise(address,uint32)":"fb503eeb","userProfiles(address)":"332d56d7","userTopics(address,uint256)":"509a9ca6"},"id":39}