{"abi":[{"type":"constructor","inputs":[{"name":"_topicRegistry","type":"address","internalType":"address"}],"stateMutability":"nonpayable"},{"type":"function","name":"INITIAL_SCORE","inputs":[],"outputs":[{"name":"","type":"uint16","internalType":"uint16"}],"stateMutability":"view"},{"type":"function","name":"MAX_SCORE","inputs":[],"outputs":[{"name":"","type":"uint16","internalType":"uint16"}],"stateMutability":"view"},{"type":"function","name":"MIN_SCORE","inputs":[],"outputs":[{"name":"","type":"uint16","internalType":"uint16"}],"stateMutability":"view"},{"type":"function","name":"getAccuracy","inputs":[{"name":"user","type":"address","internalType":"address"},{"name":"topicId","type":"uint32","internalType":"uint32"}],"outputs":[{"name":"","type":"uint16","internalType":"uint16"}],"stateMutability":"view"},{"type":"function","name":"getUserExpertise","inputs":[{"name":"user","type":"address","internalType":"address"},{"name":"topicId","type":"uint32","internalType":"uint32"}],"outputs":[{"name":"","type":"tuple","internalType":"struct User.UserTopicExpertise","components":[{"name":"score","type":"uint16","internalType":"uint16"},{"name":"totalChallenges","type":"uint32","internalType":"uint32"},{"name":"correctChallenges","type":"uint32","internalType":"uint32"},{"name":"lastActivityTime","type":"uint64","internalType":"uint64"}]}],"stateMutability":"view"},{"type":"function","name":"getUserProfile","inputs":[{"name":"user","type":"address","internalType":"address"}],"outputs":[{"name":"","type":"tuple","internalType":"struct User.UserProfile","components":[{"name":"userAddress","type":"address","internalType":"address"},{"name":"isRegistered","type":"bool","internalType":"bool"},{"name":"registrationTime","type":"uint64","internalType":"uint64"},{"name":"totalTopicsEngaged","type":"uint32","internalType":"uint32"}]}],"stateMutability":"view"},{"type":"function","name":"getUserScore","inputs":[{"name":"user","type":"address","internalType":"address"},{"name":"topicId","type":"uint32","internalType":"uint32"}],"outputs":[{"name":"","type":"uint16","internalType":"uint16"}],"stateMutability":"view"},{"type":"function","name":"getUserTopics","inputs":[{"name":"user","type":"address","internalType":"address"}],"outputs":[{"name":"","type":"uint32[]","internalType":"uint32[]"}],"stateMutability":"view"},{"type":"function","name":"isRegistered","inputs":[{"name":"user","type":"address","internalType":"address"}],"outputs":[{"name":"","type":"bool","internalType":"bool"}],"stateMutability":"view"},{"type":"function","name":"recordChallengeAttempt","inputs":[{"name":"user","type":"address","internalType":"address"},{"name":"topicId","type":"uint32","internalType":"uint32"},{"name":"correct","type":"bool","internalType":"bool"}],"outputs":[],"stateMutability":"nonpayable"},{"type":"function","name":"registerUser","inputs":[],"outputs":[],"stateMutability":"nonpayable"},{"type":"function","name":"reputationEngine","inputs":[],"outputs":[{"name":"","type":"address","internalType":"address"}],"stateMutability":"view"},{"type":"function","name":"setReputationEngine","inputs":[{"name":"_reputationEngine","type":"address","internalType":"address"}],"outputs":[],"stateMutability":"nonpayable"},{"type":"function","name":"topicRegistry","inputs":[],"outputs":[{"name":"","type":"address","internalType":"contract TopicRegistry"}],"stateMutability":"view"},{"type":"function","name":"updateExpertiseScore","inputs":[{"name":"user","type":"address","internalType":"address"},{"name":"topicId","type":"uint32","internalType":"uint32"},{"name":"newScore","type":"uint16","internalType":"uint16"}],"outputs":[],"stateMutability":"nonpayable"},{"type":"function","name":"userExpertise","inputs":[{"name":"","type":"address","internalType":"address"},{"name":"","type":"uint32","internalType":"uint32"}],"outputs":[{"name":"score","type":"uint16","internalType":"uint16"},{"name":"totalChallenges","type":"uint32","internalType":"uint32"},{"name":"correctChallenges","type":"uint32","internalType":"uint32"},{"name":"lastActivityTime","type":"uint64","internalType":"uint64"}],"stateMutability":"view"},{"type":"function","name":"userProfiles","inputs":[{"name":"","type":"address","internalType":"address"}],"outputs":[{"name":"userAddress","type":"address","internalType":"address"},{"name":"isRegistered","type":"bool","internalType":"bool"},{"name":"registrationTime","type":"uint64","internalType":"uint64"},{"name":"totalTopicsEngaged","type":"uint32","internalType":"uint32"}],"stateMutability":"view"},{"type":"function","name":"userTopics","inputs":[{"name":"","type":"address","internalType":"address"},{"name":"","type":"uint256","internalType":"uint256"}],"outputs":[{"name":"","type":"uint32","internalType":"uint32"}],"stateMutability":"view"},{"type":"event","name":"ChallengeAttempted","inputs":[{"name":"user","type":"address","indexed":true,"internalType":"address"},{"name":"topicId","type":"uint32","indexed":true,"internalType":"uint32"},{"name":"correct","type":"bool","indexed":false,"internalType":"bool"}],"anonymous":false},{"type":"event","name":"ExpertiseUpdated","inputs":[{"name":"user","type":"address","indexed":true,"internalType":"address"},{"name":"topicId","type":"uint32","indexed":true,"internalType":"uint32"},{"name":"newScore","type":"uint16","indexed":false,"internalType":"uint16"}],"anonymous":false},{"type":"event","name":"UserRegistered","inputs":[{"name":"user","type":"address","indexed":true,"internalType":"address"},{"name":"timestamp","type":"uint64","indexed":false,"internalType":"uint64"}],"anonymous":false},{"type":"error","name":"InvalidTopicId","inputs":[]},{"type":"error","name":"Unauthorized","inputs":[]},{"type":"error","name":"UserAlreadyRegistered","inputs":[]},{"type":"error","name":"UserNotRegistered","inputs":[]}],"bytecode":{"object":"0x60a060405234801561000f575f80fd5b5060405161110938038061110983398101604081905261002e9161003f565b6001600160a01b031660805261006c565b5f6020828403121561004f575f80fd5b81516001600160a01b0381168114610065575f80fd5b9392505050565b60805161107e61008b5f395f818161026301526107a5015261107e5ff3fe608060405234801561000f575f80fd5b5060043610610111575f3560e01c80635c40be591161009e578063987ee1561161006e578063987ee1561461031e578063c3c5a54714610405578063c3f677ef14610447578063de33037314610239578063fb503eeb1461045a575f80fd5b80635c40be59146102c55780636bb5090c146102d857806390635989146102eb5780639425b741146102fe575f80fd5b806340b89270116100e457806340b89270146102395780634d3820eb146102415780634f762fc31461024b5780635055735b1461025e578063509a9ca61461029d575f80fd5b806317c909e31461011557806327ff622314610178578063332d56d714610194578063389e5bed14610226575b5f80fd5b610128610123366004610cb9565b6104ec565b60408051825161ffff16815260208084015163ffffffff908116918301919091528383015116918101919091526060918201516001600160401b0316918101919091526080015b60405180910390f35b6101816103e881565b60405161ffff909116815260200161016f565b6101e86101a2366004610cee565b5f60208190529081526040902080546001909101546001600160a01b03821691600160a01b810460ff1691600160a81b9091046001600160401b03169063ffffffff1684565b604080516001600160a01b03909516855292151560208501526001600160401b039091169183019190915263ffffffff16606082015260800161016f565b610181610234366004610cb9565b610585565b610181603281565b61024961060d565b005b610249610259366004610d1b565b61071f565b6102857f000000000000000000000000000000000000000000000000000000000000000081565b6040516001600160a01b03909116815260200161016f565b6102b06102ab366004610d61565b6109fd565b60405163ffffffff909116815260200161016f565b6101816102d3366004610cb9565b610a41565b6102496102e6366004610cee565b610ae8565b6102496102f9366004610d89565b610b33565b61031161030c366004610cee565b610bf6565b60405161016f9190610dca565b6103b861032c366004610cee565b604080516080810182525f808252602082018190529181018290526060810191909152506001600160a01b039081165f9081526020818152604091829020825160808101845281549485168152600160a01b850460ff16151592810192909252600160a81b9093046001600160401b03169181019190915260019091015463ffffffff16606082015290565b60405161016f919081516001600160a01b031681526020808301511515908201526040808301516001600160401b03169082015260609182015163ffffffff169181019190915260800190565b610437610413366004610cee565b6001600160a01b03165f90815260208190526040902054600160a01b900460ff1690565b604051901515815260200161016f565b600354610285906001600160a01b031681565b6104b4610468366004610cb9565b600160209081525f928352604080842090915290825290205461ffff81169063ffffffff620100008204811691600160301b8104909116906001600160401b03600160501b9091041684565b6040805161ffff95909516855263ffffffff938416602086015291909216908301526001600160401b0316606082015260800161016f565b604080516080810182525f808252602082018190529181018290526060810191909152506001600160a01b0382165f90815260016020908152604080832063ffffffff8581168552908352928190208151608081018352905461ffff81168252620100008104851693820193909352600160301b830490931690830152600160501b90046001600160401b031660608201525b92915050565b6001600160a01b0382165f90815260016020908152604080832063ffffffff85811685529083528184208251608081018452905461ffff811682526201000081048316948201859052600160301b810490921692810192909252600160501b90046001600160401b0316606082015290820361060557603291505061057f565b519392505050565b335f90815260208190526040902054600160a01b900460ff161561064457604051634f2532fb60e11b815260040160405180910390fd5b6040805160808101825233808252600160208084018281526001600160401b034281168688018181525f60608901818152888252818752908a90209851895495519251909416600160a81b0267ffffffffffffffff60a81b19921515600160a01b026001600160a81b03199096166001600160a01b03909516949094179490941716919091178655905194909201805463ffffffff90951663ffffffff19909516949094179093559251928352917f38fb07334ce9e7075e2c2f4a587afece66d5a7374a230473bab05bc0e92a71f6910160405180910390a2565b6003546001600160a01b03163314610749576040516282b42960e81b815260040160405180910390fd5b6001600160a01b0383165f90815260208190526040902054600160a01b900460ff1661078857604051632163950f60e01b815260040160405180910390fd5b604051637d3de18f60e11b815263ffffffff831660048201525f907f00000000000000000000000000000000000000000000000000000000000000006001600160a01b03169063fa7bc31e906024015f60405180830381865afa1580156107f1573d5f803e3d5ffd5b505050506040513d5f823e601f3d908101601f191682016040526108189190810190610eab565b9050806060015161083b576040516227fb4f60ea1b815260040160405180910390fd5b6001600160a01b0384165f90815260016020908152604080832063ffffffff80881685529252822080549092620100009091049091169003610911578054603261ffff199091161781556001600160a01b0385165f8181526002602090815260408083208054600181810183559185528385206008820401805460079092166004026101000a63ffffffff818102199093168c84169190910217905594845291839052822001805490921691906108f183610fd0565b91906101000a81548163ffffffff021916908363ffffffff160217905550505b805462010000900463ffffffff1681600261092b83610fd0565b91906101000a81548163ffffffff021916908363ffffffff16021790555050821561098b578054600160301b900463ffffffff1681600661096b83610fd0565b91906101000a81548163ffffffff021916908363ffffffff160217905550505b805467ffffffffffffffff60501b1916600160501b426001600160401b031602178155604051831515815263ffffffff8516906001600160a01b038716907f4c03bc530c33de426a271cb46728bd7eba902b7e0eea53096c7d35b36d01b6489060200160405180910390a35050505050565b6002602052815f5260405f208181548110610a16575f80fd5b905f5260205f209060089182820401919006600402915091509054906101000a900463ffffffff1681565b6001600160a01b0382165f90815260016020908152604080832063ffffffff85811685529083528184208251608081018452905461ffff811682526201000081048316948201859052600160301b810490921692810192909252600160501b90046001600160401b03166060820152908203610ac0575f91505061057f565b60208101516040820151610ad690612710610ff2565b610ae0919061101a565b949350505050565b6003546001600160a01b031615610b11576040516282b42960e81b815260040160405180910390fd5b600380546001600160a01b0319166001600160a01b0392909216919091179055565b6003546001600160a01b03163314610b5d576040516282b42960e81b815260040160405180910390fd5b6103e861ffff82161115610b7057506103e85b603261ffff82161015610b81575060325b6001600160a01b0383165f81815260016020908152604080832063ffffffff871680855290835292819020805461ffff191661ffff871690811790915590519081529192917ff330ead817a300daf2736f4890df21da08f0a0d0f7fbd97732533a97adf2dafc910160405180910390a3505050565b6001600160a01b0381165f90815260026020908152604091829020805483518184028101840190945280845260609392830182828015610c7e57602002820191905f5260205f20905f905b82829054906101000a900463ffffffff1663ffffffff1681526020019060040190602082600301049283019260010382029150808411610c415790505b50505050509050919050565b80356001600160a01b0381168114610ca0575f80fd5b919050565b63ffffffff81168114610cb6575f80fd5b50565b5f8060408385031215610cca575f80fd5b610cd383610c8a565b91506020830135610ce381610ca5565b809150509250929050565b5f60208284031215610cfe575f80fd5b610d0782610c8a565b9392505050565b8015158114610cb6575f80fd5b5f805f60608486031215610d2d575f80fd5b610d3684610c8a565b92506020840135610d4681610ca5565b91506040840135610d5681610d0e565b809150509250925092565b5f8060408385031215610d72575f80fd5b610d7b83610c8a565b946020939093013593505050565b5f805f60608486031215610d9b575f80fd5b610da484610c8a565b92506020840135610db481610ca5565b9150604084013561ffff81168114610d56575f80fd5b602080825282518282018190525f9190848201906040850190845b81811015610e0757835163ffffffff1683529284019291840191600101610de5565b50909695505050505050565b634e487b7160e01b5f52604160045260245ffd5b60405160a081016001600160401b0381118282101715610e4957610e49610e13565b60405290565b604051601f8201601f191681016001600160401b0381118282101715610e7757610e77610e13565b604052919050565b8051610ca081610ca5565b8051610ca081610d0e565b80516001600160401b0381168114610ca0575f80fd5b5f6020808385031215610ebc575f80fd5b82516001600160401b0380821115610ed2575f80fd5b9084019060a08287031215610ee5575f80fd5b610eed610e27565b8251610ef881610ca5565b81528284015182811115610f0a575f80fd5b8301601f81018813610f1a575f80fd5b805183811115610f2c57610f2c610e13565b610f3e601f8201601f19168701610e4f565b93508084528886828401011115610f53575f80fd5b5f5b81811015610f70578281018701518582018801528601610f55565b505f86828601015250508184820152610f8b60408401610e7f565b6040820152610f9c60608401610e8a565b6060820152610fad60808401610e95565b60808201529695505050505050565b634e487b7160e01b5f52601160045260245ffd5b5f63ffffffff808316818103610fe857610fe8610fbc565b6001019392505050565b63ffffffff81811683821602808216919082811461101257611012610fbc565b505092915050565b5f63ffffffff8084168061103c57634e487b7160e01b5f52601260045260245ffd5b9216919091049291505056fea26469706673582212201914bfefbcf5697e615af7406534fff7410da7cb00409c2adda97f84c28915a964736f6c63430008180033","linkReferences":{}},"methodIdentifiers":{"INITIAL_SCORE()":"de330373","MAX_SCORE()":"27ff6223","MIN_SCORE()":"40b89270","getAccuracy(address,uint32)":"5c40be59","getUserExpertise(address,uint32)":"17c909e3","getUserProfile(address)":"987ee156","getUserScore(address,uint32)":"389e5bed","getUserTopics(address)":"9425b741","isRegistered(address)":"c3c5a547","recordChallengeAttempt(address,uint32,bool)":"4f762fc3","registerUser()":"4d3820eb","reputationEngine()":"c3f677ef","setReputationEngine(address)":"6bb5090c","topicRegistry()":"5055735b","updateExpertiseScore(address,uint32,uint16)":"90635989","userExpertise(address,uint32)":"fb503eeb","userProfiles(address)":"332d56d7","userTopics(address,uint256)":"509a9ca6"},"id":23}