{"abi":[{"type":"constructor","inputs":[{"name":"_userContract","type":"address","internalType":"address"},{"name":"_reputationEngine","type":"address","internalType":"address"},{"name":"_topicRegistry","type":"address","internalType":"address"}],"stateMutability":"nonpayable"},{"type":"function","name":"closePoll","inputs":[{"name":"pollId","type":"uint64","internalType":"uint64"}],"outputs":[],"stateMutability":"nonpayable"},{"type":"function","name":"createPoll","inputs":[{"name":"topicId","type":"uint32","internalType":"uint32"},{"name":"question","type":"string","internalType":"string"},{"name":"options","type":"string[]","internalType":"string[]"},{"name":"durationInDays","type":"uint64","internalType":"uint64"}],"outputs":[{"name":"","type":"uint64","internalType":"uint64"}],"stateMutability":"nonpayable"},{"type":"function","name":"finalizePoll","inputs":[{"name":"pollId","type":"uint64","internalType":"uint64"}],"outputs":[],"stateMutability":"nonpayable"},{"type":"function","name":"getPoll","inputs":[{"name":"pollId","type":"uint64","internalType":"uint64"}],"outputs":[{"name":"","type":"tuple","internalType":"struct Poll.PollData","components":[{"name":"id","type":"uint64","internalType":"uint64"},{"name":"creator","type":"address","internalType":"address"},{"name":"topicId","type":"uint32","internalType":"uint32"},{"name":"question","type":"string","internalType":"string"},{"name":"questionHash","type":"bytes32","internalType":"bytes32"},{"name":"createdAt","type":"uint64","internalType":"uint64"},{"name":"endTime","type":"uint64","internalType":"uint64"},{"name":"status","type":"uint8","internalType":"enum Poll.PollStatus"},{"name":"optionCount","type":"uint8","internalType":"uint8"},{"name":"totalVoters","type":"uint32","internalType":"uint32"}]}],"stateMutability":"view"},{"type":"function","name":"getPollOption","inputs":[{"name":"pollId","type":"uint64","internalType":"uint64"},{"name":"optionId","type":"uint8","internalType":"uint8"}],"outputs":[{"name":"","type":"tuple","internalType":"struct Poll.PollOption","components":[{"name":"optionId","type":"uint8","internalType":"uint8"},{"name":"optionText","type":"string","internalType":"string"},{"name":"totalWeight","type":"uint256","internalType":"uint256"},{"name":"voteCount","type":"uint32","internalType":"uint32"}]}],"stateMutability":"view"},{"type":"function","name":"getPollOptions","inputs":[{"name":"pollId","type":"uint64","internalType":"uint64"}],"outputs":[{"name":"","type":"tuple[]","internalType":"struct Poll.PollOption[]","components":[{"name":"optionId","type":"uint8","internalType":"uint8"},{"name":"optionText","type":"string","internalType":"string"},{"name":"totalWeight","type":"uint256","internalType":"uint256"},{"name":"voteCount","type":"uint32","internalType":"uint32"}]}],"stateMutability":"view"},{"type":"function","name":"getPollResults","inputs":[{"name":"pollId","type":"uint64","internalType":"uint64"}],"outputs":[{"name":"","type":"tuple","internalType":"struct Poll.PollResults","components":[{"name":"pollId","type":"uint64","internalType":"uint64"},{"name":"winningOption","type":"uint8","internalType":"uint8"},{"name":"totalWeight","type":"uint256","internalType":"uint256"},{"name":"optionWeights","type":"uint256[]","internalType":"uint256[]"},{"name":"optionVoteCounts","type":"uint32[]","internalType":"uint32[]"}]}],"stateMutability":"view"},{"type":"function","name":"getTopicPolls","inputs":[{"name":"topicId","type":"uint32","internalType":"uint32"}],"outputs":[{"name":"","type":"uint64[]","internalType":"uint64[]"}],"stateMutability":"view"},{"type":"function","name":"getUserCreatedPolls","inputs":[{"name":"user","type":"address","internalType":"address"}],"outputs":[{"name":"","type":"uint64[]","internalType":"uint64[]"}],"stateMutability":"view"},{"type":"function","name":"getUserVote","inputs":[{"name":"pollId","type":"uint64","internalType":"uint64"},{"name":"voter","type":"address","internalType":"address"}],"outputs":[{"name":"","type":"tuple","internalType":"struct Poll.Vote","components":[{"name":"voter","type":"address","internalType":"address"},{"name":"pollId","type":"uint64","internalType":"uint64"},{"name":"selectedOption","type":"uint8","internalType":"uint8"},{"name":"weight","type":"uint256","internalType":"uint256"},{"name":"votedAt","type":"uint64","internalType":"uint64"}]}],"stateMutability":"view"},{"type":"function","name":"getUserVotedPolls","inputs":[{"name":"user","type":"address","internalType":"address"}],"outputs":[{"name":"","type":"uint64[]","internalType":"uint64[]"}],"stateMutability":"view"},{"type":"function","name":"getWeightedPercentages","inputs":[{"name":"pollId","type":"uint64","internalType":"uint64"}],"outputs":[{"name":"","type":"uint256[]","internalType":"uint256[]"}],"stateMutability":"view"},{"type":"function","name":"isPollActive","inputs":[{"name":"pollId","type":"uint64","internalType":"uint64"}],"outputs":[{"name":"","type":"bool","internalType":"bool"}],"stateMutability":"view"},{"type":"function","name":"pollCount","inputs":[],"outputs":[{"name":"","type":"uint64","internalType":"uint64"}],"stateMutability":"view"},{"type":"function","name":"pollOptions","inputs":[{"name":"","type":"uint64","internalType":"uint64"},{"name":"","type":"uint8","internalType":"uint8"}],"outputs":[{"name":"optionId","type":"uint8","internalType":"uint8"},{"name":"optionText","type":"string","internalType":"string"},{"name":"totalWeight","type":"uint256","internalType":"uint256"},{"name":"voteCount","type":"uint32","internalType":"uint32"}],"stateMutability":"view"},{"type":"function","name":"polls","inputs":[{"name":"","type":"uint64","internalType":"uint64"}],"outputs":[{"name":"id","type":"uint64","internalType":"uint64"},{"name":"creator","type":"address","internalType":"address"},{"name":"topicId","type":"uint32","internalType":"uint32"},{"name":"question","type":"string","internalType":"string"},{"name":"questionHash","type":"bytes32","internalType":"bytes32"},{"name":"createdAt","type":"uint64","internalType":"uint64"},{"name":"endTime","type":"uint64","internalType":"uint64"},{"name":"status","type":"uint8","internalType":"enum Poll.PollStatus"},{"name":"optionCount","type":"uint8","internalType":"uint8"},{"name":"totalVoters","type":"uint32","internalType":"uint32"}],"stateMutability":"view"},{"type":"function","name":"reputationEngine","inputs":[],"outputs":[{"name":"","type":"address","internalType":"contract ReputationEngine"}],"stateMutability":"view"},{"type":"function","name":"topicPolls","inputs":[{"name":"","type":"uint32","internalType":"uint32"},{"name":"","type":"uint256","internalType":"uint256"}],"outputs":[{"name":"","type":"uint64","internalType":"uint64"}],"stateMutability":"view"},{"type":"function","name":"topicRegistry","inputs":[],"outputs":[{"name":"","type":"address","internalType":"contract TopicRegistry"}],"stateMutability":"view"},{"type":"function","name":"userContract","inputs":[],"outputs":[{"name":"","type":"address","internalType":"contract User"}],"stateMutability":"view"},{"type":"function","name":"userPolls","inputs":[{"name":"","type":"address","internalType":"address"},{"name":"","type":"uint256","internalType":"uint256"}],"outputs":[{"name":"","type":"uint64","internalType":"uint64"}],"stateMutability":"view"},{"type":"function","name":"userVotes","inputs":[{"name":"","type":"address","internalType":"address"},{"name":"","type":"uint256","internalType":"uint256"}],"outputs":[{"name":"","type":"uint64","internalType":"uint64"}],"stateMutability":"view"},{"type":"function","name":"vote","inputs":[{"name":"pollId","type":"uint64","internalType":"uint64"},{"name":"optionId","type":"uint8","internalType":"uint8"}],"outputs":[],"stateMutability":"nonpayable"},{"type":"function","name":"votes","inputs":[{"name":"","type":"uint64","internalType":"uint64"},{"name":"","type":"address","internalType":"address"}],"outputs":[{"name":"voter","type":"address","internalType":"address"},{"name":"pollId","type":"uint64","internalType":"uint64"},{"name":"selectedOption","type":"uint8","internalType":"uint8"},{"name":"weight","type":"uint256","internalType":"uint256"},{"name":"votedAt","type":"uint64","internalType":"uint64"}],"stateMutability":"view"},{"type":"event","name":"PollClosed","inputs":[{"name":"pollId","type":"uint64","indexed":true,"internalType":"uint64"}],"anonymous":false},{"type":"event","name":"PollCreated","inputs":[{"name":"pollId","type":"uint64","indexed":true,"internalType":"uint64"},{"name":"creator","type":"address","indexed":true,"internalType":"address"},{"name":"topicId","type":"uint32","indexed":true,"internalType":"uint32"},{"name":"question","type":"string","indexed":false,"internalType":"string"},{"name":"endTime","type":"uint64","indexed":false,"internalType":"uint64"}],"anonymous":false},{"type":"event","name":"PollFinalized","inputs":[{"name":"pollId","type":"uint64","indexed":true,"internalType":"uint64"},{"name":"winningOption","type":"uint8","indexed":false,"internalType":"uint8"}],"anonymous":false},{"type":"event","name":"VoteCast","inputs":[{"name":"pollId","type":"uint64","indexed":true,"internalType":"uint64"},{"name":"voter","type":"address","indexed":true,"internalType":"address"},{"name":"optionId","type":"uint8","indexed":false,"internalType":"uint8"},{"name":"weight","type":"uint256","indexed":false,"internalType":"uint256"}],"anonymous":false},{"type":"error","name":"AlreadyVoted","inputs":[]},{"type":"error","name":"InvalidEndTime","inputs":[]},{"type":"error","name":"InvalidOption","inputs":[]},{"type":"error","name":"InvalidTopic","inputs":[]},{"type":"error","name":"PollAlreadyClosed","inputs":[]},{"type":"error","name":"PollNotActive","inputs":[]},{"type":"error","name":"PollNotEnded","inputs":[]},{"type":"error","name":"PollNotFound","inputs":[]},{"type":"error","name":"TooFewOptions","inputs":[]},{"type":"error","name":"TooManyOptions","inputs":[]},{"type":"error","name":"Unauthorized","inputs":[]},{"type":"error","name":"UserNotRegistered","inputs":[]}],"bytecode":{"object":"0x60e060405234801562000010575f80fd5b50604051620032673803806200326783398101604081905262000033916200007d565b6001600160a01b0392831660805290821660a0521660c052600680546001600160401b0319169055620000c4565b80516001600160a01b038116811462000078575f80fd5b919050565b5f805f6060848603121562000090575f80fd5b6200009b8462000061565b9250620000ab6020850162000061565b9150620000bb6040850162000061565b90509250925092565b60805160a05160c05161315c6200010b5f395f818161030001526116ce01525f81816104970152611e2f01525f81816102c1015281816115b60152611cfe015261315c5ff3fe608060405234801561000f575f80fd5b5060043610610153575f3560e01c80638b3511f7116100bf578063c0e47ef911610079578063c0e47ef91461046c578063c2eb2d8c1461047f578063c3f677ef14610492578063cb034a09146104b9578063d0598137146104d9578063d78c0363146104ec575f80fd5b80638b3511f71461036b5780639207891d1461037e57806396248ffd146103915780639ccd868a146103a6578063a060c2aa146103b9578063b040d16614610459575f80fd5b80633b9cc853116101105780633b9cc853146102715780633c9066af146102915780635000596b146102bc5780635055735b146102fb57806370a9b3fd1461032257806375bd715514610342575f80fd5b80630cf91c1a1461015757806312347294146101cb578063157bd75d146101eb5780632eb178fa1461020b5780632fd3b5891461022e578063355589f214610251575b5f80fd5b61016a61016536600461265f565b6104ff565b6040516101c2919081516001600160a01b031681526020808301516001600160401b039081169183019190915260408084015160ff169083015260608084015190830152608092830151169181019190915260a00190565b60405180910390f35b6101de6101d9366004612692565b6105a3565b6040516101c291906126ab565b6101fe6101f93660046126f7565b61063d565b6040516101c29190612793565b61021e6102193660046126f7565b610843565b60405190151581526020016101c2565b61024161023c366004612872565b6109f0565b6040516101c294939291906128ae565b61026461025f3660046126f7565b610ab2565b6040516101c29190612920565b61028461027f3660046126f7565b610ed7565b6040516101c291906129b6565b6102a461029f3660046129c8565b6111ad565b6040516001600160401b0390911681526020016101c2565b6102e37f000000000000000000000000000000000000000000000000000000000000000081565b6040516001600160a01b0390911681526020016101c2565b6102e37f000000000000000000000000000000000000000000000000000000000000000081565b610335610330366004612872565b6111f4565b6040516101c29190612a37565b6103556103503660046126f7565b611314565b6040516101c29a99989796959493929190612a49565b6102a46103793660046129c8565b611425565b6006546102a4906001600160401b031681565b6103a461039f3660046126f7565b61143e565b005b6102a46103b4366004612b29565b61159f565b6104196103c736600461265f565b600260208181525f938452604080852090915291835291208054600182015491909201546001600160a01b03831692600160a01b81046001600160401b0390811693600160e01b90920460ff16921685565b604080516001600160a01b0390961686526001600160401b03948516602087015260ff90931692850192909252606084015216608082015260a0016101c2565b6103a4610467366004612872565b611c3a565b6103a461047a3660046126f7565b6120bf565b6101de61048d366004612692565b6121d7565b6102e37f000000000000000000000000000000000000000000000000000000000000000081565b6104cc6104c73660046126f7565b612248565b6040516101c29190612bdf565b6101de6104e7366004612c41565b61259b565b6102a46104fa366004612c5c565b612609565b6040805160a0810182525f80825260208201819052918101829052606081018290526080810191909152506001600160401b038281165f9081526002602081815260408084206001600160a01b03878116865290835293819020815160a08101835281549586168152600160a01b8604871693810193909352600160e01b90940460ff16908201526001830154606082015291015490911660808201525b92915050565b6001600160a01b0381165f9081526004602090815260409182902080548351818402810184019094528084526060939283018282801561063157602002820191905f5260205f20905f905b82829054906101000a90046001600160401b03166001600160401b0316815260200190600801906020826007010492830192600103820291508084116105ee5790505b50505050509050919050565b60408051610140810182525f808252602082018190529181018290526060808201526080810182905260a0810182905260c0810182905260e0810182905261010081018290526101208101919091526001600160401b038083165f9081526020819052604081205490911690036106c757604051633e75bf7b60e21b815260040160405180910390fd5b6001600160401b038281165f908152602081815260409182902082516101408101845281549485168152600160401b85046001600160a01b031692810192909252600160e01b90930463ffffffff169181019190915260018201805491929160608401919061073590612c78565b80601f016020809104026020016040519081016040528092919081815260200182805461076190612c78565b80156107ac5780601f10610783576101008083540402835291602001916107ac565b820191905f5260205f20905b81548152906001019060200180831161078f57829003601f168201915b5050509183525050600282810154602083015260038301546001600160401b038082166040850152600160401b8204166060840152608090920191600160801b900460ff16908111156108015761080161275f565b60028111156108125761081261275f565b815260039190910154600160881b810460ff166020830152600160901b900463ffffffff1660409091015292915050565b6001600160401b038181165f9081526020818152604080832081516101408101835281549586168152600160401b86046001600160a01b031693810193909352600160e01b90940463ffffffff169082015260018301805492938493909160608401916108af90612c78565b80601f01602080910402602001604051908101604052809291908181526020018280546108db90612c78565b80156109265780601f106108fd57610100808354040283529160200191610926565b820191905f5260205f20905b81548152906001019060200180831161090957829003601f168201915b5050509183525050600282810154602083015260038301546001600160401b038082166040850152600160401b8204166060840152608090920191600160801b900460ff169081111561097b5761097b61275f565b600281111561098c5761098c61275f565b815260039190910154600160881b810460ff166020830152600160901b900463ffffffff1660409091015290505f8160e0015160028111156109d0576109d061275f565b1480156109e957508060c001516001600160401b031642105b9392505050565b600160208181525f938452604080852090915291835291208054918101805460ff90931692610a1e90612c78565b80601f0160208091040260200160405190810160405280929190818152602001828054610a4a90612c78565b8015610a955780601f10610a6c57610100808354040283529160200191610a95565b820191905f5260205f20905b815481529060010190602001808311610a7857829003601f168201915b50505050600283015460039093015491929163ffffffff16905084565b6040805160a0810182525f8082526020820181905291810191909152606080820181905260808201526001600160401b038281165f9081526020818152604080832081516101408101835281549586168152600160401b86046001600160a01b031693810193909352600160e01b90940463ffffffff169082015260018301805492939192606084019190610b4690612c78565b80601f0160208091040260200160405190810160405280929190818152602001828054610b7290612c78565b8015610bbd5780601f10610b9457610100808354040283529160200191610bbd565b820191905f5260205f20905b815481529060010190602001808311610ba057829003601f168201915b5050509183525050600282810154602083015260038301546001600160401b038082166040850152600160401b8204166060840152608090920191600160801b900460ff1690811115610c1257610c1261275f565b6002811115610c2357610c2361275f565b815260039190910154600160881b810460ff166020830152600160901b900463ffffffff1660409091015280519091506001600160401b03165f03610c7b57604051633e75bf7b60e21b815260040160405180910390fd5b5f81610100015160ff166001600160401b03811115610c9c57610c9c612cb0565b604051908082528060200260200182016040528015610cc5578160200160208202803683370190505b5090505f82610100015160ff166001600160401b03811115610ce957610ce9612cb0565b604051908082528060200260200182016040528015610d12578160200160208202803683370190505b5090505f805f805b86610100015160ff168160ff161015610e9d576001600160401b0389165f90815260016020818152604080842060ff8087168652908352818520825160808101909352805490911682529283018054919392840191610d7890612c78565b80601f0160208091040260200160405190810160405280929190818152602001828054610da490612c78565b8015610def5780601f10610dc657610100808354040283529160200191610def565b820191905f5260205f20905b815481529060010190602001808311610dd257829003601f168201915b50505091835250506002820154602082015260039091015463ffffffff16604091820152810151885191925090889060ff8516908110610e3157610e31612cc4565b6020026020010181815250508060600151868360ff1681518110610e5757610e57612cc4565b63ffffffff909216602092830291909101909101526040810151610e7b9086612cec565b94508281604001511115610e9457806040015192508193505b50600101610d1a565b50506040805160a0810182526001600160401b03909816885260ff9091166020880152860152606085019190915260808401525090919050565b6001600160401b038181165f9081526020818152604080832081516101408101835281549586168152600160401b86046001600160a01b031693810193909352600160e01b90940463ffffffff16908201526001830180546060949185840191610f4090612c78565b80601f0160208091040260200160405190810160405280929190818152602001828054610f6c90612c78565b8015610fb75780601f10610f8e57610100808354040283529160200191610fb7565b820191905f5260205f20905b815481529060010190602001808311610f9a57829003601f168201915b5050509183525050600282810154602083015260038301546001600160401b038082166040850152600160401b8204166060840152608090920191600160801b900460ff169081111561100c5761100c61275f565b600281111561101d5761101d61275f565b815260039190910154600160881b810460ff166020830152600160901b900463ffffffff1660409091015280519091506001600160401b03165f0361107557604051633e75bf7b60e21b815260040160405180910390fd5b5f81610100015160ff166001600160401b0381111561109657611096612cb0565b6040519080825280602002602001820160405280156110bf578160200160208202803683370190505b5090505f805b83610100015160ff168160ff161015611115576001600160401b0386165f90815260016020908152604080832060ff8516845290915290206002015461110b9083612cec565b91506001016110c5565b50805f0361112557509392505050565b5f5b83610100015160ff168160ff1610156111a3576001600160401b0386165f90815260016020908152604080832060ff85168452909152902060020154829061117190612710612cff565b61117b9190612d16565b838260ff168151811061119057611190612cc4565b6020908102919091010152600101611127565b5090949350505050565b6003602052815f5260405f2081815481106111c6575f80fd5b905f5260205f209060049182820401919006600802915091509054906101000a90046001600160401b031681565b61122560405180608001604052805f60ff168152602001606081526020015f81526020015f63ffffffff1681525090565b6001600160401b0383165f90815260016020818152604080842060ff8088168652908352938190208151608081019092528054909416815291830180549293929184019161127290612c78565b80601f016020809104026020016040519081016040528092919081815260200182805461129e90612c78565b80156112e95780601f106112c0576101008083540402835291602001916112e9565b820191905f5260205f20905b8154815290600101906020018083116112cc57829003601f168201915b50505091835250506002820154602082015260039091015463ffffffff166040909101529392505050565b5f60208190529081526040902080546001820180546001600160401b03831693600160401b84046001600160a01b031693600160e01b900463ffffffff1692909161135e90612c78565b80601f016020809104026020016040519081016040528092919081815260200182805461138a90612c78565b80156113d55780601f106113ac576101008083540402835291602001916113d5565b820191905f5260205f20905b8154815290600101906020018083116113b857829003601f168201915b50505060028401546003909401549293926001600160401b038082169350600160401b820416915060ff600160801b8204811691600160881b81049091169063ffffffff600160901b909104168a565b6004602052815f5260405f2081815481106111c6575f80fd5b6001600160401b038082165f9081526020819052604081208054909216900361147a57604051633e75bf7b60e21b815260040160405180910390fd5b60016003820154600160801b900460ff16600281111561149c5761149c61275f565b146114ba576040516327fd0eed60e11b815260040160405180910390fd5b5f805f5b600384015460ff600160881b90910481169082161015611540576001600160401b0385165f90815260016020908152604080832060ff85168452909152902060020154821015611538576001600160401b0385165f90815260016020908152604080832060ff851684529091529020600201549092509050815b6001016114be565b50600383018054600160811b60ff60801b1990911617905560405160ff831681526001600160401b038516907fb4b66bc17add9b49deaef829594a0e84842fe1ec03b8d608f3dabd9f84ff15d09060200160405180910390a250505050565b60405163c3c5a54760e01b81523360048201525f907f00000000000000000000000000000000000000000000000000000000000000006001600160a01b03169063c3c5a54790602401602060405180830381865afa158015611603573d5f803e3d5ffd5b505050506040513d601f19601f820116820180604052508101906116279190612d44565b61164457604051632163950f60e01b815260040160405180910390fd5b60028310156116665760405163742817d960e01b815260040160405180910390fd5b600a83111561168857604051630de5482160e11b815260040160405180910390fd5b816001600160401b03165f036116b1576040516338af65f760e01b815260040160405180910390fd5b604051637d3de18f60e11b815263ffffffff881660048201525f907f00000000000000000000000000000000000000000000000000000000000000006001600160a01b03169063fa7bc31e906024015f60405180830381865afa15801561171a573d5f803e3d5ffd5b505050506040513d5f823e601f3d908101601f191682016040526117419190810190612dcb565b90508060600151611765576040516369585f9960e01b815260040160405180910390fd5b600680546001600160401b0316905f61177d83612ec6565b82546101009290920a6001600160401b038181021990931691831602179091556006541690505f6117b18562015180612eeb565b6117bb9042612f16565b9050604051806101400160405280836001600160401b03168152602001336001600160a01b031681526020018b63ffffffff1681526020018a8a8080601f0160208091040260200160405190810160405280939291908181526020018383808284375f92019190915250505090825250604051602091820191611842918d918d9101612f3d565b604051602081830303815290604052805190602001208152602001426001600160401b03168152602001826001600160401b031681526020015f600281111561188d5761188d61275f565b815260ff88166020808301919091525f60409283018190526001600160401b0380871682528183529083902084518154938601519486015163ffffffff16600160e01b026001600160e01b036001600160a01b03909616600160401b026001600160e01b0319909516919093161792909217929092169190911781556060820151600182019061191d9082612f98565b50608082015160028083019190915560a083015160038301805460c08601516001600160401b03908116600160401b026fffffffffffffffffffffffffffffffff199092169316929092179190911780825560e08501519260ff60801b1990911690600160801b9084908111156119965761199661275f565b0217905550610100820151600390910180546101209093015163ffffffff16600160901b0263ffffffff60901b1960ff909316600160881b029290921664ffffffffff60881b19909316929092171790555f5b60ff8116871115611af65760405180608001604052808260ff16815260200189898460ff16818110611a1d57611a1d612cc4565b9050602002810190611a2f9190613057565b8080601f0160208091040260200160405190810160405280939291908181526020018383808284375f920182905250938552505050602080830182905260409283018290526001600160401b0387168252600180825283832060ff8781168552908352939092208451815460ff1916941693909317835583015190820190611ab79082612f98565b50604082015160028201556060909101516003909101805463ffffffff191663ffffffff90921691909117905580611aee81613099565b9150506119e9565b5060035f336001600160a01b03166001600160a01b031681526020019081526020015f2082908060018154018082558091505060019003905f5260205f2090600491828204019190066008029091909190916101000a8154816001600160401b0302191690836001600160401b0316021790555060055f8b63ffffffff1663ffffffff1681526020019081526020015f2082908060018154018082558091505060019003905f5260205f2090600491828204019190066008029091909190916101000a8154816001600160401b0302191690836001600160401b031602179055508963ffffffff16336001600160a01b0316836001600160401b03167fd42bc7b655581a8702526a1c7d843d90ccd74c4645cacc9719fd8894cc4d27d38c8c86604051611c25939291906130b7565b60405180910390a45098975050505050505050565b6001600160401b038083165f90815260208190526040812080549092169003611c7657604051633e75bf7b60e21b815260040160405180910390fd5b5f6003820154600160801b900460ff166002811115611c9757611c9761275f565b14611cb5576040516327fd0eed60e11b815260040160405180910390fd5b6003810154600160401b90046001600160401b03164210611ce9576040516327fd0eed60e11b815260040160405180910390fd5b60405163c3c5a54760e01b81523360048201527f00000000000000000000000000000000000000000000000000000000000000006001600160a01b03169063c3c5a54790602401602060405180830381865afa158015611d4b573d5f803e3d5ffd5b505050506040513d601f19601f82011682018060405250810190611d6f9190612d44565b611d8c57604051632163950f60e01b815260040160405180910390fd5b6001600160401b038084165f90815260026020818152604080842033855290915290912001541615611dd157604051637c9a1cf960e01b815260040160405180910390fd5b600381015460ff600160881b909104811690831610611e0357604051632a71953160e01b815260040160405180910390fd5b805460405163ca1dc30b60e01b8152336004820152600160e01b90910463ffffffff1660248201525f907f00000000000000000000000000000000000000000000000000000000000000006001600160a01b03169063ca1dc30b90604401602060405180830381865afa158015611e7c573d5f803e3d5ffd5b505050506040513d601f19601f82011682018060405250810190611ea091906130f7565b6040805160a081018252338082526001600160401b03808916602080850182815260ff808c16878901818152606089018b815242881660808b019081525f88815260028089528d82209b82529a88528c81209b518c5497519451909616600160e01b0260ff60e01b19948b16600160a01b026001600160e01b03199098166001600160a01b039790971696909617969096179290921693909317895591516001808a0191909155915197870180549890961667ffffffffffffffff199098169790971790945591825291825284812093815292905291812090910180549293508392909190611f90908490612cec565b90915550506001600160401b0384165f90815260016020908152604080832060ff871684529091528120600301805463ffffffff1691611fcf8361310e565b91906101000a81548163ffffffff021916908363ffffffff1602179055505081600301601281819054906101000a900463ffffffff16809291906120129061310e565b825463ffffffff91821661010093840a9081029202191617909155335f81815260046020818152604080842080546001810182559085529382902092840490920180546001600160401b038c8116600860039097169690960290970a8581029702191695909517909455805160ff89168152938401869052919350917f0beae5c17bd90dd4f08218c8be881b30a8315ddd5c432803718ff2bf6ce4ee57910160405180910390a350505050565b6001600160401b038082165f908152602081905260408120805490921690036120fb57604051633e75bf7b60e21b815260040160405180910390fd5b5f6003820154600160801b900460ff16600281111561211c5761211c61275f565b1461213a57604051639b22ddeb60e01b815260040160405180910390fd5b6003810154600160401b90046001600160401b03164210801561216e57508054600160401b90046001600160a01b03163314155b1561218b576040516282b42960e81b815260040160405180910390fd5b60038101805460ff60801b1916600160801b1790556040516001600160401b038316907f132bc6cc7b271c7806ab4fc811c96ce8ef6573613cffa607dee7bf437393d005905f90a25050565b6001600160a01b0381165f90815260036020908152604091829020805483518184028101840190945280845260609392830182828015610631575f91825260209182902080546001600160401b031684529082028301929091600891018084116105ee575094979650505050505050565b6001600160401b038181165f9081526020818152604080832081516101408101835281549586168152600160401b86046001600160a01b031693810193909352600160e01b90940463ffffffff169082015260018301805460609491858401916122b190612c78565b80601f01602080910402602001604051908101604052809291908181526020018280546122dd90612c78565b80156123285780601f106122ff57610100808354040283529160200191612328565b820191905f5260205f20905b81548152906001019060200180831161230b57829003601f168201915b5050509183525050600282810154602083015260038301546001600160401b038082166040850152600160401b8204166060840152608090920191600160801b900460ff169081111561237d5761237d61275f565b600281111561238e5761238e61275f565b815260039190910154600160881b810460ff166020830152600160901b900463ffffffff1660409091015280519091506001600160401b03165f036123e657604051633e75bf7b60e21b815260040160405180910390fd5b5f81610100015160ff166001600160401b0381111561240757612407612cb0565b60405190808252806020026020018201604052801561246957816020015b61245660405180608001604052805f60ff168152602001606081526020015f81526020015f63ffffffff1681525090565b8152602001906001900390816124255790505b5090505f5b82610100015160ff168160ff161015612593576001600160401b0385165f90815260016020818152604080842060ff808716865290835293819020815160808101909252805490941681529183018054929392918401916124ce90612c78565b80601f01602080910402602001604051908101604052809291908181526020018280546124fa90612c78565b80156125455780601f1061251c57610100808354040283529160200191612545565b820191905f5260205f20905b81548152906001019060200180831161252857829003601f168201915b50505091835250506002820154602082015260039091015463ffffffff166040909101528251839060ff841690811061258057612580612cc4565b602090810291909101015260010161246e565b509392505050565b63ffffffff81165f90815260056020908152604091829020805483518184028101840190945280845260609392830182828015610631575f91825260209182902080546001600160401b031684529082028301929091600891018084116105ee575094979650505050505050565b6005602052815f5260405f2081815481106111c6575f80fd5b6001600160401b0381168114612636575f80fd5b50565b803561264481612622565b919050565b80356001600160a01b0381168114612644575f80fd5b5f8060408385031215612670575f80fd5b823561267b81612622565b915061268960208401612649565b90509250929050565b5f602082840312156126a2575f80fd5b6109e982612649565b602080825282518282018190525f9190848201906040850190845b818110156126eb5783516001600160401b0316835292840192918401916001016126c6565b50909695505050505050565b5f60208284031215612707575f80fd5b81356109e981612622565b5f5b8381101561272c578181015183820152602001612714565b50505f910152565b5f815180845261274b816020860160208601612712565b601f01601f19169290920160200192915050565b634e487b7160e01b5f52602160045260245ffd5b6003811061278f57634e487b7160e01b5f52602160045260245ffd5b9052565b602081526127ad6020820183516001600160401b03169052565b5f60208301516127c860408401826001600160a01b03169052565b50604083015163ffffffff811660608401525060608301516101408060808501526127f7610160850183612734565b9150608085015160a085015260a085015161281d60c08601826001600160401b03169052565b5060c08501516001600160401b03811660e08601525060e085015161010061284781870183612773565b860151905061012061285d8682018360ff169052565b86015163ffffffff81168387015290506111a3565b5f8060408385031215612883575f80fd5b823561288e81612622565b9150602083013560ff811681146128a3575f80fd5b809150509250929050565b60ff85168152608060208201525f6128c96080830186612734565b905083604083015263ffffffff8316606083015295945050505050565b5f815180845260208085019450602084015f5b83811015612915578151875295820195908201906001016128f9565b509495945050505050565b5f60208083526001600160401b038451168184015260ff8185015116604084015260408401516060840152606084015160a0608085015261296460c08501826128e6565b6080860151858203601f190160a0870152805180835290840192505f918401905b808310156129ab57835163ffffffff168252928401926001929092019190840190612985565b509695505050505050565b602081525f6109e960208301846128e6565b5f80604083850312156129d9575f80fd5b6129e283612649565b946020939093013593505050565b60ff81511682525f602082015160806020850152612a116080850182612734565b90506040830151604085015263ffffffff60608401511660608501528091505092915050565b602081525f6109e960208301846129f0565b5f6101406001600160401b03808e16845260018060a01b038d16602085015263ffffffff808d166040860152826060860152612a878386018d612734565b93508a6080860152818a1660a086015281891660c0860152612aac60e0860189612773565b60ff87166101008601528086166101208601525050509b9a5050505050505050505050565b63ffffffff81168114612636575f80fd5b5f8083601f840112612af2575f80fd5b5081356001600160401b03811115612b08575f80fd5b6020830191508360208260051b8501011115612b22575f80fd5b9250929050565b5f805f805f8060808789031215612b3e575f80fd5b8635612b4981612ad1565b955060208701356001600160401b0380821115612b64575f80fd5b818901915089601f830112612b77575f80fd5b813581811115612b85575f80fd5b8a6020828501011115612b96575f80fd5b602083019750809650506040890135915080821115612bb3575f80fd5b50612bc089828a01612ae2565b9094509250612bd3905060608801612639565b90509295509295509295565b5f60208083016020845280855180835260408601915060408160051b8701019250602087015f5b82811015612c3457603f19888603018452612c228583516129f0565b94509285019290850190600101612c06565b5092979650505050505050565b5f60208284031215612c51575f80fd5b81356109e981612ad1565b5f8060408385031215612c6d575f80fd5b82356129e281612ad1565b600181811c90821680612c8c57607f821691505b602082108103612caa57634e487b7160e01b5f52602260045260245ffd5b50919050565b634e487b7160e01b5f52604160045260245ffd5b634e487b7160e01b5f52603260045260245ffd5b634e487b7160e01b5f52601160045260245ffd5b8082018082111561059d5761059d612cd8565b808202811582820484141761059d5761059d612cd8565b5f82612d3057634e487b7160e01b5f52601260045260245ffd5b500490565b80518015158114612644575f80fd5b5f60208284031215612d54575f80fd5b6109e982612d35565b60405160a081016001600160401b0381118282101715612d7f57612d7f612cb0565b60405290565b604051601f8201601f191681016001600160401b0381118282101715612dad57612dad612cb0565b604052919050565b805161264481612ad1565b805161264481612622565b5f6020808385031215612ddc575f80fd5b82516001600160401b0380821115612df2575f80fd5b9084019060a08287031215612e05575f80fd5b612e0d612d5d565b8251612e1881612ad1565b81528284015182811115612e2a575f80fd5b8301601f81018813612e3a575f80fd5b805183811115612e4c57612e4c612cb0565b612e5e601f8201601f19168701612d85565b93508084528886828401011115612e73575f80fd5b612e8281878601888501612712565b50508184820152612e9560408401612db5565b6040820152612ea660608401612d35565b6060820152612eb760808401612dc0565b60808201529695505050505050565b5f6001600160401b03808316818103612ee157612ee1612cd8565b6001019392505050565b6001600160401b03818116838216028082169190828114612f0e57612f0e612cd8565b505092915050565b6001600160401b03818116838216019080821115612f3657612f36612cd8565b5092915050565b818382375f9101908152919050565b601f821115612f9357805f5260205f20601f840160051c81016020851015612f715750805b601f840160051c820191505b81811015612f90575f8155600101612f7d565b50505b505050565b81516001600160401b03811115612fb157612fb1612cb0565b612fc581612fbf8454612c78565b84612f4c565b602080601f831160018114612ff8575f8415612fe15750858301515b5f19600386901b1c1916600185901b17855561304f565b5f85815260208120601f198616915b8281101561302657888601518255948401946001909101908401613007565b508582101561304357878501515f19600388901b60f8161c191681555b505060018460011b0185555b505050505050565b5f808335601e1984360301811261306c575f80fd5b8301803591506001600160401b03821115613085575f80fd5b602001915036819003821315612b22575f80fd5b5f60ff821660ff81036130ae576130ae612cd8565b60010192915050565b60408152826040820152828460608301375f606084830101525f6060601f19601f86011683010190506001600160401b0383166020830152949350505050565b5f60208284031215613107575f80fd5b5051919050565b5f63ffffffff808316818103612ee157612ee1612cd856fea26469706673582212205d2c9908450adb772ec804d60f9828b642258441ffcef41b5c602122c8b90b7564736f6c63430008180033","linkReferences":{}},"methodIdentifiers":{"closePoll(uint64)":"c0e47ef9","createPoll(uint32,string,string[],uint64)":"9ccd868a","finalizePoll(uint64)":"96248ffd","getPoll(uint64)":"157bd75d","getPollOption(uint64,uint8)":"70a9b3fd","getPollOptions(uint64)":"cb034a09","getPollResults(uint64)":"355589f2","getTopicPolls(uint32)":"d0598137","getUserCreatedPolls(address)":"c2eb2d8c","getUserVote(uint64,address)":"0cf91c1a","getUserVotedPolls(address)":"12347294","getWeightedPercentages(uint64)":"3b9cc853","isPollActive(uint64)":"2eb178fa","pollCount()":"9207891d","pollOptions(uint64,uint8)":"2fd3b589","polls(uint64)":"75bd7155","reputationEngine()":"c3f677ef","topicPolls(uint32,uint256)":"d78c0363","topicRegistry()":"5055735b","userContract()":"5000596b","userPolls(address,uint256)":"3c9066af","userVotes(address,uint256)":"8b3511f7","vote(uint64,uint8)":"b040d166","votes(uint64,address)":"a060c2aa"},"id":20}