{"abi":[{"type":"constructor","inputs":[{"name":"_userContract","type":"address","internalType":"address"},{"name":"_challengeContract","type":"address","internalType":"address"},{"name":"_topicRegistry","type":"address","internalType":"address"}],"stateMutability":"nonpayable"},{"type":"function","name":"ACCURACY_WEIGHT","inputs":[],"outputs":[{"name":"","type":"uint16","internalType":"uint16"}],"stateMutability":"view"},{"type":"function","name":"MAX_SCORE","inputs":[],"outputs":[{"name":"","type":"uint16","internalType":"uint16"}],"stateMutability":"view"},{"type":"function","name":"MID_PERIOD","inputs":[],"outputs":[{"name":"","type":"uint64","internalType":"uint64"}],"stateMutability":"view"},{"type":"function","name":"MIN_SCORE","inputs":[],"outputs":[{"name":"","type":"uint16","internalType":"uint16"}],"stateMutability":"view"},{"type":"function","name":"RECENT_PERIOD","inputs":[],"outputs":[{"name":"","type":"uint64","internalType":"uint64"}],"stateMutability":"view"},{"type":"function","name":"VOLUME_WEIGHT","inputs":[],"outputs":[{"name":"","type":"uint16","internalType":"uint16"}],"stateMutability":"view"},{"type":"function","name":"batchRecalculateScores","inputs":[{"name":"user","type":"address","internalType":"address"},{"name":"topicIds","type":"uint32[]","internalType":"uint32[]"}],"outputs":[],"stateMutability":"nonpayable"},{"type":"function","name":"calculateExpertiseScore","inputs":[{"name":"user","type":"address","internalType":"address"},{"name":"topicId","type":"uint32","internalType":"uint32"}],"outputs":[{"name":"","type":"uint16","internalType":"uint16"}],"stateMutability":"view"},{"type":"function","name":"calculateTimeDecay","inputs":[{"name":"lastActivityTime","type":"uint64","internalType":"uint64"}],"outputs":[{"name":"","type":"uint256","internalType":"uint256"}],"stateMutability":"view"},{"type":"function","name":"calculateVolumeBonus","inputs":[{"name":"totalChallenges","type":"uint32","internalType":"uint32"}],"outputs":[{"name":"","type":"uint256","internalType":"uint256"}],"stateMutability":"pure"},{"type":"function","name":"challengeContract","inputs":[],"outputs":[{"name":"","type":"address","internalType":"contract Challenge"}],"stateMutability":"view"},{"type":"function","name":"getVotingWeight","inputs":[{"name":"user","type":"address","internalType":"address"},{"name":"topicId","type":"uint32","internalType":"uint32"}],"outputs":[{"name":"","type":"uint256","internalType":"uint256"}],"stateMutability":"view"},{"type":"function","name":"previewScoreChange","inputs":[{"name":"user","type":"address","internalType":"address"},{"name":"topicId","type":"uint32","internalType":"uint32"},{"name":"wouldBeCorrect","type":"bool","internalType":"bool"}],"outputs":[{"name":"","type":"uint16","internalType":"uint16"}],"stateMutability":"view"},{"type":"function","name":"processChallengeAttempt","inputs":[{"name":"user","type":"address","internalType":"address"},{"name":"challengeId","type":"uint64","internalType":"uint64"}],"outputs":[],"stateMutability":"nonpayable"},{"type":"function","name":"recalculateScore","inputs":[{"name":"user","type":"address","internalType":"address"},{"name":"topicId","type":"uint32","internalType":"uint32"}],"outputs":[],"stateMutability":"nonpayable"},{"type":"function","name":"topicRegistry","inputs":[],"outputs":[{"name":"","type":"address","internalType":"contract TopicRegistry"}],"stateMutability":"view"},{"type":"function","name":"userContract","inputs":[],"outputs":[{"name":"","type":"address","internalType":"contract User"}],"stateMutability":"view"},{"type":"event","name":"ScoreCalculated","inputs":[{"name":"user","type":"address","indexed":true,"internalType":"address"},{"name":"topicId","type":"uint32","indexed":true,"internalType":"uint32"},{"name":"oldScore","type":"uint16","indexed":false,"internalType":"uint16"},{"name":"newScore","type":"uint16","indexed":false,"internalType":"uint16"}],"anonymous":false},{"type":"error","name":"InvalidInput","inputs":[]},{"type":"error","name":"Unauthorized","inputs":[]}],"bytecode":{"object":"0x60e060405234801562000010575f80fd5b506040516200152c3803806200152c83398101604081905262000033916200006d565b6001600160a01b0392831660805290821660a0521660c052620000b4565b80516001600160a01b038116811462000068575f80fd5b919050565b5f805f6060848603121562000080575f80fd5b6200008b8462000051565b92506200009b6020850162000051565b9150620000ab6040850162000051565b90509250925092565b60805160a05160c0516113f9620001335f395f6101dd01525f8181610177015281816109590152610a1501525f81816101b6015281816102bd01528181610368015281816104330152818161052501528181610655015281816108a501528181610ac801528181610b3501528181610bc80152610ca901526113f95ff3fe608060405234801561000f575f80fd5b5060043610610105575f3560e01c80635ec335201161009e578063be7881e11161006e578063be7881e114610250578063ca1dc30b14610263578063e1dd33d514610276578063eb7e120714610289578063ede535401461029c575f80fd5b80635ec33520146101ff57806390d1c96d14610212578063941e39b6146102255780639a4106e014610246575f80fd5b806340b89270116100d957806340b892701461016a578063438031c3146101725780635000596b146101b15780635055735b146101d8575f80fd5b8062cdf18a1461010957806327ff6223146101315780633842af2d1461014d5780633de308d214610162575b5f80fd5b610113624f1a0081565b60405167ffffffffffffffff90911681526020015b60405180910390f35b61013a6103e881565b60405161ffff9091168152602001610128565b61016061015b366004610ebf565b6102a4565b005b61013a604681565b61013a603281565b6101997f000000000000000000000000000000000000000000000000000000000000000081565b6040516001600160a01b039091168152602001610128565b6101997f000000000000000000000000000000000000000000000000000000000000000081565b6101997f000000000000000000000000000000000000000000000000000000000000000081565b61016061020d366004610ef6565b610426565b61013a610220366004610f84565b610651565b610238610233366004610fe1565b6107f0565b604051908152602001610128565b61011362278d0081565b61023861025e366004610ffc565b610843565b610238610271366004610ebf565b61088c565b610160610284366004611017565b610928565b61013a610297366004610ebf565b610ca5565b61013a601e81565b60405163389e5bed60e01b81525f906001600160a01b037f0000000000000000000000000000000000000000000000000000000000000000169063389e5bed906102f49086908690600401611043565b602060405180830381865afa15801561030f573d5f803e3d5ffd5b505050506040513d601f19601f820116820180604052508101906103339190611078565b90505f6103408484610ca5565b90508061ffff168261ffff161461042057604051639063598960e01b81526001600160a01b037f000000000000000000000000000000000000000000000000000000000000000016906390635989906103a190879087908690600401611091565b5f604051808303815f87803b1580156103b8575f80fd5b505af11580156103ca573d5f803e3d5ffd5b50506040805161ffff80871682528516602082015263ffffffff871693506001600160a01b03881692507f66214a7594e7bb34c7901447891b8538d2c45b2e33dd58448b8d21a5d8599e3f910160405180910390a35b50505050565b5f5b81811015610420575f7f00000000000000000000000000000000000000000000000000000000000000006001600160a01b031663389e5bed86868686818110610473576104736110bc565b90506020020160208101906104889190610ffc565b6040518363ffffffff1660e01b81526004016104a5929190611043565b602060405180830381865afa1580156104c0573d5f803e3d5ffd5b505050506040513d601f19601f820116820180604052508101906104e49190611078565b90505f610512868686868181106104fd576104fd6110bc565b90506020020160208101906102979190610ffc565b90508061ffff168261ffff1614610647577f00000000000000000000000000000000000000000000000000000000000000006001600160a01b0316639063598987878787818110610565576105656110bc565b905060200201602081019061057a9190610ffc565b846040518463ffffffff1660e01b815260040161059993929190611091565b5f604051808303815f87803b1580156105b0575f80fd5b505af11580156105c2573d5f803e3d5ffd5b505050508484848181106105d8576105d86110bc565b90506020020160208101906105ed9190610ffc565b63ffffffff16866001600160a01b03167f66214a7594e7bb34c7901447891b8538d2c45b2e33dd58448b8d21a5d8599e3f848460405161063e92919061ffff92831681529116602082015260400190565b60405180910390a35b5050600101610428565b5f807f00000000000000000000000000000000000000000000000000000000000000006001600160a01b03166317c909e386866040518363ffffffff1660e01b81526004016106a1929190611043565b608060405180830381865afa1580156106bc573d5f803e3d5ffd5b505050506040513d601f19601f820116820180604052508101906106e0919061111c565b90505f816020015160016106f491906111bd565b90505f84610702575f610705565b60015b60ff16836040015161071791906111bd565b90505f8263ffffffff168263ffffffff166103e861073591906111e1565b61073f91906111f8565b90505f61074b84610843565b905060645f8161075c6046866111e1565b61076691906111f8565b90505f6064610776601e866111e1565b61078091906111f8565b90505f6064846107908486611217565b61079a91906111e1565b6107a491906111f8565b905060328110156107c157603299505050505050505050506107e9565b6103e88111156107de576103e899505050505050505050506107e9565b985050505050505050505b9392505050565b5f806107fc834261122a565b905062278d0067ffffffffffffffff8216101561081c5750606492915050565b624f1a0067ffffffffffffffff8216101561083a5750604b92915050565b50603292915050565b5f8163ffffffff165f0361085857505f919050565b5f6108688363ffffffff16610e3a565b61087390600a6111e1565b905060c8811161088357806107e9565b60c89392505050565b60405163389e5bed60e01b81525f906001600160a01b037f0000000000000000000000000000000000000000000000000000000000000000169063389e5bed906108dc9086908690600401611043565b602060405180830381865afa1580156108f7573d5f803e3d5ffd5b505050506040513d601f19601f8201168201806040525081019061091b9190611078565b61ffff1690505b92915050565b6040516315f584bb60e31b81526001600160a01b03838116600483015267ffffffffffffffff831660248301525f917f00000000000000000000000000000000000000000000000000000000000000009091169063afac25d89060440160a060405180830381865afa1580156109a0573d5f803e3d5ffd5b505050506040513d601f19601f820116820180604052508101906109c49190611256565b9050806080015167ffffffffffffffff165f036109f45760405163b4fa3fb360e01b815260040160405180910390fd5b604051634ebedadf60e11b815267ffffffffffffffff831660048201525f907f00000000000000000000000000000000000000000000000000000000000000006001600160a01b031690639d7db5be9060240161014060405180830381865afa158015610a63573d5f803e3d5ffd5b505050506040513d601f19601f82011682018060405250810190610a87919061130b565b60408181015160608501519151634f762fc360e01b81526001600160a01b03888116600483015263ffffffff909216602482015291151560448301529192507f000000000000000000000000000000000000000000000000000000000000000090911690634f762fc3906064015f604051808303815f87803b158015610b0b575f80fd5b505af1158015610b1d573d5f803e3d5ffd5b505050505f610b30858360400151610ca5565b90505f7f00000000000000000000000000000000000000000000000000000000000000006001600160a01b031663389e5bed8785604001516040518363ffffffff1660e01b8152600401610b85929190611043565b602060405180830381865afa158015610ba0573d5f803e3d5ffd5b505050506040513d601f19601f82011682018060405250810190610bc49190611078565b90507f00000000000000000000000000000000000000000000000000000000000000006001600160a01b03166390635989878560400151856040518463ffffffff1660e01b8152600401610c1a93929190611091565b5f604051808303815f87803b158015610c31575f80fd5b505af1158015610c43573d5f803e3d5ffd5b505050604080850151815161ffff80861682528616602082015263ffffffff90911692506001600160a01b038916917f66214a7594e7bb34c7901447891b8538d2c45b2e33dd58448b8d21a5d8599e3f910160405180910390a3505050505050565b5f807f00000000000000000000000000000000000000000000000000000000000000006001600160a01b03166317c909e385856040518363ffffffff1660e01b8152600401610cf5929190611043565b608060405180830381865afa158015610d10573d5f803e3d5ffd5b505050506040513d601f19601f82011682018060405250810190610d34919061111c565b9050806020015163ffffffff165f03610d51576032915050610922565b5f816020015163ffffffff16826040015163ffffffff166103e8610d7591906111e1565b610d7f91906111f8565b90505f610d8f8360200151610843565b90505f610d9f84606001516107f0565b90505f6064610daf6046866111e1565b610db991906111f8565b90505f6064610dc9601e866111e1565b610dd391906111f8565b90505f606484610de38486611217565b610ded91906111e1565b610df791906111f8565b90506032811015610e12576032975050505050505050610922565b6103e8811115610e2d576103e8975050505050505050610922565b9998505050505050505050565b5f815f03610e4957505f919050565b5f6002610e57846001611217565b610e6191906111f8565b9050825b808210156107e9575080600281610e7c81876111f8565b610e869190611217565b610e9091906111f8565b9150610e65565b6001600160a01b0381168114610eab575f80fd5b50565b63ffffffff81168114610eab575f80fd5b5f8060408385031215610ed0575f80fd5b8235610edb81610e97565b91506020830135610eeb81610eae565b809150509250929050565b5f805f60408486031215610f08575f80fd5b8335610f1381610e97565b9250602084013567ffffffffffffffff80821115610f2f575f80fd5b818601915086601f830112610f42575f80fd5b813581811115610f50575f80fd5b8760208260051b8501011115610f64575f80fd5b6020830194508093505050509250925092565b8015158114610eab575f80fd5b5f805f60608486031215610f96575f80fd5b8335610fa181610e97565b92506020840135610fb181610eae565b91506040840135610fc181610f77565b809150509250925092565b67ffffffffffffffff81168114610eab575f80fd5b5f60208284031215610ff1575f80fd5b81356107e981610fcc565b5f6020828403121561100c575f80fd5b81356107e981610eae565b5f8060408385031215611028575f80fd5b823561103381610e97565b91506020830135610eeb81610fcc565b6001600160a01b0392909216825263ffffffff16602082015260400190565b805161ffff81168114611073575f80fd5b919050565b5f60208284031215611088575f80fd5b6107e982611062565b6001600160a01b0393909316835263ffffffff91909116602083015261ffff16604082015260600190565b634e487b7160e01b5f52603260045260245ffd5b604051610140810167ffffffffffffffff8111828210171561110057634e487b7160e01b5f52604160045260245ffd5b60405290565b805161107381610eae565b805161107381610fcc565b5f6080828403121561112c575f80fd5b6040516080810181811067ffffffffffffffff8211171561115b57634e487b7160e01b5f52604160045260245ffd5b60405261116783611062565b8152602083015161117781610eae565b6020820152604083015161118a81610eae565b6040820152606083015161119d81610fcc565b60608201529392505050565b634e487b7160e01b5f52601160045260245ffd5b63ffffffff8181168382160190808211156111da576111da6111a9565b5092915050565b8082028115828204841417610922576109226111a9565b5f8261121257634e487b7160e01b5f52601260045260245ffd5b500490565b80820180821115610922576109226111a9565b67ffffffffffffffff8281168282160390808211156111da576111da6111a9565b805161107381610e97565b5f60a08284031215611266575f80fd5b60405160a0810181811067ffffffffffffffff8211171561129557634e487b7160e01b5f52604160045260245ffd5b60405282516112a381610e97565b815260208301516112b381610fcc565b60208201526040838101519082015260608301516112d081610f77565b606082015260808301516112e381610fcc565b60808201529392505050565b805160048110611073575f80fd5b805160038110611073575f80fd5b5f610140828403121561131c575f80fd5b6113246110d0565b61132d83611111565b815261133b6020840161124b565b602082015261134c60408401611106565b604082015261135d606084016112ef565b606082015261136e608084016112fd565b608082015260a083015160a082015260c083015160c082015261139360e08401611111565b60e08201526101006113a6818501611106565b908201526101206113b8848201611106565b90820152939250505056fea26469706673582212203613bef132c307b938540733c2da1927d081d4ef04a4916d6dc3cf66b4b0594664736f6c63430008180033","linkReferences":{}},"methodIdentifiers":{"ACCURACY_WEIGHT()":"3de308d2","MAX_SCORE()":"27ff6223","MID_PERIOD()":"00cdf18a","MIN_SCORE()":"40b89270","RECENT_PERIOD()":"9a4106e0","VOLUME_WEIGHT()":"ede53540","batchRecalculateScores(address,uint32[])":"5ec33520","calculateExpertiseScore(address,uint32)":"eb7e1207","calculateTimeDecay(uint64)":"941e39b6","calculateVolumeBonus(uint32)":"be7881e1","challengeContract()":"438031c3","getVotingWeight(address,uint32)":"ca1dc30b","previewScoreChange(address,uint32,bool)":"90d1c96d","processChallengeAttempt(address,uint64)":"e1dd33d5","recalculateScore(address,uint32)":"3842af2d","topicRegistry()":"5055735b","userContract()":"5000596b"},"id":21}